{
  "contractName": "FeedbackData",
  "abi": [
    {
      "inputs": [
        {
          "internalType": "string",
          "name": "adminKey",
          "type": "string"
        },
        {
          "internalType": "address",
          "name": "_bhuToken",
          "type": "address"
        }
      ],
      "stateMutability": "nonpayable",
      "type": "constructor"
    },
    {
      "anonymous": false,
      "inputs": [
        {
          "indexed": false,
          "internalType": "address",
          "name": "account",
          "type": "address"
        },
        {
          "indexed": false,
          "internalType": "uint256",
          "name": "balance",
          "type": "uint256"
        }
      ],
      "name": "balanceUpdated",
      "type": "event"
    },
    {
      "anonymous": false,
      "inputs": [
        {
          "indexed": false,
          "internalType": "string",
          "name": "email",
          "type": "string"
        },
        {
          "indexed": false,
          "internalType": "uint256",
          "name": "year",
          "type": "uint256"
        },
        {
          "components": [
            {
              "internalType": "string",
              "name": "name",
              "type": "string"
            },
            {
              "internalType": "string",
              "name": "code",
              "type": "string"
            },
            {
              "internalType": "uint256",
              "name": "semester",
              "type": "uint256"
            },
            {
              "internalType": "uint256",
              "name": "year",
              "type": "uint256"
            },
            {
              "internalType": "uint256",
              "name": "studentCount",
              "type": "uint256"
            },
            {
              "internalType": "bool",
              "name": "ticketGenerated",
              "type": "bool"
            },
            {
              "internalType": "bytes32[]",
              "name": "tickets",
              "type": "bytes32[]"
            }
          ],
          "indexed": false,
          "internalType": "struct FeedbackData.Course",
          "name": "course",
          "type": "tuple"
        }
      ],
      "name": "courseUpdated",
      "type": "event"
    },
    {
      "anonymous": false,
      "inputs": [
        {
          "indexed": false,
          "internalType": "string",
          "name": "email",
          "type": "string"
        },
        {
          "components": [
            {
              "internalType": "string",
              "name": "code",
              "type": "string"
            },
            {
              "internalType": "uint256",
              "name": "semester",
              "type": "uint256"
            },
            {
              "internalType": "uint256",
              "name": "year",
              "type": "uint256"
            },
            {
              "internalType": "string",
              "name": "content",
              "type": "string"
            },
            {
              "internalType": "string[]",
              "name": "skills",
              "type": "string[]"
            }
          ],
          "indexed": false,
          "internalType": "struct FeedbackData.Feedback",
          "name": "feedback",
          "type": "tuple"
        }
      ],
      "name": "feedbackSubmitted",
      "type": "event"
    },
    {
      "anonymous": false,
      "inputs": [
        {
          "indexed": false,
          "internalType": "bool",
          "name": "success",
          "type": "bool"
        }
      ],
      "name": "passwordUpdated",
      "type": "event"
    },
    {
      "anonymous": false,
      "inputs": [
        {
          "components": [
            {
              "internalType": "string",
              "name": "name",
              "type": "string"
            },
            {
              "internalType": "string",
              "name": "email",
              "type": "string"
            },
            {
              "internalType": "string",
              "name": "profilePicture",
              "type": "string"
            },
            {
              "internalType": "address",
              "name": "addressId",
              "type": "address"
            },
            {
              "components": [
                {
                  "internalType": "uint256",
                  "name": "preDecimal",
                  "type": "uint256"
                },
                {
                  "internalType": "uint256",
                  "name": "postDecimal",
                  "type": "uint256"
                }
              ],
              "internalType": "struct FeedbackData.Float",
              "name": "rating",
              "type": "tuple"
            }
          ],
          "indexed": false,
          "internalType": "struct FeedbackData.Professor",
          "name": "professor",
          "type": "tuple"
        }
      ],
      "name": "professorCreated",
      "type": "event"
    },
    {
      "anonymous": false,
      "inputs": [
        {
          "indexed": false,
          "internalType": "string",
          "name": "email",
          "type": "string"
        },
        {
          "components": [
            {
              "internalType": "uint256",
              "name": "preDecimal",
              "type": "uint256"
            },
            {
              "internalType": "uint256",
              "name": "postDecimal",
              "type": "uint256"
            }
          ],
          "indexed": false,
          "internalType": "struct FeedbackData.Float",
          "name": "rating",
          "type": "tuple"
        }
      ],
      "name": "ratingUpdated",
      "type": "event"
    },
    {
      "anonymous": false,
      "inputs": [
        {
          "indexed": false,
          "internalType": "string",
          "name": "email",
          "type": "string"
        },
        {
          "components": [
            {
              "internalType": "string",
              "name": "name",
              "type": "string"
            },
            {
              "internalType": "uint256",
              "name": "count",
              "type": "uint256"
            }
          ],
          "indexed": false,
          "internalType": "struct FeedbackData.SkillsUpvoteCount[]",
          "name": "skills",
          "type": "tuple[]"
        }
      ],
      "name": "skillsUpvoted",
      "type": "event"
    },
    {
      "anonymous": false,
      "inputs": [
        {
          "indexed": false,
          "internalType": "bool",
          "name": "",
          "type": "bool"
        }
      ],
      "name": "test",
      "type": "event"
    },
    {
      "anonymous": false,
      "inputs": [
        {
          "indexed": false,
          "internalType": "string",
          "name": "email",
          "type": "string"
        },
        {
          "indexed": false,
          "internalType": "uint256",
          "name": "year",
          "type": "uint256"
        },
        {
          "indexed": false,
          "internalType": "uint256",
          "name": "sem",
          "type": "uint256"
        },
        {
          "indexed": false,
          "internalType": "string",
          "name": "code",
          "type": "string"
        },
        {
          "indexed": false,
          "internalType": "bytes32[]",
          "name": "tickets",
          "type": "bytes32[]"
        }
      ],
      "name": "ticketGenerated",
      "type": "event"
    },
    {
      "anonymous": false,
      "inputs": [
        {
          "indexed": false,
          "internalType": "bytes32",
          "name": "token",
          "type": "bytes32"
        }
      ],
      "name": "tokenGenerated",
      "type": "event"
    },
    {
      "inputs": [
        {
          "internalType": "bytes32",
          "name": "",
          "type": "bytes32"
        }
      ],
      "name": "_keysForProfReg",
      "outputs": [
        {
          "internalType": "bool",
          "name": "",
          "type": "bool"
        }
      ],
      "stateMutability": "view",
      "type": "function",
      "constant": true
    },
    {
      "inputs": [
        {
          "internalType": "bytes32",
          "name": "",
          "type": "bytes32"
        },
        {
          "internalType": "uint256",
          "name": "",
          "type": "uint256"
        }
      ],
      "name": "courses",
      "outputs": [
        {
          "internalType": "string",
          "name": "name",
          "type": "string"
        },
        {
          "internalType": "string",
          "name": "code",
          "type": "string"
        },
        {
          "internalType": "uint256",
          "name": "semester",
          "type": "uint256"
        },
        {
          "internalType": "uint256",
          "name": "year",
          "type": "uint256"
        },
        {
          "internalType": "uint256",
          "name": "studentCount",
          "type": "uint256"
        },
        {
          "internalType": "bool",
          "name": "ticketGenerated",
          "type": "bool"
        }
      ],
      "stateMutability": "view",
      "type": "function",
      "constant": true
    },
    {
      "inputs": [],
      "name": "earlyFeedbackCost",
      "outputs": [
        {
          "internalType": "uint256",
          "name": "",
          "type": "uint256"
        }
      ],
      "stateMutability": "view",
      "type": "function",
      "constant": true
    },
    {
      "inputs": [
        {
          "internalType": "uint256",
          "name": "",
          "type": "uint256"
        }
      ],
      "name": "emails",
      "outputs": [
        {
          "internalType": "string",
          "name": "",
          "type": "string"
        }
      ],
      "stateMutability": "view",
      "type": "function",
      "constant": true
    },
    {
      "inputs": [
        {
          "internalType": "uint256",
          "name": "",
          "type": "uint256"
        }
      ],
      "name": "facultySkills",
      "outputs": [
        {
          "internalType": "string",
          "name": "",
          "type": "string"
        }
      ],
      "stateMutability": "view",
      "type": "function",
      "constant": true
    },
    {
      "inputs": [
        {
          "internalType": "bytes32",
          "name": "",
          "type": "bytes32"
        },
        {
          "internalType": "uint256",
          "name": "",
          "type": "uint256"
        }
      ],
      "name": "feedbacks",
      "outputs": [
        {
          "internalType": "string",
          "name": "code",
          "type": "string"
        },
        {
          "internalType": "uint256",
          "name": "semester",
          "type": "uint256"
        },
        {
          "internalType": "uint256",
          "name": "year",
          "type": "uint256"
        },
        {
          "internalType": "string",
          "name": "content",
          "type": "string"
        }
      ],
      "stateMutability": "view",
      "type": "function",
      "constant": true
    },
    {
      "inputs": [],
      "name": "lateFeedbackCost",
      "outputs": [
        {
          "internalType": "uint256",
          "name": "",
          "type": "uint256"
        }
      ],
      "stateMutability": "view",
      "type": "function",
      "constant": true
    },
    {
      "inputs": [
        {
          "internalType": "string",
          "name": "",
          "type": "string"
        }
      ],
      "name": "professorDetail",
      "outputs": [
        {
          "internalType": "string",
          "name": "name",
          "type": "string"
        },
        {
          "internalType": "string",
          "name": "email",
          "type": "string"
        },
        {
          "internalType": "string",
          "name": "profilePicture",
          "type": "string"
        },
        {
          "internalType": "address",
          "name": "addressId",
          "type": "address"
        },
        {
          "components": [
            {
              "internalType": "uint256",
              "name": "preDecimal",
              "type": "uint256"
            },
            {
              "internalType": "uint256",
              "name": "postDecimal",
              "type": "uint256"
            }
          ],
          "internalType": "struct FeedbackData.Float",
          "name": "rating",
          "type": "tuple"
        }
      ],
      "stateMutability": "view",
      "type": "function",
      "constant": true
    },
    {
      "inputs": [
        {
          "internalType": "bytes32",
          "name": "",
          "type": "bytes32"
        }
      ],
      "name": "skillsCount",
      "outputs": [
        {
          "internalType": "uint256",
          "name": "",
          "type": "uint256"
        }
      ],
      "stateMutability": "view",
      "type": "function",
      "constant": true
    },
    {
      "inputs": [
        {
          "internalType": "string",
          "name": "adminKey",
          "type": "string"
        }
      ],
      "name": "generateTokenForProfReg",
      "outputs": [],
      "stateMutability": "nonpayable",
      "type": "function"
    },
    {
      "inputs": [
        {
          "internalType": "address",
          "name": "_address",
          "type": "address"
        }
      ],
      "name": "checkBalance",
      "outputs": [
        {
          "internalType": "uint256",
          "name": "",
          "type": "uint256"
        }
      ],
      "stateMutability": "view",
      "type": "function",
      "constant": true
    },
    {
      "inputs": [
        {
          "internalType": "string",
          "name": "oldPassword",
          "type": "string"
        },
        {
          "internalType": "string",
          "name": "newPassword",
          "type": "string"
        }
      ],
      "name": "updatePassword",
      "outputs": [],
      "stateMutability": "nonpayable",
      "type": "function"
    },
    {
      "inputs": [],
      "name": "getFacultySkills",
      "outputs": [
        {
          "internalType": "string[]",
          "name": "",
          "type": "string[]"
        }
      ],
      "stateMutability": "view",
      "type": "function",
      "constant": true
    },
    {
      "inputs": [
        {
          "internalType": "string",
          "name": "name",
          "type": "string"
        },
        {
          "internalType": "string",
          "name": "email",
          "type": "string"
        },
        {
          "internalType": "string",
          "name": "profilePicture",
          "type": "string"
        },
        {
          "internalType": "bytes32",
          "name": "secret",
          "type": "bytes32"
        }
      ],
      "name": "createProfessor",
      "outputs": [],
      "stateMutability": "nonpayable",
      "type": "function"
    },
    {
      "inputs": [],
      "name": "getProfessorIds",
      "outputs": [
        {
          "internalType": "string[]",
          "name": "",
          "type": "string[]"
        }
      ],
      "stateMutability": "view",
      "type": "function",
      "constant": true
    },
    {
      "inputs": [
        {
          "internalType": "string[]",
          "name": "ids",
          "type": "string[]"
        }
      ],
      "name": "getProfessorsDetailsByIds",
      "outputs": [
        {
          "components": [
            {
              "internalType": "string",
              "name": "name",
              "type": "string"
            },
            {
              "internalType": "string",
              "name": "email",
              "type": "string"
            },
            {
              "internalType": "string",
              "name": "profilePicture",
              "type": "string"
            },
            {
              "internalType": "address",
              "name": "addressId",
              "type": "address"
            },
            {
              "components": [
                {
                  "internalType": "uint256",
                  "name": "preDecimal",
                  "type": "uint256"
                },
                {
                  "internalType": "uint256",
                  "name": "postDecimal",
                  "type": "uint256"
                }
              ],
              "internalType": "struct FeedbackData.Float",
              "name": "rating",
              "type": "tuple"
            }
          ],
          "internalType": "struct FeedbackData.Professor[]",
          "name": "",
          "type": "tuple[]"
        }
      ],
      "stateMutability": "view",
      "type": "function",
      "constant": true
    },
    {
      "inputs": [
        {
          "internalType": "string",
          "name": "_email",
          "type": "string"
        }
      ],
      "name": "getFeedbacks",
      "outputs": [
        {
          "components": [
            {
              "internalType": "string",
              "name": "code",
              "type": "string"
            },
            {
              "internalType": "uint256",
              "name": "semester",
              "type": "uint256"
            },
            {
              "internalType": "uint256",
              "name": "year",
              "type": "uint256"
            },
            {
              "internalType": "string",
              "name": "content",
              "type": "string"
            },
            {
              "internalType": "string[]",
              "name": "skills",
              "type": "string[]"
            }
          ],
          "internalType": "struct FeedbackData.Feedback[][]",
          "name": "",
          "type": "tuple[][]"
        }
      ],
      "stateMutability": "view",
      "type": "function",
      "constant": true
    },
    {
      "inputs": [
        {
          "internalType": "string[]",
          "name": "_emails",
          "type": "string[]"
        }
      ],
      "name": "getFeedbacksByEmails",
      "outputs": [
        {
          "components": [
            {
              "internalType": "string",
              "name": "code",
              "type": "string"
            },
            {
              "internalType": "uint256",
              "name": "semester",
              "type": "uint256"
            },
            {
              "internalType": "uint256",
              "name": "year",
              "type": "uint256"
            },
            {
              "internalType": "string",
              "name": "content",
              "type": "string"
            },
            {
              "internalType": "string[]",
              "name": "skills",
              "type": "string[]"
            }
          ],
          "internalType": "struct FeedbackData.Feedback[][][]",
          "name": "",
          "type": "tuple[][][]"
        }
      ],
      "stateMutability": "view",
      "type": "function",
      "constant": true
    },
    {
      "inputs": [
        {
          "internalType": "string",
          "name": "_email",
          "type": "string"
        }
      ],
      "name": "getCourses",
      "outputs": [
        {
          "components": [
            {
              "internalType": "string",
              "name": "name",
              "type": "string"
            },
            {
              "internalType": "string",
              "name": "code",
              "type": "string"
            },
            {
              "internalType": "uint256",
              "name": "semester",
              "type": "uint256"
            },
            {
              "internalType": "uint256",
              "name": "year",
              "type": "uint256"
            },
            {
              "internalType": "uint256",
              "name": "studentCount",
              "type": "uint256"
            },
            {
              "internalType": "bool",
              "name": "ticketGenerated",
              "type": "bool"
            },
            {
              "internalType": "bytes32[]",
              "name": "tickets",
              "type": "bytes32[]"
            }
          ],
          "internalType": "struct FeedbackData.Course[][]",
          "name": "",
          "type": "tuple[][]"
        }
      ],
      "stateMutability": "view",
      "type": "function",
      "constant": true
    },
    {
      "inputs": [
        {
          "internalType": "string[]",
          "name": "_emails",
          "type": "string[]"
        }
      ],
      "name": "getCoursesByEmails",
      "outputs": [
        {
          "components": [
            {
              "internalType": "string",
              "name": "name",
              "type": "string"
            },
            {
              "internalType": "string",
              "name": "code",
              "type": "string"
            },
            {
              "internalType": "uint256",
              "name": "semester",
              "type": "uint256"
            },
            {
              "internalType": "uint256",
              "name": "year",
              "type": "uint256"
            },
            {
              "internalType": "uint256",
              "name": "studentCount",
              "type": "uint256"
            },
            {
              "internalType": "bool",
              "name": "ticketGenerated",
              "type": "bool"
            },
            {
              "internalType": "bytes32[]",
              "name": "tickets",
              "type": "bytes32[]"
            }
          ],
          "internalType": "struct FeedbackData.Course[][][]",
          "name": "",
          "type": "tuple[][][]"
        }
      ],
      "stateMutability": "view",
      "type": "function",
      "constant": true
    },
    {
      "inputs": [
        {
          "internalType": "string",
          "name": "_email",
          "type": "string"
        }
      ],
      "name": "getSkillsUpvote",
      "outputs": [
        {
          "components": [
            {
              "internalType": "string",
              "name": "name",
              "type": "string"
            },
            {
              "internalType": "uint256",
              "name": "count",
              "type": "uint256"
            }
          ],
          "internalType": "struct FeedbackData.SkillsUpvoteCount[]",
          "name": "",
          "type": "tuple[]"
        }
      ],
      "stateMutability": "view",
      "type": "function",
      "constant": true
    },
    {
      "inputs": [
        {
          "internalType": "string[]",
          "name": "_emails",
          "type": "string[]"
        }
      ],
      "name": "getSkillsUpvotesByEmails",
      "outputs": [
        {
          "components": [
            {
              "internalType": "string",
              "name": "name",
              "type": "string"
            },
            {
              "internalType": "uint256",
              "name": "count",
              "type": "uint256"
            }
          ],
          "internalType": "struct FeedbackData.SkillsUpvoteCount[][]",
          "name": "",
          "type": "tuple[][]"
        }
      ],
      "stateMutability": "view",
      "type": "function",
      "constant": true
    },
    {
      "inputs": [
        {
          "internalType": "uint256",
          "name": "_year",
          "type": "uint256"
        },
        {
          "internalType": "string",
          "name": "_email",
          "type": "string"
        },
        {
          "internalType": "string",
          "name": "_name",
          "type": "string"
        },
        {
          "internalType": "string",
          "name": "_code",
          "type": "string"
        },
        {
          "internalType": "uint256",
          "name": "_sem",
          "type": "uint256"
        },
        {
          "internalType": "uint256",
          "name": "_studentCount",
          "type": "uint256"
        }
      ],
      "name": "addCourse",
      "outputs": [],
      "stateMutability": "nonpayable",
      "type": "function"
    },
    {
      "inputs": [
        {
          "internalType": "string",
          "name": "_email",
          "type": "string"
        },
        {
          "internalType": "uint256",
          "name": "_year",
          "type": "uint256"
        },
        {
          "internalType": "uint256",
          "name": "_sem",
          "type": "uint256"
        },
        {
          "internalType": "string",
          "name": "_code",
          "type": "string"
        },
        {
          "internalType": "string",
          "name": "_seed",
          "type": "string"
        }
      ],
      "name": "generateTickets",
      "outputs": [],
      "stateMutability": "nonpayable",
      "type": "function"
    },
    {
      "inputs": [
        {
          "internalType": "string",
          "name": "_email",
          "type": "string"
        },
        {
          "internalType": "bytes32",
          "name": "_ticket",
          "type": "bytes32"
        },
        {
          "components": [
            {
              "internalType": "uint256",
              "name": "preDecimal",
              "type": "uint256"
            },
            {
              "internalType": "uint256",
              "name": "postDecimal",
              "type": "uint256"
            }
          ],
          "internalType": "struct FeedbackData.Float",
          "name": "updatedRating",
          "type": "tuple"
        },
        {
          "components": [
            {
              "internalType": "string",
              "name": "code",
              "type": "string"
            },
            {
              "internalType": "uint256",
              "name": "semester",
              "type": "uint256"
            },
            {
              "internalType": "uint256",
              "name": "year",
              "type": "uint256"
            },
            {
              "internalType": "string",
              "name": "content",
              "type": "string"
            },
            {
              "internalType": "string[]",
              "name": "skills",
              "type": "string[]"
            }
          ],
          "internalType": "struct FeedbackData.Feedback",
          "name": "_feedback",
          "type": "tuple"
        }
      ],
      "name": "submitFeedback",
      "outputs": [],
      "stateMutability": "nonpayable",
      "type": "function"
    },
    {
      "inputs": [
        {
          "internalType": "uint256",
          "name": "cost",
          "type": "uint256"
        }
      ],
      "name": "buyItems",
      "outputs": [],
      "stateMutability": "nonpayable",
      "type": "function"
    }
  ],
  "bytecode": "0x60096101209081526844697665727369747960b81b610140526080908152600d6101609081526c21b7b6b6bab734b1b0ba34b7b760991b6101805260a052600a6101a08181526950726f6365647572657360b01b6101c05260c0526101e0908152695068696c6f736f70687960b01b6102005260e052610260604052600f6102209081526e53747564656e744c6561726e696e6760881b6102405261010052620000ae90600090600562000178565b50674563918244f40000600b556729a2241af62c0000600c55348015620000d457600080fd5b5060405162004a0a38038062004a0a833981016040819052620000f79162000347565b60408051446020820152429181019190915260600160408051601f19818403018152908290528051602091820120600855620001369184910162000414565b60408051808303601f190181529190528051602090910120600955600a80546001600160a01b0319166001600160a01b0392909216919091179055506200046f565b828054828255906000526020600020908101928215620001ca579160200282015b82811115620001ca5782518051620001b9918491602090910190620001dc565b509160200191906001019062000199565b50620001d892915062000267565b5090565b828054620001ea9062000432565b90600052602060002090601f0160209004810192826200020e576000855562000259565b82601f106200022957805160ff191683800117855562000259565b8280016001018555821562000259579182015b82811115620002595782518255916020019190600101906200023c565b50620001d892915062000288565b80821115620001d85760006200027e82826200029f565b5060010162000267565b5b80821115620001d8576000815560010162000289565b508054620002ad9062000432565b6000825580601f10620002be575050565b601f016020900490600052602060002090810190620002de919062000288565b50565b634e487b7160e01b600052604160045260246000fd5b60005b8381101562000314578181015183820152602001620002fa565b8381111562000324576000848401525b50505050565b80516001600160a01b03811681146200034257600080fd5b919050565b600080604083850312156200035b57600080fd5b82516001600160401b03808211156200037357600080fd5b818501915085601f8301126200038857600080fd5b8151818111156200039d576200039d620002e1565b604051601f8201601f19908116603f01168101908382118183101715620003c857620003c8620002e1565b81604052828152886020848701011115620003e257600080fd5b620003f5836020830160208801620002f7565b80965050505050506200040b602084016200032a565b90509250929050565b6000825162000428818460208701620002f7565b9190910192915050565b600181811c908216806200044757607f821691505b602082108114156200046957634e487b7160e01b600052602260045260246000fd5b50919050565b61458b806200047f6000396000f3fe608060405234801561001057600080fd5b506004361061018e5760003560e01c8063be8f5fac116100de578063e30a121111610097578063f52c1c0711610071578063f52c1c07146103ec578063fa92f134146103ff578063fbd9d37714610412578063fed5eb8d1461043257600080fd5b8063e30a1211146103bb578063e30c0092146103db578063f4cd3198146103e457600080fd5b8063be8f5fac14610346578063c305322c14610359578063cd14f4fb14610379578063cdfbb35114610382578063d558085814610395578063dc2772eb146103a857600080fd5b80633bc79a981161014b5780635f515226116101255780635f515226146102de578063631f6d07146102f1578063695a7d4914610306578063760f4cf21461032657600080fd5b80633bc79a9814610268578063466bf004146102965780635e566f20146102c957600080fd5b806303ea41a2146101935780630a06db07146101bc5780631d322565146101df57806331ea9810146101ff578063339f36601461022357806335f13f6814610243575b600080fd5b6101a66101a1366004612f32565b610445565b6040516101b39190612fcf565b60405180910390f35b6101cf6101ca36600461311c565b6107da565b6040516101b3949392919061313e565b6101f26101ed36600461317a565b610937565b6040516101b391906131ee565b61021261020d36600461335e565b610c04565b6040516101b395949392919061339a565b610236610231366004612f32565b610df7565b6040516101b39190613521565b61025661025136600461311c565b611122565b6040516101b39695949392919061353b565b610288610276366004613588565b60036020526000908152604090205481565b6040519081526020016101b3565b6102b96102a4366004613588565b60076020526000908152604090205460ff1681565b60405190151581526020016101b3565b6102d161128f565b6040516101b391906135a1565b6102886102ec366004613603565b611368565b6103046102ff366004613588565b6113dd565b005b610319610314366004613588565b611510565b6040516101b3919061362c565b61033961033436600461317a565b6115bc565b6040516101b3919061363f565b61030461035436600461335e565b611670565b61036c61036736600461317a565b611781565b6040516101b39190613836565b610288600b5481565b61030461039036600461388b565b611835565b6103046103a33660046138f6565b611909565b6103046103b63660046139ab565b611b2f565b6103ce6103c9366004612f32565b612333565b6040516101b39190613a44565b610288600c5481565b6102d16124f1565b6103196103fa366004613588565b6125c1565b61030461040d366004613a57565b6125d1565b61042561042036600461317a565b612867565b6040516101b39190613af9565b610304610440366004613b4e565b61291b565b606060006006848460405161045b929190613be9565b908152604051908190036020019020600101546001600160401b03811115610485576104856132bc565b6040519080825280602002602001820160405280156104b857816020015b60608152602001906001900390816104a35790505b50905060005b600685856040516104d0929190613be9565b908152604051908190036020019020600101548110156107d2576005600060068787604051610500929190613be9565b9081526020016040518091039020600101838154811061052257610522613bf9565b90600052602060002001548152602001908152602001600020805480602002602001604051908101604052809291908181526020016000905b8282101561079e57838290600052602060002090600502016040518060a001604052908160008201805461058e90613c0f565b80601f01602080910402602001604051908101604052809291908181526020018280546105ba90613c0f565b80156106075780601f106105dc57610100808354040283529160200191610607565b820191906000526020600020905b8154815290600101906020018083116105ea57829003601f168201915b50505050508152602001600182015481526020016002820154815260200160038201805461063490613c0f565b80601f016020809104026020016040519081016040528092919081815260200182805461066090613c0f565b80156106ad5780601f10610682576101008083540402835291602001916106ad565b820191906000526020600020905b81548152906001019060200180831161069057829003601f168201915b5050505050815260200160048201805480602002602001604051908101604052809291908181526020016000905b828210156107875783829060005260206000200180546106fa90613c0f565b80601f016020809104026020016040519081016040528092919081815260200182805461072690613c0f565b80156107735780601f1061074857610100808354040283529160200191610773565b820191906000526020600020905b81548152906001019060200180831161075657829003601f168201915b5050505050815260200190600101906106db565b50505050815250508152602001906001019061055b565b505050508282815181106107b4576107b4613bf9565b602002602001018190525080806107ca90613c60565b9150506104be565b509392505050565b600560205281600052604060002081815481106107f657600080fd5b90600052602060002090600502016000915091505080600001805461081a90613c0f565b80601f016020809104026020016040519081016040528092919081815260200182805461084690613c0f565b80156108935780601f1061086857610100808354040283529160200191610893565b820191906000526020600020905b81548152906001019060200180831161087657829003601f168201915b5050505050908060010154908060020154908060030180546108b490613c0f565b80601f01602080910402602001604051908101604052809291908181526020018280546108e090613c0f565b801561092d5780601f106109025761010080835404028352916020019161092d565b820191906000526020600020905b81548152906001019060200180831161091057829003601f168201915b5050505050905084565b60606000826001600160401b03811115610953576109536132bc565b60405190808252806020026020018201604052801561098c57816020015b610979612d51565b8152602001906001900390816109715790505b50905060005b838110156107d25760028585838181106109ae576109ae613bf9565b90506020028101906109c09190613c7b565b6040516109ce929190613be9565b90815260200160405180910390206040518060a00160405290816000820180546109f790613c0f565b80601f0160208091040260200160405190810160405280929190818152602001828054610a2390613c0f565b8015610a705780601f10610a4557610100808354040283529160200191610a70565b820191906000526020600020905b815481529060010190602001808311610a5357829003601f168201915b50505050508152602001600182018054610a8990613c0f565b80601f0160208091040260200160405190810160405280929190818152602001828054610ab590613c0f565b8015610b025780601f10610ad757610100808354040283529160200191610b02565b820191906000526020600020905b815481529060010190602001808311610ae557829003601f168201915b50505050508152602001600282018054610b1b90613c0f565b80601f0160208091040260200160405190810160405280929190818152602001828054610b4790613c0f565b8015610b945780601f10610b6957610100808354040283529160200191610b94565b820191906000526020600020905b815481529060010190602001808311610b7757829003601f168201915b505050918352505060038201546001600160a01b0316602080830191909152604080518082018252600485015481526005909401549184019190915201528251839083908110610be657610be6613bf9565b60200260200101819052508080610bfc90613c60565b915050610992565b8051602081830181018051600282529282019190930120915280548190610c2a90613c0f565b80601f0160208091040260200160405190810160405280929190818152602001828054610c5690613c0f565b8015610ca35780601f10610c7857610100808354040283529160200191610ca3565b820191906000526020600020905b815481529060010190602001808311610c8657829003601f168201915b505050505090806001018054610cb890613c0f565b80601f0160208091040260200160405190810160405280929190818152602001828054610ce490613c0f565b8015610d315780601f10610d0657610100808354040283529160200191610d31565b820191906000526020600020905b815481529060010190602001808311610d1457829003601f168201915b505050505090806002018054610d4690613c0f565b80601f0160208091040260200160405190810160405280929190818152602001828054610d7290613c0f565b8015610dbf5780601f10610d9457610100808354040283529160200191610dbf565b820191906000526020600020905b815481529060010190602001808311610da257829003601f168201915b5050505060038301546040805180820190915260048501548152600590940154602085015291926001600160a01b0390921691905085565b6060600060068484604051610e0d929190613be9565b908152604051908190036020019020546001600160401b03811115610e3457610e346132bc565b604051908082528060200260200182016040528015610e6757816020015b6060815260200190600190039081610e525790505b50905060005b60068585604051610e7f929190613be9565b908152604051908190036020019020548110156107d2576004600060068787604051610eac929190613be9565b90815260200160405180910390206000018381548110610ece57610ece613bf9565b90600052602060002001548152602001908152602001600020805480602002602001604051908101604052809291908181526020016000905b828210156110ee57838290600052602060002090600702016040518060e0016040529081600082018054610f3a90613c0f565b80601f0160208091040260200160405190810160405280929190818152602001828054610f6690613c0f565b8015610fb35780601f10610f8857610100808354040283529160200191610fb3565b820191906000526020600020905b815481529060010190602001808311610f9657829003601f168201915b50505050508152602001600182018054610fcc90613c0f565b80601f0160208091040260200160405190810160405280929190818152602001828054610ff890613c0f565b80156110455780601f1061101a57610100808354040283529160200191611045565b820191906000526020600020905b81548152906001019060200180831161102857829003601f168201915b505050505081526020016002820154815260200160038201548152602001600482015481526020016005820160009054906101000a900460ff16151515158152602001600682018054806020026020016040519081016040528092919081815260200182805480156110d657602002820191906000526020600020905b8154815260200190600101908083116110c2575b50505050508152505081526020019060010190610f07565b5050505082828151811061110457611104613bf9565b6020026020010181905250808061111a90613c60565b915050610e6d565b6004602052816000526040600020818154811061113e57600080fd5b90600052602060002090600702016000915091505080600001805461116290613c0f565b80601f016020809104026020016040519081016040528092919081815260200182805461118e90613c0f565b80156111db5780601f106111b0576101008083540402835291602001916111db565b820191906000526020600020905b8154815290600101906020018083116111be57829003601f168201915b5050505050908060010180546111f090613c0f565b80601f016020809104026020016040519081016040528092919081815260200182805461121c90613c0f565b80156112695780601f1061123e57610100808354040283529160200191611269565b820191906000526020600020905b81548152906001019060200180831161124c57829003601f168201915b505050506002830154600384015460048501546005909501549394919390925060ff1686565b60606000805480602002602001604051908101604052809291908181526020016000905b8282101561135f5783829060005260206000200180546112d290613c0f565b80601f01602080910402602001604051908101604052809291908181526020018280546112fe90613c0f565b801561134b5780601f106113205761010080835404028352916020019161134b565b820191906000526020600020905b81548152906001019060200180831161132e57829003601f168201915b5050505050815260200190600101906112b3565b50505050905090565b600a546040516370a0823160e01b81526001600160a01b03838116600483015260009216906370a0823190602401602060405180830381865afa1580156113b3573d6000803e3d6000fd5b505050506040513d601f19601f820116820180604052508101906113d79190613cc1565b92915050565b600a546040516323b872dd60e01b8152336004820152306024820152604481018390526001600160a01b03909116906323b872dd906064016020604051808303816000875af1158015611434573d6000803e3d6000fd5b505050506040513d601f19601f820116820180604052508101906114589190613cda565b50600a546040516370a0823160e01b815233600482018190527fbe32f2019026bb0b892e1a82ba94e40edfe612b262b2085f499f0eebb7efc12f9290916001600160a01b03909116906370a0823190602401602060405180830381865afa1580156114c7573d6000803e3d6000fd5b505050506040513d601f19601f820116820180604052508101906114eb9190613cc1565b604080516001600160a01b03909316835260208301919091520160405180910390a150565b6001818154811061152057600080fd5b90600052602060002001600091509050805461153b90613c0f565b80601f016020809104026020016040519081016040528092919081815260200182805461156790613c0f565b80156115b45780601f10611589576101008083540402835291602001916115b4565b820191906000526020600020905b81548152906001019060200180831161159757829003601f168201915b505050505081565b60606000826001600160401b038111156115d8576115d86132bc565b60405190808252806020026020018201604052801561160b57816020015b60608152602001906001900390816115f65790505b50905060005b838110156107d25761164085858381811061162e5761162e613bf9565b90506020028101906101a19190613c7b565b82828151811061165257611652613bf9565b6020026020010181905250808061166890613c60565b915050611611565b600954816040516020016116849190613cfc565b60405160208183030381529060405280519060200120146116df5760405162461bcd60e51b815260206004820152601060248201526f1a5b9d985b1a59081c185cdcdddbdc9960821b60448201526064015b60405180910390fd5b600880549060006116ef83613c60565b9190505550600042600854604051602001611714929190918252602082015260400190565b60408051601f19818403018152828252805160209182012060008181526007909252919020805460ff1916600117905591507f8c6adcc89fb3a5c5ff4d5bb7afc4eeb464c80bd1c42b23064841c593ab9887e8906117759083815260200190565b60405180910390a15050565b60606000826001600160401b0381111561179d5761179d6132bc565b6040519080825280602002602001820160405280156117d057816020015b60608152602001906001900390816117bb5790505b50905060005b838110156107d2576118058585838181106117f3576117f3613bf9565b90506020028101906103c99190613c7b565b82828151811061181757611817613bf9565b6020026020010181905250808061182d90613c60565b9150506117d6565b600954848460405160200161184b929190613be9565b60405160208183030381529060405280519060200120146118a55760405162461bcd60e51b81526020600482015260146024820152731a5b9d985b1a59081bdb19081c185cdcdddbdc9960621b60448201526064016116d6565b81816040516020016118b8929190613be9565b60408051808303601f19018152908290528051602091820120600955600182527fcefcc0dd46c7f93764838bb11642de48894eaf912169be55a4e9f9beab96654f910160405180910390a150505050565b604080516101006020601f8901819004028201810190925260e081018781526000928291908a908a9081908501838280828437600092019190915250505090825250604080516020601f8901819004810282018101909252878152918101919088908890819084018382808284376000920182905250938552505050602080830187905260408084018f905260608401879052608084018390528051838152808301825260a0909401939093529151929350916119ce918c918c918f91899101613d18565b6040516020818303038152906040528051906020012090506119f18a8a83612c8c565b6119ff8a8a8d878a8a612cdb565b6000818152600460209081526040822080546001810182559083529181902084518051869460070290920192611a3a92849290910190612da3565b506020828101518051611a539260018501920190612da3565b5060408201516002820155606082015160038201556080820151600482015560a082015160058201805460ff191691151591909117905560c08201518051611aa5916006840191602090910190612e27565b505050600081815260046020526040902080547f56ff489b5a33d116a814463d8d88ac249e308bc2743f22d1d3116b1509588fd6918c918c918f91611aec90600190613d46565b81548110611afc57611afc613bf9565b9060005260206000209060070201604051611b1a9493929190613e3d565b60405180910390a15050505050505050505050565b6000858583604001358460200135604051602001611b509493929190613d18565b6040516020818303038152906040528051906020012090506000805b600083815260046020526040902054821015611c2a57611b8c8480613c7b565b604051602001611b9d929190613be9565b60408051601f198184030181529181528151602092830120600086815260049093529120805484908110611bd357611bd3613bf9565b9060005260206000209060070201600101604051602001611bf49190613f4c565b604051602081830303815290604052805190602001201415611c1857506001611c2a565b81611c2281613c60565b925050611b6c565b80611c875760405162461bcd60e51b815260206004820152602760248201527f436f75727365206e6f7420666f756e642c20696e76616c696420636f757273656044820152660819195d185a5b60ca1b60648201526084016116d6565b50600082815260046020526040812080548291829185908110611cac57611cac613bf9565b90600052602060002090600702016006018054905090505b80821015611d3d576000858152600460205260409020805489919086908110611cef57611cef613bf9565b90600052602060002090600702016006018381548110611d1157611d11613bf9565b90600052602060002001541415611d2b5760019250611d3d565b81611d3581613c60565b925050611cc4565b82611d8a5760405162461bcd60e51b815260206004820152601960248201527f54784e204572726f723a20496e76616c6964207469636b65740000000000000060448201526064016116d6565b6000858152600460205260409020805485908110611daa57611daa613bf9565b9060005260206000209060070201600601600182611dc89190613d46565b81548110611dd857611dd8613bf9565b9060005260206000200154600460008781526020019081526020016000208581548110611e0757611e07613bf9565b90600052602060002090600702016006018381548110611e2957611e29613bf9565b9060005260206000200181905550600460008681526020019081526020016000208481548110611e5b57611e5b613bf9565b9060005260206000209060070201600601805480611e7b57611e7b613f58565b6001900381819060005260206000200160009055905560008a8a886040013589602001358a8060000190611eaf9190613c7b565b604051602001611ec496959493929190613f6e565b60408051601f198184030181529181528151602092830120600081815260058085529281208054600181018255908252939020909350899290910201611f0a8282614203565b505060008181526005602052604090208054907f621f6c85f4ec6c24e3ef3fae1311b591199f13477580f239a708ec1e0123d582908d908d90611f4e600186613d46565b81548110611f5e57611f5e613bf9565b9060005260206000209060050201604051611f7b939291906142a0565b60405180910390a160005b611f9360808a018a6140d1565b90508110156120305760008d8d611fad60808d018d6140d1565b85818110611fbd57611fbd613bf9565b9050602002810190611fcf9190613c7b565b604051602001611fe29493929190614363565b60408051601f198184030181529181528151602092830120600081815260039093529082208054919350909161201783613c60565b919050555050808061202890613c60565b915050611f86565b507fd13d2122f194eef81e0738f122d85de9ec47c971b03882a46cfe5c4f32e58c0a8c8c61205e8f8f612333565b60405161206d93929190614390565b60405180910390a18860028d8d604051612088929190613be9565b9081526040519081900360200190206004016120b1828281358155602082013560018201555050565b9050507f708a0cbbf33c4bb1f5dd31e0858489399277fefc4d0f9c7bec472197e09a2fe88c8c8b6040516120e7939291906143b6565b60405180910390a16000878152600460205260409020805460039182918990811061211457612114613bf9565b9060005260206000209060070201600401541115806121715750600088815260046020526040902080548291908990811061215157612151613bf9565b90600052602060002090600702016004015461216d91906143e5565b8211155b156121f557600a54600b5460405163a9059cbb60e01b815233600482015260248101919091526001600160a01b039091169063a9059cbb906044016020604051808303816000875af11580156121cb573d6000803e3d6000fd5b505050506040513d601f19601f820116820180604052508101906121ef9190613cda565b50612270565b600a54600c5460405163a9059cbb60e01b815233600482015260248101919091526001600160a01b039091169063a9059cbb906044016020604051808303816000875af115801561224a573d6000803e3d6000fd5b505050506040513d601f19601f8201168201806040525081019061226e9190613cda565b505b600a546040516370a0823160e01b815233600482018190527fbe32f2019026bb0b892e1a82ba94e40edfe612b262b2085f499f0eebb7efc12f9290916001600160a01b03909116906370a0823190602401602060405180830381865afa1580156122de573d6000803e3d6000fd5b505050506040513d601f19601f820116820180604052508101906123029190613cc1565b604080516001600160a01b03909316835260208301919091520160405180910390a150505050505050505050505050565b60008054606091906001600160401b03811115612352576123526132bc565b60405190808252806020026020018201604052801561239857816020015b6040805180820190915260608152600060208201528152602001906001900390816123705790505b50905060005b6000548110156107d25760008585600084815481106123bf576123bf613bf9565b906000526020600020016040516020016123db93929190614407565b60405160208183030381529060405280519060200120905060405180604001604052806000848154811061241157612411613bf9565b90600052602060002001805461242690613c0f565b80601f016020809104026020016040519081016040528092919081815260200182805461245290613c0f565b801561249f5780601f106124745761010080835404028352916020019161249f565b820191906000526020600020905b81548152906001019060200180831161248257829003601f168201915b5050505050815260200160036000848152602001908152602001600020548152508383815181106124d2576124d2613bf9565b60200260200101819052505080806124e990613c60565b91505061239e565b60606001805480602002602001604051908101604052809291908181526020016000905b8282101561135f57838290600052602060002001805461253490613c0f565b80601f016020809104026020016040519081016040528092919081815260200182805461256090613c0f565b80156125ad5780601f10612582576101008083540402835291602001916125ad565b820191906000526020600020905b81548152906001019060200180831161259057829003601f168201915b505050505081526020019060010190612515565b6000818154811061152057600080fd5b60008181526007602052604090205460ff16151560011461262b5760405162461bcd60e51b81526020600482015260146024820152731c1c9bdd9a5919481d985b1a59081cd958dc995d60621b60448201526064016116d6565b6040518060a0016040528088888080601f016020809104026020016040519081016040528093929190818152602001838380828437600092019190915250505090825250604080516020601f890181900481028201810190925287815291810191908890889081908401838280828437600092019190915250505090825250604080516020601f8701819004810282018101909252858152918101919086908690819084018382808284376000920182905250938552505033602080850191909152604080518082018252848152918201939093529282019290925251600291506127199088908890613be9565b90815260200160405180910390206000820151816000019080519060200190612743929190612da3565b50602082810151805161275c9260018501920190612da3565b5060408201518051612778916002840191602090910190612da3565b5060608201516003820180546001600160a01b0319166001600160a01b0390921691909117905560809091015180516004830155602001516005909101556001805480820182556000919091526127f2907fb10e2d527612073b26eecdfd717e6a320cf44b4afac2b0732d9fcbe2b7fa0cf6018686612e61565b5060008181526007602052604090819020805460ff19169055517f5f050f9a5025f89bf90611be48950430ca16255586d189fb5a14c411ddd44a7b9060029061283e9088908890613be9565b90815260405190819003602001812061285691614426565b60405180910390a150505050505050565b60606000826001600160401b03811115612883576128836132bc565b6040519080825280602002602001820160405280156128b657816020015b60608152602001906001900390816128a15790505b50905060005b838110156107d2576128eb8585838181106128d9576128d9613bf9565b90506020028101906102319190613c7b565b8282815181106128fd576128fd613bf9565b6020026020010181905250808061291390613c60565b9150506128bc565b6000858585604051602001612932939291906144a7565b60405160208183030381529060405280519060200120905060008060005b600084815260046020526040902054811015612a0857856040516020016129779190613cfc565b60408051601f1981840301815291815281516020928301206000878152600490935291208054839081106129ad576129ad613bf9565b90600052602060002090600702016001016040516020016129ce9190613f4c565b6040516020818303038152906040528051906020012014156129f65780925060019150612a08565b80612a0081613c60565b915050612950565b600182151514612a665760405162461bcd60e51b815260206004820152602360248201527f77726f6e672063726564656e7469616c732c20636f75727365206e6f7420666f6044820152621d5b9960ea1b60648201526084016116d6565b6000848152600460205260409020805484908110612a8657612a86613bf9565b600091825260209091206005600790920201015460ff1615612aea5760405162461bcd60e51b815260206004820152601d60248201527f7469636b6574732061726520616c72656164792067656e65726174656400000060448201526064016116d6565b600084815260046020526040902080546001919085908110612b0e57612b0e613bf9565b60009182526020822060079190910201600501805460ff19169215159290921790915590505b6000848152600460205260409020805484908110612b5457612b54613bf9565b906000526020600020906007020160040154811015612c0e576000428660085444604051602001612b8894939291906144de565b60408051601f198184030181529190528051602090910120600880549192506000612bb283613c60565b90915550506000858152600460205260409020805485908110612bd757612bd7613bf9565b6000918252602080832060066007909302019190910180546001810182559083529120015580612c0681613c60565b915050612b34565b7f0aa509c398501987b09b5e8d6f21a19bf8a9d391fc11a6c17a1bb9093519a3d589898989600460008a81526020019081526020016000208881548110612c5757612c57613bf9565b9060005260206000209060070201600601604051612c79959493929190614510565b60405180910390a1505050505050505050565b600081815260046020526040902054612cd65760068383604051612cb1929190613be9565b9081526040516020918190038201902080546001810182556000918252919020018190555b505050565b6000868686868686604051602001612cf896959493929190613f6e565b60405160208183030381529060405280519060200120905060068787604051612d22929190613be9565b908152604051602091819003820190206001908101805491820181556000908152919091200155505050505050565b6040518060a0016040528060608152602001606081526020016060815260200160006001600160a01b03168152602001612d9e604051806040016040528060008152602001600081525090565b905290565b828054612daf90613c0f565b90600052602060002090601f016020900481019282612dd15760008555612e17565b82601f10612dea57805160ff1916838001178555612e17565b82800160010185558215612e17579182015b82811115612e17578251825591602001919060010190612dfc565b50612e23929150612ed5565b5090565b828054828255906000526020600020908101928215612e175791602002820182811115612e17578251825591602001919060010190612dfc565b828054612e6d90613c0f565b90600052602060002090601f016020900481019282612e8f5760008555612e17565b82601f10612ea85782800160ff19823516178555612e17565b82800160010185558215612e17579182015b82811115612e17578235825591602001919060010190612eba565b5b80821115612e235760008155600101612ed6565b60008083601f840112612efc57600080fd5b5081356001600160401b03811115612f1357600080fd5b602083019150836020828501011115612f2b57600080fd5b9250929050565b60008060208385031215612f4557600080fd5b82356001600160401b03811115612f5b57600080fd5b612f6785828601612eea565b90969095509350505050565b60005b83811015612f8e578181015183820152602001612f76565b83811115612f9d576000848401525b50505050565b60008151808452612fbb816020860160208601612f73565b601f01601f19169290920160200192915050565b60208152600060208201835180825260408401915060408160051b8501016020860160005b8381101561311057868303603f19018552815180518085526020918201918086019190600582901b87010160005b828110156130f657601f198883030184528451805160a0845261304860a0850182612fa3565b90506020820151602085015260408201516040850152606082015184820360608601526130758282612fa3565b91505060808201519150838103608085015280825180835260208301915060208160051b84010160208501945060005b828110156130d657601f198583030184526130c1828751612fa3565b602096870196949094019391506001016130a5565b508096505050505050602085019450602084019350600181019050613022565b506020988901989096509490940193505050600101612ff4565b50909695505050505050565b6000806040838503121561312f57600080fd5b50508035926020909101359150565b6080815260006131516080830187612fa3565b856020840152846040840152828103606084015261316f8185612fa3565b979650505050505050565b6000806020838503121561318d57600080fd5b82356001600160401b03808211156131a457600080fd5b818501915085601f8301126131b857600080fd5b8135818111156131c757600080fd5b8660208260051b85010111156131dc57600080fd5b60209290920196919550909350505050565b60006020808301818452808551808352604092508286019150828160051b87010184880160005b838110156132ae57603f19898403018552815160c0815181865261323b82870182612fa3565b915050888201518582038a8701526132538282612fa3565b915050878201518582038987015261326b8282612fa3565b6060848101516001600160a01b031690880152608093840151805185890152602081015160a0890152939092509050509588019593505090860190600101613215565b509098975050505050505050565b634e487b7160e01b600052604160045260246000fd5b600082601f8301126132e357600080fd5b81356001600160401b03808211156132fd576132fd6132bc565b604051601f8301601f19908116603f01168101908282118183101715613325576133256132bc565b8160405283815286602085880101111561333e57600080fd5b836020870160208301376000602085830101528094505050505092915050565b60006020828403121561337057600080fd5b81356001600160401b0381111561338657600080fd5b613392848285016132d2565b949350505050565b60c0815260006133ad60c0830188612fa3565b82810360208401526133bf8188612fa3565b905082810360408401526133d38187612fa3565b6001600160a01b038616606085015284516080850152602085015160a085015291506133fc9050565b9695505050505050565b600081518084526020808501808196506005915083821b810183870160005b868110156132ae578383038a5281518051808552908701908785019080881b8601890160005b8281101561350b57601f19888303018452845160e0815181855261347182860182612fa3565b9150508c8201518482038e8601526134898282612fa3565b60408481015190870152606080850151908701526080808501519087015260a08085015115159087015260c093840151868203948701949094528351808252938f019360009350908f0191505b808310156134f65783518252928e019260019290920191908e01906134d6565b50968d0196958d01959350505060010161344b565b509c89019c955050509186019150600101613425565b6020815260006135346020830184613406565b9392505050565b60c08152600061354e60c0830189612fa3565b82810360208401526135608189612fa3565b91505085604083015284606083015283608083015282151560a0830152979650505050505050565b60006020828403121561359a57600080fd5b5035919050565b6000602080830181845280855180835260408601915060408160051b870101925083870160005b828110156135f657603f198886030184526135e4858351612fa3565b945092850192908501906001016135c8565b5092979650505050505050565b60006020828403121561361557600080fd5b81356001600160a01b038116811461353457600080fd5b6020815260006135346020830184612fa3565b60208152600060208201835180825260408401915060408160051b8501016020860160005b8381101561311057868303603f19018552815180518085526020918201918086019190600582901b87010160005b828110156137b157878203601f19018452845180518084526020918201918085019190600582901b86010160005b8281101561379457601f198783030184528451805160a084526136e660a0850182612fa3565b90506020820151602085015260408201516040850152606082015184820360608601526137138282612fa3565b91505060808201519150838103608085015280825180835260208301915060208160051b84010160208501945060005b8281101561377457601f1985830301845261375f828751612fa3565b60209687019694909401939150600101613743565b5080965050505050506020850194506020840193506001810190506136c0565b506020988901989790970196945050506001919091019050613692565b506020988901989096509490940193505050600101613664565b600081518084526020808501808196508360051b8101915082860160005b8581101561382957828403895281516040815181875261380b82880182612fa3565b928801519688019690965250988501989350908401906001016137e9565b5091979650505050505050565b6000602080830181845280855180835260408601915060408160051b870101925083870160005b828110156135f657603f198886030184526138798583516137cb565b9450928501929085019060010161385d565b600080600080604085870312156138a157600080fd5b84356001600160401b03808211156138b857600080fd5b6138c488838901612eea565b909650945060208701359150808211156138dd57600080fd5b506138ea87828801612eea565b95989497509550505050565b600080600080600080600080600060c08a8c03121561391457600080fd5b8935985060208a01356001600160401b038082111561393257600080fd5b61393e8d838e01612eea565b909a50985060408c013591508082111561395757600080fd5b6139638d838e01612eea565b909850965060608c013591508082111561397c57600080fd5b506139898c828d01612eea565b9a9d999c50979a96999598959660808101359660a09091013595509350505050565b600080600080600085870360a08112156139c457600080fd5b86356001600160401b03808211156139db57600080fd5b6139e78a838b01612eea565b9098509650602089013595508691506040603f1984011215613a0857600080fd5b6040890194506080890135925080831115613a2257600080fd5b5050860160a08189031215613a3657600080fd5b809150509295509295909350565b60208152600061353460208301846137cb565b60008060008060008060006080888a031215613a7257600080fd5b87356001600160401b0380821115613a8957600080fd5b613a958b838c01612eea565b909950975060208a0135915080821115613aae57600080fd5b613aba8b838c01612eea565b909750955060408a0135915080821115613ad357600080fd5b50613ae08a828b01612eea565b989b979a50959894979596606090950135949350505050565b6000602080830181845280855180835260408601915060408160051b870101925083870160005b828110156135f657603f19888603018452613b3c858351613406565b94509285019290850190600101613b20565b600080600080600060a08688031215613b6657600080fd5b85356001600160401b0380821115613b7d57600080fd5b613b8989838a016132d2565b965060208801359550604088013594506060880135915080821115613bad57600080fd5b613bb989838a016132d2565b93506080880135915080821115613bcf57600080fd5b50613bdc888289016132d2565b9150509295509295909350565b8183823760009101908152919050565b634e487b7160e01b600052603260045260246000fd5b600181811c90821680613c2357607f821691505b60208210811415613c4457634e487b7160e01b600052602260045260246000fd5b50919050565b634e487b7160e01b600052601160045260246000fd5b6000600019821415613c7457613c74613c4a565b5060010190565b6000808335601e19843603018112613c9257600080fd5b8301803591506001600160401b03821115613cac57600080fd5b602001915036819003821315612f2b57600080fd5b600060208284031215613cd357600080fd5b5051919050565b600060208284031215613cec57600080fd5b8151801515811461353457600080fd5b60008251613d0e818460208701612f73565b9190910192915050565b83858237600b60fa1b9301838152600181019290925260218201929092526022810191909152604201919050565b600082821015613d5857613d58613c4a565b500390565b81835281816020850137506000828201602090810191909152601f909101601f19169091010190565b60008154613d9381613c0f565b808552602060018381168015613db05760018114613dc457613df2565b60ff19851688840152604088019550613df2565b866000528260002060005b85811015613dea5781548a8201860152908301908401613dcf565b890184019650505b505050505092915050565b6000815480845260208085019450836000528060002060005b83811015613e3257815487529582019560019182019101613e16565b509495945050505050565b606081526000613e51606083018688613d5d565b846020840152828103604084015260e08152613e7060e0820185613d86565b8181036020830152613e858160018701613d86565b905060028501546040830152600385015460608301526004850154608083015260ff600586015416613ebb60a084018215159052565b5081810360c0830152613ed18160068701613dfd565b98975050505050505050565b60008154613eea81613c0f565b60018281168015613f025760018114613f1357613f42565b60ff19841687528287019450613f42565b8560005260208060002060005b85811015613f395781548a820152908401908201613f20565b50505082870194505b5050505092915050565b60006135348284613edd565b634e487b7160e01b600052603160045260246000fd5b85878237600086820160008152600b60fa1b80825287600183015280602183015286602283015280604283015250838560438301376000930160430192835250909695505050505050565b5b81811015613fce5760008155600101613fba565b5050565b601f821115612cd657806000526020600020601f840160051c81016020851015613ff95750805b61400b601f850160051c830182613fb9565b5050505050565b6001600160401b03831115614029576140296132bc565b61403d836140378354613c0f565b83613fd2565b6000601f84116001811461407157600085156140595750838201355b600019600387901b1c1916600186901b17835561400b565b600083815260209020601f19861690835b828110156140a25786850135825560209485019460019092019101614082565b50868210156140bf5760001960f88860031b161c19848701351681555b505060018560011b0183555050505050565b6000808335601e198436030181126140e857600080fd5b8301803591506001600160401b0382111561410257600080fd5b6020019150600581901b3603821315612f2b57600080fd5b68010000000000000000831115614133576141336132bc565b8054838255808410156141bc576000828152602081208581019083015b808210156141b8576141628254613c0f565b80156141ac57601f8082116001811461417d578585556141a9565b60008581526020902061419a83850160051c820160018301613fb9565b50600085815260208120818755555b50505b50600182019150614150565b5050505b5060008181526020812083915b858110156141fb576141db8386613c7b565b6141e6818386614012565b505060209290920191600191820191016141c9565b505050505050565b61420d8283613c7b565b614218818385614012565b5050602082013560018201556040820135600282015561423b6060830183613c7b565b614249818360038601614012565b50506080820135601e1983360301811261426257600080fd5b820180356001600160401b0381111561427a57600080fd5b6020820191508060051b360382131561429257600080fd5b612f9d81836004860161411a565b6040815260006142b4604083018587613d5d565b60208382038185015260a082526142ce60a0830186613d86565b600180870154838501526002870154604085015283820360608501526142f78260038901613d86565b915060048701848303608086015282945080548084528484019550848160051b8501018260005285600020925060005b8281101561435357858203601f190188526143428285613d86565b978701979385019391508401614327565b509b9a5050505050505050505050565b83858237600b60fa1b81850190815260009083856001830137600093016001019283525090949350505050565b6040815260006143a4604083018587613d5d565b82810360208401526133fc81856137cb565b6060815260006143ca606083018587613d5d565b90508235602083015260208301356040830152949350505050565b60008261440257634e487b7160e01b600052601260045260246000fd5b500490565b82848237600b60fa1b8184019081526000906133fc6001820185613edd565b6020815260c06020820152600061444060e0830184613d86565b601f198084830301604085015261445a8260018701613d86565b915080848303016060850152506144748160028601613d86565b60038501546001600160a01b03166080850152600485015460a085015260059094015460c0909301929092525090919050565b600084516144b9818460208901612f73565b600b60fa1b920182815260018101949094525060218301526022820152604201919050565b848152600084516144f6816020850160208901612f73565b909101602081019390935250604082015260600192915050565b60a08152600061452360a0830188612fa3565b86602084015285604084015282810360608401526145418186612fa3565b90508281036080840152613ed18185613dfd56fea2646970667358221220ef72c57dda8a331ffd8b6052d497c13f493b2e050f4bd59b8575eb24cac4829c64736f6c634300080b0033",
  "immutableReferences": {},
  "source": "// SPDX-License-Identifier: MIT\npragma solidity >=0.4.21 <8.10.0;\n\nimport \"./BHUToken.sol\";\n\ncontract FeedbackData {\n    string[] public facultySkills = [\n        \"Diversity\",\n        \"Communication\",\n        \"Procedures\",\n        \"Philosophy\",\n        \"StudentLearning\"\n    ];\n\n    struct Feedback {\n        string code;\n        uint256 semester; // 0 for even and 1 for odd\n        uint256 year;\n        string content;\n        string[] skills;\n    }\n\n    struct Float {\n        uint256 preDecimal;\n        uint256 postDecimal;\n    }\n\n    struct Course {\n        string name;\n        string code;\n        uint256 semester; // 0 for even and 1 for odd\n        uint256 year;\n        uint256 studentCount;\n        bool ticketGenerated;\n        bytes32[] tickets;\n    }\n\n    struct SkillsUpvoteCount {\n        string name;\n        uint256 count;\n    }\n\n    struct Professor {\n        string name;\n        string email;\n        string profilePicture;\n        address addressId;\n        Float rating;\n    }\n\n    struct ProfessorCreds_Key {\n        bytes32[] courses;\n        bytes32[] feedbacks;\n    }\n\n    string[] public emails;\n\n    mapping(string => Professor) public professorDetail;\n    mapping(bytes32 => uint256) public skillsCount; // email+skill\n\n    //TODO change formate of prof skill upvotes\n\n    mapping(bytes32 => Course[]) public courses; // email+year+sem\n    mapping(bytes32 => Feedback[]) public feedbacks; // email+year+sem+course_code\n\n    mapping(string => ProfessorCreds_Key) private profCred_Keys;\n    mapping(bytes32 => bool) public _keysForProfReg;\n\n    uint256 private counterForProfReg;\n    bytes32 private adminPassword;\n    BHUToken private bhuToken;\n    uint256 public earlyFeedbackCost = 5e18;\n    uint256 public lateFeedbackCost = 3e18;\n\n    constructor(string memory adminKey, address _bhuToken) {\n        counterForProfReg = uint256(\n            keccak256(abi.encodePacked(block.difficulty, block.timestamp))\n        );\n        adminPassword = keccak256(abi.encodePacked(adminKey));\n        bhuToken = BHUToken(_bhuToken);\n    }\n\n    event professorCreated(Professor professor);\n    event courseUpdated(string email, uint256 year, Course course);\n    event tokenGenerated(bytes32 token);\n    event ticketGenerated(\n        string email,\n        uint256 year,\n        uint256 sem,\n        string code,\n        bytes32[] tickets\n    );\n    event feedbackSubmitted(string email, Feedback feedback);\n    event skillsUpvoted(string email, SkillsUpvoteCount[] skills);\n    event ratingUpdated(string email, Float rating);\n    event balanceUpdated(address account, uint256 balance);\n    event passwordUpdated(bool success);\n\n    function generateTokenForProfReg(string memory adminKey) public {\n        require(\n            keccak256(abi.encodePacked(adminKey)) == adminPassword,\n            \"invalid password\"\n        );\n        counterForProfReg++;\n        bytes32 id = keccak256(\n            abi.encodePacked(block.timestamp, counterForProfReg)\n        );\n        _keysForProfReg[id] = true;\n        emit tokenGenerated(id);\n    }\n\n    function checkBalance(address _address) public view returns (uint256) {\n        return bhuToken.balanceOf(_address);\n    }\n\n    function updatePassword(\n        string calldata oldPassword,\n        string calldata newPassword\n    ) public {\n        require(\n            keccak256(abi.encodePacked(oldPassword)) == adminPassword,\n            \"invalid old password\"\n        );\n        adminPassword = keccak256(abi.encodePacked(newPassword));\n        emit passwordUpdated(true);\n    }\n\n    function getFacultySkills() public view returns (string[] memory) {\n        return facultySkills;\n    }\n\n    function createProfessor(\n        string calldata name,\n        string calldata email,\n        string calldata profilePicture,\n        bytes32 secret\n    ) public {\n\n        require(_keysForProfReg[secret] == true, \"provide valid secret\");\n\n        professorDetail[email] = Professor({\n            name: name,\n            email: email,\n            addressId: msg.sender,\n            profilePicture: profilePicture,\n            rating: Float(0, 0)\n        });\n\n        emails.push(email);\n\n        _keysForProfReg[secret] = false;\n\n        emit professorCreated(professorDetail[email]);\n    }\n\n    function getProfessorIds() public view returns (string[] memory) {\n        return emails;\n    }\n\n    function getProfessorsDetailsByIds(string[] calldata ids)\n        public\n        view\n        returns (Professor[] memory)\n    {\n        Professor[] memory _professorList = new Professor[](ids.length);\n\n        for (uint256 i = 0; i < ids.length; i++) {\n            _professorList[i] = professorDetail[ids[i]];\n        }\n\n        return _professorList;\n    }\n\n    function getFeedbacks(string calldata _email)\n        public\n        view\n        returns (Feedback[][] memory)\n    {\n        Feedback[][] memory _feedbacks = new Feedback[][](\n            profCred_Keys[_email].feedbacks.length\n        );\n        for (uint256 i = 0; i < profCred_Keys[_email].feedbacks.length; i++) {\n            _feedbacks[i] = feedbacks[profCred_Keys[_email].feedbacks[i]];\n        }\n        return _feedbacks;\n    }\n\n    function getFeedbacksByEmails(string[] calldata _emails)\n        public\n        view\n        returns (Feedback[][][] memory)\n    {\n        Feedback[][][] memory _feedbacks = new Feedback[][][](_emails.length);\n        for (uint256 i = 0; i < _emails.length; i++) {\n            _feedbacks[i] = getFeedbacks(_emails[i]);\n        }\n        return _feedbacks;\n    }\n\n    function getCourses(string calldata _email)\n        public\n        view\n        returns (Course[][] memory)\n    {\n        Course[][] memory _courses = new Course[][](\n            profCred_Keys[_email].courses.length\n        );\n        for (uint256 i = 0; i < profCred_Keys[_email].courses.length; i++) {\n            _courses[i] = courses[profCred_Keys[_email].courses[i]];\n        }\n\n        return _courses;\n    }\n\n    function getCoursesByEmails(string[] calldata _emails)\n        public\n        view\n        returns (Course[][][] memory)\n    {\n        Course[][][] memory _courses = new Course[][][](_emails.length);\n        for (uint256 i = 0; i < _emails.length; i++) {\n            _courses[i] = getCourses(_emails[i]);\n        }\n        return _courses;\n    }\n\n    function getSkillsUpvote(string calldata _email)\n        public\n        view\n        returns (SkillsUpvoteCount[] memory)\n    {\n        SkillsUpvoteCount[] memory skillUpvotes = new SkillsUpvoteCount[](\n            facultySkills.length\n        );\n        for (uint256 i = 0; i < facultySkills.length; i++) {\n            bytes32 _key = keccak256(\n                abi.encodePacked(_email, \",\", facultySkills[i])\n            );\n            skillUpvotes[i] = SkillsUpvoteCount({\n                name: facultySkills[i],\n                count: skillsCount[_key]\n            });\n        }\n\n        return skillUpvotes;\n    }\n\n    function getSkillsUpvotesByEmails(string[] calldata _emails)\n        public\n        view\n        returns (SkillsUpvoteCount[][] memory)\n    {\n        SkillsUpvoteCount[][] memory skillUpvotes = new SkillsUpvoteCount[][](\n            _emails.length\n        );\n        for (uint256 i = 0; i < _emails.length; i++) {\n            skillUpvotes[i] = getSkillsUpvote(_emails[i]);\n        }\n        return skillUpvotes;\n    }\n\n    function addCourse(\n        uint256 _year,\n        string calldata _email,\n        string calldata _name,\n        string calldata _code,\n        uint256 _sem,\n        uint256 _studentCount\n    ) public {\n        // uint _year = util.getYear(block.timestamp);\n\n        Course memory _course = Course({\n            name: _name,\n            code: _code,\n            year: _year,\n            semester: _sem,\n            studentCount: _studentCount,\n            ticketGenerated: false,\n            tickets: new bytes32[](0)\n        });\n\n        bytes32 __key = keccak256(\n            abi.encodePacked(_email, \",\", _year, \",\", _sem)\n        );\n\n        addCourseKey(_email, __key);\n        addfeedbackKey(_email, _year, _sem, _code);\n\n        courses[__key].push(_course);\n        emit courseUpdated(\n            _email,\n            _year,\n            courses[__key][courses[__key].length - 1]\n        );\n    }\n\n    function addCourseKey(string calldata email, bytes32 __key) private {\n        if (courses[__key].length == 0) {\n            profCred_Keys[email].courses.push(__key);\n        }\n    }\n\n    function addfeedbackKey(\n        string calldata _email,\n        uint256 _year,\n        uint256 _sem,\n        string calldata _code\n    ) private {\n        bytes32 __key = keccak256(\n            abi.encodePacked(_email, \",\", _year, \",\", _sem, \",\", _code)\n        );\n        profCred_Keys[_email].feedbacks.push(__key);\n    }\n\n    event test(bool);\n\n    function generateTickets(\n        string memory _email,\n        uint256 _year,\n        uint256 _sem,\n        string memory _code,\n        string memory _seed\n    ) public {\n        bytes32 _key = keccak256(\n            abi.encodePacked(_email, \",\", _year, \",\", _sem)\n        );\n        uint256 coursePos = 0;\n        bool courseFound = false;\n        uint256 i = 0;\n        for (; i < courses[_key].length; i++) {\n            if (\n                keccak256(abi.encodePacked(courses[_key][i].code)) ==\n                keccak256(abi.encodePacked(_code))\n            ) {\n                coursePos = i;\n                courseFound = true;\n                break;\n            }\n        }\n\n        require(courseFound == true, \"wrong credentials, course not found\");\n        require(\n            courses[_key][coursePos].ticketGenerated == false,\n            \"tickets are already generated\"\n        );\n\n        courses[_key][coursePos].ticketGenerated = true;\n        i = 0;\n        for (; i < courses[_key][coursePos].studentCount; i++) {\n            bytes32 ticket = keccak256(\n                abi.encodePacked(\n                    block.timestamp,\n                    _seed,\n                    counterForProfReg,\n                    block.difficulty\n                )\n            );\n            counterForProfReg++;\n            courses[_key][coursePos].tickets.push(ticket);\n        }\n\n        emit ticketGenerated(\n            _email,\n            _year,\n            _sem,\n            _code,\n            courses[_key][coursePos].tickets\n        );\n    }\n\n    function submitFeedback(\n        string calldata _email,\n        bytes32 _ticket,\n        Float calldata updatedRating,\n        Feedback calldata _feedback\n    ) public {\n        bytes32 course_Key = keccak256(\n            abi.encodePacked(\n                _email,\n                \",\",\n                _feedback.year,\n                \",\",\n                _feedback.semester\n            )\n        );\n        uint256 coursePos = 0;\n        bool found = false;\n        for (; coursePos < courses[course_Key].length; coursePos++) {\n            if (\n                keccak256(\n                    abi.encodePacked(courses[course_Key][coursePos].code)\n                ) == keccak256(abi.encodePacked(_feedback.code))\n            ) {\n                found = true;\n                break;\n            }\n        }\n        if (found == false) {\n            revert(\"Course not found, invalid course detail\");\n        }\n\n        found = false;\n        uint256 ticketPos = 0;\n        uint256 ticketsLen = courses[course_Key][coursePos].tickets.length;\n        for (; ticketPos < ticketsLen; ticketPos++) {\n            if (courses[course_Key][coursePos].tickets[ticketPos] == _ticket) {\n                found = true;\n                break;\n            }\n        }\n\n        if (found == false) revert(\"TxN Error: Invalid ticket\");\n\n        courses[course_Key][coursePos].tickets[ticketPos] = courses[course_Key][\n            coursePos\n        ].tickets[ticketsLen - 1];\n        courses[course_Key][coursePos].tickets.pop();\n\n        bytes32 _feedback_Key = keccak256(\n            abi.encodePacked(\n                _email,\n                \",\",\n                _feedback.year,\n                \",\",\n                _feedback.semester,\n                \",\",\n                _feedback.code\n            )\n        );\n\n        feedbacks[_feedback_Key].push(_feedback);\n        uint256 feedbackLen = feedbacks[_feedback_Key].length;\n\n        emit feedbackSubmitted(\n            _email,\n            feedbacks[_feedback_Key][feedbackLen - 1]\n        );\n\n        for (uint256 j = 0; j < _feedback.skills.length; j++) {\n            bytes32 skill_Key = keccak256(\n                abi.encodePacked(_email, \",\", _feedback.skills[j])\n            );\n            skillsCount[skill_Key]++;\n        }\n\n        emit skillsUpvoted(_email, getSkillsUpvote(_email));\n\n        professorDetail[_email].rating = updatedRating;\n        emit ratingUpdated(_email, updatedRating);\n\n        uint256 percentage = 3;\n        if (\n            courses[course_Key][coursePos].studentCount <= 3 ||\n            feedbackLen <=\n            (courses[course_Key][coursePos].studentCount / percentage)\n        ) bhuToken.transfer(msg.sender, earlyFeedbackCost);\n        else bhuToken.transfer(msg.sender, lateFeedbackCost);\n        emit balanceUpdated(msg.sender, bhuToken.balanceOf(msg.sender));\n    }\n\n    function buyItems(uint256 cost) public {\n        //require(checkBalance(msg.sender) >= 1, \"Insufficent tokens\");\n        bhuToken.transferFrom(msg.sender, address(this), cost);\n        emit balanceUpdated(msg.sender, bhuToken.balanceOf(msg.sender));\n    }\n}\n",
  "sourcePath": "/home/kishan/Desktop/projects/feedback-dapp/contracts/FeedbackData.sol",
  "compiler": {
    "name": "solc",
    "version": "0.8.11+commit.d7f03943.Emscripten.clang"
  },
  "schemaVersion": "3.4.6",
  "updatedAt": "2022-04-09T14:17:31.288Z",
  "networkType": "ethereum",
  "devdoc": {
    "kind": "dev",
    "methods": {},
    "version": 1
  },
  "userdoc": {
    "kind": "user",
    "methods": {},
    "version": 1
  }
}