{
  "contractName": "Transactor",
  "abi": [
    {
      "inputs": [
        {
          "internalType": "address",
          "name": "_bhuToken",
          "type": "address"
        }
      ],
      "stateMutability": "nonpayable",
      "type": "constructor"
    },
    {
      "inputs": [],
      "name": "bhuToken",
      "outputs": [
        {
          "internalType": "contract BHUToken",
          "name": "",
          "type": "address"
        }
      ],
      "stateMutability": "view",
      "type": "function"
    },
    {
      "inputs": [],
      "name": "contractAddress",
      "outputs": [
        {
          "internalType": "address",
          "name": "",
          "type": "address"
        }
      ],
      "stateMutability": "view",
      "type": "function"
    },
    {
      "inputs": [],
      "name": "contractName",
      "outputs": [
        {
          "internalType": "string",
          "name": "",
          "type": "string"
        }
      ],
      "stateMutability": "view",
      "type": "function"
    },
    {
      "inputs": [],
      "name": "contractOwner",
      "outputs": [
        {
          "internalType": "address",
          "name": "",
          "type": "address"
        }
      ],
      "stateMutability": "view",
      "type": "function"
    },
    {
      "inputs": [],
      "name": "feedbackCost",
      "outputs": [
        {
          "internalType": "uint256",
          "name": "",
          "type": "uint256"
        }
      ],
      "stateMutability": "view",
      "type": "function"
    },
    {
      "inputs": [
        {
          "internalType": "address",
          "name": "",
          "type": "address"
        }
      ],
      "name": "feedbackMap",
      "outputs": [
        {
          "internalType": "string",
          "name": "",
          "type": "string"
        }
      ],
      "stateMutability": "view",
      "type": "function"
    },
    {
      "inputs": [
        {
          "internalType": "string",
          "name": "",
          "type": "string"
        }
      ],
      "name": "ticketSet",
      "outputs": [
        {
          "internalType": "bool",
          "name": "",
          "type": "bool"
        }
      ],
      "stateMutability": "view",
      "type": "function"
    },
    {
      "inputs": [],
      "name": "ticketValue",
      "outputs": [
        {
          "internalType": "uint256",
          "name": "",
          "type": "uint256"
        }
      ],
      "stateMutability": "view",
      "type": "function"
    },
    {
      "inputs": [
        {
          "internalType": "uint256",
          "name": "",
          "type": "uint256"
        }
      ],
      "name": "tickets",
      "outputs": [
        {
          "internalType": "string",
          "name": "",
          "type": "string"
        }
      ],
      "stateMutability": "view",
      "type": "function"
    },
    {
      "inputs": [
        {
          "internalType": "address",
          "name": "_address",
          "type": "address"
        }
      ],
      "name": "checkBalance",
      "outputs": [
        {
          "internalType": "uint256",
          "name": "",
          "type": "uint256"
        }
      ],
      "stateMutability": "view",
      "type": "function"
    },
    {
      "inputs": [
        {
          "internalType": "string[]",
          "name": "_tickets",
          "type": "string[]"
        }
      ],
      "name": "setTickets",
      "outputs": [],
      "stateMutability": "nonpayable",
      "type": "function"
    },
    {
      "inputs": [
        {
          "internalType": "string",
          "name": "_ticket",
          "type": "string"
        }
      ],
      "name": "redeemTokens",
      "outputs": [],
      "stateMutability": "nonpayable",
      "type": "function"
    },
    {
      "inputs": [
        {
          "internalType": "string",
          "name": "_review",
          "type": "string"
        }
      ],
      "name": "submitFeedback",
      "outputs": [],
      "stateMutability": "nonpayable",
      "type": "function"
    }
  ],
  "bytecode": "0x60c0604052600a6080819052692a3930b739b0b1ba37b960b11b60a09081526200002d9160009190620000bc565b50600180546001600160a01b03191630179055674563918244f40000600455670de0b6b3a76400006007553480156200006557600080fd5b5060405162000d9e38038062000d9e833981016040819052620000889162000162565b60028054336001600160a01b031991821617909155600380549091166001600160a01b0392909216919091179055620001d1565b828054620000ca9062000194565b90600052602060002090601f016020900481019282620000ee576000855562000139565b82601f106200010957805160ff191683800117855562000139565b8280016001018555821562000139579182015b82811115620001395782518255916020019190600101906200011c565b50620001479291506200014b565b5090565b5b808211156200014757600081556001016200014c565b6000602082840312156200017557600080fd5b81516001600160a01b03811681146200018d57600080fd5b9392505050565b600181811c90821680620001a957607f821691505b60208210811415620001cb57634e487b7160e01b600052602260045260246000fd5b50919050565b610bbd80620001e16000396000f3fe608060405234801561001057600080fd5b50600436106100cf5760003560e01c80635f548a221161008c578063a638f49811610066578063a638f498146101cf578063ce606ee0146101d8578063e341a623146101eb578063f6b4dfb4146101fe57600080fd5b80635f548a221461017657806375d0c0dc146101b45780637b05d785146101bc57600080fd5b806320c20dbe146100d457806344ca9522146100f057806350b4471214610105578063534b21b01461012557806356c23aab146101385780635f51522614610163575b600080fd5b6100dd60075481565b6040519081526020015b60405180910390f35b6101036100fe36600461086e565b610211565b005b610118610113366004610931565b610363565b6040516100e7919061097a565b6101186101333660046109ad565b61040f565b60035461014b906001600160a01b031681565b6040516001600160a01b0390911681526020016100e7565b6100dd6101713660046109ad565b610428565b6101a46101843660046109dd565b805160208183018101805160068252928201919093012091525460ff1681565b60405190151581526020016100e7565b61011861049d565b6101036101ca3660046109dd565b6104aa565b6100dd60045481565b60025461014b906001600160a01b031681565b6101036101f93660046109dd565b6105b7565b60015461014b906001600160a01b031681565b6002546001600160a01b031633146102705760405162461bcd60e51b815260206004820152601e60248201527f4f6e6c7920746865206f776e65722063616e20736574207469636b657473000060448201526064015b60405180910390fd5b60005b6005548110156102dd57600060066005838154811061029457610294610a1a565b906000526020600020016040516102ab9190610a6b565b908152604051908190036020019020805491151560ff19909216919091179055806102d581610b07565b915050610273565b5080516102f190600590602084019061066b565b5060005b60055481101561035f57600160066005838154811061031657610316610a1a565b9060005260206000200160405161032d9190610a6b565b908152604051908190036020019020805491151560ff199092169190911790558061035781610b07565b9150506102f5565b5050565b6005818154811061037357600080fd5b90600052602060002001600091509050805461038e90610a30565b80601f01602080910402602001604051908101604052809291908181526020018280546103ba90610a30565b80156104075780601f106103dc57610100808354040283529160200191610407565b820191906000526020600020905b8154815290600101906020018083116103ea57829003601f168201915b505050505081565b6008602052600090815260409020805461038e90610a30565b6003546040516370a0823160e01b81526001600160a01b03838116600483015260009216906370a0823190602401602060405180830381865afa158015610473573d6000803e3d6000fd5b505050506040513d601f19601f820116820180604052508101906104979190610b30565b92915050565b6000805461038e90610a30565b6006816040516104ba9190610b49565b9081526040519081900360200190205460ff16151560011461050f5760405162461bcd60e51b815260206004820152600e60248201526d125b9d985b1a59081d1a58dad95d60921b6044820152606401610267565b60006006826040516105219190610b49565b908152604051908190036020018120805492151560ff19909316929092179091556003546004805463a9059cbb60e01b8452339184019190915260248301526001600160a01b03169063a9059cbb906044015b6020604051808303816000875af1158015610593573d6000803e3d6000fd5b505050506040513d601f19601f8201168201806040525081019061035f9190610b65565b60016105c233610428565b10156106055760405162461bcd60e51b8152602060048201526012602482015271496e737566666963656e7420746f6b656e7360701b6044820152606401610267565b3360009081526008602090815260409091208251610625928401906106c8565b506003546001546007546040516323b872dd60e01b81523360048201526001600160a01b03928316602482015260448101919091529116906323b872dd90606401610574565b8280548282559060005260206000209081019282156106b8579160200282015b828111156106b857825180516106a89184916020909101906106c8565b509160200191906001019061068b565b506106c4929150610748565b5090565b8280546106d490610a30565b90600052602060002090601f0160209004810192826106f6576000855561073c565b82601f1061070f57805160ff191683800117855561073c565b8280016001018555821561073c579182015b8281111561073c578251825591602001919060010190610721565b506106c4929150610765565b808211156106c457600061075c828261077a565b50600101610748565b5b808211156106c45760008155600101610766565b50805461078690610a30565b6000825580601f10610796575050565b601f0160209004906000526020600020908101906107b49190610765565b50565b634e487b7160e01b600052604160045260246000fd5b604051601f8201601f1916810167ffffffffffffffff811182821017156107f6576107f66107b7565b604052919050565b600082601f83011261080f57600080fd5b813567ffffffffffffffff811115610829576108296107b7565b61083c601f8201601f19166020016107cd565b81815284602083860101111561085157600080fd5b816020850160208301376000918101602001919091529392505050565b6000602080838503121561088157600080fd5b823567ffffffffffffffff8082111561089957600080fd5b818501915085601f8301126108ad57600080fd5b8135818111156108bf576108bf6107b7565b8060051b6108ce8582016107cd565b91825283810185019185810190898411156108e857600080fd5b86860192505b83831015610924578235858111156109065760008081fd5b6109148b89838a01016107fe565b83525091860191908601906108ee565b9998505050505050505050565b60006020828403121561094357600080fd5b5035919050565b60005b8381101561096557818101518382015260200161094d565b83811115610974576000848401525b50505050565b602081526000825180602084015261099981604085016020870161094a565b601f01601f19169190910160400192915050565b6000602082840312156109bf57600080fd5b81356001600160a01b03811681146109d657600080fd5b9392505050565b6000602082840312156109ef57600080fd5b813567ffffffffffffffff811115610a0657600080fd5b610a12848285016107fe565b949350505050565b634e487b7160e01b600052603260045260246000fd5b600181811c90821680610a4457607f821691505b60208210811415610a6557634e487b7160e01b600052602260045260246000fd5b50919050565b600080835481600182811c915080831680610a8757607f831692505b6020808410821415610aa757634e487b7160e01b86526022600452602486fd5b818015610abb5760018114610acc57610af9565b60ff19861689528489019650610af9565b60008a81526020902060005b86811015610af15781548b820152908501908301610ad8565b505084890196505b509498975050505050505050565b6000600019821415610b2957634e487b7160e01b600052601160045260246000fd5b5060010190565b600060208284031215610b4257600080fd5b5051919050565b60008251610b5b81846020870161094a565b9190910192915050565b600060208284031215610b7757600080fd5b815180151581146109d657600080fdfea2646970667358221220363a65a9d9e249176a4e7acb77f200c3ef7507f86caa48017705197cf3ba675764736f6c634300080b0033",
  "immutableReferences": {},
  "source": "// SPDX-License-Identifier: MIT\npragma solidity >=0.4.21 <8.10.0;\n\nimport \"./BHUToken.sol\";\n\ncontract Transactor {\n    // Contract constants  \n    string public contractName = \"Transactor\";\n    address public contractAddress = address(this); \n    address public contractOwner;\n    BHUToken public bhuToken;\n    \n    // Ticket variables\n    uint public ticketValue = 5e18;\n    string[] public tickets;\n    mapping(string => bool) public ticketSet;\n\n    // Feedback variables\n    uint public feedbackCost = 1e18;\n    mapping(address => string) public feedbackMap;\n    \n    constructor(address _bhuToken) {\n        contractOwner = msg.sender;\n        bhuToken = BHUToken(_bhuToken);\n    }\n\n    // Check balance\n    function checkBalance(address _address) public view returns(uint) {\n        return bhuToken.balanceOf(_address);\n    }\n\n    // Set tickets\n    function setTickets(string[] memory _tickets) public {\n        // Only owner can call this function\n        require(msg.sender == contractOwner, \"Only the owner can set tickets\");\n\n        for(uint i=0; i<tickets.length; i++)\n            ticketSet[tickets[i]] = false;\n        tickets = _tickets;\n        for(uint i=0; i<tickets.length; i++)\n            ticketSet[tickets[i]] = true;\n    }\n\n    // Redeem tokens from ticket\n    function redeemTokens(string memory _ticket) public {\n        require(ticketSet[_ticket] == true, \"Invalid ticket\");\n\n        ticketSet[_ticket] = false;\n        bhuToken.transfer(msg.sender, ticketValue);\n    }\n\n    // Write feedback \n    function submitFeedback(string memory _review) public {\n        require(checkBalance(msg.sender) >= 1, \"Insufficent tokens\");\n\n        feedbackMap[msg.sender] = _review;\n        bhuToken.transferFrom(msg.sender, contractAddress, feedbackCost);\n    }\n}",
  "sourcePath": "/home/kishan/Desktop/projects/feedback-dapp/contracts/Transactor.sol",
  "compiler": {
    "name": "solc",
    "version": "0.8.11+commit.d7f03943.Emscripten.clang"
  },
  "schemaVersion": "3.4.6",
  "updatedAt": "2022-04-08T19:43:10.759Z",
  "devdoc": {
    "kind": "dev",
    "methods": {},
    "version": 1
  },
  "userdoc": {
    "kind": "user",
    "methods": {},
    "version": 1
  }
}