{
  "contractName": "FeedbackData",
  "abi": [
    {
      "inputs": [],
      "stateMutability": "nonpayable",
      "type": "constructor"
    },
    {
      "anonymous": false,
      "inputs": [
        {
          "indexed": false,
          "internalType": "string",
          "name": "email",
          "type": "string"
        },
        {
          "indexed": false,
          "internalType": "uint256",
          "name": "year",
          "type": "uint256"
        },
        {
          "components": [
            {
              "internalType": "string",
              "name": "name",
              "type": "string"
            },
            {
              "internalType": "string",
              "name": "code",
              "type": "string"
            },
            {
              "internalType": "uint256",
              "name": "semester",
              "type": "uint256"
            },
            {
              "internalType": "uint256",
              "name": "studentCount",
              "type": "uint256"
            },
            {
              "internalType": "bool",
              "name": "ticketGenerated",
              "type": "bool"
            },
            {
              "internalType": "bytes32[]",
              "name": "tickets",
              "type": "bytes32[]"
            }
          ],
          "indexed": false,
          "internalType": "struct FeedbackData.Course",
          "name": "course",
          "type": "tuple"
        }
      ],
      "name": "courseUpdated",
      "type": "event"
    },
    {
      "anonymous": false,
      "inputs": [
        {
          "components": [
            {
              "internalType": "string",
              "name": "name",
              "type": "string"
            },
            {
              "internalType": "string",
              "name": "email",
              "type": "string"
            },
            {
              "internalType": "address",
              "name": "addressId",
              "type": "address"
            },
            {
              "components": [
                {
                  "internalType": "uint256",
                  "name": "preDecimal",
                  "type": "uint256"
                },
                {
                  "internalType": "uint256",
                  "name": "postDecimal",
                  "type": "uint256"
                }
              ],
              "internalType": "struct FeedbackData.Float",
              "name": "rating",
              "type": "tuple"
            }
          ],
          "indexed": false,
          "internalType": "struct FeedbackData.Professor",
          "name": "professor",
          "type": "tuple"
        }
      ],
      "name": "professorCreated",
      "type": "event"
    },
    {
      "anonymous": false,
      "inputs": [
        {
          "indexed": false,
          "internalType": "string",
          "name": "email",
          "type": "string"
        },
        {
          "indexed": false,
          "internalType": "uint256",
          "name": "year",
          "type": "uint256"
        },
        {
          "indexed": false,
          "internalType": "uint256",
          "name": "sem",
          "type": "uint256"
        },
        {
          "indexed": false,
          "internalType": "string",
          "name": "code",
          "type": "string"
        },
        {
          "indexed": false,
          "internalType": "bytes32[]",
          "name": "tickets",
          "type": "bytes32[]"
        }
      ],
      "name": "ticketGenerated",
      "type": "event"
    },
    {
      "anonymous": false,
      "inputs": [
        {
          "indexed": false,
          "internalType": "bytes32",
          "name": "token",
          "type": "bytes32"
        }
      ],
      "name": "tokenGenerated",
      "type": "event"
    },
    {
      "inputs": [],
      "name": "dateTime",
      "outputs": [
        {
          "internalType": "contract DateTime",
          "name": "",
          "type": "address"
        }
      ],
      "stateMutability": "view",
      "type": "function",
      "constant": true
    },
    {
      "inputs": [
        {
          "internalType": "uint256",
          "name": "",
          "type": "uint256"
        }
      ],
      "name": "facultySkills",
      "outputs": [
        {
          "internalType": "string",
          "name": "",
          "type": "string"
        }
      ],
      "stateMutability": "view",
      "type": "function",
      "constant": true
    },
    {
      "inputs": [
        {
          "internalType": "bytes32",
          "name": "",
          "type": "bytes32"
        }
      ],
      "name": "keysForProfReg",
      "outputs": [
        {
          "internalType": "bool",
          "name": "",
          "type": "bool"
        }
      ],
      "stateMutability": "view",
      "type": "function",
      "constant": true
    },
    {
      "inputs": [
        {
          "internalType": "string",
          "name": "",
          "type": "string"
        },
        {
          "internalType": "uint256",
          "name": "",
          "type": "uint256"
        }
      ],
      "name": "professorCourseFeedback",
      "outputs": [
        {
          "internalType": "string",
          "name": "content",
          "type": "string"
        }
      ],
      "stateMutability": "view",
      "type": "function",
      "constant": true
    },
    {
      "inputs": [
        {
          "internalType": "string",
          "name": "",
          "type": "string"
        }
      ],
      "name": "professorDetail",
      "outputs": [
        {
          "internalType": "string",
          "name": "name",
          "type": "string"
        },
        {
          "internalType": "string",
          "name": "email",
          "type": "string"
        },
        {
          "internalType": "address",
          "name": "addressId",
          "type": "address"
        },
        {
          "components": [
            {
              "internalType": "uint256",
              "name": "preDecimal",
              "type": "uint256"
            },
            {
              "internalType": "uint256",
              "name": "postDecimal",
              "type": "uint256"
            }
          ],
          "internalType": "struct FeedbackData.Float",
          "name": "rating",
          "type": "tuple"
        }
      ],
      "stateMutability": "view",
      "type": "function",
      "constant": true
    },
    {
      "inputs": [
        {
          "internalType": "uint256",
          "name": "",
          "type": "uint256"
        }
      ],
      "name": "professorEmails",
      "outputs": [
        {
          "internalType": "string",
          "name": "",
          "type": "string"
        }
      ],
      "stateMutability": "view",
      "type": "function",
      "constant": true
    },
    {
      "inputs": [
        {
          "internalType": "string",
          "name": "",
          "type": "string"
        },
        {
          "internalType": "uint256",
          "name": "",
          "type": "uint256"
        }
      ],
      "name": "professorSkillsUpvoteCount",
      "outputs": [
        {
          "internalType": "string",
          "name": "name",
          "type": "string"
        },
        {
          "internalType": "uint256",
          "name": "count",
          "type": "uint256"
        }
      ],
      "stateMutability": "view",
      "type": "function",
      "constant": true
    },
    {
      "inputs": [
        {
          "internalType": "string",
          "name": "",
          "type": "string"
        },
        {
          "internalType": "uint256",
          "name": "",
          "type": "uint256"
        }
      ],
      "name": "professorYearsCourses",
      "outputs": [
        {
          "internalType": "string",
          "name": "name",
          "type": "string"
        },
        {
          "internalType": "string",
          "name": "code",
          "type": "string"
        },
        {
          "internalType": "uint256",
          "name": "semester",
          "type": "uint256"
        },
        {
          "internalType": "uint256",
          "name": "studentCount",
          "type": "uint256"
        },
        {
          "internalType": "bool",
          "name": "ticketGenerated",
          "type": "bool"
        }
      ],
      "stateMutability": "view",
      "type": "function",
      "constant": true
    },
    {
      "inputs": [],
      "name": "generateTokenForProfReg",
      "outputs": [],
      "stateMutability": "nonpayable",
      "type": "function"
    },
    {
      "inputs": [],
      "name": "getFacultySkills",
      "outputs": [
        {
          "internalType": "string[]",
          "name": "",
          "type": "string[]"
        }
      ],
      "stateMutability": "view",
      "type": "function",
      "constant": true
    },
    {
      "inputs": [
        {
          "internalType": "string",
          "name": "name",
          "type": "string"
        },
        {
          "internalType": "string",
          "name": "email",
          "type": "string"
        },
        {
          "internalType": "bytes32",
          "name": "secret",
          "type": "bytes32"
        }
      ],
      "name": "createProfessor",
      "outputs": [],
      "stateMutability": "nonpayable",
      "type": "function"
    },
    {
      "inputs": [],
      "name": "getProfessorIds",
      "outputs": [
        {
          "internalType": "string[]",
          "name": "",
          "type": "string[]"
        }
      ],
      "stateMutability": "view",
      "type": "function",
      "constant": true
    },
    {
      "inputs": [
        {
          "internalType": "string[]",
          "name": "ids",
          "type": "string[]"
        }
      ],
      "name": "getProfessorsDetailsByIds",
      "outputs": [
        {
          "components": [
            {
              "internalType": "string",
              "name": "name",
              "type": "string"
            },
            {
              "internalType": "string",
              "name": "email",
              "type": "string"
            },
            {
              "internalType": "address",
              "name": "addressId",
              "type": "address"
            },
            {
              "components": [
                {
                  "internalType": "uint256",
                  "name": "preDecimal",
                  "type": "uint256"
                },
                {
                  "internalType": "uint256",
                  "name": "postDecimal",
                  "type": "uint256"
                }
              ],
              "internalType": "struct FeedbackData.Float",
              "name": "rating",
              "type": "tuple"
            }
          ],
          "internalType": "struct FeedbackData.Professor[]",
          "name": "",
          "type": "tuple[]"
        }
      ],
      "stateMutability": "view",
      "type": "function",
      "constant": true
    },
    {
      "inputs": [
        {
          "internalType": "string",
          "name": "email",
          "type": "string"
        }
      ],
      "name": "getProfesssorAllDetails",
      "outputs": [
        {
          "components": [
            {
              "internalType": "string",
              "name": "name",
              "type": "string"
            },
            {
              "internalType": "uint256",
              "name": "count",
              "type": "uint256"
            }
          ],
          "internalType": "struct FeedbackData.SkillsUpvoteCount[]",
          "name": "",
          "type": "tuple[]"
        },
        {
          "components": [
            {
              "internalType": "string",
              "name": "name",
              "type": "string"
            },
            {
              "internalType": "string",
              "name": "code",
              "type": "string"
            },
            {
              "internalType": "uint256",
              "name": "semester",
              "type": "uint256"
            },
            {
              "internalType": "uint256",
              "name": "studentCount",
              "type": "uint256"
            },
            {
              "internalType": "bool",
              "name": "ticketGenerated",
              "type": "bool"
            },
            {
              "internalType": "bytes32[]",
              "name": "tickets",
              "type": "bytes32[]"
            }
          ],
          "internalType": "struct FeedbackData.Course[][]",
          "name": "",
          "type": "tuple[][]"
        },
        {
          "components": [
            {
              "internalType": "string",
              "name": "content",
              "type": "string"
            },
            {
              "internalType": "string[]",
              "name": "goodSklls",
              "type": "string[]"
            }
          ],
          "internalType": "struct FeedbackData.Feedback[][]",
          "name": "",
          "type": "tuple[][]"
        }
      ],
      "stateMutability": "view",
      "type": "function",
      "constant": true
    },
    {
      "inputs": [
        {
          "internalType": "uint256",
          "name": "_year",
          "type": "uint256"
        },
        {
          "internalType": "string",
          "name": "_email",
          "type": "string"
        },
        {
          "internalType": "string",
          "name": "_name",
          "type": "string"
        },
        {
          "internalType": "string",
          "name": "_code",
          "type": "string"
        },
        {
          "internalType": "uint256",
          "name": "_sem",
          "type": "uint256"
        },
        {
          "internalType": "uint256",
          "name": "_studentCount",
          "type": "uint256"
        }
      ],
      "name": "addCourse",
      "outputs": [],
      "stateMutability": "nonpayable",
      "type": "function"
    },
    {
      "inputs": [
        {
          "internalType": "string",
          "name": "_email",
          "type": "string"
        },
        {
          "internalType": "uint256",
          "name": "_year",
          "type": "uint256"
        },
        {
          "internalType": "uint256",
          "name": "_sem",
          "type": "uint256"
        },
        {
          "internalType": "string",
          "name": "_code",
          "type": "string"
        },
        {
          "internalType": "string",
          "name": "_seed",
          "type": "string"
        }
      ],
      "name": "generateTickets",
      "outputs": [],
      "stateMutability": "nonpayable",
      "type": "function"
    },
    {
      "inputs": [
        {
          "internalType": "string",
          "name": "a",
          "type": "string"
        },
        {
          "internalType": "string",
          "name": "b",
          "type": "string"
        }
      ],
      "name": "compareStrings",
      "outputs": [
        {
          "internalType": "bool",
          "name": "",
          "type": "bool"
        }
      ],
      "stateMutability": "pure",
      "type": "function",
      "constant": true
    }
  ],
  "bytecode": "0x60096101209081526844697665727369747960b81b610140526080908152600d6101609081526c21b7b6b6bab734b1b0ba34b7b760991b6101805260a052600a6101a08181526950726f6365647572657360b01b6101c05260c0526101e0908152695068696c6f736f70687960b01b6102005260e052610260604052600f6102209081526e53747564656e744c6561726e696e6760881b6102405261010052620000ae906000906005620000f3565b50348015620000bc57600080fd5b5060408051446020820152429181019190915260600160408051601f19818403018152919052805160209091012060095562000299565b82805482825590600052602060002090810192821562000145579160200282015b828111156200014557825180516200013491849160209091019062000157565b509160200191906001019062000114565b5062000153929150620001e2565b5090565b82805462000165906200025c565b90600052602060002090601f016020900481019282620001895760008555620001d4565b82601f10620001a457805160ff1916838001178555620001d4565b82800160010185558215620001d4579182015b82811115620001d4578251825591602001919060010190620001b7565b506200015392915062000203565b8082111562000153576000620001f982826200021a565b50600101620001e2565b5b8082111562000153576000815560010162000204565b50805462000228906200025c565b6000825580601f1062000239575050565b601f01602090049060005260206000209081019062000259919062000203565b50565b600181811c908216806200027157607f821691505b602082108114156200029357634e487b7160e01b600052602260045260246000fd5b50919050565b612ee780620002a96000396000f3fe608060405234801561001057600080fd5b506004361061010b5760003560e01c80638736cd83116100a2578063bed34bba11610071578063bed34bba14610286578063d558085814610299578063f4cd3198146102ac578063f52c1c07146102b4578063fed5eb8d146102c757600080fd5b80638736cd831461020c5780638ec3256f1461022d578063a3812b211461024f578063b490365d1461026257600080fd5b806348c8cd41116100de57806348c8cd41146101865780635e566f20146101b157806369b3238c146101c657806370037b07146101d957600080fd5b806301968973146101105780631d3225651461013957806331ea9810146101595780633253672b1461017c575b600080fd5b61012361011e366004612174565b6102da565b6040516101309190612210565b60405180910390f35b61014c61014736600461222a565b6103ac565b604051610130919061229e565b61016c610167366004612352565b6105ef565b604051610130949392919061238e565b610184610754565b005b600154610199906001600160a01b031681565b6040516001600160a01b039091168152602001610130565b6101b96107f5565b604051610130919061243a565b6101846101d4366004612495565b6108ce565b6101fc6101e7366004612508565b60086020526000908152604090205460ff1681565b6040519015158152602001610130565b61021f61021a366004612174565b610c29565b604051610130929190612521565b61024061023b366004612543565b610d01565b60405161013093929190612753565b61012361025d366004612508565b611446565b610275610270366004612174565b6114f2565b6040516101309594939291906127f4565b6101fc610294366004612839565b611669565b6101846102a736600461289c565b6116c2565b6101b961190d565b6101236102c2366004612508565b6119dd565b6101846102d5366004612951565b6119ed565b8151602081840181018051600682529282019185019190912091905280548290811061030557600080fd5b906000526020600020906002020160009150915050806000018054610329906129fd565b80601f0160208091040260200160405190810160405280929190818152602001828054610355906129fd565b80156103a25780601f10610377576101008083540402835291602001916103a2565b820191906000526020600020905b81548152906001019060200180831161038557829003601f168201915b5050505050905081565b60606000826001600160401b038111156103c8576103c86120d2565b60405190808252806020026020018201604052801561040157816020015b6103ee611f40565b8152602001906001900390816103e65790505b50905060005b838110156105e757600385858381811061042357610423612a38565b90506020028101906104359190612a4e565b604051610443929190612a94565b908152602001604051809103902060405180608001604052908160008201805461046c906129fd565b80601f0160208091040260200160405190810160405280929190818152602001828054610498906129fd565b80156104e55780601f106104ba576101008083540402835291602001916104e5565b820191906000526020600020905b8154815290600101906020018083116104c857829003601f168201915b505050505081526020016001820180546104fe906129fd565b80601f016020809104026020016040519081016040528092919081815260200182805461052a906129fd565b80156105775780601f1061054c57610100808354040283529160200191610577565b820191906000526020600020905b81548152906001019060200180831161055a57829003601f168201915b505050918352505060028201546001600160a01b03166020808301919091526040805180820182526003850154815260049094015491840191909152015282518390839081106105c9576105c9612a38565b602002602001018190525080806105df90612aba565b915050610407565b509392505050565b8051602081830181018051600382529282019190930120915280548190610615906129fd565b80601f0160208091040260200160405190810160405280929190818152602001828054610641906129fd565b801561068e5780601f106106635761010080835404028352916020019161068e565b820191906000526020600020905b81548152906001019060200180831161067157829003601f168201915b5050505050908060010180546106a3906129fd565b80601f01602080910402602001604051908101604052809291908181526020018280546106cf906129fd565b801561071c5780601f106106f15761010080835404028352916020019161071c565b820191906000526020600020905b8154815290600101906020018083116106ff57829003601f168201915b5050505060028301546040805180820190915260038501548152600490940154602085015291926001600160a01b0390921691905084565b6009805490600061076483612aba565b9190505550600042600954604051602001610789929190918252602082015260400190565b60408051601f19818403018152828252805160209182012060008181526008909252919020805460ff1916600117905591507f8c6adcc89fb3a5c5ff4d5bb7afc4eeb464c80bd1c42b23064841c593ab9887e8906107ea9083815260200190565b60405180910390a150565b60606000805480602002602001604051908101604052809291908181526020016000905b828210156108c5578382906000526020600020018054610838906129fd565b80601f0160208091040260200160405190810160405280929190818152602001828054610864906129fd565b80156108b15780601f10610886576101008083540402835291602001916108b1565b820191906000526020600020905b81548152906001019060200180831161089457829003601f168201915b505050505081526020019060010190610819565b50505050905090565b836109385760405162461bcd60e51b815260206004820152602f60248201527f4e616d652063616e206e6f7420626520626c616e6b20647572696e672070726f60448201526e3332b9b9b7b91031b932b0ba34b7b760891b60648201526084015b60405180910390fd5b8161099e5760405162461bcd60e51b815260206004820152603060248201527f456d61696c2063616e206e6f7420626520626c616e6b20647572696e6720707260448201526f37b332b9b9b7b91031b932b0ba34b7b760811b606482015260840161092f565b336109eb5760405162461bcd60e51b815260206004820152601960248201527f7573657220616464726573732073686f756c6420657869737400000000000000604482015260640161092f565b60008181526008602052604090205460ff161515600114610a455760405162461bcd60e51b81526020600482015260146024820152731c1c9bdd9a5919481d985b1a59081cd958dc995d60621b604482015260640161092f565b604051806080016040528086868080601f016020809104026020016040519081016040528093929190818152602001838380828437600092019190915250505090825250604080516020601f870181900481028201810190925285815291810191908690869081908401838280828437600092018290525093855250503360208085019190915260408051808201825284815291820193909352928201929092525160039150610af89086908690612a94565b90815260200160405180910390206000820151816000019080519060200190610b22929190611f8b565b506020828101518051610b3b9260018501920190611f8b565b506040820151600282810180546001600160a01b0319166001600160a01b039093169290921790915560609092015180516003830155602001516004909101558054600181018255600091909152610bb6907f405787fa12a823e0f2b7631cc41b3ba8828b3321ca811111fa75cd3aa3bb5ace01848461200f565b5060008181526008602052604090819020805460ff19169055517ff77cad3ffab6ca3874c9b0ce7fb99f424a7eb16380379a0f62e6626fea7bdcce90600390610c029086908690612a94565b908152604051908190036020018120610c1a91612b4c565b60405180910390a15050505050565b81516020818401810180516004825292820191850191909120919052805482908110610c5457600080fd5b906000526020600020906002020160009150915050806000018054610c78906129fd565b80601f0160208091040260200160405190810160405280929190818152602001828054610ca4906129fd565b8015610cf15780601f10610cc657610100808354040283529160200191610cf1565b820191906000526020600020905b815481529060010190602001808311610cd457829003601f168201915b5050505050908060010154905082565b6060806060600060078686604051610d1a929190612a94565b908152604051908190036020019020546001600160401b03811115610d4157610d416120d2565b604051908082528060200260200182016040528015610d7457816020015b6060815260200190600190039081610d5f5790505b50905060005b60078787604051610d8c929190612a94565b9081526040519081900360200190205481101561102f57600560078888604051610db7929190612a94565b90815260200160405180910390206000018281548110610dd957610dd9612a38565b90600052602060002001604051610df09190612bb2565b9081526020016040518091039020805480602002602001604051908101604052809291908181526020016000905b82821015610ffb57838290600052602060002090600602016040518060c0016040529081600082018054610e51906129fd565b80601f0160208091040260200160405190810160405280929190818152602001828054610e7d906129fd565b8015610eca5780601f10610e9f57610100808354040283529160200191610eca565b820191906000526020600020905b815481529060010190602001808311610ead57829003601f168201915b50505050508152602001600182018054610ee3906129fd565b80601f0160208091040260200160405190810160405280929190818152602001828054610f0f906129fd565b8015610f5c5780601f10610f3157610100808354040283529160200191610f5c565b820191906000526020600020905b815481529060010190602001808311610f3f57829003601f168201915b5050505050815260200160028201548152602001600382015481526020016004820160009054906101000a900460ff1615151515815260200160058201805480602002602001604051908101604052809291908181526020018280548015610fe357602002820191906000526020600020905b815481526020019060010190808311610fcf575b50505050508152505081526020019060010190610e1e565b5050505082828151811061101157611011612a38565b6020026020010181905250808061102790612aba565b915050610d7a565b50600060078787604051611044929190612a94565b908152604051908190036020019020600101546001600160401b0381111561106e5761106e6120d2565b6040519080825280602002602001820160405280156110a157816020015b606081526020019060019003908161108c5790505b50905060005b600788886040516110b9929190612a94565b9081526040519081900360200190206001015481101561131f576006600789896040516110e7929190612a94565b9081526020016040518091039020600101828154811061110957611109612a38565b906000526020600020016040516111209190612bb2565b9081526020016040518091039020805480602002602001604051908101604052809291908181526020016000905b828210156112eb5783829060005260206000209060020201604051806040016040529081600082018054611181906129fd565b80601f01602080910402602001604051908101604052809291908181526020018280546111ad906129fd565b80156111fa5780601f106111cf576101008083540402835291602001916111fa565b820191906000526020600020905b8154815290600101906020018083116111dd57829003601f168201915b5050505050815260200160018201805480602002602001604051908101604052809291908181526020016000905b828210156112d4578382906000526020600020018054611247906129fd565b80601f0160208091040260200160405190810160405280929190818152602001828054611273906129fd565b80156112c05780601f10611295576101008083540402835291602001916112c0565b820191906000526020600020905b8154815290600101906020018083116112a357829003601f168201915b505050505081526020019060010190611228565b50505050815250508152602001906001019061114e565b5050505082828151811061130157611301612a38565b6020026020010181905250808061131790612aba565b9150506110a7565b5060048787604051611332929190612a94565b9081526020016040518091039020828282805480602002602001604051908101604052809291908181526020016000905b828210156114315783829060005260206000209060020201604051806040016040529081600082018054611396906129fd565b80601f01602080910402602001604051908101604052809291908181526020018280546113c2906129fd565b801561140f5780601f106113e45761010080835404028352916020019161140f565b820191906000526020600020905b8154815290600101906020018083116113f257829003601f168201915b5050505050815260200160018201548152505081526020019060010190611363565b50505050925094509450945050509250925092565b6002818154811061145657600080fd5b906000526020600020016000915090508054611471906129fd565b80601f016020809104026020016040519081016040528092919081815260200182805461149d906129fd565b80156114ea5780601f106114bf576101008083540402835291602001916114ea565b820191906000526020600020905b8154815290600101906020018083116114cd57829003601f168201915b505050505081565b8151602081840181018051600582529282019185019190912091905280548290811061151d57600080fd5b906000526020600020906006020160009150915050806000018054611541906129fd565b80601f016020809104026020016040519081016040528092919081815260200182805461156d906129fd565b80156115ba5780601f1061158f576101008083540402835291602001916115ba565b820191906000526020600020905b81548152906001019060200180831161159d57829003601f168201915b5050505050908060010180546115cf906129fd565b80601f01602080910402602001604051908101604052809291908181526020018280546115fb906129fd565b80156116485780601f1061161d57610100808354040283529160200191611648565b820191906000526020600020905b81548152906001019060200180831161162b57829003601f168201915b50505050600283015460038401546004909401549293909290915060ff1685565b60008160405160200161167c9190612c24565b60405160208183030381529060405280519060200120836040516020016116a39190612c24565b6040516020818303038152906040528051906020012014905092915050565b6040805160e06020601f8901819004028201810190925260c081018781526000928291908a908a9081908501838280828437600092019190915250505090825250604080516020601f890181900481028201810190925287815291810191908890889081908401838280828437600092018290525093855250505060208083018790526040808401879052606084018390528051838152808301825260809094019390935291519293509161177f918c918c918f91899101612c40565b604051602081830303815290604052905061179b8a8a83611e4a565b6117a98a8a8d878a8a611ebe565b6005816040516117b99190612c24565b9081526040516020918190038201902080546001810182556000918252908290208451805186946006909402909201926117f892849290910190611f8b565b5060208281015180516118119260018501920190611f8b565b506040820151600282015560608201516003820155608082015160048201805460ff191691151591909117905560a08201518051611859916005840191602090910190612083565b5050507fbc988b24142f61c6056d486cd771440a673d05301e3e5e9691bfd8c54b1a51fc8a8a8d6005856040516118909190612c24565b908152602001604051809103902060016005876040516118b09190612c24565b908152604051908190036020019020546118ca9190612c6e565b815481106118da576118da612a38565b90600052602060002090600602016040516118f89493929190612cee565b60405180910390a15050505050505050505050565b60606002805480602002602001604051908101604052809291908181526020016000905b828210156108c5578382906000526020600020018054611950906129fd565b80601f016020809104026020016040519081016040528092919081815260200182805461197c906129fd565b80156119c95780601f1061199e576101008083540402835291602001916119c9565b820191906000526020600020905b8154815290600101906020018083116119ac57829003601f168201915b505050505081526020019060010190611931565b6000818154811061145657600080fd5b60008089898989604051602001611a079493929190612c40565b604051602081830303815290604052905060005b600582604051611a2b9190612c24565b90815260405190819003602001902054811015611b6f57611b4a600583604051611a559190612c24565b90815260200160405180910390208281548110611a7457611a74612a38565b90600052602060002090600602016001018054611a90906129fd565b80601f0160208091040260200160405190810160405280929190818152602001828054611abc906129fd565b8015611b095780601f10611ade57610100808354040283529160200191611b09565b820191906000526020600020905b815481529060010190602001808311611aec57829003601f168201915b505050505088888080601f01602080910402602001604051908101604052809392919081815260200183838082843760009201919091525061166992505050565b15611b5d57611b5a816001612d7c565b92505b80611b6781612aba565b915050611a1b565b5081611b8d5760405162461bcd60e51b815260040161092f90612d94565b81611b9781612dd7565b925050600581604051611baa9190612c24565b90815260405190819003602001902054821415611bd95760405162461bcd60e51b815260040161092f90612d94565b600581604051611be99190612c24565b90815260200160405180910390208281548110611c0857611c08612a38565b600091825260209091206004600690920201015460ff1615611c6c5760405162461bcd60e51b815260206004820152601d60248201527f7469636b6574732061726520616c72656164792067656e657261746564000000604482015260640161092f565b6001600582604051611c7e9190612c24565b90815260200160405180910390208381548110611c9d57611c9d612a38565b60009182526020822060069190910201600401805460ff1916921515929092179091555b600582604051611cd19190612c24565b90815260200160405180910390208381548110611cf057611cf0612a38565b906000526020600020906006020160030154811015611dbb57600042868660095444604051602001611d26959493929190612dee565b60408051601f198184030181529190528051602090910120600980549192506000611d5083612aba565b9190505550600583604051611d659190612c24565b90815260200160405180910390208481548110611d8457611d84612a38565b6000918252602080832060056006909302019190910180546001810182559083529120015580611db381612aba565b915050611cc1565b507f0aa509c398501987b09b5e8d6f21a19bf8a9d391fc11a6c17a1bb9093519a3d58a8a8a8a8a8a600588604051611df39190612c24565b90815260200160405180910390208981548110611e1257611e12612a38565b9060005260206000209060060201600501604051611e369796959493929190612e11565b60405180910390a150505050505050505050565b60058383604051611e5c929190612a94565b90815260405190819003602001902054611eb95760078383604051611e82929190612a94565b9081526040516020918190038201902080546001810182556000918252908290208351611eb793919092019190840190611f8b565b505b505050565b6000868686868686604051602001611edb96959493929190612e66565b604051602081830303815290604052905060078787604051611efe929190612a94565b9081526040516020918190038201902060019081018054918201815560009081528290208351611f3693919092019190840190611f8b565b5050505050505050565b6040518060800160405280606081526020016060815260200160006001600160a01b03168152602001611f86604051806040016040528060008152602001600081525090565b905290565b828054611f97906129fd565b90600052602060002090601f016020900481019282611fb95760008555611fff565b82601f10611fd257805160ff1916838001178555611fff565b82800160010185558215611fff579182015b82811115611fff578251825591602001919060010190611fe4565b5061200b9291506120bd565b5090565b82805461201b906129fd565b90600052602060002090601f01602090048101928261203d5760008555611fff565b82601f106120565782800160ff19823516178555611fff565b82800160010185558215611fff579182015b82811115611fff578235825591602001919060010190612068565b828054828255906000526020600020908101928215611fff5791602002820182811115611fff578251825591602001919060010190611fe4565b5b8082111561200b57600081556001016120be565b634e487b7160e01b600052604160045260246000fd5b600082601f8301126120f957600080fd5b81356001600160401b0380821115612113576121136120d2565b604051601f8301601f19908116603f0116810190828211818310171561213b5761213b6120d2565b8160405283815286602085880101111561215457600080fd5b836020870160208301376000602085830101528094505050505092915050565b6000806040838503121561218757600080fd5b82356001600160401b0381111561219d57600080fd5b6121a9858286016120e8565b95602094909401359450505050565b60005b838110156121d35781810151838201526020016121bb565b83811115611eb75750506000910152565b600081518084526121fc8160208601602086016121b8565b601f01601f19169290920160200192915050565b60208152600061222360208301846121e4565b9392505050565b6000806020838503121561223d57600080fd5b82356001600160401b038082111561225457600080fd5b818501915085601f83011261226857600080fd5b81358181111561227757600080fd5b8660208260051b850101111561228c57600080fd5b60209290920196919550909350505050565b60006020808301818452808551808352604092508286019150828160051b87010184880160005b8381101561234457603f19898403018552815160a081518186526122eb828701826121e4565b915050888201518582038a87015261230382826121e4565b898401516001600160a01b0316878b0152606093840151805185890152602081015160808901529390925090505095880195935050908601906001016122c5565b509098975050505050505050565b60006020828403121561236457600080fd5b81356001600160401b0381111561237a57600080fd5b612386848285016120e8565b949350505050565b60a0815260006123a160a08301876121e4565b82810360208401526123b381876121e4565b6001600160a01b0386166040850152845160608501526020850151608085015291506123dc9050565b95945050505050565b600081518084526020808501808196508360051b8101915082860160005b8581101561242d57828403895261241b8483516121e4565b98850198935090840190600101612403565b5091979650505050505050565b60208152600061222360208301846123e5565b60008083601f84011261245f57600080fd5b5081356001600160401b0381111561247657600080fd5b60208301915083602082850101111561248e57600080fd5b9250929050565b6000806000806000606086880312156124ad57600080fd5b85356001600160401b03808211156124c457600080fd5b6124d089838a0161244d565b909750955060208801359150808211156124e957600080fd5b506124f68882890161244d565b96999598509660400135949350505050565b60006020828403121561251a57600080fd5b5035919050565b60408152600061253460408301856121e4565b90508260208301529392505050565b6000806020838503121561255657600080fd5b82356001600160401b0381111561256c57600080fd5b6125788582860161244d565b90969095509350505050565b600081518084526020808501808196506005915083821b810183870160005b86811015612344578383038a5281518051808552908701908785019080881b8601890160005b8281101561267f57601f19888303018452845160c081518185526125ef828601826121e4565b9150508c8201518482038e86015261260782826121e4565b604084810151908701526060808501519087015260808085015115159087015260a093840151868203948701949094528351808252938f019360009350908f0191505b8083101561266a5783518252928e019260019290920191908e019061264a565b50968d0196958d0195935050506001016125c9565b509c89019c9550505091860191506001016125a3565b600081518084526020808501808196506005915083821b81018387016000805b87811015612744578484038b5282518051808652908801908886019080891b87018a01855b8281101561272e57601f19898303018452845160408151818552612700828601826121e4565b9150508d82015191508381038e85015261271a81836123e5565b968e0196958e0195935050506001016126da565b509d8a019d9650505092870192506001016126b5565b50919998505050505050505050565b6000606082016060835280865180835260808501915060808160051b8601019250602080890160005b838110156127c057607f198887030185528151604081518189526127a2828a01826121e4565b9286015198860198909852509550938201939082019060010161277c565b5050858403818701525050506127d68186612584565b905082810360408401526127ea8185612695565b9695505050505050565b60a08152600061280760a08301886121e4565b828103602084015261281981886121e4565b604084019690965250506060810192909252151560809091015292915050565b6000806040838503121561284c57600080fd5b82356001600160401b038082111561286357600080fd5b61286f868387016120e8565b9350602085013591508082111561288557600080fd5b50612892858286016120e8565b9150509250929050565b600080600080600080600080600060c08a8c0312156128ba57600080fd5b8935985060208a01356001600160401b03808211156128d857600080fd5b6128e48d838e0161244d565b909a50985060408c01359150808211156128fd57600080fd5b6129098d838e0161244d565b909850965060608c013591508082111561292257600080fd5b5061292f8c828d0161244d565b9a9d999c50979a96999598959660808101359660a09091013595509350505050565b60008060008060008060008060a0898b03121561296d57600080fd5b88356001600160401b038082111561298457600080fd5b6129908c838d0161244d565b909a50985060208b0135975060408b0135965060608b01359150808211156129b757600080fd5b6129c38c838d0161244d565b909650945060808b01359150808211156129dc57600080fd5b506129e98b828c0161244d565b999c989b5096995094979396929594505050565b600181811c90821680612a1157607f821691505b60208210811415612a3257634e487b7160e01b600052602260045260246000fd5b50919050565b634e487b7160e01b600052603260045260246000fd5b6000808335601e19843603018112612a6557600080fd5b8301803591506001600160401b03821115612a7f57600080fd5b60200191503681900382131561248e57600080fd5b8183823760009101908152919050565b634e487b7160e01b600052601160045260246000fd5b6000600019821415612ace57612ace612aa4565b5060010190565b60008154612ae2816129fd565b808552602060018381168015612aff5760018114612b1357612b41565b60ff19851688840152604088019550612b41565b866000528260002060005b85811015612b395781548a8201860152908301908401612b1e565b890184019650505b505050505092915050565b6020815260a060208201526000612b6660c0830184612ad5565b828103601f19016040840152612b7f8160018601612ad5565b60028501546001600160a01b031660608501526003850154608085015260049094015460a0909301929092525090919050565b6000808354612bc0816129fd565b60018281168015612bd85760018114612be957612c18565b60ff19841687528287019450612c18565b8760005260208060002060005b85811015612c0f5781548a820152908401908201612bf6565b50505082870194505b50929695505050505050565b60008251612c368184602087016121b8565b9190910192915050565b83858237600b60fa1b9301838152600181019290925260218201929092526022810191909152604201919050565b600082821015612c8057612c80612aa4565b500390565b81835281816020850137506000828201602090810191909152601f909101601f19169091010190565b6000815480845260208085019450836000528060002060005b83811015612ce357815487529582019560019182019101612cc7565b509495945050505050565b606081526000612d02606083018688612c85565b846020840152828103604084015260c08152612d2160c0820185612ad5565b8181036020830152612d368160018701612ad5565b9050600285015460408301526003850154606083015260ff6004860154161515608083015281810360a0830152612d708160058701612cae565b98975050505050505050565b60008219821115612d8f57612d8f612aa4565b500190565b60208082526023908201527f77726f6e672063726564656e7469616c732c20636f75727365206e6f7420666f6040820152621d5b9960ea1b606082015260800190565b600081612de657612de6612aa4565b506000190190565b858152838560208301376020930192830191909152604082015260600192915050565b60a081526000612e2560a08301898b612c85565b8760208401528660408401528281036060840152612e44818688612c85565b90508281036080840152612e588185612cae565b9a9950505050505050505050565b85878237600086820160008152600b60fa1b8082528760018301528060218301528660228301528060428301525083856043830137600093016043019283525090969550505050505056fea2646970667358221220f176d3582ef6e9474dfe0757b1421348e9314e58c441b64b6a6d8e2a1c9de66864736f6c634300080b0033",
  "immutableReferences": {},
  "source": "// SPDX-License-Identifier: MIT\npragma solidity >=0.4.21 <8.10.0;\n\nimport \"./utils.sol\";\n\n\ncontract FeedbackData {\n\n    string[] public facultySkills = [\"Diversity\",\"Communication\",\"Procedures\",\"Philosophy\",\"StudentLearning\"];\n    DateTime public dateTime;\n    \n    struct Feedback{\n        string content;\n        string[] goodSklls;\n    }\n\n    struct Float{\n        uint256 preDecimal;\n        uint256 postDecimal;\n    }\n\n    struct Course{\n        string name;\n        string code;\n        uint semester;      // 0 for even and 1 for odd\n        uint256 studentCount;\n        bool ticketGenerated;\n        bytes32[] tickets;\n    }\n\n    struct SkillsUpvoteCount{\n        string name;\n        uint count;\n    }\n\n    struct Professor{\n        string name;\n        string email;\n        address addressId;\n        Float rating;\n    }\n\n    struct ProfessorCredsKey{\n        string[] professorYearsCourses;\n        string[] professorCourseFeedback;\n    }\n\n    string[] public professorEmails;\n    \n    mapping(string=>Professor) public professorDetail;\n    mapping(string=>SkillsUpvoteCount[]) public professorSkillsUpvoteCount;\n    mapping(string=>Course[]) public professorYearsCourses;  // email+year+sem\n    mapping(string=>Feedback[]) public professorCourseFeedback;  // email+year+sem+course_code\n    mapping(string=>ProfessorCredsKey) private profCredKeys;\n    mapping(bytes32=>bool) public keysForProfReg;  \n\n    uint256 private counterForProfReg ;\n\n    constructor () {\n        counterForProfReg = uint(keccak256(abi.encodePacked(block.difficulty, block.timestamp)));\n    }\n\n    event professorCreated(Professor professor);\n    event courseUpdated(string email,uint year,Course course);\n    event tokenGenerated(bytes32 token);\n    event ticketGenerated(string email,uint year,uint sem,string code,bytes32[] tickets);\n\n    function generateTokenForProfReg() public \n    {\n        counterForProfReg++;\n        bytes32 id = keccak256(abi.encodePacked(block.timestamp, counterForProfReg));\n        keysForProfReg[id]=true;\n        emit tokenGenerated(id);\n    }\n\n    function getFacultySkills() public view returns(string[] memory)\n    {\n        return facultySkills;\n    }\n    \n    function createProfessor(string calldata name, string calldata email,bytes32 secret) public  {\n        require(\n          bytes(name).length > 0,\n          \"Name can not be blank during professor creation\"\n        );\n        require(\n          bytes(email).length > 0,\n          \"Email can not be blank during professor creation\"\n        );\n        require(msg.sender != address(0 * 0), \"user address should exist\");\n        require(keysForProfReg[secret]==true, \"provide valid secret\");\n\n        professorDetail[email] = Professor({\n            name:name,\n            email:email,\n            addressId:msg.sender,\n            rating: Float(0,0)\n        });\n\n        professorEmails.push(email);\n\n        keysForProfReg[secret] = false;\n\n        emit professorCreated(professorDetail[email]);\n    }\n\n    function getProfessorIds() public view returns (string[] memory) {\n        return professorEmails;\n    }\n\n    function getProfessorsDetailsByIds(string[] calldata ids) public view returns (Professor[] memory) {\n        Professor[] memory _professorList = new Professor[](ids.length);\n\n        for (uint256 i = 0; i < ids.length; i++) {\n          _professorList[i] = professorDetail[ids[i]];\n        }\n\n        return _professorList;\n    }\n\n    function getProfesssorAllDetails(string calldata email) public view returns(SkillsUpvoteCount[] memory,Course[][] memory,Feedback[][] memory) \n    {\n        Course[][] memory _courses = new Course[][](profCredKeys[email].professorYearsCourses.length);\n        for (uint256 i = 0; i < profCredKeys[email].professorYearsCourses.length; i++) {\n            _courses[i]=professorYearsCourses[profCredKeys[email].professorYearsCourses[i]];\n        }\n\n        Feedback[][] memory _feedbacks = new Feedback[][](profCredKeys[email].professorCourseFeedback.length);\n        for (uint256 i = 0; i < profCredKeys[email].professorCourseFeedback.length; i++) {\n            _feedbacks[i]=professorCourseFeedback[profCredKeys[email].professorCourseFeedback[i]];\n        }\n\n        return (professorSkillsUpvoteCount[email],_courses,_feedbacks);\n    }\n\n    function addCourse(uint _year,string calldata _email,string calldata _name,string calldata _code,uint _sem,uint256 _studentCount) public {\n        // uint _year = dateTime.getYear(block.timestamp);\n\n        Course memory _course = Course(\n            {\n                name : _name,\n                code : _code,\n                semester : _sem,\n                studentCount : _studentCount, \n                ticketGenerated : false,\n                tickets : new bytes32[](0)\n            }\n        );   \n\n        string memory _key = string(abi.encodePacked(_email,\",\", _year,\",\",_sem));\n        updateProfessorYearsCoursesKey(_email,_key);\n        updateProfessorCourseFeedback(_email, _year, _sem, _code);\n\n        professorYearsCourses[_key].push(_course);    \n        emit courseUpdated(_email, _year, professorYearsCourses[_key][professorYearsCourses[_key].length-1]);\n    }  \n\n    function updateProfessorYearsCoursesKey(string calldata email,string memory _key) private \n    {\n       if(professorYearsCourses[email].length==0)\n       {\n           profCredKeys[email].professorYearsCourses.push(_key);\n       }\n    }\n\n    function updateProfessorCourseFeedback(string calldata _email, uint256 _year, uint _sem, string calldata _code) private\n    {\n        string memory _key = string(abi.encodePacked(_email,\",\", _year,\",\",_sem,\",\",_code));\n        profCredKeys[_email].professorCourseFeedback.push(_key);\n    }\n\n    function generateTickets(string calldata _email,uint _year,uint _sem,string calldata _code,string calldata _seed) public\n    {\n        uint pos = 0;\n        string memory key = string(abi.encodePacked(_email,\",\", _year,\",\",_sem));\n        for (uint256 i = 0; i < professorYearsCourses[key].length; i++) {\n            if(compareStrings(professorYearsCourses[key][i].code,_code))\n            {\n                pos = i+1;\n            }\n        }\n\n        require(pos!=0,\"wrong credentials, course not found\");\n        pos--;\n        require(pos!=professorYearsCourses[key].length,\"wrong credentials, course not found\");\n        require(professorYearsCourses[key][pos].ticketGenerated==false,\"tickets are already generated\");\n\n        professorYearsCourses[key][pos].ticketGenerated=true;\n\n        for (uint256 i = 0; i < professorYearsCourses[key][pos].studentCount; i++) {\n            bytes32 ticket = keccak256(abi.encodePacked(block.timestamp, _seed,counterForProfReg,block.difficulty));\n            counterForProfReg++;\n            professorYearsCourses[key][pos].tickets.push(ticket);\n        }\n\n        emit ticketGenerated(_email, _year, _sem, _code, professorYearsCourses[key][pos].tickets);\n    }\n\n    function compareStrings(string memory a, string memory b) public pure returns (bool) \n    {\n        return (keccak256(abi.encodePacked((a))) == keccak256(abi.encodePacked((b))));\n    }\n    \n}",
  "sourcePath": "/home/kishan/Desktop/projects/feedback-dapp/contracts/FeedbackData.sol",
  "compiler": {
    "name": "solc",
    "version": "0.8.11+commit.d7f03943.Emscripten.clang"
  },
  "schemaVersion": "3.4.5",
  "updatedAt": "2022-03-08T00:07:16.208Z",
  "networkType": "ethereum",
  "devdoc": {
    "kind": "dev",
    "methods": {},
    "version": 1
  },
  "userdoc": {
    "kind": "user",
    "methods": {},
    "version": 1
  }
}