{
  "contractName": "FeedbackData",
  "abi": [
    {
      "inputs": [
        {
          "internalType": "string",
          "name": "adminKey",
          "type": "string"
        },
        {
          "internalType": "address",
          "name": "_bhuToken",
          "type": "address"
        }
      ],
      "stateMutability": "nonpayable",
      "type": "constructor"
    },
    {
      "anonymous": false,
      "inputs": [
        {
          "indexed": false,
          "internalType": "address",
          "name": "account",
          "type": "address"
        },
        {
          "indexed": false,
          "internalType": "uint256",
          "name": "balance",
          "type": "uint256"
        }
      ],
      "name": "balanceUpdated",
      "type": "event"
    },
    {
      "anonymous": false,
      "inputs": [
        {
          "indexed": false,
          "internalType": "string",
          "name": "email",
          "type": "string"
        },
        {
          "indexed": false,
          "internalType": "uint256",
          "name": "year",
          "type": "uint256"
        },
        {
          "components": [
            {
              "internalType": "string",
              "name": "name",
              "type": "string"
            },
            {
              "internalType": "string",
              "name": "code",
              "type": "string"
            },
            {
              "internalType": "uint256",
              "name": "semester",
              "type": "uint256"
            },
            {
              "internalType": "uint256",
              "name": "year",
              "type": "uint256"
            },
            {
              "internalType": "uint256",
              "name": "studentCount",
              "type": "uint256"
            },
            {
              "internalType": "bool",
              "name": "ticketGenerated",
              "type": "bool"
            },
            {
              "internalType": "bytes32[]",
              "name": "tickets",
              "type": "bytes32[]"
            }
          ],
          "indexed": false,
          "internalType": "struct FeedbackData.Course",
          "name": "course",
          "type": "tuple"
        }
      ],
      "name": "courseUpdated",
      "type": "event"
    },
    {
      "anonymous": false,
      "inputs": [
        {
          "indexed": false,
          "internalType": "string",
          "name": "email",
          "type": "string"
        },
        {
          "components": [
            {
              "internalType": "string",
              "name": "code",
              "type": "string"
            },
            {
              "internalType": "uint256",
              "name": "semester",
              "type": "uint256"
            },
            {
              "internalType": "uint256",
              "name": "year",
              "type": "uint256"
            },
            {
              "internalType": "string",
              "name": "content",
              "type": "string"
            },
            {
              "internalType": "string[]",
              "name": "skills",
              "type": "string[]"
            }
          ],
          "indexed": false,
          "internalType": "struct FeedbackData.Feedback",
          "name": "feedback",
          "type": "tuple"
        }
      ],
      "name": "feedbackSubmitted",
      "type": "event"
    },
    {
      "anonymous": false,
      "inputs": [
        {
          "indexed": false,
          "internalType": "bool",
          "name": "success",
          "type": "bool"
        }
      ],
      "name": "passwordUpdated",
      "type": "event"
    },
    {
      "anonymous": false,
      "inputs": [
        {
          "components": [
            {
              "internalType": "string",
              "name": "name",
              "type": "string"
            },
            {
              "internalType": "string",
              "name": "email",
              "type": "string"
            },
            {
              "internalType": "address",
              "name": "addressId",
              "type": "address"
            },
            {
              "components": [
                {
                  "internalType": "uint256",
                  "name": "preDecimal",
                  "type": "uint256"
                },
                {
                  "internalType": "uint256",
                  "name": "postDecimal",
                  "type": "uint256"
                }
              ],
              "internalType": "struct FeedbackData.Float",
              "name": "rating",
              "type": "tuple"
            }
          ],
          "indexed": false,
          "internalType": "struct FeedbackData.Professor",
          "name": "professor",
          "type": "tuple"
        }
      ],
      "name": "professorCreated",
      "type": "event"
    },
    {
      "anonymous": false,
      "inputs": [
        {
          "indexed": false,
          "internalType": "string",
          "name": "email",
          "type": "string"
        },
        {
          "components": [
            {
              "internalType": "uint256",
              "name": "preDecimal",
              "type": "uint256"
            },
            {
              "internalType": "uint256",
              "name": "postDecimal",
              "type": "uint256"
            }
          ],
          "indexed": false,
          "internalType": "struct FeedbackData.Float",
          "name": "rating",
          "type": "tuple"
        }
      ],
      "name": "ratingUpdated",
      "type": "event"
    },
    {
      "anonymous": false,
      "inputs": [
        {
          "indexed": false,
          "internalType": "string",
          "name": "email",
          "type": "string"
        },
        {
          "components": [
            {
              "internalType": "string",
              "name": "name",
              "type": "string"
            },
            {
              "internalType": "uint256",
              "name": "count",
              "type": "uint256"
            }
          ],
          "indexed": false,
          "internalType": "struct FeedbackData.SkillsUpvoteCount[]",
          "name": "skills",
          "type": "tuple[]"
        }
      ],
      "name": "skillsUpvoted",
      "type": "event"
    },
    {
      "anonymous": false,
      "inputs": [
        {
          "indexed": false,
          "internalType": "bool",
          "name": "",
          "type": "bool"
        }
      ],
      "name": "test",
      "type": "event"
    },
    {
      "anonymous": false,
      "inputs": [
        {
          "indexed": false,
          "internalType": "string",
          "name": "email",
          "type": "string"
        },
        {
          "indexed": false,
          "internalType": "uint256",
          "name": "year",
          "type": "uint256"
        },
        {
          "indexed": false,
          "internalType": "uint256",
          "name": "sem",
          "type": "uint256"
        },
        {
          "indexed": false,
          "internalType": "string",
          "name": "code",
          "type": "string"
        },
        {
          "indexed": false,
          "internalType": "bytes32[]",
          "name": "tickets",
          "type": "bytes32[]"
        }
      ],
      "name": "ticketGenerated",
      "type": "event"
    },
    {
      "anonymous": false,
      "inputs": [
        {
          "indexed": false,
          "internalType": "bytes32",
          "name": "token",
          "type": "bytes32"
        }
      ],
      "name": "tokenGenerated",
      "type": "event"
    },
    {
      "inputs": [
        {
          "internalType": "bytes32",
          "name": "",
          "type": "bytes32"
        }
      ],
      "name": "_keysForProfReg",
      "outputs": [
        {
          "internalType": "bool",
          "name": "",
          "type": "bool"
        }
      ],
      "stateMutability": "view",
      "type": "function",
      "constant": true
    },
    {
      "inputs": [
        {
          "internalType": "bytes32",
          "name": "",
          "type": "bytes32"
        },
        {
          "internalType": "uint256",
          "name": "",
          "type": "uint256"
        }
      ],
      "name": "courses",
      "outputs": [
        {
          "internalType": "string",
          "name": "name",
          "type": "string"
        },
        {
          "internalType": "string",
          "name": "code",
          "type": "string"
        },
        {
          "internalType": "uint256",
          "name": "semester",
          "type": "uint256"
        },
        {
          "internalType": "uint256",
          "name": "year",
          "type": "uint256"
        },
        {
          "internalType": "uint256",
          "name": "studentCount",
          "type": "uint256"
        },
        {
          "internalType": "bool",
          "name": "ticketGenerated",
          "type": "bool"
        }
      ],
      "stateMutability": "view",
      "type": "function",
      "constant": true
    },
    {
      "inputs": [],
      "name": "earlyFeedbackCost",
      "outputs": [
        {
          "internalType": "uint256",
          "name": "",
          "type": "uint256"
        }
      ],
      "stateMutability": "view",
      "type": "function",
      "constant": true
    },
    {
      "inputs": [
        {
          "internalType": "uint256",
          "name": "",
          "type": "uint256"
        }
      ],
      "name": "emails",
      "outputs": [
        {
          "internalType": "string",
          "name": "",
          "type": "string"
        }
      ],
      "stateMutability": "view",
      "type": "function",
      "constant": true
    },
    {
      "inputs": [
        {
          "internalType": "uint256",
          "name": "",
          "type": "uint256"
        }
      ],
      "name": "facultySkills",
      "outputs": [
        {
          "internalType": "string",
          "name": "",
          "type": "string"
        }
      ],
      "stateMutability": "view",
      "type": "function",
      "constant": true
    },
    {
      "inputs": [
        {
          "internalType": "bytes32",
          "name": "",
          "type": "bytes32"
        },
        {
          "internalType": "uint256",
          "name": "",
          "type": "uint256"
        }
      ],
      "name": "feedbacks",
      "outputs": [
        {
          "internalType": "string",
          "name": "code",
          "type": "string"
        },
        {
          "internalType": "uint256",
          "name": "semester",
          "type": "uint256"
        },
        {
          "internalType": "uint256",
          "name": "year",
          "type": "uint256"
        },
        {
          "internalType": "string",
          "name": "content",
          "type": "string"
        }
      ],
      "stateMutability": "view",
      "type": "function",
      "constant": true
    },
    {
      "inputs": [],
      "name": "lateFeedbackCost",
      "outputs": [
        {
          "internalType": "uint256",
          "name": "",
          "type": "uint256"
        }
      ],
      "stateMutability": "view",
      "type": "function",
      "constant": true
    },
    {
      "inputs": [
        {
          "internalType": "string",
          "name": "",
          "type": "string"
        }
      ],
      "name": "professorDetail",
      "outputs": [
        {
          "internalType": "string",
          "name": "name",
          "type": "string"
        },
        {
          "internalType": "string",
          "name": "email",
          "type": "string"
        },
        {
          "internalType": "address",
          "name": "addressId",
          "type": "address"
        },
        {
          "components": [
            {
              "internalType": "uint256",
              "name": "preDecimal",
              "type": "uint256"
            },
            {
              "internalType": "uint256",
              "name": "postDecimal",
              "type": "uint256"
            }
          ],
          "internalType": "struct FeedbackData.Float",
          "name": "rating",
          "type": "tuple"
        }
      ],
      "stateMutability": "view",
      "type": "function",
      "constant": true
    },
    {
      "inputs": [
        {
          "internalType": "bytes32",
          "name": "",
          "type": "bytes32"
        }
      ],
      "name": "skillsCount",
      "outputs": [
        {
          "internalType": "uint256",
          "name": "",
          "type": "uint256"
        }
      ],
      "stateMutability": "view",
      "type": "function",
      "constant": true
    },
    {
      "inputs": [],
      "name": "util",
      "outputs": [
        {
          "internalType": "contract Utils",
          "name": "",
          "type": "address"
        }
      ],
      "stateMutability": "view",
      "type": "function",
      "constant": true
    },
    {
      "inputs": [
        {
          "internalType": "string",
          "name": "adminKey",
          "type": "string"
        }
      ],
      "name": "generateTokenForProfReg",
      "outputs": [],
      "stateMutability": "nonpayable",
      "type": "function"
    },
    {
      "inputs": [
        {
          "internalType": "address",
          "name": "_address",
          "type": "address"
        }
      ],
      "name": "checkBalance",
      "outputs": [
        {
          "internalType": "uint256",
          "name": "",
          "type": "uint256"
        }
      ],
      "stateMutability": "view",
      "type": "function",
      "constant": true
    },
    {
      "inputs": [
        {
          "internalType": "string",
          "name": "oldPassword",
          "type": "string"
        },
        {
          "internalType": "string",
          "name": "newPassword",
          "type": "string"
        }
      ],
      "name": "updatePassword",
      "outputs": [],
      "stateMutability": "nonpayable",
      "type": "function"
    },
    {
      "inputs": [],
      "name": "getFacultySkills",
      "outputs": [
        {
          "internalType": "string[]",
          "name": "",
          "type": "string[]"
        }
      ],
      "stateMutability": "view",
      "type": "function",
      "constant": true
    },
    {
      "inputs": [
        {
          "internalType": "string",
          "name": "name",
          "type": "string"
        },
        {
          "internalType": "string",
          "name": "email",
          "type": "string"
        },
        {
          "internalType": "bytes32",
          "name": "secret",
          "type": "bytes32"
        }
      ],
      "name": "createProfessor",
      "outputs": [],
      "stateMutability": "nonpayable",
      "type": "function"
    },
    {
      "inputs": [],
      "name": "getProfessorIds",
      "outputs": [
        {
          "internalType": "string[]",
          "name": "",
          "type": "string[]"
        }
      ],
      "stateMutability": "view",
      "type": "function",
      "constant": true
    },
    {
      "inputs": [
        {
          "internalType": "string[]",
          "name": "ids",
          "type": "string[]"
        }
      ],
      "name": "getProfessorsDetailsByIds",
      "outputs": [
        {
          "components": [
            {
              "internalType": "string",
              "name": "name",
              "type": "string"
            },
            {
              "internalType": "string",
              "name": "email",
              "type": "string"
            },
            {
              "internalType": "address",
              "name": "addressId",
              "type": "address"
            },
            {
              "components": [
                {
                  "internalType": "uint256",
                  "name": "preDecimal",
                  "type": "uint256"
                },
                {
                  "internalType": "uint256",
                  "name": "postDecimal",
                  "type": "uint256"
                }
              ],
              "internalType": "struct FeedbackData.Float",
              "name": "rating",
              "type": "tuple"
            }
          ],
          "internalType": "struct FeedbackData.Professor[]",
          "name": "",
          "type": "tuple[]"
        }
      ],
      "stateMutability": "view",
      "type": "function",
      "constant": true
    },
    {
      "inputs": [
        {
          "internalType": "string",
          "name": "_email",
          "type": "string"
        }
      ],
      "name": "getFeedbacks",
      "outputs": [
        {
          "components": [
            {
              "internalType": "string",
              "name": "code",
              "type": "string"
            },
            {
              "internalType": "uint256",
              "name": "semester",
              "type": "uint256"
            },
            {
              "internalType": "uint256",
              "name": "year",
              "type": "uint256"
            },
            {
              "internalType": "string",
              "name": "content",
              "type": "string"
            },
            {
              "internalType": "string[]",
              "name": "skills",
              "type": "string[]"
            }
          ],
          "internalType": "struct FeedbackData.Feedback[][]",
          "name": "",
          "type": "tuple[][]"
        }
      ],
      "stateMutability": "view",
      "type": "function",
      "constant": true
    },
    {
      "inputs": [
        {
          "internalType": "string",
          "name": "_email",
          "type": "string"
        }
      ],
      "name": "getCourses",
      "outputs": [
        {
          "components": [
            {
              "internalType": "string",
              "name": "name",
              "type": "string"
            },
            {
              "internalType": "string",
              "name": "code",
              "type": "string"
            },
            {
              "internalType": "uint256",
              "name": "semester",
              "type": "uint256"
            },
            {
              "internalType": "uint256",
              "name": "year",
              "type": "uint256"
            },
            {
              "internalType": "uint256",
              "name": "studentCount",
              "type": "uint256"
            },
            {
              "internalType": "bool",
              "name": "ticketGenerated",
              "type": "bool"
            },
            {
              "internalType": "bytes32[]",
              "name": "tickets",
              "type": "bytes32[]"
            }
          ],
          "internalType": "struct FeedbackData.Course[][]",
          "name": "",
          "type": "tuple[][]"
        }
      ],
      "stateMutability": "view",
      "type": "function",
      "constant": true
    },
    {
      "inputs": [
        {
          "internalType": "string",
          "name": "_email",
          "type": "string"
        }
      ],
      "name": "getSkillsUpvote",
      "outputs": [
        {
          "components": [
            {
              "internalType": "string",
              "name": "name",
              "type": "string"
            },
            {
              "internalType": "uint256",
              "name": "count",
              "type": "uint256"
            }
          ],
          "internalType": "struct FeedbackData.SkillsUpvoteCount[]",
          "name": "",
          "type": "tuple[]"
        }
      ],
      "stateMutability": "view",
      "type": "function",
      "constant": true
    },
    {
      "inputs": [
        {
          "internalType": "uint256",
          "name": "_year",
          "type": "uint256"
        },
        {
          "internalType": "string",
          "name": "_email",
          "type": "string"
        },
        {
          "internalType": "string",
          "name": "_name",
          "type": "string"
        },
        {
          "internalType": "string",
          "name": "_code",
          "type": "string"
        },
        {
          "internalType": "uint256",
          "name": "_sem",
          "type": "uint256"
        },
        {
          "internalType": "uint256",
          "name": "_studentCount",
          "type": "uint256"
        }
      ],
      "name": "addCourse",
      "outputs": [],
      "stateMutability": "nonpayable",
      "type": "function"
    },
    {
      "inputs": [
        {
          "internalType": "string",
          "name": "_email",
          "type": "string"
        },
        {
          "internalType": "uint256",
          "name": "_year",
          "type": "uint256"
        },
        {
          "internalType": "uint256",
          "name": "_sem",
          "type": "uint256"
        },
        {
          "internalType": "string",
          "name": "_code",
          "type": "string"
        },
        {
          "internalType": "string",
          "name": "_seed",
          "type": "string"
        }
      ],
      "name": "generateTickets",
      "outputs": [],
      "stateMutability": "nonpayable",
      "type": "function"
    },
    {
      "inputs": [
        {
          "internalType": "string",
          "name": "_email",
          "type": "string"
        },
        {
          "internalType": "bytes32",
          "name": "_ticket",
          "type": "bytes32"
        },
        {
          "components": [
            {
              "internalType": "uint256",
              "name": "preDecimal",
              "type": "uint256"
            },
            {
              "internalType": "uint256",
              "name": "postDecimal",
              "type": "uint256"
            }
          ],
          "internalType": "struct FeedbackData.Float",
          "name": "updatedRating",
          "type": "tuple"
        },
        {
          "components": [
            {
              "internalType": "string",
              "name": "code",
              "type": "string"
            },
            {
              "internalType": "uint256",
              "name": "semester",
              "type": "uint256"
            },
            {
              "internalType": "uint256",
              "name": "year",
              "type": "uint256"
            },
            {
              "internalType": "string",
              "name": "content",
              "type": "string"
            },
            {
              "internalType": "string[]",
              "name": "skills",
              "type": "string[]"
            }
          ],
          "internalType": "struct FeedbackData.Feedback",
          "name": "_feedback",
          "type": "tuple"
        }
      ],
      "name": "submitFeedback",
      "outputs": [],
      "stateMutability": "nonpayable",
      "type": "function"
    }
  ],
  "bytecode": "0x60096101209081526844697665727369747960b81b610140526080908152600d6101609081526c21b7b6b6bab734b1b0ba34b7b760991b6101805260a052600a6101a08181526950726f6365647572657360b01b6101c05260c0526101e0908152695068696c6f736f70687960b01b6102005260e052610260604052600f6102209081526e53747564656e744c6561726e696e6760881b6102405261010052620000ae90600090600562000178565b50674563918244f40000600c556729a2241af62c0000600d55348015620000d457600080fd5b506040516200430638038062004306833981016040819052620000f79162000347565b60408051446020820152429181019190915260600160408051601f19818403018152908290528051602091820120600955620001369184910162000414565b60408051808303601f190181529190528051602090910120600a55600b80546001600160a01b0319166001600160a01b0392909216919091179055506200046f565b828054828255906000526020600020908101928215620001ca579160200282015b82811115620001ca5782518051620001b9918491602090910190620001dc565b509160200191906001019062000199565b50620001d892915062000267565b5090565b828054620001ea9062000432565b90600052602060002090601f0160209004810192826200020e576000855562000259565b82601f106200022957805160ff191683800117855562000259565b8280016001018555821562000259579182015b82811115620002595782518255916020019190600101906200023c565b50620001d892915062000288565b80821115620001d85760006200027e82826200029f565b5060010162000267565b5b80821115620001d8576000815560010162000289565b508054620002ad9062000432565b6000825580601f10620002be575050565b601f016020900490600052602060002090810190620002de919062000288565b50565b634e487b7160e01b600052604160045260246000fd5b60005b8381101562000314578181015183820152602001620002fa565b8381111562000324576000848401525b50505050565b80516001600160a01b03811681146200034257600080fd5b919050565b600080604083850312156200035b57600080fd5b82516001600160401b03808211156200037357600080fd5b818501915085601f8301126200038857600080fd5b8151818111156200039d576200039d620002e1565b604051601f8201601f19908116603f01168101908382118183101715620003c857620003c8620002e1565b81604052828152886020848701011115620003e257600080fd5b620003f5836020830160208801620002f7565b80965050505050506200040b602084016200032a565b90509250929050565b6000825162000428818460208701620002f7565b9190910192915050565b600181811c908216806200044757607f821691505b602082108114156200046957634e487b7160e01b600052602260045260246000fd5b50919050565b613e87806200047f6000396000f3fe608060405234801561001057600080fd5b506004361061014d5760003560e01c806369b3238c116100c3578063dc2772eb1161007c578063dc2772eb14610351578063e30a121114610364578063e30c009214610384578063f4cd31981461038d578063f52c1c0714610395578063fed5eb8d146103a857600080fd5b806369b3238c146102cf57806395613875146102e4578063be8f5fac1461030f578063cd14f4fb14610322578063cdfbb3511461032b578063d55808581461033e57600080fd5b806335f13f681161011557806335f13f68146102015780633bc79a9814610226578063466bf004146102545780635e566f20146102875780635f5152261461029c578063695a7d49146102af57600080fd5b806303ea41a2146101525780630a06db071461017b5780631d3225651461019e57806331ea9810146101be578063339f3660146101e1575b600080fd5b610165610160366004612aae565b6103bb565b6040516101729190612b4b565b60405180910390f35b61018e610189366004612c98565b610750565b6040516101729493929190612cba565b6101b16101ac366004612cf6565b6108ad565b6040516101729190612d6a565b6101d16101cc366004612ec0565b610ae8565b6040516101729493929190612efc565b6101f46101ef366004612aae565b610c4d565b6040516101729190612f53565b61021461020f366004612c98565b610f78565b60405161017296959493929190613082565b6102466102343660046130cf565b60046020526000908152604090205481565b604051908152602001610172565b6102776102623660046130cf565b60086020526000908152604090205460ff1681565b6040519015158152602001610172565b61028f6110e5565b60405161017291906130e8565b6102466102aa36600461314a565b6111be565b6102c26102bd3660046130cf565b611233565b604051610172919061317a565b6102e26102dd36600461318d565b6112df565b005b6001546102f7906001600160a01b031681565b6040516001600160a01b039091168152602001610172565b6102e261031d366004612ec0565b61163a565b610246600c5481565b6102e2610339366004613200565b611746565b6102e261034c36600461326b565b61181a565b6102e261035f366004613320565b611a40565b610377610372366004612aae565b612200565b6040516101729190613424565b610246600d5481565b61028f6123be565b6102c26103a33660046130cf565b61248e565b6102e26103b6366004613437565b61249e565b60606000600784846040516103d19291906134d2565b908152604051908190036020019020600101546001600160401b038111156103fb576103fb612e1e565b60405190808252806020026020018201604052801561042e57816020015b60608152602001906001900390816104195790505b50905060005b600785856040516104469291906134d2565b908152604051908190036020019020600101548110156107485760066000600787876040516104769291906134d2565b90815260200160405180910390206001018381548110610498576104986134e2565b90600052602060002001548152602001908152602001600020805480602002602001604051908101604052809291908181526020016000905b8282101561071457838290600052602060002090600502016040518060a0016040529081600082018054610504906134f8565b80601f0160208091040260200160405190810160405280929190818152602001828054610530906134f8565b801561057d5780601f106105525761010080835404028352916020019161057d565b820191906000526020600020905b81548152906001019060200180831161056057829003601f168201915b5050505050815260200160018201548152602001600282015481526020016003820180546105aa906134f8565b80601f01602080910402602001604051908101604052809291908181526020018280546105d6906134f8565b80156106235780601f106105f857610100808354040283529160200191610623565b820191906000526020600020905b81548152906001019060200180831161060657829003601f168201915b5050505050815260200160048201805480602002602001604051908101604052809291908181526020016000905b828210156106fd578382906000526020600020018054610670906134f8565b80601f016020809104026020016040519081016040528092919081815260200182805461069c906134f8565b80156106e95780601f106106be576101008083540402835291602001916106e9565b820191906000526020600020905b8154815290600101906020018083116106cc57829003601f168201915b505050505081526020019060010190610651565b5050505081525050815260200190600101906104d1565b5050505082828151811061072a5761072a6134e2565b6020026020010181905250808061074090613549565b915050610434565b509392505050565b6006602052816000526040600020818154811061076c57600080fd5b906000526020600020906005020160009150915050806000018054610790906134f8565b80601f01602080910402602001604051908101604052809291908181526020018280546107bc906134f8565b80156108095780601f106107de57610100808354040283529160200191610809565b820191906000526020600020905b8154815290600101906020018083116107ec57829003601f168201915b50505050509080600101549080600201549080600301805461082a906134f8565b80601f0160208091040260200160405190810160405280929190818152602001828054610856906134f8565b80156108a35780601f10610878576101008083540402835291602001916108a3565b820191906000526020600020905b81548152906001019060200180831161088657829003601f168201915b5050505050905084565b60606000826001600160401b038111156108c9576108c9612e1e565b60405190808252806020026020018201604052801561090257816020015b6108ef6128d4565b8152602001906001900390816108e75790505b50905060005b83811015610748576003858583818110610924576109246134e2565b90506020028101906109369190613564565b6040516109449291906134d2565b908152602001604051809103902060405180608001604052908160008201805461096d906134f8565b80601f0160208091040260200160405190810160405280929190818152602001828054610999906134f8565b80156109e65780601f106109bb576101008083540402835291602001916109e6565b820191906000526020600020905b8154815290600101906020018083116109c957829003601f168201915b505050505081526020016001820180546109ff906134f8565b80601f0160208091040260200160405190810160405280929190818152602001828054610a2b906134f8565b8015610a785780601f10610a4d57610100808354040283529160200191610a78565b820191906000526020600020905b815481529060010190602001808311610a5b57829003601f168201915b505050918352505060028201546001600160a01b0316602080830191909152604080518082018252600385015481526004909401549184019190915201528251839083908110610aca57610aca6134e2565b60200260200101819052508080610ae090613549565b915050610908565b8051602081830181018051600382529282019190930120915280548190610b0e906134f8565b80601f0160208091040260200160405190810160405280929190818152602001828054610b3a906134f8565b8015610b875780601f10610b5c57610100808354040283529160200191610b87565b820191906000526020600020905b815481529060010190602001808311610b6a57829003601f168201915b505050505090806001018054610b9c906134f8565b80601f0160208091040260200160405190810160405280929190818152602001828054610bc8906134f8565b8015610c155780601f10610bea57610100808354040283529160200191610c15565b820191906000526020600020905b815481529060010190602001808311610bf857829003601f168201915b5050505060028301546040805180820190915260038501548152600490940154602085015291926001600160a01b0390921691905084565b6060600060078484604051610c639291906134d2565b908152604051908190036020019020546001600160401b03811115610c8a57610c8a612e1e565b604051908082528060200260200182016040528015610cbd57816020015b6060815260200190600190039081610ca85790505b50905060005b60078585604051610cd59291906134d2565b90815260405190819003602001902054811015610748576005600060078787604051610d029291906134d2565b90815260200160405180910390206000018381548110610d2457610d246134e2565b90600052602060002001548152602001908152602001600020805480602002602001604051908101604052809291908181526020016000905b82821015610f4457838290600052602060002090600702016040518060e0016040529081600082018054610d90906134f8565b80601f0160208091040260200160405190810160405280929190818152602001828054610dbc906134f8565b8015610e095780601f10610dde57610100808354040283529160200191610e09565b820191906000526020600020905b815481529060010190602001808311610dec57829003601f168201915b50505050508152602001600182018054610e22906134f8565b80601f0160208091040260200160405190810160405280929190818152602001828054610e4e906134f8565b8015610e9b5780601f10610e7057610100808354040283529160200191610e9b565b820191906000526020600020905b815481529060010190602001808311610e7e57829003601f168201915b505050505081526020016002820154815260200160038201548152602001600482015481526020016005820160009054906101000a900460ff1615151515815260200160068201805480602002602001604051908101604052809291908181526020018280548015610f2c57602002820191906000526020600020905b815481526020019060010190808311610f18575b50505050508152505081526020019060010190610d5d565b50505050828281518110610f5a57610f5a6134e2565b60200260200101819052508080610f7090613549565b915050610cc3565b60056020528160005260406000208181548110610f9457600080fd5b906000526020600020906007020160009150915050806000018054610fb8906134f8565b80601f0160208091040260200160405190810160405280929190818152602001828054610fe4906134f8565b80156110315780601f1061100657610100808354040283529160200191611031565b820191906000526020600020905b81548152906001019060200180831161101457829003601f168201915b505050505090806001018054611046906134f8565b80601f0160208091040260200160405190810160405280929190818152602001828054611072906134f8565b80156110bf5780601f10611094576101008083540402835291602001916110bf565b820191906000526020600020905b8154815290600101906020018083116110a257829003601f168201915b505050506002830154600384015460048501546005909501549394919390925060ff1686565b60606000805480602002602001604051908101604052809291908181526020016000905b828210156111b5578382906000526020600020018054611128906134f8565b80601f0160208091040260200160405190810160405280929190818152602001828054611154906134f8565b80156111a15780601f10611176576101008083540402835291602001916111a1565b820191906000526020600020905b81548152906001019060200180831161118457829003601f168201915b505050505081526020019060010190611109565b50505050905090565b600b546040516370a0823160e01b81526001600160a01b03838116600483015260009216906370a0823190602401602060405180830381865afa158015611209573d6000803e3d6000fd5b505050506040513d601f19601f8201168201806040525081019061122d91906135aa565b92915050565b6002818154811061124357600080fd5b90600052602060002001600091509050805461125e906134f8565b80601f016020809104026020016040519081016040528092919081815260200182805461128a906134f8565b80156112d75780601f106112ac576101008083540402835291602001916112d7565b820191906000526020600020905b8154815290600101906020018083116112ba57829003601f168201915b505050505081565b836113495760405162461bcd60e51b815260206004820152602f60248201527f4e616d652063616e206e6f7420626520626c616e6b20647572696e672070726f60448201526e3332b9b9b7b91031b932b0ba34b7b760891b60648201526084015b60405180910390fd5b816113af5760405162461bcd60e51b815260206004820152603060248201527f456d61696c2063616e206e6f7420626520626c616e6b20647572696e6720707260448201526f37b332b9b9b7b91031b932b0ba34b7b760811b6064820152608401611340565b336113fc5760405162461bcd60e51b815260206004820152601960248201527f7573657220616464726573732073686f756c64206578697374000000000000006044820152606401611340565b60008181526008602052604090205460ff1615156001146114565760405162461bcd60e51b81526020600482015260146024820152731c1c9bdd9a5919481d985b1a59081cd958dc995d60621b6044820152606401611340565b604051806080016040528086868080601f016020809104026020016040519081016040528093929190818152602001838380828437600092019190915250505090825250604080516020601f87018190048102820181019092528581529181019190869086908190840183828082843760009201829052509385525050336020808501919091526040805180820182528481529182019390935292820192909252516003915061150990869086906134d2565b9081526020016040518091039020600082015181600001908051906020019061153392919061291f565b50602082810151805161154c926001850192019061291f565b506040820151600282810180546001600160a01b0319166001600160a01b0390931692909217909155606090920151805160038301556020015160049091015580546001810182556000919091526115c7907f405787fa12a823e0f2b7631cc41b3ba8828b3321ca811111fa75cd3aa3bb5ace0184846129a3565b5060008181526008602052604090819020805460ff19169055517ff77cad3ffab6ca3874c9b0ce7fb99f424a7eb16380379a0f62e6626fea7bdcce9060039061161390869086906134d2565b90815260405190819003602001812061162b9161363a565b60405180910390a15050505050565b600a548160405160200161164e91906136a0565b60405160208183030381529060405280519060200120146116a45760405162461bcd60e51b815260206004820152601060248201526f1a5b9d985b1a59081c185cdcdddbdc9960821b6044820152606401611340565b600980549060006116b483613549565b91905055506000426009546040516020016116d9929190918252602082015260400190565b60408051601f19818403018152828252805160209182012060008181526008909252919020805460ff1916600117905591507f8c6adcc89fb3a5c5ff4d5bb7afc4eeb464c80bd1c42b23064841c593ab9887e89061173a9083815260200190565b60405180910390a15050565b600a54848460405160200161175c9291906134d2565b60405160208183030381529060405280519060200120146117b65760405162461bcd60e51b81526020600482015260146024820152731a5b9d985b1a59081bdb19081c185cdcdddbdc9960621b6044820152606401611340565b81816040516020016117c99291906134d2565b60408051808303601f19018152908290528051602091820120600a55600182527fcefcc0dd46c7f93764838bb11642de48894eaf912169be55a4e9f9beab96654f910160405180910390a150505050565b604080516101006020601f8901819004028201810190925260e081018781526000928291908a908a9081908501838280828437600092019190915250505090825250604080516020601f8901819004810282018101909252878152918101919088908890819084018382808284376000920182905250938552505050602080830187905260408084018f905260608401879052608084018390528051838152808301825260a0909401939093529151929350916118df918c918c918f918991016136bc565b6040516020818303038152906040528051906020012090506119028a8a8361280f565b6119108a8a8d878a8a61285e565b600081815260056020908152604082208054600181018255908352918190208451805186946007029092019261194b9284929091019061291f565b506020828101518051611964926001850192019061291f565b5060408201516002820155606082015160038201556080820151600482015560a082015160058201805460ff191691151591909117905560c082015180516119b6916006840191602090910190612a17565b505050600081815260056020526040902080547f56ff489b5a33d116a814463d8d88ac249e308bc2743f22d1d3116b1509588fd6918c918c918f916119fd906001906136ea565b81548110611a0d57611a0d6134e2565b9060005260206000209060070201604051611a2b949392919061376a565b60405180910390a15050505050505050505050565b6000858583604001358460200135604051602001611a6194939291906136bc565b6040516020818303038152906040528051906020012090506000805b600083815260056020526040902054821015611b3b57611a9d8480613564565b604051602001611aae9291906134d2565b60408051601f198184030181529181528151602092830120600086815260059093529120805484908110611ae457611ae46134e2565b9060005260206000209060070201600101604051602001611b059190613879565b604051602081830303815290604052805190602001201415611b2957506001611b3b565b81611b3381613549565b925050611a7d565b80611b985760405162461bcd60e51b815260206004820152602760248201527f636f75727365206e6f7420666f756e642c20696e76616c696420636f757273656044820152660819195d185a5b60ca1b6064820152608401611340565b50600082815260056020526040812080548291829185908110611bbd57611bbd6134e2565b90600052602060002090600702016006018054905090505b80821015611c4e576000858152600560205260409020805489919086908110611c0057611c006134e2565b90600052602060002090600702016006018381548110611c2257611c226134e2565b90600052602060002001541415611c3c5760019250611c4e565b81611c4681613549565b925050611bd5565b82611ca95760405162461bcd60e51b815260206004820152602560248201527f7469636b6574206e6f7420666f756e642c207375626d69742076616c696420746044820152641a58dad95d60da1b6064820152608401611340565b6000858152600560205260409020805485908110611cc957611cc96134e2565b9060005260206000209060070201600601600182611ce791906136ea565b81548110611cf757611cf76134e2565b9060005260206000200154600560008781526020019081526020016000208581548110611d2657611d266134e2565b90600052602060002090600702016006018381548110611d4857611d486134e2565b9060005260206000200181905550600560008681526020019081526020016000208481548110611d7a57611d7a6134e2565b9060005260206000209060070201600601805480611d9a57611d9a613885565b600082815260208120820160001990810182905590910190915585611dbf8880613564565b604051602001611dd19392919061389b565b60408051601f198184030181529181528151602092830120600081815260068452918220805460018101825590835292909120909250889160050201611e178282613b09565b505060008181526006602052604090208054907f621f6c85f4ec6c24e3ef3fae1311b591199f13477580f239a708ec1e0123d582908d908d90611e5b6001866136ea565b81548110611e6b57611e6b6134e2565b9060005260206000209060050201604051611e8893929190613ba6565b60405180910390a160005b611ea060808a018a6139d7565b9050811015611f3d5760008d8d611eba60808d018d6139d7565b85818110611eca57611eca6134e2565b9050602002810190611edc9190613564565b604051602001611eef9493929190613c69565b60408051601f1981840301815291815281516020928301206000818152600490935290822080549193509091611f2483613549565b9190505550508080611f3590613549565b915050611e93565b507fd13d2122f194eef81e0738f122d85de9ec47c971b03882a46cfe5c4f32e58c0a8c8c611f6b8f8f612200565b604051611f7a93929190613c96565b60405180910390a18860038d8d604051611f959291906134d2565b908152604051908190036020019020600301611fbe828281358155602082013560018201555050565b9050507f708a0cbbf33c4bb1f5dd31e0858489399277fefc4d0f9c7bec472197e09a2fe88c8c8b604051611ff493929190613cc6565b60405180910390a160008781526005602052604090208054600391829189908110612021576120216134e2565b90600052602060002090600702016004015461203d9190613cf5565b82116120c257600b54600c5460405163a9059cbb60e01b815233600482015260248101919091526001600160a01b039091169063a9059cbb906044016020604051808303816000875af1158015612098573d6000803e3d6000fd5b505050506040513d601f19601f820116820180604052508101906120bc9190613d17565b5061213d565b600b54600d5460405163a9059cbb60e01b815233600482015260248101919091526001600160a01b039091169063a9059cbb906044016020604051808303816000875af1158015612117573d6000803e3d6000fd5b505050506040513d601f19601f8201168201806040525081019061213b9190613d17565b505b600b546040516370a0823160e01b815233600482018190527fbe32f2019026bb0b892e1a82ba94e40edfe612b262b2085f499f0eebb7efc12f9290916001600160a01b03909116906370a0823190602401602060405180830381865afa1580156121ab573d6000803e3d6000fd5b505050506040513d601f19601f820116820180604052508101906121cf91906135aa565b604080516001600160a01b03909316835260208301919091520160405180910390a150505050505050505050505050565b60008054606091906001600160401b0381111561221f5761221f612e1e565b60405190808252806020026020018201604052801561226557816020015b60408051808201909152606081526000602082015281526020019060019003908161223d5790505b50905060005b60005481101561074857600085856000848154811061228c5761228c6134e2565b906000526020600020016040516020016122a893929190613d39565b6040516020818303038152906040528051906020012090506040518060400160405280600084815481106122de576122de6134e2565b9060005260206000200180546122f3906134f8565b80601f016020809104026020016040519081016040528092919081815260200182805461231f906134f8565b801561236c5780601f106123415761010080835404028352916020019161236c565b820191906000526020600020905b81548152906001019060200180831161234f57829003601f168201915b50505050508152602001600460008481526020019081526020016000205481525083838151811061239f5761239f6134e2565b60200260200101819052505080806123b690613549565b91505061226b565b60606002805480602002602001604051908101604052809291908181526020016000905b828210156111b5578382906000526020600020018054612401906134f8565b80601f016020809104026020016040519081016040528092919081815260200182805461242d906134f8565b801561247a5780601f1061244f5761010080835404028352916020019161247a565b820191906000526020600020905b81548152906001019060200180831161245d57829003601f168201915b5050505050815260200190600101906123e2565b6000818154811061124357600080fd5b60008585856040516020016124b593929190613d58565b60405160208183030381529060405280519060200120905060008060005b60008481526005602052604090205481101561258b57856040516020016124fa91906136a0565b60408051601f198184030181529181528151602092830120600087815260059093529120805483908110612530576125306134e2565b90600052602060002090600702016001016040516020016125519190613879565b604051602081830303815290604052805190602001201415612579578092506001915061258b565b8061258381613549565b9150506124d3565b6001821515146125e95760405162461bcd60e51b815260206004820152602360248201527f77726f6e672063726564656e7469616c732c20636f75727365206e6f7420666f6044820152621d5b9960ea1b6064820152608401611340565b6000848152600560205260409020805484908110612609576126096134e2565b600091825260209091206005600790920201015460ff161561266d5760405162461bcd60e51b815260206004820152601d60248201527f7469636b6574732061726520616c72656164792067656e6572617465640000006044820152606401611340565b600084815260056020526040902080546001919085908110612691576126916134e2565b60009182526020822060079190910201600501805460ff19169215159290921790915590505b60008481526005602052604090208054849081106126d7576126d76134e2565b90600052602060002090600702016004015481101561279157600042866009544460405160200161270b9493929190613d8f565b60408051601f19818403018152919052805160209091012060098054919250600061273583613549565b9091555050600085815260056020526040902080548590811061275a5761275a6134e2565b600091825260208083206006600790930201919091018054600181018255908352912001558061278981613549565b9150506126b7565b7f0aa509c398501987b09b5e8d6f21a19bf8a9d391fc11a6c17a1bb9093519a3d589898989600560008a815260200190815260200160002088815481106127da576127da6134e2565b90600052602060002090600702016006016040516127fc959493929190613dc1565b60405180910390a1505050505050505050565b60008181526005602052604090205461285957600783836040516128349291906134d2565b9081526040516020918190038201902080546001810182556000918252919020018190555b505050565b600086868686868660405160200161287b96959493929190613e06565b604051602081830303815290604052805190602001209050600787876040516128a59291906134d2565b908152604051602091819003820190206001908101805491820181556000908152919091200155505050505050565b6040518060800160405280606081526020016060815260200160006001600160a01b0316815260200161291a604051806040016040528060008152602001600081525090565b905290565b82805461292b906134f8565b90600052602060002090601f01602090048101928261294d5760008555612993565b82601f1061296657805160ff1916838001178555612993565b82800160010185558215612993579182015b82811115612993578251825591602001919060010190612978565b5061299f929150612a51565b5090565b8280546129af906134f8565b90600052602060002090601f0160209004810192826129d15760008555612993565b82601f106129ea5782800160ff19823516178555612993565b82800160010185558215612993579182015b828111156129935782358255916020019190600101906129fc565b8280548282559060005260206000209081019282156129935791602002820182811115612993578251825591602001919060010190612978565b5b8082111561299f5760008155600101612a52565b60008083601f840112612a7857600080fd5b5081356001600160401b03811115612a8f57600080fd5b602083019150836020828501011115612aa757600080fd5b9250929050565b60008060208385031215612ac157600080fd5b82356001600160401b03811115612ad757600080fd5b612ae385828601612a66565b90969095509350505050565b60005b83811015612b0a578181015183820152602001612af2565b83811115612b19576000848401525b50505050565b60008151808452612b37816020860160208601612aef565b601f01601f19169290920160200192915050565b60208152600060208201835180825260408401915060408160051b8501016020860160005b83811015612c8c57868303603f19018552815180518085526020918201918086019190600582901b87010160005b82811015612c7257601f198883030184528451805160a08452612bc460a0850182612b1f565b9050602082015160208501526040820151604085015260608201518482036060860152612bf18282612b1f565b91505060808201519150838103608085015280825180835260208301915060208160051b84010160208501945060005b82811015612c5257601f19858303018452612c3d828751612b1f565b60209687019694909401939150600101612c21565b508096505050505050602085019450602084019350600181019050612b9e565b506020988901989096509490940193505050600101612b70565b50909695505050505050565b60008060408385031215612cab57600080fd5b50508035926020909101359150565b608081526000612ccd6080830187612b1f565b8560208401528460408401528281036060840152612ceb8185612b1f565b979650505050505050565b60008060208385031215612d0957600080fd5b82356001600160401b0380821115612d2057600080fd5b818501915085601f830112612d3457600080fd5b813581811115612d4357600080fd5b8660208260051b8501011115612d5857600080fd5b60209290920196919550909350505050565b60006020808301818452808551808352604092508286019150828160051b87010184880160005b83811015612e1057603f19898403018552815160a08151818652612db782870182612b1f565b915050888201518582038a870152612dcf8282612b1f565b898401516001600160a01b0316878b015260609384015180518589015260208101516080890152939092509050509588019593505090860190600101612d91565b509098975050505050505050565b634e487b7160e01b600052604160045260246000fd5b600082601f830112612e4557600080fd5b81356001600160401b0380821115612e5f57612e5f612e1e565b604051601f8301601f19908116603f01168101908282118183101715612e8757612e87612e1e565b81604052838152866020858801011115612ea057600080fd5b836020870160208301376000602085830101528094505050505092915050565b600060208284031215612ed257600080fd5b81356001600160401b03811115612ee857600080fd5b612ef484828501612e34565b949350505050565b60a081526000612f0f60a0830187612b1f565b8281036020840152612f218187612b1f565b6001600160a01b038616604085015284516060850152602085015160808501529150612f4a9050565b95945050505050565b60006020808301818452808551808352604092508286019150828160051b87010184880160005b83811015612e1057888303603f19018552815180518085529088019088850190600581901b86018a0160005b8281101561306c57601f19888303018452845160e08151818552612fcc82860182612b1f565b9150508d8201518482038f860152612fe48282612b1f565b9150508c8201518d8501526060808301518186015250608080830151818601525060a0808301511515818601525060c080830151925084820381860152508082518083528f830191508f84019350600092505b808310156130575783518252928f019260019290920191908f0190613037565b50968e0196958e019593505050600101612fa6565b50978a0197955050509187019150600101612f7a565b60c08152600061309560c0830189612b1f565b82810360208401526130a78189612b1f565b91505085604083015284606083015283608083015282151560a0830152979650505050505050565b6000602082840312156130e157600080fd5b5035919050565b6000602080830181845280855180835260408601915060408160051b870101925083870160005b8281101561313d57603f1988860301845261312b858351612b1f565b9450928501929085019060010161310f565b5092979650505050505050565b60006020828403121561315c57600080fd5b81356001600160a01b038116811461317357600080fd5b9392505050565b6020815260006131736020830184612b1f565b6000806000806000606086880312156131a557600080fd5b85356001600160401b03808211156131bc57600080fd5b6131c889838a01612a66565b909750955060208801359150808211156131e157600080fd5b506131ee88828901612a66565b96999598509660400135949350505050565b6000806000806040858703121561321657600080fd5b84356001600160401b038082111561322d57600080fd5b61323988838901612a66565b9096509450602087013591508082111561325257600080fd5b5061325f87828801612a66565b95989497509550505050565b600080600080600080600080600060c08a8c03121561328957600080fd5b8935985060208a01356001600160401b03808211156132a757600080fd5b6132b38d838e01612a66565b909a50985060408c01359150808211156132cc57600080fd5b6132d88d838e01612a66565b909850965060608c01359150808211156132f157600080fd5b506132fe8c828d01612a66565b9a9d999c50979a96999598959660808101359660a09091013595509350505050565b600080600080600085870360a081121561333957600080fd5b86356001600160401b038082111561335057600080fd5b61335c8a838b01612a66565b9098509650602089013595508691506040603f198401121561337d57600080fd5b604089019450608089013592508083111561339757600080fd5b5050860160a081890312156133ab57600080fd5b809150509295509295909350565b600081518084526020808501808196508360051b8101915082860160005b858110156134175782840389528151604081518187526133f982880182612b1f565b928801519688019690965250988501989350908401906001016133d7565b5091979650505050505050565b60208152600061317360208301846133b9565b600080600080600060a0868803121561344f57600080fd5b85356001600160401b038082111561346657600080fd5b61347289838a01612e34565b96506020880135955060408801359450606088013591508082111561349657600080fd5b6134a289838a01612e34565b935060808801359150808211156134b857600080fd5b506134c588828901612e34565b9150509295509295909350565b8183823760009101908152919050565b634e487b7160e01b600052603260045260246000fd5b600181811c9082168061350c57607f821691505b6020821081141561352d57634e487b7160e01b600052602260045260246000fd5b50919050565b634e487b7160e01b600052601160045260246000fd5b600060001982141561355d5761355d613533565b5060010190565b6000808335601e1984360301811261357b57600080fd5b8301803591506001600160401b0382111561359557600080fd5b602001915036819003821315612aa757600080fd5b6000602082840312156135bc57600080fd5b5051919050565b600081546135d0816134f8565b8085526020600183811680156135ed57600181146136015761362f565b60ff1985168884015260408801955061362f565b866000528260002060005b858110156136275781548a820186015290830190840161360c565b890184019650505b505050505092915050565b6020815260a06020820152600061365460c08301846135c3565b828103601f1901604084015261366d81600186016135c3565b60028501546001600160a01b031660608501526003850154608085015260049094015460a0909301929092525090919050565b600082516136b2818460208701612aef565b9190910192915050565b83858237600b60fa1b9301838152600181019290925260218201929092526022810191909152604201919050565b6000828210156136fc576136fc613533565b500390565b81835281816020850137506000828201602090810191909152601f909101601f19169091010190565b6000815480845260208085019450836000528060002060005b8381101561375f57815487529582019560019182019101613743565b509495945050505050565b60608152600061377e606083018688613701565b846020840152828103604084015260e0815261379d60e08201856135c3565b81810360208301526137b281600187016135c3565b905060028501546040830152600385015460608301526004850154608083015260ff6005860154166137e860a084018215159052565b5081810360c08301526137fe816006870161372a565b98975050505050505050565b60008154613817816134f8565b6001828116801561382f57600181146138405761386f565b60ff1984168752828701945061386f565b8560005260208060002060005b858110156138665781548a82015290840190820161384d565b50505082870194505b5050505092915050565b6000613173828461380a565b634e487b7160e01b600052603160045260246000fd5b838152600b60fa1b6020820152818360218301376000910160210190815292915050565b5b818110156138d457600081556001016138c0565b5050565b601f82111561285957806000526020600020601f840160051c810160208510156138ff5750805b613911601f850160051c8301826138bf565b5050505050565b6001600160401b0383111561392f5761392f612e1e565b6139438361393d83546134f8565b836138d8565b6000601f841160018114613977576000851561395f5750838201355b600019600387901b1c1916600186901b178355613911565b600083815260209020601f19861690835b828110156139a85786850135825560209485019460019092019101613988565b50868210156139c55760001960f88860031b161c19848701351681555b505060018560011b0183555050505050565b6000808335601e198436030181126139ee57600080fd5b8301803591506001600160401b03821115613a0857600080fd5b6020019150600581901b3603821315612aa757600080fd5b68010000000000000000831115613a3957613a39612e1e565b805483825580841015613ac2576000828152602081208581019083015b80821015613abe57613a6882546134f8565b8015613ab257601f80821160018114613a8357858555613aaf565b600085815260209020613aa083850160051c8201600183016138bf565b50600085815260208120818755555b50505b50600182019150613a56565b5050505b5060008181526020812083915b85811015613b0157613ae18386613564565b613aec818386613918565b50506020929092019160019182019101613acf565b505050505050565b613b138283613564565b613b1e818385613918565b50506020820135600182015560408201356002820155613b416060830183613564565b613b4f818360038601613918565b50506080820135601e19833603018112613b6857600080fd5b820180356001600160401b03811115613b8057600080fd5b6020820191508060051b3603821315613b9857600080fd5b612b19818360048601613a20565b604081526000613bba604083018587613701565b60208382038185015260a08252613bd460a08301866135c3565b60018087015483850152600287015460408501528382036060850152613bfd82600389016135c3565b915060048701848303608086015282945080548084528484019550848160051b8501018260005285600020925060005b82811015613c5957858203601f19018852613c4882856135c3565b978701979385019391508401613c2d565b509b9a5050505050505050505050565b83858237600b60fa1b81850190815260009083856001830137600093016001019283525090949350505050565b604081526000613caa604083018587613701565b8281036020840152613cbc81856133b9565b9695505050505050565b606081526000613cda606083018587613701565b90508235602083015260208301356040830152949350505050565b600082613d1257634e487b7160e01b600052601260045260246000fd5b500490565b600060208284031215613d2957600080fd5b8151801515811461317357600080fd5b82848237600b60fa1b818401908152600090613cbc600182018561380a565b60008451613d6a818460208901612aef565b600b60fa1b920182815260018101949094525060218301526022820152604201919050565b84815260008451613da7816020850160208901612aef565b909101602081019390935250604082015260600192915050565b60a081526000613dd460a0830188612b1f565b8660208401528560408401528281036060840152613df28186612b1f565b905082810360808401526137fe818561372a565b85878237600086820160008152600b60fa1b8082528760018301528060218301528660228301528060428301525083856043830137600093016043019283525090969550505050505056fea264697066735822122082104117cac44159dcd15cb530c8ebf177f8fc49b10184f459b7a4bf77ad0f0864736f6c634300080b0033",
  "immutableReferences": {},
  "source": "// SPDX-License-Identifier: MIT\r\npragma solidity >=0.4.21 <8.10.0;\r\n\r\nimport \"./Utils.sol\";\r\nimport \"./BHUToken.sol\";\r\n\r\ncontract FeedbackData {\r\n    string[] public facultySkills = [\r\n        \"Diversity\",\r\n        \"Communication\",\r\n        \"Procedures\",\r\n        \"Philosophy\",\r\n        \"StudentLearning\"\r\n    ];\r\n    Utils public util;\r\n\r\n    struct Feedback {\r\n        string code;\r\n        uint256 semester; // 0 for even and 1 for odd\r\n        uint256 year;\r\n        string content;\r\n        string[] skills;\r\n    }\r\n\r\n    struct Float {\r\n        uint256 preDecimal;\r\n        uint256 postDecimal;\r\n    }\r\n\r\n    struct Course {\r\n        string name;\r\n        string code;\r\n        uint256 semester; // 0 for even and 1 for odd\r\n        uint256 year;\r\n        uint256 studentCount;\r\n        bool ticketGenerated;\r\n        bytes32[] tickets;\r\n    }\r\n\r\n    struct SkillsUpvoteCount {\r\n        string name;\r\n        uint256 count;\r\n    }\r\n\r\n    struct Professor {\r\n        string name;\r\n        string email;\r\n        address addressId;\r\n        Float rating;\r\n    }\r\n\r\n    struct ProfessorCreds_Key {\r\n        bytes32[] courses;\r\n        bytes32[] feedbacks;\r\n    }\r\n\r\n    string[] public emails;\r\n\r\n    mapping(string => Professor) public professorDetail;\r\n    mapping(bytes32 => uint256) public skillsCount; // email+skill\r\n\r\n    //TODO change formate of prof skill upvotes\r\n\r\n    mapping(bytes32 => Course[]) public courses; // email+year+sem\r\n    mapping(bytes32 => Feedback[]) public feedbacks; // email+year+sem+course_code\r\n\r\n    mapping(string => ProfessorCreds_Key) private profCred_Keys;\r\n    mapping(bytes32 => bool) public _keysForProfReg;\r\n\r\n    uint256 private counterForProfReg;\r\n    bytes32 private adminPassword;\r\n    BHUToken private bhuToken;\r\n    uint256 public earlyFeedbackCost = 5e18;\r\n    uint256 public lateFeedbackCost = 3e18;\r\n\r\n    constructor(string memory adminKey, address _bhuToken) {\r\n        counterForProfReg = uint256(\r\n            keccak256(abi.encodePacked(block.difficulty, block.timestamp))\r\n        );\r\n        adminPassword = keccak256(abi.encodePacked(adminKey));\r\n        bhuToken = BHUToken(_bhuToken);\r\n    }\r\n\r\n    event professorCreated(Professor professor);\r\n    event courseUpdated(string email, uint256 year, Course course);\r\n    event tokenGenerated(bytes32 token);\r\n    event ticketGenerated(\r\n        string email,\r\n        uint256 year,\r\n        uint256 sem,\r\n        string code,\r\n        bytes32[] tickets\r\n    );\r\n    event feedbackSubmitted(string email, Feedback feedback);\r\n    event skillsUpvoted(string email, SkillsUpvoteCount[] skills);\r\n    event ratingUpdated(string email, Float rating);\r\n    event balanceUpdated(address account, uint256 balance);\r\n    event passwordUpdated(bool success);\r\n\r\n    function generateTokenForProfReg(string memory adminKey) public {\r\n        require(\r\n            keccak256(abi.encodePacked(adminKey)) == adminPassword,\r\n            \"invalid password\"\r\n        );\r\n        counterForProfReg++;\r\n        bytes32 id = keccak256(\r\n            abi.encodePacked(block.timestamp, counterForProfReg)\r\n        );\r\n        _keysForProfReg[id] = true;\r\n        emit tokenGenerated(id);\r\n    }\r\n\r\n    function checkBalance(address _address) public view returns (uint256) {\r\n        return bhuToken.balanceOf(_address);\r\n    }\r\n\r\n    function updatePassword(\r\n        string calldata oldPassword,\r\n        string calldata newPassword\r\n    ) public {\r\n        require(\r\n            keccak256(abi.encodePacked(oldPassword)) == adminPassword,\r\n            \"invalid old password\"\r\n        );\r\n        adminPassword = keccak256(abi.encodePacked(newPassword));\r\n        emit passwordUpdated(true);\r\n    }\r\n\r\n    function getFacultySkills() public view returns (string[] memory) {\r\n        return facultySkills;\r\n    }\r\n\r\n    function createProfessor(\r\n        string calldata name,\r\n        string calldata email,\r\n        bytes32 secret\r\n    ) public {\r\n        require(\r\n            bytes(name).length > 0,\r\n            \"Name can not be blank during professor creation\"\r\n        );\r\n        require(\r\n            bytes(email).length > 0,\r\n            \"Email can not be blank during professor creation\"\r\n        );\r\n        require(msg.sender != address(0 * 0), \"user address should exist\");\r\n        require(_keysForProfReg[secret] == true, \"provide valid secret\");\r\n\r\n        professorDetail[email] = Professor({\r\n            name: name,\r\n            email: email,\r\n            addressId: msg.sender,\r\n            rating: Float(0, 0)\r\n        });\r\n\r\n        emails.push(email);\r\n\r\n        _keysForProfReg[secret] = false;\r\n\r\n        emit professorCreated(professorDetail[email]);\r\n    }\r\n\r\n    function getProfessorIds() public view returns (string[] memory) {\r\n        return emails;\r\n    }\r\n\r\n    function getProfessorsDetailsByIds(string[] calldata ids)\r\n        public\r\n        view\r\n        returns (Professor[] memory)\r\n    {\r\n        Professor[] memory _professorList = new Professor[](ids.length);\r\n\r\n        for (uint256 i = 0; i < ids.length; i++) {\r\n            _professorList[i] = professorDetail[ids[i]];\r\n        }\r\n\r\n        return _professorList;\r\n    }\r\n\r\n    function getFeedbacks(string calldata _email)\r\n        public\r\n        view\r\n        returns (Feedback[][] memory)\r\n    {\r\n        Feedback[][] memory _feedbacks = new Feedback[][](\r\n            profCred_Keys[_email].feedbacks.length\r\n        );\r\n        for (uint256 i = 0; i < profCred_Keys[_email].feedbacks.length; i++) {\r\n            _feedbacks[i] = feedbacks[profCred_Keys[_email].feedbacks[i]];\r\n        }\r\n        return _feedbacks;\r\n    }\r\n\r\n    function getCourses(string calldata _email)\r\n        public\r\n        view\r\n        returns (Course[][] memory)\r\n    {\r\n        Course[][] memory _courses = new Course[][](\r\n            profCred_Keys[_email].courses.length\r\n        );\r\n        for (uint256 i = 0; i < profCred_Keys[_email].courses.length; i++) {\r\n            _courses[i] = courses[profCred_Keys[_email].courses[i]];\r\n        }\r\n\r\n        return _courses;\r\n    }\r\n\r\n    function getSkillsUpvote(string calldata _email)\r\n        public\r\n        view\r\n        returns (SkillsUpvoteCount[] memory)\r\n    {\r\n        SkillsUpvoteCount[] memory skillUpvotes = new SkillsUpvoteCount[](\r\n            facultySkills.length\r\n        );\r\n        for (uint256 i = 0; i < facultySkills.length; i++) {\r\n            bytes32 _key = keccak256(\r\n                abi.encodePacked(_email, \",\", facultySkills[i])\r\n            );\r\n            skillUpvotes[i] = SkillsUpvoteCount({\r\n                name: facultySkills[i],\r\n                count: skillsCount[_key]\r\n            });\r\n        }\r\n\r\n        return skillUpvotes;\r\n    }\r\n\r\n    function addCourse(\r\n        uint256 _year,\r\n        string calldata _email,\r\n        string calldata _name,\r\n        string calldata _code,\r\n        uint256 _sem,\r\n        uint256 _studentCount\r\n    ) public {\r\n        // uint _year = util.getYear(block.timestamp);\r\n\r\n        Course memory _course = Course({\r\n            name: _name,\r\n            code: _code,\r\n            year: _year,\r\n            semester: _sem,\r\n            studentCount: _studentCount,\r\n            ticketGenerated: false,\r\n            tickets: new bytes32[](0)\r\n        });\r\n\r\n        bytes32 __key = keccak256(\r\n            abi.encodePacked(_email, \",\", _year, \",\", _sem)\r\n        );\r\n\r\n        addCourseKey(_email, __key);\r\n        addfeedbackKey(_email, _year, _sem, _code);\r\n\r\n        courses[__key].push(_course);\r\n        emit courseUpdated(\r\n            _email,\r\n            _year,\r\n            courses[__key][courses[__key].length - 1]\r\n        );\r\n    }\r\n\r\n    function addCourseKey(string calldata email, bytes32 __key) private {\r\n        if (courses[__key].length == 0) {\r\n            profCred_Keys[email].courses.push(__key);\r\n        }\r\n    }\r\n\r\n    function addfeedbackKey(\r\n        string calldata _email,\r\n        uint256 _year,\r\n        uint256 _sem,\r\n        string calldata _code\r\n    ) private {\r\n        bytes32 __key = keccak256(\r\n            abi.encodePacked(_email, \",\", _year, \",\", _sem, \",\", _code)\r\n        );\r\n        profCred_Keys[_email].feedbacks.push(__key);\r\n    }\r\n\r\n    event test(bool);\r\n\r\n    function generateTickets(\r\n        string memory _email,\r\n        uint256 _year,\r\n        uint256 _sem,\r\n        string memory _code,\r\n        string memory _seed\r\n    ) public {\r\n        bytes32 _key = keccak256(\r\n            abi.encodePacked(_email, \",\", _year, \",\", _sem)\r\n        );\r\n        uint256 coursePos = 0;\r\n        bool courseFound = false;\r\n        uint256 i = 0;\r\n        for (; i < courses[_key].length; i++) {\r\n            if (\r\n                keccak256(abi.encodePacked(courses[_key][i].code)) ==\r\n                keccak256(abi.encodePacked(_code))\r\n            ) {\r\n                coursePos = i;\r\n                courseFound = true;\r\n                break;\r\n            }\r\n        }\r\n\r\n        require(courseFound == true, \"wrong credentials, course not found\");\r\n        require(\r\n            courses[_key][coursePos].ticketGenerated == false,\r\n            \"tickets are already generated\"\r\n        );\r\n\r\n        courses[_key][coursePos].ticketGenerated = true;\r\n        i = 0;\r\n        for (; i < courses[_key][coursePos].studentCount; i++) {\r\n            bytes32 ticket = keccak256(\r\n                abi.encodePacked(\r\n                    block.timestamp,\r\n                    _seed,\r\n                    counterForProfReg,\r\n                    block.difficulty\r\n                )\r\n            );\r\n            counterForProfReg++;\r\n            courses[_key][coursePos].tickets.push(ticket);\r\n        }\r\n\r\n        emit ticketGenerated(\r\n            _email,\r\n            _year,\r\n            _sem,\r\n            _code,\r\n            courses[_key][coursePos].tickets\r\n        );\r\n    }\r\n\r\n    function submitFeedback(\r\n        string calldata _email,\r\n        bytes32 _ticket,\r\n        Float calldata updatedRating,\r\n        Feedback calldata _feedback\r\n    ) public {\r\n        bytes32 course_Key = keccak256(\r\n            abi.encodePacked(\r\n                _email,\r\n                \",\",\r\n                _feedback.year,\r\n                \",\",\r\n                _feedback.semester\r\n            )\r\n        );\r\n        uint256 coursePos = 0;\r\n        bool found = false;\r\n        for (; coursePos < courses[course_Key].length; coursePos++) {\r\n            if (\r\n                keccak256(\r\n                    abi.encodePacked(courses[course_Key][coursePos].code)\r\n                ) == keccak256(abi.encodePacked(_feedback.code))\r\n            ) {\r\n                found = true;\r\n                break;\r\n            }\r\n        }\r\n        if (found == false) {\r\n            revert(\"course not found, invalid course detail\");\r\n        }\r\n\r\n        found = false;\r\n        uint256 ticketPos = 0;\r\n        uint256 ticketsLen = courses[course_Key][coursePos].tickets.length;\r\n        for (; ticketPos < ticketsLen; ticketPos++) {\r\n            if (courses[course_Key][coursePos].tickets[ticketPos] == _ticket) {\r\n                found = true;\r\n                break;\r\n            }\r\n        }\r\n\r\n        if (found == false) revert(\"ticket not found, submit valid ticket\");\r\n\r\n        courses[course_Key][coursePos].tickets[ticketPos] = courses[course_Key][\r\n            coursePos\r\n        ].tickets[ticketsLen - 1];\r\n        courses[course_Key][coursePos].tickets.pop();\r\n\r\n        bytes32 _feedback_Key = keccak256(\r\n            abi.encodePacked(course_Key, \",\", _feedback.code)\r\n        );\r\n\r\n        feedbacks[_feedback_Key].push(_feedback);\r\n        uint256 feedbackLen = feedbacks[_feedback_Key].length;\r\n\r\n        emit feedbackSubmitted(\r\n            _email,\r\n            feedbacks[_feedback_Key][feedbackLen - 1]\r\n        );\r\n\r\n        for (uint256 j = 0; j < _feedback.skills.length; j++) {\r\n            bytes32 skill_Key = keccak256(\r\n                abi.encodePacked(_email, \",\", _feedback.skills[j])\r\n            );\r\n            skillsCount[skill_Key]++;\r\n        }\r\n\r\n        emit skillsUpvoted(_email, getSkillsUpvote(_email));\r\n\r\n        professorDetail[_email].rating = updatedRating;\r\n        emit ratingUpdated(_email, updatedRating);\r\n\r\n        uint256 percentage = 3;\r\n        if (\r\n            feedbackLen <=\r\n            (courses[course_Key][coursePos].studentCount / percentage)\r\n        ) bhuToken.transfer(msg.sender, earlyFeedbackCost);\r\n        else bhuToken.transfer(msg.sender, lateFeedbackCost);\r\n        emit balanceUpdated(msg.sender, bhuToken.balanceOf(msg.sender));\r\n    }\r\n}\r\n",
  "sourcePath": "F:\\BlockChain\\Projects\\feedback-dapp\\contracts\\FeedbackData.sol",
  "compiler": {
    "name": "solc",
    "version": "0.8.11+commit.d7f03943.Emscripten.clang"
  },
  "schemaVersion": "3.4.5",
  "updatedAt": "2022-03-12T12:34:21.590Z",
  "networkType": "ethereum",
  "devdoc": {
    "kind": "dev",
    "methods": {},
    "version": 1
  },
  "userdoc": {
    "kind": "user",
    "methods": {},
    "version": 1
  }
}