{
  "contractName": "FeedbackData",
  "abi": [
    {
      "inputs": [
        {
          "internalType": "string",
          "name": "adminKey",
          "type": "string"
        },
        {
          "internalType": "address",
          "name": "_bhuToken",
          "type": "address"
        }
      ],
      "stateMutability": "nonpayable",
      "type": "constructor"
    },
    {
      "anonymous": false,
      "inputs": [
        {
          "indexed": false,
          "internalType": "address",
          "name": "account",
          "type": "address"
        },
        {
          "indexed": false,
          "internalType": "uint256",
          "name": "balance",
          "type": "uint256"
        }
      ],
      "name": "balanceUpdated",
      "type": "event"
    },
    {
      "anonymous": false,
      "inputs": [
        {
          "indexed": false,
          "internalType": "string",
          "name": "email",
          "type": "string"
        },
        {
          "indexed": false,
          "internalType": "uint256",
          "name": "year",
          "type": "uint256"
        },
        {
          "components": [
            {
              "internalType": "string",
              "name": "name",
              "type": "string"
            },
            {
              "internalType": "string",
              "name": "code",
              "type": "string"
            },
            {
              "internalType": "uint256",
              "name": "semester",
              "type": "uint256"
            },
            {
              "internalType": "uint256",
              "name": "year",
              "type": "uint256"
            },
            {
              "internalType": "uint256",
              "name": "studentCount",
              "type": "uint256"
            },
            {
              "internalType": "bool",
              "name": "ticketGenerated",
              "type": "bool"
            },
            {
              "internalType": "bytes32[]",
              "name": "tickets",
              "type": "bytes32[]"
            }
          ],
          "indexed": false,
          "internalType": "struct FeedbackData.Course",
          "name": "course",
          "type": "tuple"
        }
      ],
      "name": "courseUpdated",
      "type": "event"
    },
    {
      "anonymous": false,
      "inputs": [
        {
          "indexed": false,
          "internalType": "string",
          "name": "email",
          "type": "string"
        },
        {
          "components": [
            {
              "internalType": "string",
              "name": "code",
              "type": "string"
            },
            {
              "internalType": "uint256",
              "name": "semester",
              "type": "uint256"
            },
            {
              "internalType": "uint256",
              "name": "year",
              "type": "uint256"
            },
            {
              "internalType": "string",
              "name": "content",
              "type": "string"
            },
            {
              "internalType": "string[]",
              "name": "skills",
              "type": "string[]"
            }
          ],
          "indexed": false,
          "internalType": "struct FeedbackData.Feedback",
          "name": "feedback",
          "type": "tuple"
        }
      ],
      "name": "feedbackSubmitted",
      "type": "event"
    },
    {
      "anonymous": false,
      "inputs": [
        {
          "indexed": false,
          "internalType": "bool",
          "name": "success",
          "type": "bool"
        }
      ],
      "name": "passwordUpdated",
      "type": "event"
    },
    {
      "anonymous": false,
      "inputs": [
        {
          "components": [
            {
              "internalType": "string",
              "name": "name",
              "type": "string"
            },
            {
              "internalType": "string",
              "name": "email",
              "type": "string"
            },
            {
              "internalType": "string",
              "name": "profilePicture",
              "type": "string"
            },
            {
              "internalType": "address",
              "name": "addressId",
              "type": "address"
            },
            {
              "components": [
                {
                  "internalType": "uint256",
                  "name": "preDecimal",
                  "type": "uint256"
                },
                {
                  "internalType": "uint256",
                  "name": "postDecimal",
                  "type": "uint256"
                }
              ],
              "internalType": "struct FeedbackData.Float",
              "name": "rating",
              "type": "tuple"
            }
          ],
          "indexed": false,
          "internalType": "struct FeedbackData.Professor",
          "name": "professor",
          "type": "tuple"
        }
      ],
      "name": "professorCreated",
      "type": "event"
    },
    {
      "anonymous": false,
      "inputs": [
        {
          "indexed": false,
          "internalType": "string",
          "name": "email",
          "type": "string"
        },
        {
          "components": [
            {
              "internalType": "uint256",
              "name": "preDecimal",
              "type": "uint256"
            },
            {
              "internalType": "uint256",
              "name": "postDecimal",
              "type": "uint256"
            }
          ],
          "indexed": false,
          "internalType": "struct FeedbackData.Float",
          "name": "rating",
          "type": "tuple"
        }
      ],
      "name": "ratingUpdated",
      "type": "event"
    },
    {
      "anonymous": false,
      "inputs": [
        {
          "indexed": false,
          "internalType": "string",
          "name": "email",
          "type": "string"
        },
        {
          "components": [
            {
              "internalType": "string",
              "name": "name",
              "type": "string"
            },
            {
              "internalType": "uint256",
              "name": "count",
              "type": "uint256"
            }
          ],
          "indexed": false,
          "internalType": "struct FeedbackData.SkillsUpvoteCount[]",
          "name": "skills",
          "type": "tuple[]"
        }
      ],
      "name": "skillsUpvoted",
      "type": "event"
    },
    {
      "anonymous": false,
      "inputs": [
        {
          "indexed": false,
          "internalType": "bool",
          "name": "",
          "type": "bool"
        }
      ],
      "name": "test",
      "type": "event"
    },
    {
      "anonymous": false,
      "inputs": [
        {
          "indexed": false,
          "internalType": "string",
          "name": "email",
          "type": "string"
        },
        {
          "indexed": false,
          "internalType": "uint256",
          "name": "year",
          "type": "uint256"
        },
        {
          "indexed": false,
          "internalType": "uint256",
          "name": "sem",
          "type": "uint256"
        },
        {
          "indexed": false,
          "internalType": "string",
          "name": "code",
          "type": "string"
        },
        {
          "indexed": false,
          "internalType": "bytes32[]",
          "name": "tickets",
          "type": "bytes32[]"
        }
      ],
      "name": "ticketGenerated",
      "type": "event"
    },
    {
      "anonymous": false,
      "inputs": [
        {
          "indexed": false,
          "internalType": "bytes32",
          "name": "token",
          "type": "bytes32"
        }
      ],
      "name": "tokenGenerated",
      "type": "event"
    },
    {
      "inputs": [
        {
          "internalType": "bytes32",
          "name": "",
          "type": "bytes32"
        }
      ],
      "name": "_keysForProfReg",
      "outputs": [
        {
          "internalType": "bool",
          "name": "",
          "type": "bool"
        }
      ],
      "stateMutability": "view",
      "type": "function",
      "constant": true
    },
    {
      "inputs": [
        {
          "internalType": "bytes32",
          "name": "",
          "type": "bytes32"
        },
        {
          "internalType": "uint256",
          "name": "",
          "type": "uint256"
        }
      ],
      "name": "courses",
      "outputs": [
        {
          "internalType": "string",
          "name": "name",
          "type": "string"
        },
        {
          "internalType": "string",
          "name": "code",
          "type": "string"
        },
        {
          "internalType": "uint256",
          "name": "semester",
          "type": "uint256"
        },
        {
          "internalType": "uint256",
          "name": "year",
          "type": "uint256"
        },
        {
          "internalType": "uint256",
          "name": "studentCount",
          "type": "uint256"
        },
        {
          "internalType": "bool",
          "name": "ticketGenerated",
          "type": "bool"
        }
      ],
      "stateMutability": "view",
      "type": "function",
      "constant": true
    },
    {
      "inputs": [],
      "name": "earlyFeedbackCost",
      "outputs": [
        {
          "internalType": "uint256",
          "name": "",
          "type": "uint256"
        }
      ],
      "stateMutability": "view",
      "type": "function",
      "constant": true
    },
    {
      "inputs": [
        {
          "internalType": "uint256",
          "name": "",
          "type": "uint256"
        }
      ],
      "name": "emails",
      "outputs": [
        {
          "internalType": "string",
          "name": "",
          "type": "string"
        }
      ],
      "stateMutability": "view",
      "type": "function",
      "constant": true
    },
    {
      "inputs": [
        {
          "internalType": "uint256",
          "name": "",
          "type": "uint256"
        }
      ],
      "name": "facultySkills",
      "outputs": [
        {
          "internalType": "string",
          "name": "",
          "type": "string"
        }
      ],
      "stateMutability": "view",
      "type": "function",
      "constant": true
    },
    {
      "inputs": [
        {
          "internalType": "bytes32",
          "name": "",
          "type": "bytes32"
        },
        {
          "internalType": "uint256",
          "name": "",
          "type": "uint256"
        }
      ],
      "name": "feedbacks",
      "outputs": [
        {
          "internalType": "string",
          "name": "code",
          "type": "string"
        },
        {
          "internalType": "uint256",
          "name": "semester",
          "type": "uint256"
        },
        {
          "internalType": "uint256",
          "name": "year",
          "type": "uint256"
        },
        {
          "internalType": "string",
          "name": "content",
          "type": "string"
        }
      ],
      "stateMutability": "view",
      "type": "function",
      "constant": true
    },
    {
      "inputs": [],
      "name": "lateFeedbackCost",
      "outputs": [
        {
          "internalType": "uint256",
          "name": "",
          "type": "uint256"
        }
      ],
      "stateMutability": "view",
      "type": "function",
      "constant": true
    },
    {
      "inputs": [
        {
          "internalType": "string",
          "name": "",
          "type": "string"
        }
      ],
      "name": "professorDetail",
      "outputs": [
        {
          "internalType": "string",
          "name": "name",
          "type": "string"
        },
        {
          "internalType": "string",
          "name": "email",
          "type": "string"
        },
        {
          "internalType": "string",
          "name": "profilePicture",
          "type": "string"
        },
        {
          "internalType": "address",
          "name": "addressId",
          "type": "address"
        },
        {
          "components": [
            {
              "internalType": "uint256",
              "name": "preDecimal",
              "type": "uint256"
            },
            {
              "internalType": "uint256",
              "name": "postDecimal",
              "type": "uint256"
            }
          ],
          "internalType": "struct FeedbackData.Float",
          "name": "rating",
          "type": "tuple"
        }
      ],
      "stateMutability": "view",
      "type": "function",
      "constant": true
    },
    {
      "inputs": [
        {
          "internalType": "bytes32",
          "name": "",
          "type": "bytes32"
        }
      ],
      "name": "skillsCount",
      "outputs": [
        {
          "internalType": "uint256",
          "name": "",
          "type": "uint256"
        }
      ],
      "stateMutability": "view",
      "type": "function",
      "constant": true
    },
    {
      "inputs": [],
      "name": "util",
      "outputs": [
        {
          "internalType": "contract Utils",
          "name": "",
          "type": "address"
        }
      ],
      "stateMutability": "view",
      "type": "function",
      "constant": true
    },
    {
      "inputs": [
        {
          "internalType": "string",
          "name": "adminKey",
          "type": "string"
        }
      ],
      "name": "generateTokenForProfReg",
      "outputs": [],
      "stateMutability": "nonpayable",
      "type": "function"
    },
    {
      "inputs": [
        {
          "internalType": "address",
          "name": "_address",
          "type": "address"
        }
      ],
      "name": "checkBalance",
      "outputs": [
        {
          "internalType": "uint256",
          "name": "",
          "type": "uint256"
        }
      ],
      "stateMutability": "view",
      "type": "function",
      "constant": true
    },
    {
      "inputs": [
        {
          "internalType": "string",
          "name": "oldPassword",
          "type": "string"
        },
        {
          "internalType": "string",
          "name": "newPassword",
          "type": "string"
        }
      ],
      "name": "updatePassword",
      "outputs": [],
      "stateMutability": "nonpayable",
      "type": "function"
    },
    {
      "inputs": [],
      "name": "getFacultySkills",
      "outputs": [
        {
          "internalType": "string[]",
          "name": "",
          "type": "string[]"
        }
      ],
      "stateMutability": "view",
      "type": "function",
      "constant": true
    },
    {
      "inputs": [
        {
          "internalType": "string",
          "name": "name",
          "type": "string"
        },
        {
          "internalType": "string",
          "name": "email",
          "type": "string"
        },
        {
          "internalType": "string",
          "name": "profilePicture",
          "type": "string"
        },
        {
          "internalType": "bytes32",
          "name": "secret",
          "type": "bytes32"
        }
      ],
      "name": "createProfessor",
      "outputs": [],
      "stateMutability": "nonpayable",
      "type": "function"
    },
    {
      "inputs": [],
      "name": "getProfessorIds",
      "outputs": [
        {
          "internalType": "string[]",
          "name": "",
          "type": "string[]"
        }
      ],
      "stateMutability": "view",
      "type": "function",
      "constant": true
    },
    {
      "inputs": [
        {
          "internalType": "string[]",
          "name": "ids",
          "type": "string[]"
        }
      ],
      "name": "getProfessorsDetailsByIds",
      "outputs": [
        {
          "components": [
            {
              "internalType": "string",
              "name": "name",
              "type": "string"
            },
            {
              "internalType": "string",
              "name": "email",
              "type": "string"
            },
            {
              "internalType": "string",
              "name": "profilePicture",
              "type": "string"
            },
            {
              "internalType": "address",
              "name": "addressId",
              "type": "address"
            },
            {
              "components": [
                {
                  "internalType": "uint256",
                  "name": "preDecimal",
                  "type": "uint256"
                },
                {
                  "internalType": "uint256",
                  "name": "postDecimal",
                  "type": "uint256"
                }
              ],
              "internalType": "struct FeedbackData.Float",
              "name": "rating",
              "type": "tuple"
            }
          ],
          "internalType": "struct FeedbackData.Professor[]",
          "name": "",
          "type": "tuple[]"
        }
      ],
      "stateMutability": "view",
      "type": "function",
      "constant": true
    },
    {
      "inputs": [
        {
          "internalType": "string",
          "name": "_email",
          "type": "string"
        }
      ],
      "name": "getFeedbacks",
      "outputs": [
        {
          "components": [
            {
              "internalType": "string",
              "name": "code",
              "type": "string"
            },
            {
              "internalType": "uint256",
              "name": "semester",
              "type": "uint256"
            },
            {
              "internalType": "uint256",
              "name": "year",
              "type": "uint256"
            },
            {
              "internalType": "string",
              "name": "content",
              "type": "string"
            },
            {
              "internalType": "string[]",
              "name": "skills",
              "type": "string[]"
            }
          ],
          "internalType": "struct FeedbackData.Feedback[][]",
          "name": "",
          "type": "tuple[][]"
        }
      ],
      "stateMutability": "view",
      "type": "function",
      "constant": true
    },
    {
      "inputs": [
        {
          "internalType": "string[]",
          "name": "_emails",
          "type": "string[]"
        }
      ],
      "name": "getFeedbacksByEmails",
      "outputs": [
        {
          "components": [
            {
              "internalType": "string",
              "name": "code",
              "type": "string"
            },
            {
              "internalType": "uint256",
              "name": "semester",
              "type": "uint256"
            },
            {
              "internalType": "uint256",
              "name": "year",
              "type": "uint256"
            },
            {
              "internalType": "string",
              "name": "content",
              "type": "string"
            },
            {
              "internalType": "string[]",
              "name": "skills",
              "type": "string[]"
            }
          ],
          "internalType": "struct FeedbackData.Feedback[][][]",
          "name": "",
          "type": "tuple[][][]"
        }
      ],
      "stateMutability": "view",
      "type": "function",
      "constant": true
    },
    {
      "inputs": [
        {
          "internalType": "string",
          "name": "_email",
          "type": "string"
        }
      ],
      "name": "getCourses",
      "outputs": [
        {
          "components": [
            {
              "internalType": "string",
              "name": "name",
              "type": "string"
            },
            {
              "internalType": "string",
              "name": "code",
              "type": "string"
            },
            {
              "internalType": "uint256",
              "name": "semester",
              "type": "uint256"
            },
            {
              "internalType": "uint256",
              "name": "year",
              "type": "uint256"
            },
            {
              "internalType": "uint256",
              "name": "studentCount",
              "type": "uint256"
            },
            {
              "internalType": "bool",
              "name": "ticketGenerated",
              "type": "bool"
            },
            {
              "internalType": "bytes32[]",
              "name": "tickets",
              "type": "bytes32[]"
            }
          ],
          "internalType": "struct FeedbackData.Course[][]",
          "name": "",
          "type": "tuple[][]"
        }
      ],
      "stateMutability": "view",
      "type": "function",
      "constant": true
    },
    {
      "inputs": [
        {
          "internalType": "string[]",
          "name": "_emails",
          "type": "string[]"
        }
      ],
      "name": "getCoursesByEmails",
      "outputs": [
        {
          "components": [
            {
              "internalType": "string",
              "name": "name",
              "type": "string"
            },
            {
              "internalType": "string",
              "name": "code",
              "type": "string"
            },
            {
              "internalType": "uint256",
              "name": "semester",
              "type": "uint256"
            },
            {
              "internalType": "uint256",
              "name": "year",
              "type": "uint256"
            },
            {
              "internalType": "uint256",
              "name": "studentCount",
              "type": "uint256"
            },
            {
              "internalType": "bool",
              "name": "ticketGenerated",
              "type": "bool"
            },
            {
              "internalType": "bytes32[]",
              "name": "tickets",
              "type": "bytes32[]"
            }
          ],
          "internalType": "struct FeedbackData.Course[][][]",
          "name": "",
          "type": "tuple[][][]"
        }
      ],
      "stateMutability": "view",
      "type": "function",
      "constant": true
    },
    {
      "inputs": [
        {
          "internalType": "string",
          "name": "_email",
          "type": "string"
        }
      ],
      "name": "getSkillsUpvote",
      "outputs": [
        {
          "components": [
            {
              "internalType": "string",
              "name": "name",
              "type": "string"
            },
            {
              "internalType": "uint256",
              "name": "count",
              "type": "uint256"
            }
          ],
          "internalType": "struct FeedbackData.SkillsUpvoteCount[]",
          "name": "",
          "type": "tuple[]"
        }
      ],
      "stateMutability": "view",
      "type": "function",
      "constant": true
    },
    {
      "inputs": [
        {
          "internalType": "string[]",
          "name": "_emails",
          "type": "string[]"
        }
      ],
      "name": "getSkillsUpvotesByEmails",
      "outputs": [
        {
          "components": [
            {
              "internalType": "string",
              "name": "name",
              "type": "string"
            },
            {
              "internalType": "uint256",
              "name": "count",
              "type": "uint256"
            }
          ],
          "internalType": "struct FeedbackData.SkillsUpvoteCount[][]",
          "name": "",
          "type": "tuple[][]"
        }
      ],
      "stateMutability": "view",
      "type": "function",
      "constant": true
    },
    {
      "inputs": [
        {
          "internalType": "uint256",
          "name": "_year",
          "type": "uint256"
        },
        {
          "internalType": "string",
          "name": "_email",
          "type": "string"
        },
        {
          "internalType": "string",
          "name": "_name",
          "type": "string"
        },
        {
          "internalType": "string",
          "name": "_code",
          "type": "string"
        },
        {
          "internalType": "uint256",
          "name": "_sem",
          "type": "uint256"
        },
        {
          "internalType": "uint256",
          "name": "_studentCount",
          "type": "uint256"
        }
      ],
      "name": "addCourse",
      "outputs": [],
      "stateMutability": "nonpayable",
      "type": "function"
    },
    {
      "inputs": [
        {
          "internalType": "string",
          "name": "_email",
          "type": "string"
        },
        {
          "internalType": "uint256",
          "name": "_year",
          "type": "uint256"
        },
        {
          "internalType": "uint256",
          "name": "_sem",
          "type": "uint256"
        },
        {
          "internalType": "string",
          "name": "_code",
          "type": "string"
        },
        {
          "internalType": "string",
          "name": "_seed",
          "type": "string"
        }
      ],
      "name": "generateTickets",
      "outputs": [],
      "stateMutability": "nonpayable",
      "type": "function"
    },
    {
      "inputs": [
        {
          "internalType": "string",
          "name": "_email",
          "type": "string"
        },
        {
          "internalType": "bytes32",
          "name": "_ticket",
          "type": "bytes32"
        },
        {
          "components": [
            {
              "internalType": "uint256",
              "name": "preDecimal",
              "type": "uint256"
            },
            {
              "internalType": "uint256",
              "name": "postDecimal",
              "type": "uint256"
            }
          ],
          "internalType": "struct FeedbackData.Float",
          "name": "updatedRating",
          "type": "tuple"
        },
        {
          "components": [
            {
              "internalType": "string",
              "name": "code",
              "type": "string"
            },
            {
              "internalType": "uint256",
              "name": "semester",
              "type": "uint256"
            },
            {
              "internalType": "uint256",
              "name": "year",
              "type": "uint256"
            },
            {
              "internalType": "string",
              "name": "content",
              "type": "string"
            },
            {
              "internalType": "string[]",
              "name": "skills",
              "type": "string[]"
            }
          ],
          "internalType": "struct FeedbackData.Feedback",
          "name": "_feedback",
          "type": "tuple"
        }
      ],
      "name": "submitFeedback",
      "outputs": [],
      "stateMutability": "nonpayable",
      "type": "function"
    },
    {
      "inputs": [
        {
          "internalType": "uint256",
          "name": "cost",
          "type": "uint256"
        }
      ],
      "name": "buyItems",
      "outputs": [],
      "stateMutability": "nonpayable",
      "type": "function"
    }
  ],
  "bytecode": "0x60096101209081526844697665727369747960b81b610140526080908152600d6101609081526c21b7b6b6bab734b1b0ba34b7b760991b6101805260a052600a6101a08181526950726f6365647572657360b01b6101c05260c0526101e0908152695068696c6f736f70687960b01b6102005260e052610260604052600f6102209081526e53747564656e744c6561726e696e6760881b6102405261010052620000ae90600090600562000178565b50674563918244f40000600c556729a2241af62c0000600d55348015620000d457600080fd5b5060405162004aab38038062004aab833981016040819052620000f79162000347565b60408051446020820152429181019190915260600160408051601f19818403018152908290528051602091820120600955620001369184910162000414565b60408051808303601f190181529190528051602090910120600a55600b80546001600160a01b0319166001600160a01b0392909216919091179055506200046f565b828054828255906000526020600020908101928215620001ca579160200282015b82811115620001ca5782518051620001b9918491602090910190620001dc565b509160200191906001019062000199565b50620001d892915062000267565b5090565b828054620001ea9062000432565b90600052602060002090601f0160209004810192826200020e576000855562000259565b82601f106200022957805160ff191683800117855562000259565b8280016001018555821562000259579182015b82811115620002595782518255916020019190600101906200023c565b50620001d892915062000288565b80821115620001d85760006200027e82826200029f565b5060010162000267565b5b80821115620001d8576000815560010162000289565b508054620002ad9062000432565b6000825580601f10620002be575050565b601f016020900490600052602060002090810190620002de919062000288565b50565b634e487b7160e01b600052604160045260246000fd5b60005b8381101562000314578181015183820152602001620002fa565b8381111562000324576000848401525b50505050565b80516001600160a01b03811681146200034257600080fd5b919050565b600080604083850312156200035b57600080fd5b82516001600160401b03808211156200037357600080fd5b818501915085601f8301126200038857600080fd5b8151818111156200039d576200039d620002e1565b604051601f8201601f19908116603f01168101908382118183101715620003c857620003c8620002e1565b81604052828152886020848701011115620003e257600080fd5b620003f5836020830160208801620002f7565b80965050505050506200040b602084016200032a565b90509250929050565b6000825162000428818460208701620002f7565b9190910192915050565b600181811c908216806200044757607f821691505b602082108114156200046957634e487b7160e01b600052602260045260246000fd5b50919050565b61462c806200047f6000396000f3fe608060405234801561001057600080fd5b50600436106101a95760003560e01c806395613875116100f9578063e30a121111610097578063f52c1c0711610071578063f52c1c0714610432578063fa92f13414610445578063fbd9d37714610458578063fed5eb8d1461047857600080fd5b8063e30a121114610401578063e30c009214610421578063f4cd31981461042a57600080fd5b8063cd14f4fb116100d3578063cd14f4fb146103bf578063cdfbb351146103c8578063d5580858146103db578063dc2772eb146103ee57600080fd5b80639561387514610361578063be8f5fac1461038c578063c305322c1461039f57600080fd5b80633bc79a98116101665780635f515226116101405780635f515226146102f9578063631f6d071461030c578063695a7d4914610321578063760f4cf21461034157600080fd5b80633bc79a9814610283578063466bf004146102b15780635e566f20146102e457600080fd5b806303ea41a2146101ae5780630a06db07146101d75780631d322565146101fa57806331ea98101461021a578063339f36601461023e57806335f13f681461025e575b600080fd5b6101c16101bc366004612fdd565b61048b565b6040516101ce919061307a565b60405180910390f35b6101ea6101e53660046131c7565b610820565b6040516101ce94939291906131e9565b61020d610208366004613225565b61097d565b6040516101ce9190613299565b61022d610228366004613409565b610c4a565b6040516101ce959493929190613445565b61025161024c366004612fdd565b610e3d565b6040516101ce91906135c9565b61027161026c3660046131c7565b611168565b6040516101ce969594939291906135e3565b6102a3610291366004613630565b60046020526000908152604090205481565b6040519081526020016101ce565b6102d46102bf366004613630565b60086020526000908152604090205460ff1681565b60405190151581526020016101ce565b6102ec6112d5565b6040516101ce9190613649565b6102a36103073660046136ab565b6113ae565b61031f61031a366004613630565b611423565b005b61033461032f366004613630565b6114a2565b6040516101ce91906136d4565b61035461034f366004613225565b61154e565b6040516101ce91906136e7565b600154610374906001600160a01b031681565b6040516001600160a01b0390911681526020016101ce565b61031f61039a366004613409565b611602565b6103b26103ad366004613225565b611713565b6040516101ce91906138db565b6102a3600c5481565b61031f6103d6366004613930565b6117c7565b61031f6103e936600461399b565b61189b565b61031f6103fc366004613a50565b611ac1565b61041461040f366004612fdd565b6122c5565b6040516101ce9190613ae9565b6102a3600d5481565b6102ec612483565b610334610440366004613630565b612553565b61031f610453366004613afc565b612563565b61046b610466366004613225565b612912565b6040516101ce9190613b9e565b61031f610486366004613bf3565b6129c6565b60606000600784846040516104a1929190613c8e565b908152604051908190036020019020600101546001600160401b038111156104cb576104cb613367565b6040519080825280602002602001820160405280156104fe57816020015b60608152602001906001900390816104e95790505b50905060005b60078585604051610516929190613c8e565b90815260405190819003602001902060010154811015610818576006600060078787604051610546929190613c8e565b9081526020016040518091039020600101838154811061056857610568613c9e565b90600052602060002001548152602001908152602001600020805480602002602001604051908101604052809291908181526020016000905b828210156107e457838290600052602060002090600502016040518060a00160405290816000820180546105d490613cb4565b80601f016020809104026020016040519081016040528092919081815260200182805461060090613cb4565b801561064d5780601f106106225761010080835404028352916020019161064d565b820191906000526020600020905b81548152906001019060200180831161063057829003601f168201915b50505050508152602001600182015481526020016002820154815260200160038201805461067a90613cb4565b80601f01602080910402602001604051908101604052809291908181526020018280546106a690613cb4565b80156106f35780601f106106c8576101008083540402835291602001916106f3565b820191906000526020600020905b8154815290600101906020018083116106d657829003601f168201915b5050505050815260200160048201805480602002602001604051908101604052809291908181526020016000905b828210156107cd57838290600052602060002001805461074090613cb4565b80601f016020809104026020016040519081016040528092919081815260200182805461076c90613cb4565b80156107b95780601f1061078e576101008083540402835291602001916107b9565b820191906000526020600020905b81548152906001019060200180831161079c57829003601f168201915b505050505081526020019060010190610721565b5050505081525050815260200190600101906105a1565b505050508282815181106107fa576107fa613c9e565b6020026020010181905250808061081090613d05565b915050610504565b509392505050565b6006602052816000526040600020818154811061083c57600080fd5b90600052602060002090600502016000915091505080600001805461086090613cb4565b80601f016020809104026020016040519081016040528092919081815260200182805461088c90613cb4565b80156108d95780601f106108ae576101008083540402835291602001916108d9565b820191906000526020600020905b8154815290600101906020018083116108bc57829003601f168201915b5050505050908060010154908060020154908060030180546108fa90613cb4565b80601f016020809104026020016040519081016040528092919081815260200182805461092690613cb4565b80156109735780601f1061094857610100808354040283529160200191610973565b820191906000526020600020905b81548152906001019060200180831161095657829003601f168201915b5050505050905084565b60606000826001600160401b0381111561099957610999613367565b6040519080825280602002602001820160405280156109d257816020015b6109bf612dfc565b8152602001906001900390816109b75790505b50905060005b838110156108185760038585838181106109f4576109f4613c9e565b9050602002810190610a069190613d20565b604051610a14929190613c8e565b90815260200160405180910390206040518060a0016040529081600082018054610a3d90613cb4565b80601f0160208091040260200160405190810160405280929190818152602001828054610a6990613cb4565b8015610ab65780601f10610a8b57610100808354040283529160200191610ab6565b820191906000526020600020905b815481529060010190602001808311610a9957829003601f168201915b50505050508152602001600182018054610acf90613cb4565b80601f0160208091040260200160405190810160405280929190818152602001828054610afb90613cb4565b8015610b485780601f10610b1d57610100808354040283529160200191610b48565b820191906000526020600020905b815481529060010190602001808311610b2b57829003601f168201915b50505050508152602001600282018054610b6190613cb4565b80601f0160208091040260200160405190810160405280929190818152602001828054610b8d90613cb4565b8015610bda5780601f10610baf57610100808354040283529160200191610bda565b820191906000526020600020905b815481529060010190602001808311610bbd57829003601f168201915b505050918352505060038201546001600160a01b0316602080830191909152604080518082018252600485015481526005909401549184019190915201528251839083908110610c2c57610c2c613c9e565b60200260200101819052508080610c4290613d05565b9150506109d8565b8051602081830181018051600382529282019190930120915280548190610c7090613cb4565b80601f0160208091040260200160405190810160405280929190818152602001828054610c9c90613cb4565b8015610ce95780601f10610cbe57610100808354040283529160200191610ce9565b820191906000526020600020905b815481529060010190602001808311610ccc57829003601f168201915b505050505090806001018054610cfe90613cb4565b80601f0160208091040260200160405190810160405280929190818152602001828054610d2a90613cb4565b8015610d775780601f10610d4c57610100808354040283529160200191610d77565b820191906000526020600020905b815481529060010190602001808311610d5a57829003601f168201915b505050505090806002018054610d8c90613cb4565b80601f0160208091040260200160405190810160405280929190818152602001828054610db890613cb4565b8015610e055780601f10610dda57610100808354040283529160200191610e05565b820191906000526020600020905b815481529060010190602001808311610de857829003601f168201915b5050505060038301546040805180820190915260048501548152600590940154602085015291926001600160a01b0390921691905085565b6060600060078484604051610e53929190613c8e565b908152604051908190036020019020546001600160401b03811115610e7a57610e7a613367565b604051908082528060200260200182016040528015610ead57816020015b6060815260200190600190039081610e985790505b50905060005b60078585604051610ec5929190613c8e565b90815260405190819003602001902054811015610818576005600060078787604051610ef2929190613c8e565b90815260200160405180910390206000018381548110610f1457610f14613c9e565b90600052602060002001548152602001908152602001600020805480602002602001604051908101604052809291908181526020016000905b8282101561113457838290600052602060002090600702016040518060e0016040529081600082018054610f8090613cb4565b80601f0160208091040260200160405190810160405280929190818152602001828054610fac90613cb4565b8015610ff95780601f10610fce57610100808354040283529160200191610ff9565b820191906000526020600020905b815481529060010190602001808311610fdc57829003601f168201915b5050505050815260200160018201805461101290613cb4565b80601f016020809104026020016040519081016040528092919081815260200182805461103e90613cb4565b801561108b5780601f106110605761010080835404028352916020019161108b565b820191906000526020600020905b81548152906001019060200180831161106e57829003601f168201915b505050505081526020016002820154815260200160038201548152602001600482015481526020016005820160009054906101000a900460ff161515151581526020016006820180548060200260200160405190810160405280929190818152602001828054801561111c57602002820191906000526020600020905b815481526020019060010190808311611108575b50505050508152505081526020019060010190610f4d565b5050505082828151811061114a5761114a613c9e565b6020026020010181905250808061116090613d05565b915050610eb3565b6005602052816000526040600020818154811061118457600080fd5b9060005260206000209060070201600091509150508060000180546111a890613cb4565b80601f01602080910402602001604051908101604052809291908181526020018280546111d490613cb4565b80156112215780601f106111f657610100808354040283529160200191611221565b820191906000526020600020905b81548152906001019060200180831161120457829003601f168201915b50505050509080600101805461123690613cb4565b80601f016020809104026020016040519081016040528092919081815260200182805461126290613cb4565b80156112af5780601f10611284576101008083540402835291602001916112af565b820191906000526020600020905b81548152906001019060200180831161129257829003601f168201915b505050506002830154600384015460048501546005909501549394919390925060ff1686565b60606000805480602002602001604051908101604052809291908181526020016000905b828210156113a557838290600052602060002001805461131890613cb4565b80601f016020809104026020016040519081016040528092919081815260200182805461134490613cb4565b80156113915780601f1061136657610100808354040283529160200191611391565b820191906000526020600020905b81548152906001019060200180831161137457829003601f168201915b5050505050815260200190600101906112f9565b50505050905090565b600b546040516370a0823160e01b81526001600160a01b03838116600483015260009216906370a0823190602401602060405180830381865afa1580156113f9573d6000803e3d6000fd5b505050506040513d601f19601f8201168201806040525081019061141d9190613d66565b92915050565b600b546040516323b872dd60e01b8152336004820152306024820152604481018390526001600160a01b03909116906323b872dd906064016020604051808303816000875af115801561147a573d6000803e3d6000fd5b505050506040513d601f19601f8201168201806040525081019061149e9190613d7f565b5050565b600281815481106114b257600080fd5b9060005260206000200160009150905080546114cd90613cb4565b80601f01602080910402602001604051908101604052809291908181526020018280546114f990613cb4565b80156115465780601f1061151b57610100808354040283529160200191611546565b820191906000526020600020905b81548152906001019060200180831161152957829003601f168201915b505050505081565b60606000826001600160401b0381111561156a5761156a613367565b60405190808252806020026020018201604052801561159d57816020015b60608152602001906001900390816115885790505b50905060005b83811015610818576115d28585838181106115c0576115c0613c9e565b90506020028101906101bc9190613d20565b8282815181106115e4576115e4613c9e565b602002602001018190525080806115fa90613d05565b9150506115a3565b600a54816040516020016116169190613da1565b60405160208183030381529060405280519060200120146116715760405162461bcd60e51b815260206004820152601060248201526f1a5b9d985b1a59081c185cdcdddbdc9960821b60448201526064015b60405180910390fd5b6009805490600061168183613d05565b91905055506000426009546040516020016116a6929190918252602082015260400190565b60408051601f19818403018152828252805160209182012060008181526008909252919020805460ff1916600117905591507f8c6adcc89fb3a5c5ff4d5bb7afc4eeb464c80bd1c42b23064841c593ab9887e8906117079083815260200190565b60405180910390a15050565b60606000826001600160401b0381111561172f5761172f613367565b60405190808252806020026020018201604052801561176257816020015b606081526020019060019003908161174d5790505b50905060005b838110156108185761179785858381811061178557611785613c9e565b905060200281019061040f9190613d20565b8282815181106117a9576117a9613c9e565b602002602001018190525080806117bf90613d05565b915050611768565b600a5484846040516020016117dd929190613c8e565b60405160208183030381529060405280519060200120146118375760405162461bcd60e51b81526020600482015260146024820152731a5b9d985b1a59081bdb19081c185cdcdddbdc9960621b6044820152606401611668565b818160405160200161184a929190613c8e565b60408051808303601f19018152908290528051602091820120600a55600182527fcefcc0dd46c7f93764838bb11642de48894eaf912169be55a4e9f9beab96654f910160405180910390a150505050565b604080516101006020601f8901819004028201810190925260e081018781526000928291908a908a9081908501838280828437600092019190915250505090825250604080516020601f8901819004810282018101909252878152918101919088908890819084018382808284376000920182905250938552505050602080830187905260408084018f905260608401879052608084018390528051838152808301825260a090940193909352915192935091611960918c918c918f91899101613dbd565b6040516020818303038152906040528051906020012090506119838a8a83612d37565b6119918a8a8d878a8a612d86565b60008181526005602090815260408220805460018101825590835291819020845180518694600702909201926119cc92849290910190612e4e565b5060208281015180516119e59260018501920190612e4e565b5060408201516002820155606082015160038201556080820151600482015560a082015160058201805460ff191691151591909117905560c08201518051611a37916006840191602090910190612ed2565b505050600081815260056020526040902080547f56ff489b5a33d116a814463d8d88ac249e308bc2743f22d1d3116b1509588fd6918c918c918f91611a7e90600190613deb565b81548110611a8e57611a8e613c9e565b9060005260206000209060070201604051611aac9493929190613ee2565b60405180910390a15050505050505050505050565b6000858583604001358460200135604051602001611ae29493929190613dbd565b6040516020818303038152906040528051906020012090506000805b600083815260056020526040902054821015611bbc57611b1e8480613d20565b604051602001611b2f929190613c8e565b60408051601f198184030181529181528151602092830120600086815260059093529120805484908110611b6557611b65613c9e565b9060005260206000209060070201600101604051602001611b869190613ff1565b604051602081830303815290604052805190602001201415611baa57506001611bbc565b81611bb481613d05565b925050611afe565b80611c195760405162461bcd60e51b815260206004820152602760248201527f436f75727365206e6f7420666f756e642c20696e76616c696420636f757273656044820152660819195d185a5b60ca1b6064820152608401611668565b50600082815260056020526040812080548291829185908110611c3e57611c3e613c9e565b90600052602060002090600702016006018054905090505b80821015611ccf576000858152600560205260409020805489919086908110611c8157611c81613c9e565b90600052602060002090600702016006018381548110611ca357611ca3613c9e565b90600052602060002001541415611cbd5760019250611ccf565b81611cc781613d05565b925050611c56565b82611d1c5760405162461bcd60e51b815260206004820152601960248201527f54784e204572726f723a20496e76616c6964207469636b6574000000000000006044820152606401611668565b6000858152600560205260409020805485908110611d3c57611d3c613c9e565b9060005260206000209060070201600601600182611d5a9190613deb565b81548110611d6a57611d6a613c9e565b9060005260206000200154600560008781526020019081526020016000208581548110611d9957611d99613c9e565b90600052602060002090600702016006018381548110611dbb57611dbb613c9e565b9060005260206000200181905550600560008681526020019081526020016000208481548110611ded57611ded613c9e565b9060005260206000209060070201600601805480611e0d57611e0d613ffd565b6001900381819060005260206000200160009055905560008a8a886040013589602001358a8060000190611e419190613d20565b604051602001611e5696959493929190614013565b60408051601f198184030181529181528151602092830120600081815260068452918220805460018101825590835292909120909250889160050201611e9c82826142a4565b505060008181526006602052604090208054907f621f6c85f4ec6c24e3ef3fae1311b591199f13477580f239a708ec1e0123d582908d908d90611ee0600186613deb565b81548110611ef057611ef0613c9e565b9060005260206000209060050201604051611f0d93929190614341565b60405180910390a160005b611f2560808a018a614172565b9050811015611fc25760008d8d611f3f60808d018d614172565b85818110611f4f57611f4f613c9e565b9050602002810190611f619190613d20565b604051602001611f749493929190614404565b60408051601f1981840301815291815281516020928301206000818152600490935290822080549193509091611fa983613d05565b9190505550508080611fba90613d05565b915050611f18565b507fd13d2122f194eef81e0738f122d85de9ec47c971b03882a46cfe5c4f32e58c0a8c8c611ff08f8f6122c5565b604051611fff93929190614431565b60405180910390a18860038d8d60405161201a929190613c8e565b908152604051908190036020019020600401612043828281358155602082013560018201555050565b9050507f708a0cbbf33c4bb1f5dd31e0858489399277fefc4d0f9c7bec472197e09a2fe88c8c8b60405161207993929190614457565b60405180910390a1600087815260056020526040902080546003918291899081106120a6576120a6613c9e565b906000526020600020906007020160040154111580612103575060008881526005602052604090208054829190899081106120e3576120e3613c9e565b9060005260206000209060070201600401546120ff9190614486565b8211155b1561218757600b54600c5460405163a9059cbb60e01b815233600482015260248101919091526001600160a01b039091169063a9059cbb906044016020604051808303816000875af115801561215d573d6000803e3d6000fd5b505050506040513d601f19601f820116820180604052508101906121819190613d7f565b50612202565b600b54600d5460405163a9059cbb60e01b815233600482015260248101919091526001600160a01b039091169063a9059cbb906044016020604051808303816000875af11580156121dc573d6000803e3d6000fd5b505050506040513d601f19601f820116820180604052508101906122009190613d7f565b505b600b546040516370a0823160e01b815233600482018190527fbe32f2019026bb0b892e1a82ba94e40edfe612b262b2085f499f0eebb7efc12f9290916001600160a01b03909116906370a0823190602401602060405180830381865afa158015612270573d6000803e3d6000fd5b505050506040513d601f19601f820116820180604052508101906122949190613d66565b604080516001600160a01b03909316835260208301919091520160405180910390a150505050505050505050505050565b60008054606091906001600160401b038111156122e4576122e4613367565b60405190808252806020026020018201604052801561232a57816020015b6040805180820190915260608152600060208201528152602001906001900390816123025790505b50905060005b60005481101561081857600085856000848154811061235157612351613c9e565b9060005260206000200160405160200161236d939291906144a8565b6040516020818303038152906040528051906020012090506040518060400160405280600084815481106123a3576123a3613c9e565b9060005260206000200180546123b890613cb4565b80601f01602080910402602001604051908101604052809291908181526020018280546123e490613cb4565b80156124315780601f1061240657610100808354040283529160200191612431565b820191906000526020600020905b81548152906001019060200180831161241457829003601f168201915b50505050508152602001600460008481526020019081526020016000205481525083838151811061246457612464613c9e565b602002602001018190525050808061247b90613d05565b915050612330565b60606002805480602002602001604051908101604052809291908181526020016000905b828210156113a55783829060005260206000200180546124c690613cb4565b80601f01602080910402602001604051908101604052809291908181526020018280546124f290613cb4565b801561253f5780601f106125145761010080835404028352916020019161253f565b820191906000526020600020905b81548152906001019060200180831161252257829003601f168201915b5050505050815260200190600101906124a7565b600081815481106114b257600080fd5b856125c85760405162461bcd60e51b815260206004820152602f60248201527f4e616d652063616e206e6f7420626520626c616e6b20647572696e672070726f60448201526e3332b9b9b7b91031b932b0ba34b7b760891b6064820152608401611668565b8361262e5760405162461bcd60e51b815260206004820152603060248201527f456d61696c2063616e206e6f7420626520626c616e6b20647572696e6720707260448201526f37b332b9b9b7b91031b932b0ba34b7b760811b6064820152608401611668565b3361267b5760405162461bcd60e51b815260206004820152601960248201527f7573657220616464726573732073686f756c64206578697374000000000000006044820152606401611668565b60008181526008602052604090205460ff1615156001146126d55760405162461bcd60e51b81526020600482015260146024820152731c1c9bdd9a5919481d985b1a59081cd958dc995d60621b6044820152606401611668565b6040518060a0016040528088888080601f016020809104026020016040519081016040528093929190818152602001838380828437600092019190915250505090825250604080516020601f890181900481028201810190925287815291810191908890889081908401838280828437600092019190915250505090825250604080516020601f8701819004810282018101909252858152918101919086908690819084018382808284376000920182905250938552505033602080850191909152604080518082018252848152918201939093529282019290925251600391506127c39088908890613c8e565b908152602001604051809103902060008201518160000190805190602001906127ed929190612e4e565b5060208281015180516128069260018501920190612e4e565b5060408201518051612822916002840191602090910190612e4e565b5060608201516003820180546001600160a01b0319166001600160a01b0390921691909117905560809091015180516004830155602001516005909101556002805460018101825560009190915261289d907f405787fa12a823e0f2b7631cc41b3ba8828b3321ca811111fa75cd3aa3bb5ace018686612f0c565b5060008181526008602052604090819020805460ff19169055517f5f050f9a5025f89bf90611be48950430ca16255586d189fb5a14c411ddd44a7b906003906128e99088908890613c8e565b908152604051908190036020018120612901916144c7565b60405180910390a150505050505050565b60606000826001600160401b0381111561292e5761292e613367565b60405190808252806020026020018201604052801561296157816020015b606081526020019060019003908161294c5790505b50905060005b838110156108185761299685858381811061298457612984613c9e565b905060200281019061024c9190613d20565b8282815181106129a8576129a8613c9e565b602002602001018190525080806129be90613d05565b915050612967565b60008585856040516020016129dd93929190614548565b60405160208183030381529060405280519060200120905060008060005b600084815260056020526040902054811015612ab35785604051602001612a229190613da1565b60408051601f198184030181529181528151602092830120600087815260059093529120805483908110612a5857612a58613c9e565b9060005260206000209060070201600101604051602001612a799190613ff1565b604051602081830303815290604052805190602001201415612aa15780925060019150612ab3565b80612aab81613d05565b9150506129fb565b600182151514612b115760405162461bcd60e51b815260206004820152602360248201527f77726f6e672063726564656e7469616c732c20636f75727365206e6f7420666f6044820152621d5b9960ea1b6064820152608401611668565b6000848152600560205260409020805484908110612b3157612b31613c9e565b600091825260209091206005600790920201015460ff1615612b955760405162461bcd60e51b815260206004820152601d60248201527f7469636b6574732061726520616c72656164792067656e6572617465640000006044820152606401611668565b600084815260056020526040902080546001919085908110612bb957612bb9613c9e565b60009182526020822060079190910201600501805460ff19169215159290921790915590505b6000848152600560205260409020805484908110612bff57612bff613c9e565b906000526020600020906007020160040154811015612cb9576000428660095444604051602001612c33949392919061457f565b60408051601f198184030181529190528051602090910120600980549192506000612c5d83613d05565b90915550506000858152600560205260409020805485908110612c8257612c82613c9e565b6000918252602080832060066007909302019190910180546001810182559083529120015580612cb181613d05565b915050612bdf565b7f0aa509c398501987b09b5e8d6f21a19bf8a9d391fc11a6c17a1bb9093519a3d589898989600560008a81526020019081526020016000208881548110612d0257612d02613c9e565b9060005260206000209060070201600601604051612d249594939291906145b1565b60405180910390a1505050505050505050565b600081815260056020526040902054612d815760078383604051612d5c929190613c8e565b9081526040516020918190038201902080546001810182556000918252919020018190555b505050565b6000868686868686604051602001612da396959493929190614013565b60405160208183030381529060405280519060200120905060078787604051612dcd929190613c8e565b908152604051602091819003820190206001908101805491820181556000908152919091200155505050505050565b6040518060a0016040528060608152602001606081526020016060815260200160006001600160a01b03168152602001612e49604051806040016040528060008152602001600081525090565b905290565b828054612e5a90613cb4565b90600052602060002090601f016020900481019282612e7c5760008555612ec2565b82601f10612e9557805160ff1916838001178555612ec2565b82800160010185558215612ec2579182015b82811115612ec2578251825591602001919060010190612ea7565b50612ece929150612f80565b5090565b828054828255906000526020600020908101928215612ec25791602002820182811115612ec2578251825591602001919060010190612ea7565b828054612f1890613cb4565b90600052602060002090601f016020900481019282612f3a5760008555612ec2565b82601f10612f535782800160ff19823516178555612ec2565b82800160010185558215612ec2579182015b82811115612ec2578235825591602001919060010190612f65565b5b80821115612ece5760008155600101612f81565b60008083601f840112612fa757600080fd5b5081356001600160401b03811115612fbe57600080fd5b602083019150836020828501011115612fd657600080fd5b9250929050565b60008060208385031215612ff057600080fd5b82356001600160401b0381111561300657600080fd5b61301285828601612f95565b90969095509350505050565b60005b83811015613039578181015183820152602001613021565b83811115613048576000848401525b50505050565b6000815180845261306681602086016020860161301e565b601f01601f19169290920160200192915050565b60208152600060208201835180825260408401915060408160051b8501016020860160005b838110156131bb57868303603f19018552815180518085526020918201918086019190600582901b87010160005b828110156131a157601f198883030184528451805160a084526130f360a085018261304e565b9050602082015160208501526040820151604085015260608201518482036060860152613120828261304e565b91505060808201519150838103608085015280825180835260208301915060208160051b84010160208501945060005b8281101561318157601f1985830301845261316c82875161304e565b60209687019694909401939150600101613150565b5080965050505050506020850194506020840193506001810190506130cd565b50602098890198909650949094019350505060010161309f565b50909695505050505050565b600080604083850312156131da57600080fd5b50508035926020909101359150565b6080815260006131fc608083018761304e565b856020840152846040840152828103606084015261321a818561304e565b979650505050505050565b6000806020838503121561323857600080fd5b82356001600160401b038082111561324f57600080fd5b818501915085601f83011261326357600080fd5b81358181111561327257600080fd5b8660208260051b850101111561328757600080fd5b60209290920196919550909350505050565b60006020808301818452808551808352604092508286019150828160051b87010184880160005b8381101561335957603f19898403018552815160c081518186526132e68287018261304e565b915050888201518582038a8701526132fe828261304e565b9150508782015185820389870152613316828261304e565b6060848101516001600160a01b031690880152608093840151805185890152602081015160a08901529390925090505095880195935050908601906001016132c0565b509098975050505050505050565b634e487b7160e01b600052604160045260246000fd5b600082601f83011261338e57600080fd5b81356001600160401b03808211156133a8576133a8613367565b604051601f8301601f19908116603f011681019082821181831017156133d0576133d0613367565b816040528381528660208588010111156133e957600080fd5b836020870160208301376000602085830101528094505050505092915050565b60006020828403121561341b57600080fd5b81356001600160401b0381111561343157600080fd5b61343d8482850161337d565b949350505050565b60c08152600061345860c083018861304e565b828103602084015261346a818861304e565b9050828103604084015261347e818761304e565b6001600160a01b038616606085015284516080850152602085015160a085015291506134a79050565b9695505050505050565b600081518084526020808501945084600583811b870183870160005b86811015613359578483038a5281518051808552908701908785019080871b8601890160005b828110156135b357601f19888303018452845160e081518185526135198286018261304e565b9150508c8201518482038e860152613531828261304e565b60408481015190870152606080850151908701526080808501519087015260a08085015115159087015260c093840151868203948701949094528351808252938f019360009350908f0191505b8083101561359e5783518252928e019260019290920191908e019061357e565b50968d0196958d0195935050506001016134f3565b509c89019c9550505091860191506001016134cd565b6020815260006135dc60208301846134b1565b9392505050565b60c0815260006135f660c083018961304e565b8281036020840152613608818961304e565b91505085604083015284606083015283608083015282151560a0830152979650505050505050565b60006020828403121561364257600080fd5b5035919050565b6000602080830181845280855180835260408601915060408160051b870101925083870160005b8281101561369e57603f1988860301845261368c85835161304e565b94509285019290850190600101613670565b5092979650505050505050565b6000602082840312156136bd57600080fd5b81356001600160a01b03811681146135dc57600080fd5b6020815260006135dc602083018461304e565b60208152600060208201835180825260408401915060408160051b8501016020860160005b838110156131bb57868303603f19018552815180518085526020918201918086019190600582901b87010160005b8281101561385957878203601f19018452845180518084526020918201918085019190600582901b86010160005b8281101561383c57601f198783030184528451805160a0845261378e60a085018261304e565b90506020820151602085015260408201516040850152606082015184820360608601526137bb828261304e565b91505060808201519150838103608085015280825180835260208301915060208160051b84010160208501945060005b8281101561381c57601f1985830301845261380782875161304e565b602096870196949094019391506001016137eb565b508096505050505050602085019450602084019350600181019050613768565b50602098890198979097019694505050600191909101905061373a565b50602098890198909650949094019350505060010161370c565b6000815180845260208085019450848260051b860182860160005b858110156138ce5783830389528151604081518186526138b08287018261304e565b9288015195880195909552509885019892509084019060010161388e565b5090979650505050505050565b6000602080830181845280855180835260408601915060408160051b870101925083870160005b8281101561369e57603f1988860301845261391e858351613873565b94509285019290850190600101613902565b6000806000806040858703121561394657600080fd5b84356001600160401b038082111561395d57600080fd5b61396988838901612f95565b9096509450602087013591508082111561398257600080fd5b5061398f87828801612f95565b95989497509550505050565b600080600080600080600080600060c08a8c0312156139b957600080fd5b8935985060208a01356001600160401b03808211156139d757600080fd5b6139e38d838e01612f95565b909a50985060408c01359150808211156139fc57600080fd5b613a088d838e01612f95565b909850965060608c0135915080821115613a2157600080fd5b50613a2e8c828d01612f95565b9a9d999c50979a96999598959660808101359660a09091013595509350505050565b600080600080600085870360a0811215613a6957600080fd5b86356001600160401b0380821115613a8057600080fd5b613a8c8a838b01612f95565b9098509650602089013595508691506040603f1984011215613aad57600080fd5b6040890194506080890135925080831115613ac757600080fd5b5050860160a08189031215613adb57600080fd5b809150509295509295909350565b6020815260006135dc6020830184613873565b60008060008060008060006080888a031215613b1757600080fd5b87356001600160401b0380821115613b2e57600080fd5b613b3a8b838c01612f95565b909950975060208a0135915080821115613b5357600080fd5b613b5f8b838c01612f95565b909750955060408a0135915080821115613b7857600080fd5b50613b858a828b01612f95565b989b979a50959894979596606090950135949350505050565b6000602080830181845280855180835260408601915060408160051b870101925083870160005b8281101561369e57603f19888603018452613be18583516134b1565b94509285019290850190600101613bc5565b600080600080600060a08688031215613c0b57600080fd5b85356001600160401b0380821115613c2257600080fd5b613c2e89838a0161337d565b965060208801359550604088013594506060880135915080821115613c5257600080fd5b613c5e89838a0161337d565b93506080880135915080821115613c7457600080fd5b50613c818882890161337d565b9150509295509295909350565b8183823760009101908152919050565b634e487b7160e01b600052603260045260246000fd5b600181811c90821680613cc857607f821691505b60208210811415613ce957634e487b7160e01b600052602260045260246000fd5b50919050565b634e487b7160e01b600052601160045260246000fd5b6000600019821415613d1957613d19613cef565b5060010190565b6000808335601e19843603018112613d3757600080fd5b8301803591506001600160401b03821115613d5157600080fd5b602001915036819003821315612fd657600080fd5b600060208284031215613d7857600080fd5b5051919050565b600060208284031215613d9157600080fd5b815180151581146135dc57600080fd5b60008251613db381846020870161301e565b9190910192915050565b83858237600b60fa1b9301838152600181019290925260218201929092526022810191909152604201919050565b600082821015613dfd57613dfd613cef565b500390565b81835281816020850137506000828201602090810191909152601f909101601f19169091010190565b60008154613e3881613cb4565b808552602060018381168015613e555760018114613e6957613e97565b60ff19851688840152604088019550613e97565b866000528260002060005b85811015613e8f5781548a8201860152908301908401613e74565b890184019650505b505050505092915050565b6000815480845260208085019450836000528060002060005b83811015613ed757815487529582019560019182019101613ebb565b509495945050505050565b606081526000613ef6606083018688613e02565b846020840152828103604084015260e08152613f1560e0820185613e2b565b8181036020830152613f2a8160018701613e2b565b905060028501546040830152600385015460608301526004850154608083015260ff600586015416613f6060a084018215159052565b5081810360c0830152613f768160068701613ea2565b98975050505050505050565b60008154613f8f81613cb4565b60018281168015613fa75760018114613fb857613fe7565b60ff19841687528287019450613fe7565b8560005260208060002060005b85811015613fde5781548a820152908401908201613fc5565b50505082870194505b5050505092915050565b60006135dc8284613f82565b634e487b7160e01b600052603160045260246000fd5b85878237600086820160008152600b60fa1b80825287600183015280602183015286602283015280604283015250838560438301376000930160430192835250909695505050505050565b5b8181101561149e576000815560010161405f565b601f821115612d8157806000526020600020601f840160051c8101602085101561409a5750805b6140ac601f850160051c83018261405e565b5050505050565b6001600160401b038311156140ca576140ca613367565b6140de836140d88354613cb4565b83614073565b6000601f84116001811461411257600085156140fa5750838201355b600019600387901b1c1916600186901b1783556140ac565b600083815260209020601f19861690835b828110156141435786850135825560209485019460019092019101614123565b50868210156141605760001960f88860031b161c19848701351681555b505060018560011b0183555050505050565b6000808335601e1984360301811261418957600080fd5b8301803591506001600160401b038211156141a357600080fd5b6020019150600581901b3603821315612fd657600080fd5b680100000000000000008311156141d4576141d4613367565b80548382558084101561425d576000828152602081208581019083015b80821015614259576142038254613cb4565b801561424d57601f8082116001811461421e5785855561424a565b60008581526020902061423b83850160051c82016001830161405e565b50600085815260208120818755555b50505b506001820191506141f1565b5050505b5060008181526020812083915b8581101561429c5761427c8386613d20565b6142878183866140b3565b5050602092909201916001918201910161426a565b505050505050565b6142ae8283613d20565b6142b98183856140b3565b505060208201356001820155604082013560028201556142dc6060830183613d20565b6142ea8183600386016140b3565b50506080820135601e1983360301811261430357600080fd5b820180356001600160401b0381111561431b57600080fd5b6020820191508060051b360382131561433357600080fd5b6130488183600486016141bb565b604081526000614355604083018587613e02565b60208382038185015260a0825261436f60a0830186613e2b565b600180870154838501526002870154604085015283820360608501526143988260038901613e2b565b915060048701848303608086015282945080548084528484019550848160051b8501018260005285600020925060005b828110156143f457858203601f190188526143e38285613e2b565b9787019793850193915084016143c8565b509b9a5050505050505050505050565b83858237600b60fa1b81850190815260009083856001830137600093016001019283525090949350505050565b604081526000614445604083018587613e02565b82810360208401526134a78185613873565b60608152600061446b606083018587613e02565b90508235602083015260208301356040830152949350505050565b6000826144a357634e487b7160e01b600052601260045260246000fd5b500490565b82848237600b60fa1b8184019081526000906134a76001820185613f82565b6020815260c0602082015260006144e160e0830184613e2b565b601f19808483030160408501526144fb8260018701613e2b565b915080848303016060850152506145158160028601613e2b565b60038501546001600160a01b03166080850152600485015460a085015260059094015460c0909301929092525090919050565b6000845161455a81846020890161301e565b600b60fa1b920182815260018101949094525060218301526022820152604201919050565b8481526000845161459781602085016020890161301e565b909101602081019390935250604082015260600192915050565b60a0815260006145c460a083018861304e565b86602084015285604084015282810360608401526145e2818661304e565b90508281036080840152613f768185613ea256fea2646970667358221220a44882c9df3c0013cc40490247b21b36777809802b8117f7108bc238cc232cff64736f6c634300080b0033",
  "immutableReferences": {},
  "source": "// SPDX-License-Identifier: MIT\r\npragma solidity >=0.4.21 <8.10.0;\r\n\r\nimport \"./Utils.sol\";\r\nimport \"./BHUToken.sol\";\r\n\r\ncontract FeedbackData {\r\n    string[] public facultySkills = [\r\n        \"Diversity\",\r\n        \"Communication\",\r\n        \"Procedures\",\r\n        \"Philosophy\",\r\n        \"StudentLearning\"\r\n    ];\r\n    Utils public util;\r\n\r\n    struct Feedback {\r\n        string code;\r\n        uint256 semester; // 0 for even and 1 for odd\r\n        uint256 year;\r\n        string content;\r\n        string[] skills;\r\n    }\r\n\r\n    struct Float {\r\n        uint256 preDecimal;\r\n        uint256 postDecimal;\r\n    }\r\n\r\n    struct Course {\r\n        string name;\r\n        string code;\r\n        uint256 semester; // 0 for even and 1 for odd\r\n        uint256 year;\r\n        uint256 studentCount;\r\n        bool ticketGenerated;\r\n        bytes32[] tickets;\r\n    }\r\n\r\n    struct SkillsUpvoteCount {\r\n        string name;\r\n        uint256 count;\r\n    }\r\n\r\n    struct Professor {\r\n        string name;\r\n        string email;\r\n        string profilePicture;\r\n        address addressId;\r\n        Float rating;\r\n    }\r\n\r\n    struct ProfessorCreds_Key {\r\n        bytes32[] courses;\r\n        bytes32[] feedbacks;\r\n    }\r\n\r\n    string[] public emails;\r\n\r\n    mapping(string => Professor) public professorDetail;\r\n    mapping(bytes32 => uint256) public skillsCount; // email+skill\r\n\r\n    //TODO change formate of prof skill upvotes\r\n\r\n    mapping(bytes32 => Course[]) public courses; // email+year+sem\r\n    mapping(bytes32 => Feedback[]) public feedbacks; // email+year+sem+course_code\r\n\r\n    mapping(string => ProfessorCreds_Key) private profCred_Keys;\r\n    mapping(bytes32 => bool) public _keysForProfReg;\r\n\r\n    uint256 private counterForProfReg;\r\n    bytes32 private adminPassword;\r\n    BHUToken private bhuToken;\r\n    uint256 public earlyFeedbackCost = 5e18;\r\n    uint256 public lateFeedbackCost = 3e18;\r\n\r\n    constructor(string memory adminKey, address _bhuToken) {\r\n        counterForProfReg = uint256(\r\n            keccak256(abi.encodePacked(block.difficulty, block.timestamp))\r\n        );\r\n        adminPassword = keccak256(abi.encodePacked(adminKey));\r\n        bhuToken = BHUToken(_bhuToken);\r\n    }\r\n\r\n    event professorCreated(Professor professor);\r\n    event courseUpdated(string email, uint256 year, Course course);\r\n    event tokenGenerated(bytes32 token);\r\n    event ticketGenerated(\r\n        string email,\r\n        uint256 year,\r\n        uint256 sem,\r\n        string code,\r\n        bytes32[] tickets\r\n    );\r\n    event feedbackSubmitted(string email, Feedback feedback);\r\n    event skillsUpvoted(string email, SkillsUpvoteCount[] skills);\r\n    event ratingUpdated(string email, Float rating);\r\n    event balanceUpdated(address account, uint256 balance);\r\n    event passwordUpdated(bool success);\r\n\r\n    function generateTokenForProfReg(string memory adminKey) public {\r\n        require(\r\n            keccak256(abi.encodePacked(adminKey)) == adminPassword,\r\n            \"invalid password\"\r\n        );\r\n        counterForProfReg++;\r\n        bytes32 id = keccak256(\r\n            abi.encodePacked(block.timestamp, counterForProfReg)\r\n        );\r\n        _keysForProfReg[id] = true;\r\n        emit tokenGenerated(id);\r\n    }\r\n\r\n    function checkBalance(address _address) public view returns (uint256) {\r\n        return bhuToken.balanceOf(_address);\r\n    }\r\n\r\n    function updatePassword(\r\n        string calldata oldPassword,\r\n        string calldata newPassword\r\n    ) public {\r\n        require(\r\n            keccak256(abi.encodePacked(oldPassword)) == adminPassword,\r\n            \"invalid old password\"\r\n        );\r\n        adminPassword = keccak256(abi.encodePacked(newPassword));\r\n        emit passwordUpdated(true);\r\n    }\r\n\r\n    function getFacultySkills() public view returns (string[] memory) {\r\n        return facultySkills;\r\n    }\r\n\r\n    function createProfessor(\r\n        string calldata name,\r\n        string calldata email,\r\n        string calldata profilePicture,\r\n        bytes32 secret\r\n    ) public {\r\n        require(\r\n            bytes(name).length > 0,\r\n            \"Name can not be blank during professor creation\"\r\n        );\r\n        require(\r\n            bytes(email).length > 0,\r\n            \"Email can not be blank during professor creation\"\r\n        );\r\n        require(msg.sender != address(0 * 0), \"user address should exist\");\r\n        require(_keysForProfReg[secret] == true, \"provide valid secret\");\r\n\r\n        professorDetail[email] = Professor({\r\n            name: name,\r\n            email: email,\r\n            addressId: msg.sender,\r\n            profilePicture: profilePicture,\r\n            rating: Float(0, 0)\r\n        });\r\n\r\n        emails.push(email);\r\n\r\n        _keysForProfReg[secret] = false;\r\n\r\n        emit professorCreated(professorDetail[email]);\r\n    }\r\n\r\n    function getProfessorIds() public view returns (string[] memory) {\r\n        return emails;\r\n    }\r\n\r\n    function getProfessorsDetailsByIds(string[] calldata ids)\r\n        public\r\n        view\r\n        returns (Professor[] memory)\r\n    {\r\n        Professor[] memory _professorList = new Professor[](ids.length);\r\n\r\n        for (uint256 i = 0; i < ids.length; i++) {\r\n            _professorList[i] = professorDetail[ids[i]];\r\n        }\r\n\r\n        return _professorList;\r\n    }\r\n\r\n    function getFeedbacks(string calldata _email)\r\n        public\r\n        view\r\n        returns (Feedback[][] memory)\r\n    {\r\n        Feedback[][] memory _feedbacks = new Feedback[][](\r\n            profCred_Keys[_email].feedbacks.length\r\n        );\r\n        for (uint256 i = 0; i < profCred_Keys[_email].feedbacks.length; i++) {\r\n            _feedbacks[i] = feedbacks[profCred_Keys[_email].feedbacks[i]];\r\n        }\r\n        return _feedbacks;\r\n    }\r\n\r\n    function getFeedbacksByEmails(string[] calldata _emails)\r\n        public\r\n        view\r\n        returns (Feedback[][][] memory)\r\n    {\r\n        Feedback[][][] memory _feedbacks = new Feedback[][][](_emails.length);\r\n        for (uint256 i = 0; i < _emails.length; i++) {\r\n            _feedbacks[i] = getFeedbacks(_emails[i]);\r\n        }\r\n        return _feedbacks;\r\n    }\r\n\r\n    function getCourses(string calldata _email)\r\n        public\r\n        view\r\n        returns (Course[][] memory)\r\n    {\r\n        Course[][] memory _courses = new Course[][](\r\n            profCred_Keys[_email].courses.length\r\n        );\r\n        for (uint256 i = 0; i < profCred_Keys[_email].courses.length; i++) {\r\n            _courses[i] = courses[profCred_Keys[_email].courses[i]];\r\n        }\r\n\r\n        return _courses;\r\n    }\r\n\r\n    function getCoursesByEmails(string[] calldata _emails)\r\n        public\r\n        view\r\n        returns (Course[][][] memory)\r\n    {\r\n        Course[][][] memory _courses = new Course[][][](_emails.length);\r\n        for (uint256 i = 0; i < _emails.length; i++) {\r\n            _courses[i] = getCourses(_emails[i]);\r\n        }\r\n        return _courses;\r\n    }\r\n\r\n    function getSkillsUpvote(string calldata _email)\r\n        public\r\n        view\r\n        returns (SkillsUpvoteCount[] memory)\r\n    {\r\n        SkillsUpvoteCount[] memory skillUpvotes = new SkillsUpvoteCount[](\r\n            facultySkills.length\r\n        );\r\n        for (uint256 i = 0; i < facultySkills.length; i++) {\r\n            bytes32 _key = keccak256(\r\n                abi.encodePacked(_email, \",\", facultySkills[i])\r\n            );\r\n            skillUpvotes[i] = SkillsUpvoteCount({\r\n                name: facultySkills[i],\r\n                count: skillsCount[_key]\r\n            });\r\n        }\r\n\r\n        return skillUpvotes;\r\n    }\r\n\r\n    function getSkillsUpvotesByEmails(string[] calldata _emails)\r\n        public\r\n        view\r\n        returns (SkillsUpvoteCount[][] memory)\r\n    {\r\n        SkillsUpvoteCount[][] memory skillUpvotes = new SkillsUpvoteCount[][](\r\n            _emails.length\r\n        );\r\n        for (uint256 i = 0; i < _emails.length; i++) {\r\n            skillUpvotes[i] = getSkillsUpvote(_emails[i]);\r\n        }\r\n        return skillUpvotes;\r\n    }\r\n\r\n    function addCourse(\r\n        uint256 _year,\r\n        string calldata _email,\r\n        string calldata _name,\r\n        string calldata _code,\r\n        uint256 _sem,\r\n        uint256 _studentCount\r\n    ) public {\r\n        // uint _year = util.getYear(block.timestamp);\r\n\r\n        Course memory _course = Course({\r\n            name: _name,\r\n            code: _code,\r\n            year: _year,\r\n            semester: _sem,\r\n            studentCount: _studentCount,\r\n            ticketGenerated: false,\r\n            tickets: new bytes32[](0)\r\n        });\r\n\r\n        bytes32 __key = keccak256(\r\n            abi.encodePacked(_email, \",\", _year, \",\", _sem)\r\n        );\r\n\r\n        addCourseKey(_email, __key);\r\n        addfeedbackKey(_email, _year, _sem, _code);\r\n\r\n        courses[__key].push(_course);\r\n        emit courseUpdated(\r\n            _email,\r\n            _year,\r\n            courses[__key][courses[__key].length - 1]\r\n        );\r\n    }\r\n\r\n    function addCourseKey(string calldata email, bytes32 __key) private {\r\n        if (courses[__key].length == 0) {\r\n            profCred_Keys[email].courses.push(__key);\r\n        }\r\n    }\r\n\r\n    function addfeedbackKey(\r\n        string calldata _email,\r\n        uint256 _year,\r\n        uint256 _sem,\r\n        string calldata _code\r\n    ) private {\r\n        bytes32 __key = keccak256(\r\n            abi.encodePacked(_email, \",\", _year, \",\", _sem, \",\", _code)\r\n        );\r\n        profCred_Keys[_email].feedbacks.push(__key);\r\n    }\r\n\r\n    event test(bool);\r\n\r\n    function generateTickets(\r\n        string memory _email,\r\n        uint256 _year,\r\n        uint256 _sem,\r\n        string memory _code,\r\n        string memory _seed\r\n    ) public {\r\n        bytes32 _key = keccak256(\r\n            abi.encodePacked(_email, \",\", _year, \",\", _sem)\r\n        );\r\n        uint256 coursePos = 0;\r\n        bool courseFound = false;\r\n        uint256 i = 0;\r\n        for (; i < courses[_key].length; i++) {\r\n            if (\r\n                keccak256(abi.encodePacked(courses[_key][i].code)) ==\r\n                keccak256(abi.encodePacked(_code))\r\n            ) {\r\n                coursePos = i;\r\n                courseFound = true;\r\n                break;\r\n            }\r\n        }\r\n\r\n        require(courseFound == true, \"wrong credentials, course not found\");\r\n        require(\r\n            courses[_key][coursePos].ticketGenerated == false,\r\n            \"tickets are already generated\"\r\n        );\r\n\r\n        courses[_key][coursePos].ticketGenerated = true;\r\n        i = 0;\r\n        for (; i < courses[_key][coursePos].studentCount; i++) {\r\n            bytes32 ticket = keccak256(\r\n                abi.encodePacked(\r\n                    block.timestamp,\r\n                    _seed,\r\n                    counterForProfReg,\r\n                    block.difficulty\r\n                )\r\n            );\r\n            counterForProfReg++;\r\n            courses[_key][coursePos].tickets.push(ticket);\r\n        }\r\n\r\n        emit ticketGenerated(\r\n            _email,\r\n            _year,\r\n            _sem,\r\n            _code,\r\n            courses[_key][coursePos].tickets\r\n        );\r\n    }\r\n\r\n    function submitFeedback(\r\n        string calldata _email,\r\n        bytes32 _ticket,\r\n        Float calldata updatedRating,\r\n        Feedback calldata _feedback\r\n    ) public {\r\n        bytes32 course_Key = keccak256(\r\n            abi.encodePacked(\r\n                _email,\r\n                \",\",\r\n                _feedback.year,\r\n                \",\",\r\n                _feedback.semester\r\n            )\r\n        );\r\n        uint256 coursePos = 0;\r\n        bool found = false;\r\n        for (; coursePos < courses[course_Key].length; coursePos++) {\r\n            if (\r\n                keccak256(\r\n                    abi.encodePacked(courses[course_Key][coursePos].code)\r\n                ) == keccak256(abi.encodePacked(_feedback.code))\r\n            ) {\r\n                found = true;\r\n                break;\r\n            }\r\n        }\r\n        if (found == false) {\r\n            revert(\"Course not found, invalid course detail\");\r\n        }\r\n\r\n        found = false;\r\n        uint256 ticketPos = 0;\r\n        uint256 ticketsLen = courses[course_Key][coursePos].tickets.length;\r\n        for (; ticketPos < ticketsLen; ticketPos++) {\r\n            if (courses[course_Key][coursePos].tickets[ticketPos] == _ticket) {\r\n                found = true;\r\n                break;\r\n            }\r\n        }\r\n\r\n        if (found == false) revert(\"TxN Error: Invalid ticket\");\r\n\r\n        courses[course_Key][coursePos].tickets[ticketPos] = courses[course_Key][\r\n            coursePos\r\n        ].tickets[ticketsLen - 1];\r\n        courses[course_Key][coursePos].tickets.pop();\r\n\r\n        bytes32 _feedback_Key = keccak256(\r\n            abi.encodePacked(\r\n                _email,\r\n                \",\",\r\n                _feedback.year,\r\n                \",\",\r\n                _feedback.semester,\r\n                \",\",\r\n                _feedback.code\r\n            )\r\n        );\r\n\r\n        feedbacks[_feedback_Key].push(_feedback);\r\n        uint256 feedbackLen = feedbacks[_feedback_Key].length;\r\n\r\n        emit feedbackSubmitted(\r\n            _email,\r\n            feedbacks[_feedback_Key][feedbackLen - 1]\r\n        );\r\n\r\n        for (uint256 j = 0; j < _feedback.skills.length; j++) {\r\n            bytes32 skill_Key = keccak256(\r\n                abi.encodePacked(_email, \",\", _feedback.skills[j])\r\n            );\r\n            skillsCount[skill_Key]++;\r\n        }\r\n\r\n        emit skillsUpvoted(_email, getSkillsUpvote(_email));\r\n\r\n        professorDetail[_email].rating = updatedRating;\r\n        emit ratingUpdated(_email, updatedRating);\r\n\r\n        uint256 percentage = 3;\r\n        if (\r\n            courses[course_Key][coursePos].studentCount <= 3 ||\r\n            feedbackLen <=\r\n            (courses[course_Key][coursePos].studentCount / percentage)\r\n        ) bhuToken.transfer(msg.sender, earlyFeedbackCost);\r\n        else bhuToken.transfer(msg.sender, lateFeedbackCost);\r\n        emit balanceUpdated(msg.sender, bhuToken.balanceOf(msg.sender));\r\n    }\r\n\r\n    function buyItems(uint256 cost) public {\r\n        //require(checkBalance(msg.sender) >= 1, \"Insufficent tokens\");\r\n        bhuToken.transferFrom(msg.sender, address(this), cost);\r\n    }\r\n}\r\n",
  "sourcePath": "F:\\BlockChain\\Projects\\feedback-dapp\\contracts\\FeedbackData.sol",
  "compiler": {
    "name": "solc",
    "version": "0.8.11+commit.d7f03943.Emscripten.clang"
  },
  "schemaVersion": "3.4.5",
  "updatedAt": "2022-03-20T20:11:10.604Z",
  "networkType": "ethereum",
  "devdoc": {
    "kind": "dev",
    "methods": {},
    "version": 1
  },
  "userdoc": {
    "kind": "user",
    "methods": {},
    "version": 1
  }
}