{
  "contractName": "FeedbackData",
  "abi": [
    {
      "inputs": [],
      "stateMutability": "nonpayable",
      "type": "constructor"
    },
    {
      "anonymous": false,
      "inputs": [
        {
          "indexed": false,
          "internalType": "string",
          "name": "email",
          "type": "string"
        },
        {
          "indexed": false,
          "internalType": "uint256",
          "name": "year",
          "type": "uint256"
        },
        {
          "components": [
            {
              "internalType": "string",
              "name": "name",
              "type": "string"
            },
            {
              "internalType": "string",
              "name": "code",
              "type": "string"
            },
            {
              "internalType": "uint256",
              "name": "semester",
              "type": "uint256"
            },
            {
              "internalType": "uint256",
              "name": "year",
              "type": "uint256"
            },
            {
              "internalType": "uint256",
              "name": "studentCount",
              "type": "uint256"
            },
            {
              "internalType": "bool",
              "name": "ticketGenerated",
              "type": "bool"
            },
            {
              "internalType": "bytes32[]",
              "name": "tickets",
              "type": "bytes32[]"
            }
          ],
          "indexed": false,
          "internalType": "struct FeedbackData.Course",
          "name": "course",
          "type": "tuple"
        }
      ],
      "name": "courseUpdated",
      "type": "event"
    },
    {
      "anonymous": false,
      "inputs": [
        {
          "indexed": false,
          "internalType": "string",
          "name": "email",
          "type": "string"
        },
        {
          "components": [
            {
              "internalType": "string",
              "name": "code",
              "type": "string"
            },
            {
              "internalType": "uint256",
              "name": "semester",
              "type": "uint256"
            },
            {
              "internalType": "uint256",
              "name": "year",
              "type": "uint256"
            },
            {
              "internalType": "string",
              "name": "content",
              "type": "string"
            },
            {
              "internalType": "string[]",
              "name": "skills",
              "type": "string[]"
            }
          ],
          "indexed": false,
          "internalType": "struct FeedbackData.Feedback",
          "name": "feedback",
          "type": "tuple"
        }
      ],
      "name": "feedbackSubmitted",
      "type": "event"
    },
    {
      "anonymous": false,
      "inputs": [
        {
          "components": [
            {
              "internalType": "string",
              "name": "name",
              "type": "string"
            },
            {
              "internalType": "string",
              "name": "email",
              "type": "string"
            },
            {
              "internalType": "address",
              "name": "addressId",
              "type": "address"
            },
            {
              "components": [
                {
                  "internalType": "uint256",
                  "name": "preDecimal",
                  "type": "uint256"
                },
                {
                  "internalType": "uint256",
                  "name": "postDecimal",
                  "type": "uint256"
                }
              ],
              "internalType": "struct FeedbackData.Float",
              "name": "rating",
              "type": "tuple"
            }
          ],
          "indexed": false,
          "internalType": "struct FeedbackData.Professor",
          "name": "professor",
          "type": "tuple"
        }
      ],
      "name": "professorCreated",
      "type": "event"
    },
    {
      "anonymous": false,
      "inputs": [
        {
          "indexed": false,
          "internalType": "string",
          "name": "email",
          "type": "string"
        },
        {
          "components": [
            {
              "internalType": "string",
              "name": "name",
              "type": "string"
            },
            {
              "internalType": "uint256",
              "name": "count",
              "type": "uint256"
            }
          ],
          "indexed": false,
          "internalType": "struct FeedbackData.SkillsUpvoteCount[]",
          "name": "skills",
          "type": "tuple[]"
        }
      ],
      "name": "skillsUpvoted",
      "type": "event"
    },
    {
      "anonymous": false,
      "inputs": [
        {
          "indexed": false,
          "internalType": "bool",
          "name": "",
          "type": "bool"
        }
      ],
      "name": "test",
      "type": "event"
    },
    {
      "anonymous": false,
      "inputs": [
        {
          "indexed": false,
          "internalType": "string",
          "name": "email",
          "type": "string"
        },
        {
          "indexed": false,
          "internalType": "uint256",
          "name": "year",
          "type": "uint256"
        },
        {
          "indexed": false,
          "internalType": "uint256",
          "name": "sem",
          "type": "uint256"
        },
        {
          "indexed": false,
          "internalType": "string",
          "name": "code",
          "type": "string"
        },
        {
          "indexed": false,
          "internalType": "bytes32[]",
          "name": "tickets",
          "type": "bytes32[]"
        }
      ],
      "name": "ticketGenerated",
      "type": "event"
    },
    {
      "anonymous": false,
      "inputs": [
        {
          "indexed": false,
          "internalType": "bytes32",
          "name": "token",
          "type": "bytes32"
        }
      ],
      "name": "tokenGenerated",
      "type": "event"
    },
    {
      "inputs": [
        {
          "internalType": "bytes32",
          "name": "",
          "type": "bytes32"
        }
      ],
      "name": "_keysForProfReg",
      "outputs": [
        {
          "internalType": "bool",
          "name": "",
          "type": "bool"
        }
      ],
      "stateMutability": "view",
      "type": "function",
      "constant": true
    },
    {
      "inputs": [
        {
          "internalType": "bytes32",
          "name": "",
          "type": "bytes32"
        },
        {
          "internalType": "uint256",
          "name": "",
          "type": "uint256"
        }
      ],
      "name": "courses",
      "outputs": [
        {
          "internalType": "string",
          "name": "name",
          "type": "string"
        },
        {
          "internalType": "string",
          "name": "code",
          "type": "string"
        },
        {
          "internalType": "uint256",
          "name": "semester",
          "type": "uint256"
        },
        {
          "internalType": "uint256",
          "name": "year",
          "type": "uint256"
        },
        {
          "internalType": "uint256",
          "name": "studentCount",
          "type": "uint256"
        },
        {
          "internalType": "bool",
          "name": "ticketGenerated",
          "type": "bool"
        }
      ],
      "stateMutability": "view",
      "type": "function",
      "constant": true
    },
    {
      "inputs": [
        {
          "internalType": "uint256",
          "name": "",
          "type": "uint256"
        }
      ],
      "name": "emails",
      "outputs": [
        {
          "internalType": "string",
          "name": "",
          "type": "string"
        }
      ],
      "stateMutability": "view",
      "type": "function",
      "constant": true
    },
    {
      "inputs": [
        {
          "internalType": "uint256",
          "name": "",
          "type": "uint256"
        }
      ],
      "name": "facultySkills",
      "outputs": [
        {
          "internalType": "string",
          "name": "",
          "type": "string"
        }
      ],
      "stateMutability": "view",
      "type": "function",
      "constant": true
    },
    {
      "inputs": [
        {
          "internalType": "bytes32",
          "name": "",
          "type": "bytes32"
        },
        {
          "internalType": "uint256",
          "name": "",
          "type": "uint256"
        }
      ],
      "name": "feedbacks",
      "outputs": [
        {
          "internalType": "string",
          "name": "code",
          "type": "string"
        },
        {
          "internalType": "uint256",
          "name": "semester",
          "type": "uint256"
        },
        {
          "internalType": "uint256",
          "name": "year",
          "type": "uint256"
        },
        {
          "internalType": "string",
          "name": "content",
          "type": "string"
        }
      ],
      "stateMutability": "view",
      "type": "function",
      "constant": true
    },
    {
      "inputs": [
        {
          "internalType": "string",
          "name": "",
          "type": "string"
        }
      ],
      "name": "professorDetail",
      "outputs": [
        {
          "internalType": "string",
          "name": "name",
          "type": "string"
        },
        {
          "internalType": "string",
          "name": "email",
          "type": "string"
        },
        {
          "internalType": "address",
          "name": "addressId",
          "type": "address"
        },
        {
          "components": [
            {
              "internalType": "uint256",
              "name": "preDecimal",
              "type": "uint256"
            },
            {
              "internalType": "uint256",
              "name": "postDecimal",
              "type": "uint256"
            }
          ],
          "internalType": "struct FeedbackData.Float",
          "name": "rating",
          "type": "tuple"
        }
      ],
      "stateMutability": "view",
      "type": "function",
      "constant": true
    },
    {
      "inputs": [
        {
          "internalType": "bytes32",
          "name": "",
          "type": "bytes32"
        }
      ],
      "name": "skillsCount",
      "outputs": [
        {
          "internalType": "uint256",
          "name": "",
          "type": "uint256"
        }
      ],
      "stateMutability": "view",
      "type": "function",
      "constant": true
    },
    {
      "inputs": [],
      "name": "util",
      "outputs": [
        {
          "internalType": "contract Utils",
          "name": "",
          "type": "address"
        }
      ],
      "stateMutability": "view",
      "type": "function",
      "constant": true
    },
    {
      "inputs": [],
      "name": "generateTokenForProfReg",
      "outputs": [],
      "stateMutability": "nonpayable",
      "type": "function"
    },
    {
      "inputs": [],
      "name": "getFacultySkills",
      "outputs": [
        {
          "internalType": "string[]",
          "name": "",
          "type": "string[]"
        }
      ],
      "stateMutability": "view",
      "type": "function",
      "constant": true
    },
    {
      "inputs": [
        {
          "internalType": "string",
          "name": "name",
          "type": "string"
        },
        {
          "internalType": "string",
          "name": "email",
          "type": "string"
        },
        {
          "internalType": "bytes32",
          "name": "secret",
          "type": "bytes32"
        }
      ],
      "name": "createProfessor",
      "outputs": [],
      "stateMutability": "nonpayable",
      "type": "function"
    },
    {
      "inputs": [],
      "name": "getProfessorIds",
      "outputs": [
        {
          "internalType": "string[]",
          "name": "",
          "type": "string[]"
        }
      ],
      "stateMutability": "view",
      "type": "function",
      "constant": true
    },
    {
      "inputs": [
        {
          "internalType": "string[]",
          "name": "ids",
          "type": "string[]"
        }
      ],
      "name": "getProfessorsDetailsByIds",
      "outputs": [
        {
          "components": [
            {
              "internalType": "string",
              "name": "name",
              "type": "string"
            },
            {
              "internalType": "string",
              "name": "email",
              "type": "string"
            },
            {
              "internalType": "address",
              "name": "addressId",
              "type": "address"
            },
            {
              "components": [
                {
                  "internalType": "uint256",
                  "name": "preDecimal",
                  "type": "uint256"
                },
                {
                  "internalType": "uint256",
                  "name": "postDecimal",
                  "type": "uint256"
                }
              ],
              "internalType": "struct FeedbackData.Float",
              "name": "rating",
              "type": "tuple"
            }
          ],
          "internalType": "struct FeedbackData.Professor[]",
          "name": "",
          "type": "tuple[]"
        }
      ],
      "stateMutability": "view",
      "type": "function",
      "constant": true
    },
    {
      "inputs": [
        {
          "internalType": "string",
          "name": "_email",
          "type": "string"
        }
      ],
      "name": "getFeedbacks",
      "outputs": [
        {
          "components": [
            {
              "internalType": "string",
              "name": "code",
              "type": "string"
            },
            {
              "internalType": "uint256",
              "name": "semester",
              "type": "uint256"
            },
            {
              "internalType": "uint256",
              "name": "year",
              "type": "uint256"
            },
            {
              "internalType": "string",
              "name": "content",
              "type": "string"
            },
            {
              "internalType": "string[]",
              "name": "skills",
              "type": "string[]"
            }
          ],
          "internalType": "struct FeedbackData.Feedback[][]",
          "name": "",
          "type": "tuple[][]"
        }
      ],
      "stateMutability": "view",
      "type": "function",
      "constant": true
    },
    {
      "inputs": [
        {
          "internalType": "string",
          "name": "_email",
          "type": "string"
        }
      ],
      "name": "getCourses",
      "outputs": [
        {
          "components": [
            {
              "internalType": "string",
              "name": "name",
              "type": "string"
            },
            {
              "internalType": "string",
              "name": "code",
              "type": "string"
            },
            {
              "internalType": "uint256",
              "name": "semester",
              "type": "uint256"
            },
            {
              "internalType": "uint256",
              "name": "year",
              "type": "uint256"
            },
            {
              "internalType": "uint256",
              "name": "studentCount",
              "type": "uint256"
            },
            {
              "internalType": "bool",
              "name": "ticketGenerated",
              "type": "bool"
            },
            {
              "internalType": "bytes32[]",
              "name": "tickets",
              "type": "bytes32[]"
            }
          ],
          "internalType": "struct FeedbackData.Course[][]",
          "name": "",
          "type": "tuple[][]"
        }
      ],
      "stateMutability": "view",
      "type": "function",
      "constant": true
    },
    {
      "inputs": [
        {
          "internalType": "string",
          "name": "_email",
          "type": "string"
        }
      ],
      "name": "getSkillsUpvote",
      "outputs": [
        {
          "components": [
            {
              "internalType": "string",
              "name": "name",
              "type": "string"
            },
            {
              "internalType": "uint256",
              "name": "count",
              "type": "uint256"
            }
          ],
          "internalType": "struct FeedbackData.SkillsUpvoteCount[]",
          "name": "",
          "type": "tuple[]"
        }
      ],
      "stateMutability": "view",
      "type": "function",
      "constant": true
    },
    {
      "inputs": [
        {
          "internalType": "uint256",
          "name": "_year",
          "type": "uint256"
        },
        {
          "internalType": "string",
          "name": "_email",
          "type": "string"
        },
        {
          "internalType": "string",
          "name": "_name",
          "type": "string"
        },
        {
          "internalType": "string",
          "name": "_code",
          "type": "string"
        },
        {
          "internalType": "uint256",
          "name": "_sem",
          "type": "uint256"
        },
        {
          "internalType": "uint256",
          "name": "_studentCount",
          "type": "uint256"
        }
      ],
      "name": "addCourse",
      "outputs": [],
      "stateMutability": "nonpayable",
      "type": "function"
    },
    {
      "inputs": [
        {
          "internalType": "string",
          "name": "_email",
          "type": "string"
        },
        {
          "internalType": "uint256",
          "name": "_year",
          "type": "uint256"
        },
        {
          "internalType": "uint256",
          "name": "_sem",
          "type": "uint256"
        },
        {
          "internalType": "string",
          "name": "_code",
          "type": "string"
        },
        {
          "internalType": "string",
          "name": "_seed",
          "type": "string"
        }
      ],
      "name": "generateTickets",
      "outputs": [],
      "stateMutability": "nonpayable",
      "type": "function"
    },
    {
      "inputs": [
        {
          "internalType": "string",
          "name": "_email",
          "type": "string"
        },
        {
          "internalType": "bytes32",
          "name": "_ticket",
          "type": "bytes32"
        },
        {
          "components": [
            {
              "internalType": "string",
              "name": "code",
              "type": "string"
            },
            {
              "internalType": "uint256",
              "name": "semester",
              "type": "uint256"
            },
            {
              "internalType": "uint256",
              "name": "year",
              "type": "uint256"
            },
            {
              "internalType": "string",
              "name": "content",
              "type": "string"
            },
            {
              "internalType": "string[]",
              "name": "skills",
              "type": "string[]"
            }
          ],
          "internalType": "struct FeedbackData.Feedback",
          "name": "_feedback",
          "type": "tuple"
        }
      ],
      "name": "submitFeedback",
      "outputs": [],
      "stateMutability": "nonpayable",
      "type": "function"
    }
  ],
  "bytecode": "0x60096101209081526844697665727369747960b81b610140526080908152600d6101609081526c21b7b6b6bab734b1b0ba34b7b760991b6101805260a052600a6101a08181526950726f6365647572657360b01b6101c05260c0526101e0908152695068696c6f736f70687960b01b6102005260e052610260604052600f6102209081526e53747564656e744c6561726e696e6760881b6102405261010052620000ae906000906005620000f3565b50348015620000bc57600080fd5b5060408051446020820152429181019190915260600160408051601f19818403018152919052805160209091012060095562000299565b82805482825590600052602060002090810192821562000145579160200282015b828111156200014557825180516200013491849160209091019062000157565b509160200191906001019062000114565b5062000153929150620001e2565b5090565b82805462000165906200025c565b90600052602060002090601f016020900481019282620001895760008555620001d4565b82601f10620001a457805160ff1916838001178555620001d4565b82800160010185558215620001d4579182015b82811115620001d4578251825591602001919060010190620001b7565b506200015392915062000203565b8082111562000153576000620001f982826200021a565b50600101620001e2565b5b8082111562000153576000815560010162000204565b50805462000228906200025c565b6000825580601f1062000239575050565b601f01602090049060005260206000209081019062000259919062000203565b50565b600181811c908216806200027157607f821691505b602082108114156200029357634e487b7160e01b600052602260045260246000fd5b50919050565b61389c80620002a96000396000f3fe608060405234801561001057600080fd5b50600436106101215760003560e01c80635e566f20116100ad578063e30a121111610071578063e30a1211146102eb578063ec2f44c51461030b578063f4cd31981461031e578063f52c1c0714610326578063fed5eb8d1461033957600080fd5b80635e566f2014610265578063695a7d491461027a57806369b3238c1461029a57806395613875146102ad578063d5580858146102d857600080fd5b80633253672b116100f45780633253672b146101b5578063339f3660146101bf57806335f13f68146101df5780633bc79a9814610204578063466bf0041461023257600080fd5b806303ea41a2146101265780630a06db071461014f5780631d3225651461017257806331ea981014610192575b600080fd5b610139610134366004612605565b61034c565b60405161014691906126a2565b60405180910390f35b61016261015d3660046127ef565b6106e1565b6040516101469493929190612811565b61018561018036600461284d565b61083e565b60405161014691906128c1565b6101a56101a0366004612a17565b610a79565b6040516101469493929190612a53565b6101bd610bde565b005b6101d26101cd366004612605565b610c7f565b6040516101469190612aaa565b6101f26101ed3660046127ef565b610faa565b60405161014696959493929190612bd9565b610224610212366004612c26565b60046020526000908152604090205481565b604051908152602001610146565b610255610240366004612c26565b60086020526000908152604090205460ff1681565b6040519015158152602001610146565b61026d611117565b6040516101469190612c3f565b61028d610288366004612c26565b6111f0565b6040516101469190612ca1565b6101bd6102a8366004612cbb565b61129c565b6001546102c0906001600160a01b031681565b6040516001600160a01b039091168152602001610146565b6101bd6102e6366004612d2e565b6115f7565b6102fe6102f9366004612605565b61181d565b6040516101469190612e4e565b6101bd610319366004612e61565b6119db565b61026d611f15565b61028d610334366004612c26565b611fe5565b6101bd610347366004612ed8565b611ff5565b6060600060078484604051610362929190612f73565b908152604051908190036020019020600101546001600160401b0381111561038c5761038c612975565b6040519080825280602002602001820160405280156103bf57816020015b60608152602001906001900390816103aa5790505b50905060005b600785856040516103d7929190612f73565b908152604051908190036020019020600101548110156106d9576006600060078787604051610407929190612f73565b9081526020016040518091039020600101838154811061042957610429612f83565b90600052602060002001548152602001908152602001600020805480602002602001604051908101604052809291908181526020016000905b828210156106a557838290600052602060002090600502016040518060a001604052908160008201805461049590612f99565b80601f01602080910402602001604051908101604052809291908181526020018280546104c190612f99565b801561050e5780601f106104e35761010080835404028352916020019161050e565b820191906000526020600020905b8154815290600101906020018083116104f157829003601f168201915b50505050508152602001600182015481526020016002820154815260200160038201805461053b90612f99565b80601f016020809104026020016040519081016040528092919081815260200182805461056790612f99565b80156105b45780601f10610589576101008083540402835291602001916105b4565b820191906000526020600020905b81548152906001019060200180831161059757829003601f168201915b5050505050815260200160048201805480602002602001604051908101604052809291908181526020016000905b8282101561068e57838290600052602060002001805461060190612f99565b80601f016020809104026020016040519081016040528092919081815260200182805461062d90612f99565b801561067a5780601f1061064f5761010080835404028352916020019161067a565b820191906000526020600020905b81548152906001019060200180831161065d57829003601f168201915b5050505050815260200190600101906105e2565b505050508152505081526020019060010190610462565b505050508282815181106106bb576106bb612f83565b602002602001018190525080806106d190612fea565b9150506103c5565b509392505050565b600660205281600052604060002081815481106106fd57600080fd5b90600052602060002090600502016000915091505080600001805461072190612f99565b80601f016020809104026020016040519081016040528092919081815260200182805461074d90612f99565b801561079a5780601f1061076f5761010080835404028352916020019161079a565b820191906000526020600020905b81548152906001019060200180831161077d57829003601f168201915b5050505050908060010154908060020154908060030180546107bb90612f99565b80601f01602080910402602001604051908101604052809291908181526020018280546107e790612f99565b80156108345780601f1061080957610100808354040283529160200191610834565b820191906000526020600020905b81548152906001019060200180831161081757829003601f168201915b5050505050905084565b60606000826001600160401b0381111561085a5761085a612975565b60405190808252806020026020018201604052801561089357816020015b61088061242b565b8152602001906001900390816108785790505b50905060005b838110156106d95760038585838181106108b5576108b5612f83565b90506020028101906108c79190613005565b6040516108d5929190612f73565b90815260200160405180910390206040518060800160405290816000820180546108fe90612f99565b80601f016020809104026020016040519081016040528092919081815260200182805461092a90612f99565b80156109775780601f1061094c57610100808354040283529160200191610977565b820191906000526020600020905b81548152906001019060200180831161095a57829003601f168201915b5050505050815260200160018201805461099090612f99565b80601f01602080910402602001604051908101604052809291908181526020018280546109bc90612f99565b8015610a095780601f106109de57610100808354040283529160200191610a09565b820191906000526020600020905b8154815290600101906020018083116109ec57829003601f168201915b505050918352505060028201546001600160a01b0316602080830191909152604080518082018252600385015481526004909401549184019190915201528251839083908110610a5b57610a5b612f83565b60200260200101819052508080610a7190612fea565b915050610899565b8051602081830181018051600382529282019190930120915280548190610a9f90612f99565b80601f0160208091040260200160405190810160405280929190818152602001828054610acb90612f99565b8015610b185780601f10610aed57610100808354040283529160200191610b18565b820191906000526020600020905b815481529060010190602001808311610afb57829003601f168201915b505050505090806001018054610b2d90612f99565b80601f0160208091040260200160405190810160405280929190818152602001828054610b5990612f99565b8015610ba65780601f10610b7b57610100808354040283529160200191610ba6565b820191906000526020600020905b815481529060010190602001808311610b8957829003601f168201915b5050505060028301546040805180820190915260038501548152600490940154602085015291926001600160a01b0390921691905084565b60098054906000610bee83612fea565b9190505550600042600954604051602001610c13929190918252602082015260400190565b60408051601f19818403018152828252805160209182012060008181526008909252919020805460ff1916600117905591507f8c6adcc89fb3a5c5ff4d5bb7afc4eeb464c80bd1c42b23064841c593ab9887e890610c749083815260200190565b60405180910390a150565b6060600060078484604051610c95929190612f73565b908152604051908190036020019020546001600160401b03811115610cbc57610cbc612975565b604051908082528060200260200182016040528015610cef57816020015b6060815260200190600190039081610cda5790505b50905060005b60078585604051610d07929190612f73565b908152604051908190036020019020548110156106d9576005600060078787604051610d34929190612f73565b90815260200160405180910390206000018381548110610d5657610d56612f83565b90600052602060002001548152602001908152602001600020805480602002602001604051908101604052809291908181526020016000905b82821015610f7657838290600052602060002090600702016040518060e0016040529081600082018054610dc290612f99565b80601f0160208091040260200160405190810160405280929190818152602001828054610dee90612f99565b8015610e3b5780601f10610e1057610100808354040283529160200191610e3b565b820191906000526020600020905b815481529060010190602001808311610e1e57829003601f168201915b50505050508152602001600182018054610e5490612f99565b80601f0160208091040260200160405190810160405280929190818152602001828054610e8090612f99565b8015610ecd5780601f10610ea257610100808354040283529160200191610ecd565b820191906000526020600020905b815481529060010190602001808311610eb057829003601f168201915b505050505081526020016002820154815260200160038201548152602001600482015481526020016005820160009054906101000a900460ff1615151515815260200160068201805480602002602001604051908101604052809291908181526020018280548015610f5e57602002820191906000526020600020905b815481526020019060010190808311610f4a575b50505050508152505081526020019060010190610d8f565b50505050828281518110610f8c57610f8c612f83565b60200260200101819052508080610fa290612fea565b915050610cf5565b60056020528160005260406000208181548110610fc657600080fd5b906000526020600020906007020160009150915050806000018054610fea90612f99565b80601f016020809104026020016040519081016040528092919081815260200182805461101690612f99565b80156110635780601f1061103857610100808354040283529160200191611063565b820191906000526020600020905b81548152906001019060200180831161104657829003601f168201915b50505050509080600101805461107890612f99565b80601f01602080910402602001604051908101604052809291908181526020018280546110a490612f99565b80156110f15780601f106110c6576101008083540402835291602001916110f1565b820191906000526020600020905b8154815290600101906020018083116110d457829003601f168201915b505050506002830154600384015460048501546005909501549394919390925060ff1686565b60606000805480602002602001604051908101604052809291908181526020016000905b828210156111e757838290600052602060002001805461115a90612f99565b80601f016020809104026020016040519081016040528092919081815260200182805461118690612f99565b80156111d35780601f106111a8576101008083540402835291602001916111d3565b820191906000526020600020905b8154815290600101906020018083116111b657829003601f168201915b50505050508152602001906001019061113b565b50505050905090565b6002818154811061120057600080fd5b90600052602060002001600091509050805461121b90612f99565b80601f016020809104026020016040519081016040528092919081815260200182805461124790612f99565b80156112945780601f1061126957610100808354040283529160200191611294565b820191906000526020600020905b81548152906001019060200180831161127757829003601f168201915b505050505081565b836113065760405162461bcd60e51b815260206004820152602f60248201527f4e616d652063616e206e6f7420626520626c616e6b20647572696e672070726f60448201526e3332b9b9b7b91031b932b0ba34b7b760891b60648201526084015b60405180910390fd5b8161136c5760405162461bcd60e51b815260206004820152603060248201527f456d61696c2063616e206e6f7420626520626c616e6b20647572696e6720707260448201526f37b332b9b9b7b91031b932b0ba34b7b760811b60648201526084016112fd565b336113b95760405162461bcd60e51b815260206004820152601960248201527f7573657220616464726573732073686f756c642065786973740000000000000060448201526064016112fd565b60008181526008602052604090205460ff1615156001146114135760405162461bcd60e51b81526020600482015260146024820152731c1c9bdd9a5919481d985b1a59081cd958dc995d60621b60448201526064016112fd565b604051806080016040528086868080601f016020809104026020016040519081016040528093929190818152602001838380828437600092019190915250505090825250604080516020601f8701819004810282018101909252858152918101919086908690819084018382808284376000920182905250938552505033602080850191909152604080518082018252848152918201939093529282019290925251600391506114c69086908690612f73565b908152602001604051809103902060008201518160000190805190602001906114f0929190612476565b5060208281015180516115099260018501920190612476565b506040820151600282810180546001600160a01b0319166001600160a01b039093169290921790915560609092015180516003830155602001516004909101558054600181018255600091909152611584907f405787fa12a823e0f2b7631cc41b3ba8828b3321ca811111fa75cd3aa3bb5ace0184846124fa565b5060008181526008602052604090819020805460ff19169055517ff77cad3ffab6ca3874c9b0ce7fb99f424a7eb16380379a0f62e6626fea7bdcce906003906115d09086908690612f73565b9081526040519081900360200181206115e8916130c2565b60405180910390a15050505050565b604080516101006020601f8901819004028201810190925260e081018781526000928291908a908a9081908501838280828437600092019190915250505090825250604080516020601f8901819004810282018101909252878152918101919088908890819084018382808284376000920182905250938552505050602080830187905260408084018f905260608401879052608084018390528051838152808301825260a0909401939093529151929350916116bc918c918c918f91899101613128565b6040516020818303038152906040528051906020012090506116df8a8a83612366565b6116ed8a8a8d878a8a6123b5565b600081815260056020908152604082208054600181018255908352918190208451805186946007029092019261172892849290910190612476565b5060208281015180516117419260018501920190612476565b5060408201516002820155606082015160038201556080820151600482015560a082015160058201805460ff191691151591909117905560c0820151805161179391600684019160209091019061256e565b505050600081815260056020526040902080547f56ff489b5a33d116a814463d8d88ac249e308bc2743f22d1d3116b1509588fd6918c918c918f916117da90600190613156565b815481106117ea576117ea612f83565b906000526020600020906007020160405161180894939291906131d6565b60405180910390a15050505050505050505050565b60008054606091906001600160401b0381111561183c5761183c612975565b60405190808252806020026020018201604052801561188257816020015b60408051808201909152606081526000602082015281526020019060019003908161185a5790505b50905060005b6000548110156106d95760008585600084815481106118a9576118a9612f83565b906000526020600020016040516020016118c5939291906132e5565b6040516020818303038152906040528051906020012090506040518060400160405280600084815481106118fb576118fb612f83565b90600052602060002001805461191090612f99565b80601f016020809104026020016040519081016040528092919081815260200182805461193c90612f99565b80156119895780601f1061195e57610100808354040283529160200191611989565b820191906000526020600020905b81548152906001019060200180831161196c57829003601f168201915b5050505050815260200160046000848152602001908152602001600020548152508383815181106119bc576119bc612f83565b60200260200101819052505080806119d390612fea565b915050611888565b60008484836040013584602001356040516020016119fc9493929190613128565b6040516020818303038152906040528051906020012090506000805b600083815260056020526040902054821015611ad657611a388480613005565b604051602001611a49929190612f73565b60408051601f198184030181529181528151602092830120600086815260059093529120805484908110611a7f57611a7f612f83565b9060005260206000209060070201600101604051602001611aa0919061330e565b604051602081830303815290604052805190602001201415611ac457506001611ad6565b81611ace81612fea565b925050611a18565b80611b335760405162461bcd60e51b815260206004820152602760248201527f636f75727365206e6f7420666f756e642c20696e76616c696420636f757273656044820152660819195d185a5b60ca1b60648201526084016112fd565b50600082815260056020526040812080548291829185908110611b5857611b58612f83565b90600052602060002090600702016006018054905090505b80821015611be9576000858152600560205260409020805488919086908110611b9b57611b9b612f83565b90600052602060002090600702016006018381548110611bbd57611bbd612f83565b90600052602060002001541415611bd75760019250611be9565b81611be181612fea565b925050611b70565b82611c445760405162461bcd60e51b815260206004820152602560248201527f7469636b6574206e6f7420666f756e642c207375626d69742076616c696420746044820152641a58dad95d60da1b60648201526084016112fd565b6000858152600560205260409020805485908110611c6457611c64612f83565b9060005260206000209060070201600601600182611c829190613156565b81548110611c9257611c92612f83565b9060005260206000200154600560008781526020019081526020016000208581548110611cc157611cc1612f83565b90600052602060002090600702016006018381548110611ce357611ce3612f83565b9060005260206000200181905550600560008681526020019081526020016000208481548110611d1557611d15612f83565b9060005260206000209060070201600601805480611d3557611d3561331a565b600082815260208120820160001990810182905590910190915585611d5a8880613005565b604051602001611d6c93929190613330565b60408051601f198184030181529181528151602092830120600081815260068452918220805460018101825590835292909120909250889160050201611db2828261359e565b505060008181526006602052604090208054907f621f6c85f4ec6c24e3ef3fae1311b591199f13477580f239a708ec1e0123d582908c908c90611df6600186613156565b81548110611e0657611e06612f83565b9060005260206000209060050201604051611e239392919061363b565b60405180910390a160005b611e3b60808a018a61346c565b9050811015611ed85760008c8c611e5560808d018d61346c565b85818110611e6557611e65612f83565b9050602002810190611e779190613005565b604051602001611e8a94939291906136fe565b60408051601f1981840301815291815281516020928301206000818152600490935290822080549193509091611ebf83612fea565b9190505550508080611ed090612fea565b915050611e2e565b507fd13d2122f194eef81e0738f122d85de9ec47c971b03882a46cfe5c4f32e58c0a8b8b611f068e8e61181d565b6040516118089392919061372b565b60606002805480602002602001604051908101604052809291908181526020016000905b828210156111e7578382906000526020600020018054611f5890612f99565b80601f0160208091040260200160405190810160405280929190818152602001828054611f8490612f99565b8015611fd15780601f10611fa657610100808354040283529160200191611fd1565b820191906000526020600020905b815481529060010190602001808311611fb457829003601f168201915b505050505081526020019060010190611f39565b6000818154811061120057600080fd5b600085858560405160200161200c93929190613751565b60405160208183030381529060405280519060200120905060008060005b6000848152600560205260409020548110156120e257856040516020016120519190613788565b60408051601f19818403018152918152815160209283012060008781526005909352912080548390811061208757612087612f83565b90600052602060002090600702016001016040516020016120a8919061330e565b6040516020818303038152906040528051906020012014156120d057809250600191506120e2565b806120da81612fea565b91505061202a565b6001821515146121405760405162461bcd60e51b815260206004820152602360248201527f77726f6e672063726564656e7469616c732c20636f75727365206e6f7420666f6044820152621d5b9960ea1b60648201526084016112fd565b600084815260056020526040902080548490811061216057612160612f83565b600091825260209091206005600790920201015460ff16156121c45760405162461bcd60e51b815260206004820152601d60248201527f7469636b6574732061726520616c72656164792067656e65726174656400000060448201526064016112fd565b6000848152600560205260409020805460019190859081106121e8576121e8612f83565b60009182526020822060079190910201600501805460ff19169215159290921790915590505b600084815260056020526040902080548490811061222e5761222e612f83565b9060005260206000209060070201600401548110156122e857600042866009544460405160200161226294939291906137a4565b60408051601f19818403018152919052805160209091012060098054919250600061228c83612fea565b909155505060008581526005602052604090208054859081106122b1576122b1612f83565b60009182526020808320600660079093020191909101805460018101825590835291200155806122e081612fea565b91505061220e565b7f0aa509c398501987b09b5e8d6f21a19bf8a9d391fc11a6c17a1bb9093519a3d589898989600560008a8152602001908152602001600020888154811061233157612331612f83565b90600052602060002090600702016006016040516123539594939291906137d6565b60405180910390a1505050505050505050565b6000818152600560205260409020546123b0576007838360405161238b929190612f73565b9081526040516020918190038201902080546001810182556000918252919020018190555b505050565b60008686868686866040516020016123d29695949392919061381b565b604051602081830303815290604052805190602001209050600787876040516123fc929190612f73565b908152604051602091819003820190206001908101805491820181556000908152919091200155505050505050565b6040518060800160405280606081526020016060815260200160006001600160a01b03168152602001612471604051806040016040528060008152602001600081525090565b905290565b82805461248290612f99565b90600052602060002090601f0160209004810192826124a457600085556124ea565b82601f106124bd57805160ff19168380011785556124ea565b828001600101855582156124ea579182015b828111156124ea5782518255916020019190600101906124cf565b506124f69291506125a8565b5090565b82805461250690612f99565b90600052602060002090601f01602090048101928261252857600085556124ea565b82601f106125415782800160ff198235161785556124ea565b828001600101855582156124ea579182015b828111156124ea578235825591602001919060010190612553565b8280548282559060005260206000209081019282156124ea57916020028201828111156124ea5782518255916020019190600101906124cf565b5b808211156124f657600081556001016125a9565b60008083601f8401126125cf57600080fd5b5081356001600160401b038111156125e657600080fd5b6020830191508360208285010111156125fe57600080fd5b9250929050565b6000806020838503121561261857600080fd5b82356001600160401b0381111561262e57600080fd5b61263a858286016125bd565b90969095509350505050565b60005b83811015612661578181015183820152602001612649565b83811115612670576000848401525b50505050565b6000815180845261268e816020860160208601612646565b601f01601f19169290920160200192915050565b60208152600060208201835180825260408401915060408160051b8501016020860160005b838110156127e357868303603f19018552815180518085526020918201918086019190600582901b87010160005b828110156127c957601f198883030184528451805160a0845261271b60a0850182612676565b90506020820151602085015260408201516040850152606082015184820360608601526127488282612676565b91505060808201519150838103608085015280825180835260208301915060208160051b84010160208501945060005b828110156127a957601f19858303018452612794828751612676565b60209687019694909401939150600101612778565b5080965050505050506020850194506020840193506001810190506126f5565b5060209889019890965094909401935050506001016126c7565b50909695505050505050565b6000806040838503121561280257600080fd5b50508035926020909101359150565b6080815260006128246080830187612676565b85602084015284604084015282810360608401526128428185612676565b979650505050505050565b6000806020838503121561286057600080fd5b82356001600160401b038082111561287757600080fd5b818501915085601f83011261288b57600080fd5b81358181111561289a57600080fd5b8660208260051b85010111156128af57600080fd5b60209290920196919550909350505050565b60006020808301818452808551808352604092508286019150828160051b87010184880160005b8381101561296757603f19898403018552815160a0815181865261290e82870182612676565b915050888201518582038a8701526129268282612676565b898401516001600160a01b0316878b0152606093840151805185890152602081015160808901529390925090505095880195935050908601906001016128e8565b509098975050505050505050565b634e487b7160e01b600052604160045260246000fd5b600082601f83011261299c57600080fd5b81356001600160401b03808211156129b6576129b6612975565b604051601f8301601f19908116603f011681019082821181831017156129de576129de612975565b816040528381528660208588010111156129f757600080fd5b836020870160208301376000602085830101528094505050505092915050565b600060208284031215612a2957600080fd5b81356001600160401b03811115612a3f57600080fd5b612a4b8482850161298b565b949350505050565b60a081526000612a6660a0830187612676565b8281036020840152612a788187612676565b6001600160a01b038616604085015284516060850152602085015160808501529150612aa19050565b95945050505050565b60006020808301818452808551808352604092508286019150828160051b87010184880160005b8381101561296757888303603f19018552815180518085529088019088850190600581901b86018a0160005b82811015612bc357601f19888303018452845160e08151818552612b2382860182612676565b9150508d8201518482038f860152612b3b8282612676565b9150508c8201518d8501526060808301518186015250608080830151818601525060a0808301511515818601525060c080830151925084820381860152508082518083528f830191508f84019350600092505b80831015612bae5783518252928f019260019290920191908f0190612b8e565b50968e0196958e019593505050600101612afd565b50978a0197955050509187019150600101612ad1565b60c081526000612bec60c0830189612676565b8281036020840152612bfe8189612676565b91505085604083015284606083015283608083015282151560a0830152979650505050505050565b600060208284031215612c3857600080fd5b5035919050565b6000602080830181845280855180835260408601915060408160051b870101925083870160005b82811015612c9457603f19888603018452612c82858351612676565b94509285019290850190600101612c66565b5092979650505050505050565b602081526000612cb46020830184612676565b9392505050565b600080600080600060608688031215612cd357600080fd5b85356001600160401b0380821115612cea57600080fd5b612cf689838a016125bd565b90975095506020880135915080821115612d0f57600080fd5b50612d1c888289016125bd565b96999598509660400135949350505050565b600080600080600080600080600060c08a8c031215612d4c57600080fd5b8935985060208a01356001600160401b0380821115612d6a57600080fd5b612d768d838e016125bd565b909a50985060408c0135915080821115612d8f57600080fd5b612d9b8d838e016125bd565b909850965060608c0135915080821115612db457600080fd5b50612dc18c828d016125bd565b9a9d999c50979a96999598959660808101359660a09091013595509350505050565b600081518084526020808501808196508360051b8101915082860160005b85811015612e41578284038952815160408151818752612e2382880182612676565b92880151968801969096525098850198935090840190600101612e01565b5091979650505050505050565b602081526000612cb46020830184612de3565b60008060008060608587031215612e7757600080fd5b84356001600160401b0380821115612e8e57600080fd5b612e9a888389016125bd565b9096509450602087013593506040870135915080821115612eba57600080fd5b50850160a08188031215612ecd57600080fd5b939692955090935050565b600080600080600060a08688031215612ef057600080fd5b85356001600160401b0380821115612f0757600080fd5b612f1389838a0161298b565b965060208801359550604088013594506060880135915080821115612f3757600080fd5b612f4389838a0161298b565b93506080880135915080821115612f5957600080fd5b50612f668882890161298b565b9150509295509295909350565b8183823760009101908152919050565b634e487b7160e01b600052603260045260246000fd5b600181811c90821680612fad57607f821691505b60208210811415612fce57634e487b7160e01b600052602260045260246000fd5b50919050565b634e487b7160e01b600052601160045260246000fd5b6000600019821415612ffe57612ffe612fd4565b5060010190565b6000808335601e1984360301811261301c57600080fd5b8301803591506001600160401b0382111561303657600080fd5b6020019150368190038213156125fe57600080fd5b6000815461305881612f99565b8085526020600183811680156130755760018114613089576130b7565b60ff198516888401526040880195506130b7565b866000528260002060005b858110156130af5781548a8201860152908301908401613094565b890184019650505b505050505092915050565b6020815260a0602082015260006130dc60c083018461304b565b828103601f190160408401526130f5816001860161304b565b60028501546001600160a01b031660608501526003850154608085015260049094015460a0909301929092525090919050565b83858237600b60fa1b9301838152600181019290925260218201929092526022810191909152604201919050565b60008282101561316857613168612fd4565b500390565b81835281816020850137506000828201602090810191909152601f909101601f19169091010190565b6000815480845260208085019450836000528060002060005b838110156131cb578154875295820195600191820191016131af565b509495945050505050565b6060815260006131ea60608301868861316d565b846020840152828103604084015260e0815261320960e082018561304b565b818103602083015261321e816001870161304b565b905060028501546040830152600385015460608301526004850154608083015260ff60058601541661325460a084018215159052565b5081810360c083015261326a8160068701613196565b98975050505050505050565b6000815461328381612f99565b6001828116801561329b57600181146132ac576132db565b60ff198416875282870194506132db565b8560005260208060002060005b858110156132d25781548a8201529084019082016132b9565b50505082870194505b5050505092915050565b82848237600b60fa1b8184019081526000906133046001820185613276565b9695505050505050565b6000612cb48284613276565b634e487b7160e01b600052603160045260246000fd5b838152600b60fa1b6020820152818360218301376000910160210190815292915050565b5b818110156133695760008155600101613355565b5050565b601f8211156123b057806000526020600020601f840160051c810160208510156133945750805b6133a6601f850160051c830182613354565b5050505050565b6001600160401b038311156133c4576133c4612975565b6133d8836133d28354612f99565b8361336d565b6000601f84116001811461340c57600085156133f45750838201355b600019600387901b1c1916600186901b1783556133a6565b600083815260209020601f19861690835b8281101561343d578685013582556020948501946001909201910161341d565b508682101561345a5760001960f88860031b161c19848701351681555b505060018560011b0183555050505050565b6000808335601e1984360301811261348357600080fd5b8301803591506001600160401b0382111561349d57600080fd5b6020019150600581901b36038213156125fe57600080fd5b680100000000000000008311156134ce576134ce612975565b805483825580841015613557576000828152602081208581019083015b80821015613553576134fd8254612f99565b801561354757601f8082116001811461351857858555613544565b60008581526020902061353583850160051c820160018301613354565b50600085815260208120818755555b50505b506001820191506134eb565b5050505b5060008181526020812083915b85811015613596576135768386613005565b6135818183866133ad565b50506020929092019160019182019101613564565b505050505050565b6135a88283613005565b6135b38183856133ad565b505060208201356001820155604082013560028201556135d66060830183613005565b6135e48183600386016133ad565b50506080820135601e198336030181126135fd57600080fd5b820180356001600160401b0381111561361557600080fd5b6020820191508060051b360382131561362d57600080fd5b6126708183600486016134b5565b60408152600061364f60408301858761316d565b60208382038185015260a0825261366960a083018661304b565b60018087015483850152600287015460408501528382036060850152613692826003890161304b565b915060048701848303608086015282945080548084528484019550848160051b8501018260005285600020925060005b828110156136ee57858203601f190188526136dd828561304b565b9787019793850193915084016136c2565b509b9a5050505050505050505050565b83858237600b60fa1b81850190815260009083856001830137600093016001019283525090949350505050565b60408152600061373f60408301858761316d565b82810360208401526133048185612de3565b60008451613763818460208901612646565b600b60fa1b920182815260018101949094525060218301526022820152604201919050565b6000825161379a818460208701612646565b9190910192915050565b848152600084516137bc816020850160208901612646565b909101602081019390935250604082015260600192915050565b60a0815260006137e960a0830188612676565b86602084015285604084015282810360608401526138078186612676565b9050828103608084015261326a8185613196565b85878237600086820160008152600b60fa1b8082528760018301528060218301528660228301528060428301525083856043830137600093016043019283525090969550505050505056fea2646970667358221220d4c266339407512a25b1a7fee2177589b2b00dba24d43fd0ce65600a0b4ee08164736f6c634300080b0033",
  "immutableReferences": {},
  "source": "// SPDX-License-Identifier: MIT\r\npragma solidity >=0.4.21 <8.10.0;\r\n\r\nimport \"./Utils.sol\";\r\n\r\ncontract FeedbackData {\r\n    string[] public facultySkills = [\r\n        \"Diversity\",\r\n        \"Communication\",\r\n        \"Procedures\",\r\n        \"Philosophy\",\r\n        \"StudentLearning\"\r\n    ];\r\n    Utils public util;\r\n\r\n    struct Feedback {\r\n        string code;\r\n        uint256 semester; // 0 for even and 1 for odd\r\n        uint256 year;\r\n        string content;\r\n        string[] skills;\r\n    }\r\n\r\n    struct Float {\r\n        uint256 preDecimal;\r\n        uint256 postDecimal;\r\n    }\r\n\r\n    struct Course {\r\n        string name;\r\n        string code;\r\n        uint256 semester; // 0 for even and 1 for odd\r\n        uint256 year;\r\n        uint256 studentCount;\r\n        bool ticketGenerated;\r\n        bytes32[] tickets;\r\n    }\r\n\r\n    struct SkillsUpvoteCount {\r\n        string name;\r\n        uint256 count;\r\n    }\r\n\r\n    struct Professor {\r\n        string name;\r\n        string email;\r\n        address addressId;\r\n        Float rating;\r\n    }\r\n\r\n    struct ProfessorCreds_Key {\r\n        bytes32[] courses;\r\n        bytes32[] feedbacks;\r\n    }\r\n\r\n    string[] public emails;\r\n\r\n    mapping(string => Professor) public professorDetail;\r\n    mapping(bytes32 => uint256) public skillsCount; // email+skill\r\n\r\n    //TODO change formate of prof skill upvotes\r\n\r\n    mapping(bytes32 => Course[]) public courses; // email+year+sem\r\n    mapping(bytes32 => Feedback[]) public feedbacks; // email+year+sem+course_code\r\n\r\n    mapping(string => ProfessorCreds_Key) private profCred_Keys;\r\n    mapping(bytes32 => bool) public _keysForProfReg;\r\n\r\n    uint256 private counterForProfReg;\r\n\r\n    constructor() {\r\n        counterForProfReg = uint256(\r\n            keccak256(abi.encodePacked(block.difficulty, block.timestamp))\r\n        );\r\n    }\r\n\r\n    event professorCreated(Professor professor);\r\n    event courseUpdated(string email, uint256 year, Course course);\r\n    event tokenGenerated(bytes32 token);\r\n    event ticketGenerated(\r\n        string email,\r\n        uint256 year,\r\n        uint256 sem,\r\n        string code,\r\n        bytes32[] tickets\r\n    );\r\n    event feedbackSubmitted(string email, Feedback feedback);\r\n    event skillsUpvoted(string email, SkillsUpvoteCount[] skills);\r\n\r\n    function generateTokenForProfReg() public {\r\n        counterForProfReg++;\r\n        bytes32 id = keccak256(\r\n            abi.encodePacked(block.timestamp, counterForProfReg)\r\n        );\r\n        _keysForProfReg[id] = true;\r\n        emit tokenGenerated(id);\r\n    }\r\n\r\n    function getFacultySkills() public view returns (string[] memory) {\r\n        return facultySkills;\r\n    }\r\n\r\n    function createProfessor(\r\n        string calldata name,\r\n        string calldata email,\r\n        bytes32 secret\r\n    ) public {\r\n        require(\r\n            bytes(name).length > 0,\r\n            \"Name can not be blank during professor creation\"\r\n        );\r\n        require(\r\n            bytes(email).length > 0,\r\n            \"Email can not be blank during professor creation\"\r\n        );\r\n        require(msg.sender != address(0 * 0), \"user address should exist\");\r\n        require(_keysForProfReg[secret] == true, \"provide valid secret\");\r\n\r\n        professorDetail[email] = Professor({\r\n            name: name,\r\n            email: email,\r\n            addressId: msg.sender,\r\n            rating: Float(0, 0)\r\n        });\r\n\r\n        emails.push(email);\r\n\r\n        _keysForProfReg[secret] = false;\r\n\r\n        emit professorCreated(professorDetail[email]);\r\n    }\r\n\r\n    function getProfessorIds() public view returns (string[] memory) {\r\n        return emails;\r\n    }\r\n\r\n    function getProfessorsDetailsByIds(string[] calldata ids)\r\n        public\r\n        view\r\n        returns (Professor[] memory)\r\n    {\r\n        Professor[] memory _professorList = new Professor[](ids.length);\r\n\r\n        for (uint256 i = 0; i < ids.length; i++) {\r\n            _professorList[i] = professorDetail[ids[i]];\r\n        }\r\n\r\n        return _professorList;\r\n    }\r\n\r\n\r\n    function getFeedbacks(string calldata _email)\r\n        public\r\n        view\r\n        returns (Feedback[][] memory)\r\n    {\r\n        Feedback[][] memory _feedbacks = new Feedback[][](\r\n            profCred_Keys[_email].feedbacks.length\r\n        );\r\n        for (\r\n            uint256 i = 0;\r\n            i < profCred_Keys[_email].feedbacks.length;\r\n            i++\r\n        ) {\r\n            _feedbacks[i] = feedbacks[\r\n                profCred_Keys[_email].feedbacks[i]\r\n            ];\r\n        }\r\n        return _feedbacks;\r\n    }\r\n\r\n    function getCourses(string calldata _email)\r\n        public\r\n        view\r\n        returns (Course[][] memory)\r\n    {\r\n        Course[][] memory _courses = new Course[][](\r\n            profCred_Keys[_email].courses.length\r\n        );\r\n        for (\r\n            uint256 i = 0;\r\n            i < profCred_Keys[_email].courses.length;\r\n            i++\r\n        ) {\r\n            _courses[i] = courses[\r\n                profCred_Keys[_email].courses[i]\r\n            ];\r\n        }\r\n\r\n        return _courses;\r\n    }\r\n\r\n    function getSkillsUpvote(string calldata _email)\r\n        public\r\n        view\r\n        returns (SkillsUpvoteCount[] memory)\r\n    {\r\n        SkillsUpvoteCount[] memory skillUpvotes = new SkillsUpvoteCount[](\r\n            facultySkills.length\r\n        );\r\n        for (uint256 i = 0; i < facultySkills.length; i++) {\r\n            bytes32 _key = keccak256(\r\n                abi.encodePacked(_email, \",\", facultySkills[i])\r\n            );\r\n            skillUpvotes[i] = SkillsUpvoteCount({\r\n                name: facultySkills[i],\r\n                count: skillsCount[_key]\r\n            });\r\n        }\r\n\r\n        return skillUpvotes;\r\n    }\r\n\r\n    function addCourse(\r\n        uint256 _year,\r\n        string calldata _email,\r\n        string calldata _name,\r\n        string calldata _code,\r\n        uint256 _sem,\r\n        uint256 _studentCount\r\n    ) public {\r\n        // uint _year = util.getYear(block.timestamp);\r\n\r\n        Course memory _course = Course({\r\n            name: _name,\r\n            code: _code,\r\n            year: _year,\r\n            semester: _sem,\r\n            studentCount: _studentCount,\r\n            ticketGenerated: false,\r\n            tickets: new bytes32[](0)\r\n        });\r\n\r\n        bytes32 __key = keccak256(\r\n            abi.encodePacked(_email, \",\", _year, \",\", _sem)\r\n        );\r\n\r\n        addCourseKey(_email, __key);\r\n        addfeedbackKey(_email, _year, _sem, _code);\r\n\r\n        courses[__key].push(_course);\r\n        emit courseUpdated(\r\n            _email,\r\n            _year,\r\n            courses[__key][courses[__key].length - 1]\r\n        );\r\n    }\r\n\r\n    function addCourseKey(\r\n        string calldata email,\r\n        bytes32 __key\r\n    ) private {\r\n        if (courses[__key].length == 0) {\r\n            profCred_Keys[email].courses.push(__key);\r\n        }\r\n    }\r\n\r\n    function addfeedbackKey(\r\n        string calldata _email,\r\n        uint256 _year,\r\n        uint256 _sem,\r\n        string calldata _code\r\n    ) private {\r\n        bytes32 __key = keccak256(\r\n            abi.encodePacked(_email, \",\", _year, \",\", _sem, \",\", _code)\r\n        );\r\n        profCred_Keys[_email].feedbacks.push(__key);\r\n    }\r\n\r\n    event test(bool);\r\n\r\n    function generateTickets(\r\n        string memory _email,\r\n        uint256 _year,\r\n        uint256 _sem,\r\n        string memory _code,\r\n        string memory _seed\r\n    ) public {\r\n        bytes32 _key = keccak256(\r\n            abi.encodePacked(_email, \",\", _year, \",\", _sem)\r\n        );\r\n        uint256 coursePos = 0;\r\n        bool courseFound = false;\r\n        uint256 i = 0;\r\n        for (; i < courses[_key].length; i++) {\r\n            if (\r\n                keccak256(abi.encodePacked(courses[_key][i].code)) ==\r\n                keccak256(abi.encodePacked(_code))\r\n            ) {\r\n                coursePos = i;\r\n                courseFound = true;\r\n                break;\r\n            }\r\n        }\r\n\r\n        require(courseFound == true, \"wrong credentials, course not found\");\r\n        require(\r\n            courses[_key][coursePos].ticketGenerated == false,\r\n            \"tickets are already generated\"\r\n        );\r\n\r\n        courses[_key][coursePos].ticketGenerated = true;\r\n        i = 0;\r\n        for (; i < courses[_key][coursePos].studentCount; i++) {\r\n            bytes32 ticket = keccak256(\r\n                abi.encodePacked(\r\n                    block.timestamp,\r\n                    _seed,\r\n                    counterForProfReg,\r\n                    block.difficulty\r\n                )\r\n            );\r\n            counterForProfReg++;\r\n            courses[_key][coursePos].tickets.push(ticket);\r\n        }\r\n\r\n        emit ticketGenerated(\r\n            _email,\r\n            _year,\r\n            _sem,\r\n            _code,\r\n            courses[_key][coursePos].tickets\r\n        );\r\n    }\r\n\r\n    function submitFeedback(\r\n        string calldata _email,\r\n        bytes32 _ticket,\r\n        Feedback calldata _feedback\r\n    ) public {\r\n        bytes32 course_Key = keccak256(\r\n            abi.encodePacked(\r\n                _email,\r\n                \",\",\r\n                _feedback.year,\r\n                \",\",\r\n                _feedback.semester\r\n            )\r\n        );\r\n        uint256 coursePos = 0;\r\n        bool found = false;\r\n        for (; coursePos < courses[course_Key].length; coursePos++) {\r\n            if (\r\n                keccak256(\r\n                    abi.encodePacked(\r\n                        courses[course_Key][coursePos].code\r\n                    )\r\n                ) == keccak256(abi.encodePacked(_feedback.code))\r\n            ) {\r\n                found = true;\r\n                break;\r\n            }\r\n        }\r\n        if (found == false) {\r\n            revert(\"course not found, invalid course detail\");\r\n        }\r\n\r\n        found = false;\r\n        uint256 ticketPos = 0;\r\n        uint256 ticketsLen = courses[course_Key][coursePos]\r\n            .tickets\r\n            .length;\r\n        for (; ticketPos < ticketsLen; ticketPos++) {\r\n            if (\r\n                courses[course_Key][coursePos].tickets[ticketPos] ==\r\n                _ticket\r\n            ) {\r\n                found = true;\r\n                break;\r\n            }\r\n        }\r\n\r\n        if (found == false) revert(\"ticket not found, submit valid ticket\");\r\n\r\n        courses[course_Key][coursePos].tickets[\r\n            ticketPos\r\n        ] = courses[course_Key][coursePos].tickets[ticketsLen - 1];\r\n        courses[course_Key][coursePos].tickets.pop();\r\n\r\n        bytes32 _feedback_Key = keccak256(\r\n            abi.encodePacked(course_Key, \",\", _feedback.code)\r\n        );\r\n\r\n        feedbacks[_feedback_Key].push(_feedback);\r\n        uint256 feedbackLen = feedbacks[_feedback_Key].length;\r\n\r\n        emit feedbackSubmitted(\r\n            _email,\r\n            feedbacks[_feedback_Key][feedbackLen - 1]\r\n        );\r\n\r\n        for (uint256 j = 0; j < _feedback.skills.length; j++) {\r\n            bytes32 skill_Key = keccak256(\r\n                abi.encodePacked(_email, \",\", _feedback.skills[j])\r\n            );\r\n            skillsCount[skill_Key]++;\r\n        }\r\n\r\n        emit skillsUpvoted(_email, getSkillsUpvote(_email));\r\n    }\r\n}\r\n",
  "sourcePath": "F:\\BlockChain\\Projects\\feedback-dapp\\contracts\\FeedbackData.sol",
  "compiler": {
    "name": "solc",
    "version": "0.8.11+commit.d7f03943.Emscripten.clang"
  },
  "schemaVersion": "3.4.5",
  "updatedAt": "2022-03-09T21:01:37.813Z",
  "networkType": "ethereum",
  "devdoc": {
    "kind": "dev",
    "methods": {},
    "version": 1
  },
  "userdoc": {
    "kind": "user",
    "methods": {},
    "version": 1
  }
}