{
  "contractName": "FeedbackData",
  "abi": [
    {
      "inputs": [],
      "stateMutability": "nonpayable",
      "type": "constructor"
    },
    {
      "anonymous": false,
      "inputs": [
        {
          "indexed": false,
          "internalType": "string",
          "name": "email",
          "type": "string"
        },
        {
          "indexed": false,
          "internalType": "uint256",
          "name": "year",
          "type": "uint256"
        },
        {
          "components": [
            {
              "internalType": "string",
              "name": "name",
              "type": "string"
            },
            {
              "internalType": "string",
              "name": "code",
              "type": "string"
            },
            {
              "internalType": "uint256",
              "name": "semester",
              "type": "uint256"
            },
            {
              "internalType": "uint256",
              "name": "year",
              "type": "uint256"
            },
            {
              "internalType": "uint256",
              "name": "studentCount",
              "type": "uint256"
            },
            {
              "internalType": "bool",
              "name": "ticketGenerated",
              "type": "bool"
            },
            {
              "internalType": "bytes32[]",
              "name": "tickets",
              "type": "bytes32[]"
            }
          ],
          "indexed": false,
          "internalType": "struct FeedbackData.Course",
          "name": "course",
          "type": "tuple"
        }
      ],
      "name": "courseUpdated",
      "type": "event"
    },
    {
      "anonymous": false,
      "inputs": [
        {
          "indexed": false,
          "internalType": "string",
          "name": "email",
          "type": "string"
        },
        {
          "components": [
            {
              "internalType": "string",
              "name": "code",
              "type": "string"
            },
            {
              "internalType": "uint256",
              "name": "semester",
              "type": "uint256"
            },
            {
              "internalType": "uint256",
              "name": "year",
              "type": "uint256"
            },
            {
              "internalType": "string",
              "name": "content",
              "type": "string"
            },
            {
              "internalType": "string[]",
              "name": "skills",
              "type": "string[]"
            }
          ],
          "indexed": false,
          "internalType": "struct FeedbackData.Feedback",
          "name": "feedback",
          "type": "tuple"
        }
      ],
      "name": "feedbackSubmitted",
      "type": "event"
    },
    {
      "anonymous": false,
      "inputs": [
        {
          "components": [
            {
              "internalType": "string",
              "name": "name",
              "type": "string"
            },
            {
              "internalType": "string",
              "name": "email",
              "type": "string"
            },
            {
              "internalType": "address",
              "name": "addressId",
              "type": "address"
            },
            {
              "components": [
                {
                  "internalType": "uint256",
                  "name": "preDecimal",
                  "type": "uint256"
                },
                {
                  "internalType": "uint256",
                  "name": "postDecimal",
                  "type": "uint256"
                }
              ],
              "internalType": "struct FeedbackData.Float",
              "name": "rating",
              "type": "tuple"
            }
          ],
          "indexed": false,
          "internalType": "struct FeedbackData.Professor",
          "name": "professor",
          "type": "tuple"
        }
      ],
      "name": "professorCreated",
      "type": "event"
    },
    {
      "anonymous": false,
      "inputs": [
        {
          "indexed": false,
          "internalType": "string",
          "name": "email",
          "type": "string"
        },
        {
          "components": [
            {
              "internalType": "string",
              "name": "name",
              "type": "string"
            },
            {
              "internalType": "uint256",
              "name": "count",
              "type": "uint256"
            }
          ],
          "indexed": false,
          "internalType": "struct FeedbackData.SkillsUpvoteCount[]",
          "name": "skills",
          "type": "tuple[]"
        }
      ],
      "name": "skillUpvoteUpdated",
      "type": "event"
    },
    {
      "anonymous": false,
      "inputs": [
        {
          "indexed": false,
          "internalType": "bool",
          "name": "",
          "type": "bool"
        }
      ],
      "name": "test",
      "type": "event"
    },
    {
      "anonymous": false,
      "inputs": [
        {
          "indexed": false,
          "internalType": "string",
          "name": "email",
          "type": "string"
        },
        {
          "indexed": false,
          "internalType": "uint256",
          "name": "year",
          "type": "uint256"
        },
        {
          "indexed": false,
          "internalType": "uint256",
          "name": "sem",
          "type": "uint256"
        },
        {
          "indexed": false,
          "internalType": "string",
          "name": "code",
          "type": "string"
        },
        {
          "indexed": false,
          "internalType": "bytes32[]",
          "name": "tickets",
          "type": "bytes32[]"
        }
      ],
      "name": "ticketGenerated",
      "type": "event"
    },
    {
      "anonymous": false,
      "inputs": [
        {
          "indexed": false,
          "internalType": "bytes32",
          "name": "token",
          "type": "bytes32"
        }
      ],
      "name": "tokenGenerated",
      "type": "event"
    },
    {
      "inputs": [
        {
          "internalType": "bytes32",
          "name": "",
          "type": "bytes32"
        }
      ],
      "name": "_keysForProfReg",
      "outputs": [
        {
          "internalType": "bool",
          "name": "",
          "type": "bool"
        }
      ],
      "stateMutability": "view",
      "type": "function",
      "constant": true
    },
    {
      "inputs": [
        {
          "internalType": "uint256",
          "name": "",
          "type": "uint256"
        }
      ],
      "name": "facultySkills",
      "outputs": [
        {
          "internalType": "string",
          "name": "",
          "type": "string"
        }
      ],
      "stateMutability": "view",
      "type": "function",
      "constant": true
    },
    {
      "inputs": [
        {
          "internalType": "bytes32",
          "name": "",
          "type": "bytes32"
        },
        {
          "internalType": "uint256",
          "name": "",
          "type": "uint256"
        }
      ],
      "name": "professorCourseFeedback",
      "outputs": [
        {
          "internalType": "string",
          "name": "code",
          "type": "string"
        },
        {
          "internalType": "uint256",
          "name": "semester",
          "type": "uint256"
        },
        {
          "internalType": "uint256",
          "name": "year",
          "type": "uint256"
        },
        {
          "internalType": "string",
          "name": "content",
          "type": "string"
        }
      ],
      "stateMutability": "view",
      "type": "function",
      "constant": true
    },
    {
      "inputs": [
        {
          "internalType": "bytes32",
          "name": "",
          "type": "bytes32"
        },
        {
          "internalType": "uint256",
          "name": "",
          "type": "uint256"
        }
      ],
      "name": "professorCourses",
      "outputs": [
        {
          "internalType": "string",
          "name": "name",
          "type": "string"
        },
        {
          "internalType": "string",
          "name": "code",
          "type": "string"
        },
        {
          "internalType": "uint256",
          "name": "semester",
          "type": "uint256"
        },
        {
          "internalType": "uint256",
          "name": "year",
          "type": "uint256"
        },
        {
          "internalType": "uint256",
          "name": "studentCount",
          "type": "uint256"
        },
        {
          "internalType": "bool",
          "name": "ticketGenerated",
          "type": "bool"
        }
      ],
      "stateMutability": "view",
      "type": "function",
      "constant": true
    },
    {
      "inputs": [
        {
          "internalType": "string",
          "name": "",
          "type": "string"
        }
      ],
      "name": "professorDetail",
      "outputs": [
        {
          "internalType": "string",
          "name": "name",
          "type": "string"
        },
        {
          "internalType": "string",
          "name": "email",
          "type": "string"
        },
        {
          "internalType": "address",
          "name": "addressId",
          "type": "address"
        },
        {
          "components": [
            {
              "internalType": "uint256",
              "name": "preDecimal",
              "type": "uint256"
            },
            {
              "internalType": "uint256",
              "name": "postDecimal",
              "type": "uint256"
            }
          ],
          "internalType": "struct FeedbackData.Float",
          "name": "rating",
          "type": "tuple"
        }
      ],
      "stateMutability": "view",
      "type": "function",
      "constant": true
    },
    {
      "inputs": [
        {
          "internalType": "uint256",
          "name": "",
          "type": "uint256"
        }
      ],
      "name": "professorEmails",
      "outputs": [
        {
          "internalType": "string",
          "name": "",
          "type": "string"
        }
      ],
      "stateMutability": "view",
      "type": "function",
      "constant": true
    },
    {
      "inputs": [
        {
          "internalType": "bytes32",
          "name": "",
          "type": "bytes32"
        }
      ],
      "name": "professorSkillsUpvote",
      "outputs": [
        {
          "internalType": "uint256",
          "name": "",
          "type": "uint256"
        }
      ],
      "stateMutability": "view",
      "type": "function",
      "constant": true
    },
    {
      "inputs": [],
      "name": "util",
      "outputs": [
        {
          "internalType": "contract Utils",
          "name": "",
          "type": "address"
        }
      ],
      "stateMutability": "view",
      "type": "function",
      "constant": true
    },
    {
      "inputs": [],
      "name": "generateTokenForProfReg",
      "outputs": [],
      "stateMutability": "nonpayable",
      "type": "function"
    },
    {
      "inputs": [],
      "name": "getFacultySkills",
      "outputs": [
        {
          "internalType": "string[]",
          "name": "",
          "type": "string[]"
        }
      ],
      "stateMutability": "view",
      "type": "function",
      "constant": true
    },
    {
      "inputs": [
        {
          "internalType": "string",
          "name": "name",
          "type": "string"
        },
        {
          "internalType": "string",
          "name": "email",
          "type": "string"
        },
        {
          "internalType": "bytes32",
          "name": "secret",
          "type": "bytes32"
        }
      ],
      "name": "createProfessor",
      "outputs": [],
      "stateMutability": "nonpayable",
      "type": "function"
    },
    {
      "inputs": [],
      "name": "getProfessorIds",
      "outputs": [
        {
          "internalType": "string[]",
          "name": "",
          "type": "string[]"
        }
      ],
      "stateMutability": "view",
      "type": "function",
      "constant": true
    },
    {
      "inputs": [
        {
          "internalType": "string[]",
          "name": "ids",
          "type": "string[]"
        }
      ],
      "name": "getProfessorsDetailsByIds",
      "outputs": [
        {
          "components": [
            {
              "internalType": "string",
              "name": "name",
              "type": "string"
            },
            {
              "internalType": "string",
              "name": "email",
              "type": "string"
            },
            {
              "internalType": "address",
              "name": "addressId",
              "type": "address"
            },
            {
              "components": [
                {
                  "internalType": "uint256",
                  "name": "preDecimal",
                  "type": "uint256"
                },
                {
                  "internalType": "uint256",
                  "name": "postDecimal",
                  "type": "uint256"
                }
              ],
              "internalType": "struct FeedbackData.Float",
              "name": "rating",
              "type": "tuple"
            }
          ],
          "internalType": "struct FeedbackData.Professor[]",
          "name": "",
          "type": "tuple[]"
        }
      ],
      "stateMutability": "view",
      "type": "function",
      "constant": true
    },
    {
      "inputs": [
        {
          "internalType": "string",
          "name": "_email",
          "type": "string"
        }
      ],
      "name": "getProfessorFeedbacks",
      "outputs": [
        {
          "components": [
            {
              "internalType": "string",
              "name": "code",
              "type": "string"
            },
            {
              "internalType": "uint256",
              "name": "semester",
              "type": "uint256"
            },
            {
              "internalType": "uint256",
              "name": "year",
              "type": "uint256"
            },
            {
              "internalType": "string",
              "name": "content",
              "type": "string"
            },
            {
              "internalType": "string[]",
              "name": "skills",
              "type": "string[]"
            }
          ],
          "internalType": "struct FeedbackData.Feedback[][]",
          "name": "",
          "type": "tuple[][]"
        }
      ],
      "stateMutability": "view",
      "type": "function",
      "constant": true
    },
    {
      "inputs": [
        {
          "internalType": "string",
          "name": "_email",
          "type": "string"
        }
      ],
      "name": "getProfessorCourses",
      "outputs": [
        {
          "components": [
            {
              "internalType": "string",
              "name": "name",
              "type": "string"
            },
            {
              "internalType": "string",
              "name": "code",
              "type": "string"
            },
            {
              "internalType": "uint256",
              "name": "semester",
              "type": "uint256"
            },
            {
              "internalType": "uint256",
              "name": "year",
              "type": "uint256"
            },
            {
              "internalType": "uint256",
              "name": "studentCount",
              "type": "uint256"
            },
            {
              "internalType": "bool",
              "name": "ticketGenerated",
              "type": "bool"
            },
            {
              "internalType": "bytes32[]",
              "name": "tickets",
              "type": "bytes32[]"
            }
          ],
          "internalType": "struct FeedbackData.Course[][]",
          "name": "",
          "type": "tuple[][]"
        }
      ],
      "stateMutability": "view",
      "type": "function",
      "constant": true
    },
    {
      "inputs": [
        {
          "internalType": "string",
          "name": "_email",
          "type": "string"
        }
      ],
      "name": "getSkillsUpvote",
      "outputs": [
        {
          "components": [
            {
              "internalType": "string",
              "name": "name",
              "type": "string"
            },
            {
              "internalType": "uint256",
              "name": "count",
              "type": "uint256"
            }
          ],
          "internalType": "struct FeedbackData.SkillsUpvoteCount[]",
          "name": "",
          "type": "tuple[]"
        }
      ],
      "stateMutability": "view",
      "type": "function",
      "constant": true
    },
    {
      "inputs": [
        {
          "internalType": "uint256",
          "name": "_year",
          "type": "uint256"
        },
        {
          "internalType": "string",
          "name": "_email",
          "type": "string"
        },
        {
          "internalType": "string",
          "name": "_name",
          "type": "string"
        },
        {
          "internalType": "string",
          "name": "_code",
          "type": "string"
        },
        {
          "internalType": "uint256",
          "name": "_sem",
          "type": "uint256"
        },
        {
          "internalType": "uint256",
          "name": "_studentCount",
          "type": "uint256"
        }
      ],
      "name": "addCourse",
      "outputs": [],
      "stateMutability": "nonpayable",
      "type": "function"
    },
    {
      "inputs": [
        {
          "internalType": "string",
          "name": "_email",
          "type": "string"
        },
        {
          "internalType": "uint256",
          "name": "_year",
          "type": "uint256"
        },
        {
          "internalType": "uint256",
          "name": "_sem",
          "type": "uint256"
        },
        {
          "internalType": "string",
          "name": "_code",
          "type": "string"
        },
        {
          "internalType": "string",
          "name": "_seed",
          "type": "string"
        }
      ],
      "name": "generateTickets",
      "outputs": [],
      "stateMutability": "nonpayable",
      "type": "function"
    },
    {
      "inputs": [
        {
          "internalType": "string",
          "name": "_email",
          "type": "string"
        },
        {
          "internalType": "bytes32",
          "name": "_ticket",
          "type": "bytes32"
        },
        {
          "components": [
            {
              "internalType": "string",
              "name": "code",
              "type": "string"
            },
            {
              "internalType": "uint256",
              "name": "semester",
              "type": "uint256"
            },
            {
              "internalType": "uint256",
              "name": "year",
              "type": "uint256"
            },
            {
              "internalType": "string",
              "name": "content",
              "type": "string"
            },
            {
              "internalType": "string[]",
              "name": "skills",
              "type": "string[]"
            }
          ],
          "internalType": "struct FeedbackData.Feedback",
          "name": "_feedback",
          "type": "tuple"
        }
      ],
      "name": "submitFeedback",
      "outputs": [],
      "stateMutability": "nonpayable",
      "type": "function"
    }
  ],
  "bytecode": "0x60096101209081526844697665727369747960b81b610140526080908152600d6101609081526c21b7b6b6bab734b1b0ba34b7b760991b6101805260a052600a6101a08181526950726f6365647572657360b01b6101c05260c0526101e0908152695068696c6f736f70687960b01b6102005260e052610260604052600f6102209081526e53747564656e744c6561726e696e6760881b6102405261010052620000ae906000906005620000f3565b50348015620000bc57600080fd5b5060408051446020820152429181019190915260600160408051601f19818403018152919052805160209091012060095562000299565b82805482825590600052602060002090810192821562000145579160200282015b828111156200014557825180516200013491849160209091019062000157565b509160200191906001019062000114565b5062000153929150620001e2565b5090565b82805462000165906200025c565b90600052602060002090601f016020900481019282620001895760008555620001d4565b82601f10620001a457805160ff1916838001178555620001d4565b82800160010185558215620001d4579182015b82811115620001d4578251825591602001919060010190620001b7565b506200015392915062000203565b8082111562000153576000620001f982826200021a565b50600101620001e2565b5b8082111562000153576000815560010162000204565b50805462000228906200025c565b6000825580601f1062000239575050565b601f01602090049060005260206000209081019062000259919062000203565b50565b600181811c908216806200027157607f821691505b602082108114156200029357634e487b7160e01b600052602260045260246000fd5b50919050565b6138de80620002a96000396000f3fe608060405234801561001057600080fd5b50600436106101215760003560e01c806396830680116100ad578063e30a121111610071578063e30a1211146102eb578063ec2f44c51461030b578063f4cd31981461031e578063f52c1c0714610326578063fed5eb8d1461033957600080fd5b80639683068014610245578063a3812b211461026a578063af8f6a2f1461028a578063bbb77d1a146102b8578063d5580858146102d857600080fd5b8063466bf004116100f4578063466bf0041461019f578063470ab869146101d25780635e566f20146101f257806369b3238c14610207578063956138751461021a57600080fd5b80631d3225651461012657806331ea98101461014f5780633253672b1461017257806340d66ce51461017c575b600080fd5b610139610134366004612637565b61034c565b6040516101469190612707565b60405180910390f35b61016261015d36600461285d565b61058f565b6040516101469493929190612899565b61017a6106f4565b005b61018f61018a3660046128f0565b610795565b6040516101469493929190612912565b6101c26101ad36600461294e565b60086020526000908152604090205460ff1681565b6040519015158152602001610146565b6101e56101e03660046129af565b6108f2565b60405161014691906129f0565b6101fa610c1d565b6040516101469190612b74565b61017a610215366004612b8e565b610cf6565b60015461022d906001600160a01b031681565b6040516001600160a01b039091168152602001610146565b6102586102533660046128f0565b611051565b60405161014696959493929190612c01565b61027d61027836600461294e565b6111be565b6040516101469190612c4e565b6102aa61029836600461294e565b60046020526000908152604090205481565b604051908152602001610146565b6102cb6102c63660046129af565b61126a565b6040516101469190612c61565b61017a6102e6366004612d5b565b6115f7565b6102fe6102f93660046129af565b61181d565b6040516101469190612e6e565b61017a610319366004612e81565b6119db565b6101fa611f8f565b61027d61033436600461294e565b61205f565b61017a610347366004612ef8565b61206f565b60606000826001600160401b03811115610368576103686127bb565b6040519080825280602002602001820160405280156103a157816020015b61038e6124a5565b8152602001906001900390816103865790505b50905060005b838110156105875760038585838181106103c3576103c3612f93565b90506020028101906103d59190612fa9565b6040516103e3929190612fef565b908152602001604051809103902060405180608001604052908160008201805461040c90612fff565b80601f016020809104026020016040519081016040528092919081815260200182805461043890612fff565b80156104855780601f1061045a57610100808354040283529160200191610485565b820191906000526020600020905b81548152906001019060200180831161046857829003601f168201915b5050505050815260200160018201805461049e90612fff565b80601f01602080910402602001604051908101604052809291908181526020018280546104ca90612fff565b80156105175780601f106104ec57610100808354040283529160200191610517565b820191906000526020600020905b8154815290600101906020018083116104fa57829003601f168201915b505050918352505060028201546001600160a01b031660208083019190915260408051808201825260038501548152600490940154918401919091520152825183908390811061056957610569612f93565b6020026020010181905250808061057f90613050565b9150506103a7565b509392505050565b80516020818301810180516003825292820191909301209152805481906105b590612fff565b80601f01602080910402602001604051908101604052809291908181526020018280546105e190612fff565b801561062e5780601f106106035761010080835404028352916020019161062e565b820191906000526020600020905b81548152906001019060200180831161061157829003601f168201915b50505050509080600101805461064390612fff565b80601f016020809104026020016040519081016040528092919081815260200182805461066f90612fff565b80156106bc5780601f10610691576101008083540402835291602001916106bc565b820191906000526020600020905b81548152906001019060200180831161069f57829003601f168201915b5050505060028301546040805180820190915260038501548152600490940154602085015291926001600160a01b0390921691905084565b6009805490600061070483613050565b9190505550600042600954604051602001610729929190918252602082015260400190565b60408051601f19818403018152828252805160209182012060008181526008909252919020805460ff1916600117905591507f8c6adcc89fb3a5c5ff4d5bb7afc4eeb464c80bd1c42b23064841c593ab9887e89061078a9083815260200190565b60405180910390a150565b600660205281600052604060002081815481106107b157600080fd5b9060005260206000209060050201600091509150508060000180546107d590612fff565b80601f016020809104026020016040519081016040528092919081815260200182805461080190612fff565b801561084e5780601f106108235761010080835404028352916020019161084e565b820191906000526020600020905b81548152906001019060200180831161083157829003601f168201915b50505050509080600101549080600201549080600301805461086f90612fff565b80601f016020809104026020016040519081016040528092919081815260200182805461089b90612fff565b80156108e85780601f106108bd576101008083540402835291602001916108e8565b820191906000526020600020905b8154815290600101906020018083116108cb57829003601f168201915b5050505050905084565b6060600060078484604051610908929190612fef565b908152604051908190036020019020546001600160401b0381111561092f5761092f6127bb565b60405190808252806020026020018201604052801561096257816020015b606081526020019060019003908161094d5790505b50905060005b6007858560405161097a929190612fef565b908152604051908190036020019020548110156105875760056000600787876040516109a7929190612fef565b908152602001604051809103902060000183815481106109c9576109c9612f93565b90600052602060002001548152602001908152602001600020805480602002602001604051908101604052809291908181526020016000905b82821015610be957838290600052602060002090600702016040518060e0016040529081600082018054610a3590612fff565b80601f0160208091040260200160405190810160405280929190818152602001828054610a6190612fff565b8015610aae5780601f10610a8357610100808354040283529160200191610aae565b820191906000526020600020905b815481529060010190602001808311610a9157829003601f168201915b50505050508152602001600182018054610ac790612fff565b80601f0160208091040260200160405190810160405280929190818152602001828054610af390612fff565b8015610b405780601f10610b1557610100808354040283529160200191610b40565b820191906000526020600020905b815481529060010190602001808311610b2357829003601f168201915b505050505081526020016002820154815260200160038201548152602001600482015481526020016005820160009054906101000a900460ff1615151515815260200160068201805480602002602001604051908101604052809291908181526020018280548015610bd157602002820191906000526020600020905b815481526020019060010190808311610bbd575b50505050508152505081526020019060010190610a02565b50505050828281518110610bff57610bff612f93565b60200260200101819052508080610c1590613050565b915050610968565b60606000805480602002602001604051908101604052809291908181526020016000905b82821015610ced578382906000526020600020018054610c6090612fff565b80601f0160208091040260200160405190810160405280929190818152602001828054610c8c90612fff565b8015610cd95780601f10610cae57610100808354040283529160200191610cd9565b820191906000526020600020905b815481529060010190602001808311610cbc57829003601f168201915b505050505081526020019060010190610c41565b50505050905090565b83610d605760405162461bcd60e51b815260206004820152602f60248201527f4e616d652063616e206e6f7420626520626c616e6b20647572696e672070726f60448201526e3332b9b9b7b91031b932b0ba34b7b760891b60648201526084015b60405180910390fd5b81610dc65760405162461bcd60e51b815260206004820152603060248201527f456d61696c2063616e206e6f7420626520626c616e6b20647572696e6720707260448201526f37b332b9b9b7b91031b932b0ba34b7b760811b6064820152608401610d57565b33610e135760405162461bcd60e51b815260206004820152601960248201527f7573657220616464726573732073686f756c64206578697374000000000000006044820152606401610d57565b60008181526008602052604090205460ff161515600114610e6d5760405162461bcd60e51b81526020600482015260146024820152731c1c9bdd9a5919481d985b1a59081cd958dc995d60621b6044820152606401610d57565b604051806080016040528086868080601f016020809104026020016040519081016040528093929190818152602001838380828437600092019190915250505090825250604080516020601f870181900481028201810190925285815291810191908690869081908401838280828437600092018290525093855250503360208085019190915260408051808201825284815291820193909352928201929092525160039150610f209086908690612fef565b90815260200160405180910390206000820151816000019080519060200190610f4a9291906124f0565b506020828101518051610f6392600185019201906124f0565b506040820151600282810180546001600160a01b0319166001600160a01b039093169290921790915560609092015180516003830155602001516004909101558054600181018255600091909152610fde907f405787fa12a823e0f2b7631cc41b3ba8828b3321ca811111fa75cd3aa3bb5ace018484612574565b5060008181526008602052604090819020805460ff19169055517ff77cad3ffab6ca3874c9b0ce7fb99f424a7eb16380379a0f62e6626fea7bdcce9060039061102a9086908690612fef565b908152604051908190036020018120611042916130e2565b60405180910390a15050505050565b6005602052816000526040600020818154811061106d57600080fd5b90600052602060002090600702016000915091505080600001805461109190612fff565b80601f01602080910402602001604051908101604052809291908181526020018280546110bd90612fff565b801561110a5780601f106110df5761010080835404028352916020019161110a565b820191906000526020600020905b8154815290600101906020018083116110ed57829003601f168201915b50505050509080600101805461111f90612fff565b80601f016020809104026020016040519081016040528092919081815260200182805461114b90612fff565b80156111985780601f1061116d57610100808354040283529160200191611198565b820191906000526020600020905b81548152906001019060200180831161117b57829003601f168201915b505050506002830154600384015460048501546005909501549394919390925060ff1686565b600281815481106111ce57600080fd5b9060005260206000200160009150905080546111e990612fff565b80601f016020809104026020016040519081016040528092919081815260200182805461121590612fff565b80156112625780601f1061123757610100808354040283529160200191611262565b820191906000526020600020905b81548152906001019060200180831161124557829003601f168201915b505050505081565b6060600060078484604051611280929190612fef565b908152604051908190036020019020600101546001600160401b038111156112aa576112aa6127bb565b6040519080825280602002602001820160405280156112dd57816020015b60608152602001906001900390816112c85790505b50905060005b600785856040516112f5929190612fef565b90815260405190819003602001902060010154811015610587576006600060078787604051611325929190612fef565b9081526020016040518091039020600101838154811061134757611347612f93565b90600052602060002001548152602001908152602001600020805480602002602001604051908101604052809291908181526020016000905b828210156115c357838290600052602060002090600502016040518060a00160405290816000820180546113b390612fff565b80601f01602080910402602001604051908101604052809291908181526020018280546113df90612fff565b801561142c5780601f106114015761010080835404028352916020019161142c565b820191906000526020600020905b81548152906001019060200180831161140f57829003601f168201915b50505050508152602001600182015481526020016002820154815260200160038201805461145990612fff565b80601f016020809104026020016040519081016040528092919081815260200182805461148590612fff565b80156114d25780601f106114a7576101008083540402835291602001916114d2565b820191906000526020600020905b8154815290600101906020018083116114b557829003601f168201915b5050505050815260200160048201805480602002602001604051908101604052809291908181526020016000905b828210156115ac57838290600052602060002001805461151f90612fff565b80601f016020809104026020016040519081016040528092919081815260200182805461154b90612fff565b80156115985780601f1061156d57610100808354040283529160200191611598565b820191906000526020600020905b81548152906001019060200180831161157b57829003601f168201915b505050505081526020019060010190611500565b505050508152505081526020019060010190611380565b505050508282815181106115d9576115d9612f93565b602002602001018190525080806115ef90613050565b9150506112e3565b604080516101006020601f8901819004028201810190925260e081018781526000928291908a908a9081908501838280828437600092019190915250505090825250604080516020601f8901819004810282018101909252878152918101919088908890819084018382808284376000920182905250938552505050602080830187905260408084018f905260608401879052608084018390528051838152808301825260a0909401939093529151929350916116bc918c918c918f91899101613148565b6040516020818303038152906040528051906020012090506116df8a8a836123e0565b6116ed8a8a8d878a8a61242f565b6000818152600560209081526040822080546001810182559083529181902084518051869460070290920192611728928492909101906124f0565b50602082810151805161174192600185019201906124f0565b5060408201516002820155606082015160038201556080820151600482015560a082015160058201805460ff191691151591909117905560c082015180516117939160068401916020909101906125e8565b505050600081815260056020526040902080547f56ff489b5a33d116a814463d8d88ac249e308bc2743f22d1d3116b1509588fd6918c918c918f916117da90600190613176565b815481106117ea576117ea612f93565b906000526020600020906007020160405161180894939291906131f6565b60405180910390a15050505050505050505050565b60008054606091906001600160401b0381111561183c5761183c6127bb565b60405190808252806020026020018201604052801561188257816020015b60408051808201909152606081526000602082015281526020019060019003908161185a5790505b50905060005b6000548110156105875760008585600084815481106118a9576118a9612f93565b906000526020600020016040516020016118c593929190613305565b6040516020818303038152906040528051906020012090506040518060400160405280600084815481106118fb576118fb612f93565b90600052602060002001805461191090612fff565b80601f016020809104026020016040519081016040528092919081815260200182805461193c90612fff565b80156119895780601f1061195e57610100808354040283529160200191611989565b820191906000526020600020905b81548152906001019060200180831161196c57829003601f168201915b5050505050815260200160046000848152602001908152602001600020548152508383815181106119bc576119bc612f93565b60200260200101819052505080806119d390613050565b915050611888565b60008484836040013584602001356040516020016119fc9493929190613148565b6040516020818303038152906040528051906020012090506000805b600083815260056020526040902054821015611ad657611a388480612fa9565b604051602001611a49929190612fef565b60408051601f198184030181529181528151602092830120600086815260059093529120805484908110611a7f57611a7f612f93565b9060005260206000209060070201600101604051602001611aa0919061332e565b604051602081830303815290604052805190602001201415611ac457506001611ad6565b81611ace81613050565b925050611a18565b80611b335760405162461bcd60e51b815260206004820152602760248201527f636f75727365206e6f7420666f756e642c20696e76616c696420636f757273656044820152660819195d185a5b60ca1b6064820152608401610d57565b50600082815260056020526040812080548291829185908110611b5857611b58612f93565b90600052602060002090600702016006018054905090505b80821015611c6357600154600086815260056020526040902080546001600160a01b039092169163824a2a4e919087908110611bae57611bae612f93565b90600052602060002090600702016006018481548110611bd057611bd0612f93565b9060005260206000200154896040518363ffffffff1660e01b8152600401611c02929190918252602082015260400190565b602060405180830381865afa158015611c1f573d6000803e3d6000fd5b505050506040513d601f19601f82011682018060405250810190611c43919061333a565b15611c515760019250611c63565b81611c5b81613050565b925050611b70565b82611cbe5760405162461bcd60e51b815260206004820152602560248201527f7469636b6574206e6f7420666f756e642c207375626d69742076616c696420746044820152641a58dad95d60da1b6064820152608401610d57565b6000858152600560205260409020805485908110611cde57611cde612f93565b90600052602060002090600702016006018281548110611d0057611d00612f93565b9060005260206000200154600560008781526020019081526020016000208581548110611d2f57611d2f612f93565b9060005260206000209060070201600601600183611d4d9190613176565b81548110611d5d57611d5d612f93565b9060005260206000200181905550600560008681526020019081526020016000208481548110611d8f57611d8f612f93565b9060005260206000209060070201600601805480611daf57611daf61335c565b600082815260208120820160001990810182905590910190915585611dd48880612fa9565b604051602001611de693929190613372565b60408051601f198184030181529181528151602092830120600081815260068452918220805460018101825590835292909120909250889160050201611e2c82826135e0565b505060008181526006602052604090208054907f621f6c85f4ec6c24e3ef3fae1311b591199f13477580f239a708ec1e0123d582908c908c90611e70600186613176565b81548110611e8057611e80612f93565b9060005260206000209060050201604051611e9d9392919061367d565b60405180910390a160005b611eb560808a018a6134ae565b9050811015611f525760008c8c611ecf60808d018d6134ae565b85818110611edf57611edf612f93565b9050602002810190611ef19190612fa9565b604051602001611f049493929190613740565b60408051601f1981840301815291815281516020928301206000818152600490935290822080549193509091611f3983613050565b9190505550508080611f4a90613050565b915050611ea8565b507fbc56c2550c11dae8fa88d5c50c00382ab9c616d9982c3fcb8bae40aa5ca1a9098b8b611f808e8e61181d565b6040516118089392919061376d565b60606002805480602002602001604051908101604052809291908181526020016000905b82821015610ced578382906000526020600020018054611fd290612fff565b80601f0160208091040260200160405190810160405280929190818152602001828054611ffe90612fff565b801561204b5780601f106120205761010080835404028352916020019161204b565b820191906000526020600020905b81548152906001019060200180831161202e57829003601f168201915b505050505081526020019060010190611fb3565b600081815481106111ce57600080fd5b600085858560405160200161208693929190613793565b60405160208183030381529060405280519060200120905060008060005b60008481526005602052604090205481101561215c57856040516020016120cb91906137ca565b60408051601f19818403018152918152815160209283012060008781526005909352912080548390811061210157612101612f93565b9060005260206000209060070201600101604051602001612122919061332e565b60405160208183030381529060405280519060200120141561214a578092506001915061215c565b8061215481613050565b9150506120a4565b6001821515146121ba5760405162461bcd60e51b815260206004820152602360248201527f77726f6e672063726564656e7469616c732c20636f75727365206e6f7420666f6044820152621d5b9960ea1b6064820152608401610d57565b60008481526005602052604090208054849081106121da576121da612f93565b600091825260209091206005600790920201015460ff161561223e5760405162461bcd60e51b815260206004820152601d60248201527f7469636b6574732061726520616c72656164792067656e6572617465640000006044820152606401610d57565b60008481526005602052604090208054600191908590811061226257612262612f93565b60009182526020822060079190910201600501805460ff19169215159290921790915590505b60008481526005602052604090208054849081106122a8576122a8612f93565b9060005260206000209060070201600401548110156123625760004286600954446040516020016122dc94939291906137e6565b60408051601f19818403018152919052805160209091012060098054919250600061230683613050565b9091555050600085815260056020526040902080548590811061232b5761232b612f93565b600091825260208083206006600790930201919091018054600181018255908352912001558061235a81613050565b915050612288565b7f0aa509c398501987b09b5e8d6f21a19bf8a9d391fc11a6c17a1bb9093519a3d589898989600560008a815260200190815260200160002088815481106123ab576123ab612f93565b90600052602060002090600702016006016040516123cd959493929190613818565b60405180910390a1505050505050505050565b60008181526005602052604090205461242a5760078383604051612405929190612fef565b9081526040516020918190038201902080546001810182556000918252919020018190555b505050565b600086868686868660405160200161244c9695949392919061385d565b60405160208183030381529060405280519060200120905060078787604051612476929190612fef565b908152604051602091819003820190206001908101805491820181556000908152919091200155505050505050565b6040518060800160405280606081526020016060815260200160006001600160a01b031681526020016124eb604051806040016040528060008152602001600081525090565b905290565b8280546124fc90612fff565b90600052602060002090601f01602090048101928261251e5760008555612564565b82601f1061253757805160ff1916838001178555612564565b82800160010185558215612564579182015b82811115612564578251825591602001919060010190612549565b50612570929150612622565b5090565b82805461258090612fff565b90600052602060002090601f0160209004810192826125a25760008555612564565b82601f106125bb5782800160ff19823516178555612564565b82800160010185558215612564579182015b828111156125645782358255916020019190600101906125cd565b8280548282559060005260206000209081019282156125645791602002820182811115612564578251825591602001919060010190612549565b5b808211156125705760008155600101612623565b6000806020838503121561264a57600080fd5b82356001600160401b038082111561266157600080fd5b818501915085601f83011261267557600080fd5b81358181111561268457600080fd5b8660208260051b850101111561269957600080fd5b60209290920196919550909350505050565b60005b838110156126c65781810151838201526020016126ae565b838111156126d5576000848401525b50505050565b600081518084526126f38160208601602086016126ab565b601f01601f19169290920160200192915050565b60006020808301818452808551808352604092508286019150828160051b87010184880160005b838110156127ad57603f19898403018552815160a08151818652612754828701826126db565b915050888201518582038a87015261276c82826126db565b898401516001600160a01b0316878b01526060938401518051858901526020810151608089015293909250905050958801959350509086019060010161272e565b509098975050505050505050565b634e487b7160e01b600052604160045260246000fd5b600082601f8301126127e257600080fd5b81356001600160401b03808211156127fc576127fc6127bb565b604051601f8301601f19908116603f01168101908282118183101715612824576128246127bb565b8160405283815286602085880101111561283d57600080fd5b836020870160208301376000602085830101528094505050505092915050565b60006020828403121561286f57600080fd5b81356001600160401b0381111561288557600080fd5b612891848285016127d1565b949350505050565b60a0815260006128ac60a08301876126db565b82810360208401526128be81876126db565b6001600160a01b0386166040850152845160608501526020850151608085015291506128e79050565b95945050505050565b6000806040838503121561290357600080fd5b50508035926020909101359150565b60808152600061292560808301876126db565b856020840152846040840152828103606084015261294381856126db565b979650505050505050565b60006020828403121561296057600080fd5b5035919050565b60008083601f84011261297957600080fd5b5081356001600160401b0381111561299057600080fd5b6020830191508360208285010111156129a857600080fd5b9250929050565b600080602083850312156129c257600080fd5b82356001600160401b038111156129d857600080fd5b6129e485828601612967565b90969095509350505050565b60006020808301818452808551808352604092508286019150828160051b87010184880160005b838110156127ad57888303603f19018552815180518085529088019088850190600581901b86018a0160005b82811015612b0957601f19888303018452845160e08151818552612a69828601826126db565b9150508d8201518482038f860152612a8182826126db565b9150508c8201518d8501526060808301518186015250608080830151818601525060a0808301511515818601525060c080830151925084820381860152508082518083528f830191508f84019350600092505b80831015612af45783518252928f019260019290920191908f0190612ad4565b50968e0196958e019593505050600101612a43565b50978a0197955050509187019150600101612a17565b600081518084526020808501808196508360051b8101915082860160005b85811015612b67578284038952612b558483516126db565b98850198935090840190600101612b3d565b5091979650505050505050565b602081526000612b876020830184612b1f565b9392505050565b600080600080600060608688031215612ba657600080fd5b85356001600160401b0380821115612bbd57600080fd5b612bc989838a01612967565b90975095506020880135915080821115612be257600080fd5b50612bef88828901612967565b96999598509660400135949350505050565b60c081526000612c1460c08301896126db565b8281036020840152612c2681896126db565b91505085604083015284606083015283608083015282151560a0830152979650505050505050565b602081526000612b8760208301846126db565b60006020808301818452808551808352604092508286019150828160051b8701018488016000805b84811015612d4c57898403603f19018652825180518086529089019089860190600581901b87018b01855b82811015612d3657601f19898303018452845160a08151818552612cda828601826126db565b9150508e8201518f8501528d8201518e85015260608083015185830382870152612d0483826126db565b9250505060808083015192508482038186015250612d228183612b1f565b968f0196958f019593505050600101612cb4565b50988b0198965050509288019250600101612c89565b50919998505050505050505050565b600080600080600080600080600060c08a8c031215612d7957600080fd5b8935985060208a01356001600160401b0380821115612d9757600080fd5b612da38d838e01612967565b909a50985060408c0135915080821115612dbc57600080fd5b612dc88d838e01612967565b909850965060608c0135915080821115612de157600080fd5b50612dee8c828d01612967565b9a9d999c50979a96999598959660808101359660a09091013595509350505050565b600081518084526020808501808196508360051b8101915082860160005b85811015612b67578284038952815160408151818752612e50828801826126db565b92880151968801969096525098850198935090840190600101612e2e565b602081526000612b876020830184612e10565b60008060008060608587031215612e9757600080fd5b84356001600160401b0380821115612eae57600080fd5b612eba88838901612967565b9096509450602087013593506040870135915080821115612eda57600080fd5b50850160a08188031215612eed57600080fd5b939692955090935050565b600080600080600060a08688031215612f1057600080fd5b85356001600160401b0380821115612f2757600080fd5b612f3389838a016127d1565b965060208801359550604088013594506060880135915080821115612f5757600080fd5b612f6389838a016127d1565b93506080880135915080821115612f7957600080fd5b50612f86888289016127d1565b9150509295509295909350565b634e487b7160e01b600052603260045260246000fd5b6000808335601e19843603018112612fc057600080fd5b8301803591506001600160401b03821115612fda57600080fd5b6020019150368190038213156129a857600080fd5b8183823760009101908152919050565b600181811c9082168061301357607f821691505b6020821081141561303457634e487b7160e01b600052602260045260246000fd5b50919050565b634e487b7160e01b600052601160045260246000fd5b60006000198214156130645761306461303a565b5060010190565b6000815461307881612fff565b80855260206001838116801561309557600181146130a9576130d7565b60ff198516888401526040880195506130d7565b866000528260002060005b858110156130cf5781548a82018601529083019084016130b4565b890184019650505b505050505092915050565b6020815260a0602082015260006130fc60c083018461306b565b828103601f19016040840152613115816001860161306b565b60028501546001600160a01b031660608501526003850154608085015260049094015460a0909301929092525090919050565b83858237600b60fa1b9301838152600181019290925260218201929092526022810191909152604201919050565b6000828210156131885761318861303a565b500390565b81835281816020850137506000828201602090810191909152601f909101601f19169091010190565b6000815480845260208085019450836000528060002060005b838110156131eb578154875295820195600191820191016131cf565b509495945050505050565b60608152600061320a60608301868861318d565b846020840152828103604084015260e0815261322960e082018561306b565b818103602083015261323e816001870161306b565b905060028501546040830152600385015460608301526004850154608083015260ff60058601541661327460a084018215159052565b5081810360c083015261328a81600687016131b6565b98975050505050505050565b600081546132a381612fff565b600182811680156132bb57600181146132cc576132fb565b60ff198416875282870194506132fb565b8560005260208060002060005b858110156132f25781548a8201529084019082016132d9565b50505082870194505b5050505092915050565b82848237600b60fa1b8184019081526000906133246001820185613296565b9695505050505050565b6000612b878284613296565b60006020828403121561334c57600080fd5b81518015158114612b8757600080fd5b634e487b7160e01b600052603160045260246000fd5b838152600b60fa1b6020820152818360218301376000910160210190815292915050565b5b818110156133ab5760008155600101613397565b5050565b601f82111561242a57806000526020600020601f840160051c810160208510156133d65750805b6133e8601f850160051c830182613396565b5050505050565b6001600160401b03831115613406576134066127bb565b61341a836134148354612fff565b836133af565b6000601f84116001811461344e57600085156134365750838201355b600019600387901b1c1916600186901b1783556133e8565b600083815260209020601f19861690835b8281101561347f578685013582556020948501946001909201910161345f565b508682101561349c5760001960f88860031b161c19848701351681555b505060018560011b0183555050505050565b6000808335601e198436030181126134c557600080fd5b8301803591506001600160401b038211156134df57600080fd5b6020019150600581901b36038213156129a857600080fd5b68010000000000000000831115613510576135106127bb565b805483825580841015613599576000828152602081208581019083015b808210156135955761353f8254612fff565b801561358957601f8082116001811461355a57858555613586565b60008581526020902061357783850160051c820160018301613396565b50600085815260208120818755555b50505b5060018201915061352d565b5050505b5060008181526020812083915b858110156135d8576135b88386612fa9565b6135c38183866133ef565b505060209290920191600191820191016135a6565b505050505050565b6135ea8283612fa9565b6135f58183856133ef565b505060208201356001820155604082013560028201556136186060830183612fa9565b6136268183600386016133ef565b50506080820135601e1983360301811261363f57600080fd5b820180356001600160401b0381111561365757600080fd5b6020820191508060051b360382131561366f57600080fd5b6126d58183600486016134f7565b60408152600061369160408301858761318d565b60208382038185015260a082526136ab60a083018661306b565b600180870154838501526002870154604085015283820360608501526136d4826003890161306b565b915060048701848303608086015282945080548084528484019550848160051b8501018260005285600020925060005b8281101561373057858203601f1901885261371f828561306b565b978701979385019391508401613704565b509b9a5050505050505050505050565b83858237600b60fa1b81850190815260009083856001830137600093016001019283525090949350505050565b60408152600061378160408301858761318d565b82810360208401526133248185612e10565b600084516137a58184602089016126ab565b600b60fa1b920182815260018101949094525060218301526022820152604201919050565b600082516137dc8184602087016126ab565b9190910192915050565b848152600084516137fe8160208501602089016126ab565b909101602081019390935250604082015260600192915050565b60a08152600061382b60a08301886126db565b866020840152856040840152828103606084015261384981866126db565b9050828103608084015261328a81856131b6565b85878237600086820160008152600b60fa1b8082528760018301528060218301528660228301528060428301525083856043830137600093016043019283525090969550505050505056fea2646970667358221220ec24ff827c8cc3697955893cd454b2f81a0533e66dc5b5726944ed8f4c261bb564736f6c634300080b0033",
  "immutableReferences": {},
  "source": "// SPDX-License-Identifier: MIT\npragma solidity >=0.4.21 <8.10.0;\n\nimport \"./Utils.sol\";\n\ncontract FeedbackData {\n    string[] public facultySkills = [\n        \"Diversity\",\n        \"Communication\",\n        \"Procedures\",\n        \"Philosophy\",\n        \"StudentLearning\"\n    ];\n    Utils public util;\n\n    struct Feedback {\n        string code;\n        uint256 semester; // 0 for even and 1 for odd\n        uint256 year;\n        string content;\n        string[] skills;\n    }\n\n    struct Float {\n        uint256 preDecimal;\n        uint256 postDecimal;\n    }\n\n    struct Course {\n        string name;\n        string code;\n        uint256 semester; // 0 for even and 1 for odd\n        uint256 year;\n        uint256 studentCount;\n        bool ticketGenerated;\n        bytes32[] tickets;\n    }\n\n    struct SkillsUpvoteCount {\n        string name;\n        uint256 count;\n    }\n\n    struct Professor {\n        string name;\n        string email;\n        address addressId;\n        Float rating;\n    }\n\n    struct ProfessorCreds_Key {\n        bytes32[] professorCourses;\n        bytes32[] professorCourseFeedback;\n    }\n\n    string[] public professorEmails;\n\n    mapping(string => Professor) public professorDetail;\n    mapping(bytes32 => uint256) public professorSkillsUpvote; // email+skill\n\n    //TODO change formate of prof skill upvotes\n\n    mapping(bytes32 => Course[]) public professorCourses; // email+year+sem\n    mapping(bytes32 => Feedback[]) public professorCourseFeedback; // email+year+sem+course_code\n\n    mapping(string => ProfessorCreds_Key) private profCred_Keys;\n    mapping(bytes32 => bool) public _keysForProfReg;\n\n    uint256 private counterForProfReg;\n\n    constructor() {\n        counterForProfReg = uint256(\n            keccak256(abi.encodePacked(block.difficulty, block.timestamp))\n        );\n    }\n\n    event professorCreated(Professor professor);\n    event courseUpdated(string email, uint256 year, Course course);\n    event tokenGenerated(bytes32 token);\n    event ticketGenerated(\n        string email,\n        uint256 year,\n        uint256 sem,\n        string code,\n        bytes32[] tickets\n    );\n    event feedbackSubmitted(string email, Feedback feedback);\n    event skillUpvoteUpdated(string email, SkillsUpvoteCount[] skills);\n\n    function generateTokenForProfReg() public {\n        counterForProfReg++;\n        bytes32 id = keccak256(\n            abi.encodePacked(block.timestamp, counterForProfReg)\n        );\n        _keysForProfReg[id] = true;\n        emit tokenGenerated(id);\n    }\n\n    function getFacultySkills() public view returns (string[] memory) {\n        return facultySkills;\n    }\n\n    function createProfessor(\n        string calldata name,\n        string calldata email,\n        bytes32 secret\n    ) public {\n        require(\n            bytes(name).length > 0,\n            \"Name can not be blank during professor creation\"\n        );\n        require(\n            bytes(email).length > 0,\n            \"Email can not be blank during professor creation\"\n        );\n        require(msg.sender != address(0 * 0), \"user address should exist\");\n        require(_keysForProfReg[secret] == true, \"provide valid secret\");\n\n        professorDetail[email] = Professor({\n            name: name,\n            email: email,\n            addressId: msg.sender,\n            rating: Float(0, 0)\n        });\n\n        professorEmails.push(email);\n\n        _keysForProfReg[secret] = false;\n\n        emit professorCreated(professorDetail[email]);\n    }\n\n    function getProfessorIds() public view returns (string[] memory) {\n        return professorEmails;\n    }\n\n    function getProfessorsDetailsByIds(string[] calldata ids)\n        public\n        view\n        returns (Professor[] memory)\n    {\n        Professor[] memory _professorList = new Professor[](ids.length);\n\n        for (uint256 i = 0; i < ids.length; i++) {\n            _professorList[i] = professorDetail[ids[i]];\n        }\n\n        return _professorList;\n    }\n\n    function getProfessorFeedbacks(string calldata _email)\n        public\n        view\n        returns (Feedback[][] memory)\n    {\n        Feedback[][] memory _feedbacks = new Feedback[][](\n            profCred_Keys[_email].professorCourseFeedback.length\n        );\n        for (\n            uint256 i = 0;\n            i < profCred_Keys[_email].professorCourseFeedback.length;\n            i++\n        ) {\n            _feedbacks[i] = professorCourseFeedback[\n                profCred_Keys[_email].professorCourseFeedback[i]\n            ];\n        }\n        return _feedbacks;\n    }\n\n    function getProfessorCourses(string calldata _email)\n        public\n        view\n        returns (Course[][] memory)\n    {\n        Course[][] memory _courses = new Course[][](\n            profCred_Keys[_email].professorCourses.length\n        );\n        for (\n            uint256 i = 0;\n            i < profCred_Keys[_email].professorCourses.length;\n            i++\n        ) {\n            _courses[i] = professorCourses[\n                profCred_Keys[_email].professorCourses[i]\n            ];\n        }\n\n        return _courses;\n    }\n\n    function getSkillsUpvote(string calldata _email)\n        public\n        view\n        returns (SkillsUpvoteCount[] memory)\n    {\n        SkillsUpvoteCount[] memory skillUpvotes = new SkillsUpvoteCount[](\n            facultySkills.length\n        );\n        for (uint256 i = 0; i < facultySkills.length; i++) {\n            bytes32 _key = keccak256(\n                abi.encodePacked(_email, \",\", facultySkills[i])\n            );\n            skillUpvotes[i] = SkillsUpvoteCount({\n                name: facultySkills[i],\n                count: professorSkillsUpvote[_key]\n            });\n        }\n\n        return skillUpvotes;\n    }\n\n    function addCourse(\n        uint256 _year,\n        string calldata _email,\n        string calldata _name,\n        string calldata _code,\n        uint256 _sem,\n        uint256 _studentCount\n    ) public {\n        // uint _year = util.getYear(block.timestamp);\n\n        Course memory _course = Course({\n            name: _name,\n            code: _code,\n            year: _year,\n            semester: _sem,\n            studentCount: _studentCount,\n            ticketGenerated: false,\n            tickets: new bytes32[](0)\n        });\n\n        bytes32 __key = keccak256(\n            abi.encodePacked(_email, \",\", _year, \",\", _sem)\n        );\n\n        updateProfessorYearsCourses_Key(_email, __key);\n        updateProfessorCourseFeedback(_email, _year, _sem, _code);\n\n        professorCourses[__key].push(_course);\n        emit courseUpdated(\n            _email,\n            _year,\n            professorCourses[__key][professorCourses[__key].length - 1]\n        );\n    }\n\n    function updateProfessorYearsCourses_Key(\n        string calldata email,\n        bytes32 __key\n    ) private {\n        if (professorCourses[__key].length == 0) {\n            profCred_Keys[email].professorCourses.push(__key);\n        }\n    }\n\n    function updateProfessorCourseFeedback(\n        string calldata _email,\n        uint256 _year,\n        uint256 _sem,\n        string calldata _code\n    ) private {\n        bytes32 __key = keccak256(\n            abi.encodePacked(_email, \",\", _year, \",\", _sem, \",\", _code)\n        );\n        profCred_Keys[_email].professorCourseFeedback.push(__key);\n    }\n\n    event test(bool);\n\n    function generateTickets(\n        string memory _email,\n        uint256 _year,\n        uint256 _sem,\n        string memory _code,\n        string memory _seed\n    ) public {\n        bytes32 _key = keccak256(\n            abi.encodePacked(_email, \",\", _year, \",\", _sem)\n        );\n        uint256 coursePos = 0;\n        bool courseFound = false;\n        uint256 i = 0;\n        for (; i < professorCourses[_key].length; i++) {\n            if (\n                keccak256(abi.encodePacked(professorCourses[_key][i].code)) ==\n                keccak256(abi.encodePacked(_code))\n            ) {\n                coursePos = i;\n                courseFound = true;\n                break;\n            }\n        }\n\n        require(courseFound == true, \"wrong credentials, course not found\");\n        require(\n            professorCourses[_key][coursePos].ticketGenerated == false,\n            \"tickets are already generated\"\n        );\n\n        professorCourses[_key][coursePos].ticketGenerated = true;\n        i = 0;\n        for (; i < professorCourses[_key][coursePos].studentCount; i++) {\n            bytes32 ticket = keccak256(\n                abi.encodePacked(\n                    block.timestamp,\n                    _seed,\n                    counterForProfReg,\n                    block.difficulty\n                )\n            );\n            counterForProfReg++;\n            professorCourses[_key][coursePos].tickets.push(ticket);\n        }\n\n        emit ticketGenerated(\n            _email,\n            _year,\n            _sem,\n            _code,\n            professorCourses[_key][coursePos].tickets\n        );\n    }\n\n    function submitFeedback(\n        string calldata _email,\n        bytes32 _ticket,\n        Feedback calldata _feedback\n    ) public {\n        bytes32 course_Key = keccak256(\n            abi.encodePacked(\n                _email,\n                \",\",\n                _feedback.year,\n                \",\",\n                _feedback.semester\n            )\n        );\n        uint256 coursePos = 0;\n        bool found;\n        for (; coursePos < professorCourses[course_Key].length; coursePos++) {\n            if (\n                keccak256(\n                    abi.encodePacked(\n                        professorCourses[course_Key][coursePos].code\n                    )\n                ) == keccak256(abi.encodePacked(_feedback.code))\n            ) {\n                found = true;\n                break;\n            }\n        }\n        if (found == false) {\n            revert(\"course not found, invalid course detail\");\n        }\n        found = false;\n        uint256 ticketPos = 0;\n        uint256 ticketsLen = professorCourses[course_Key][coursePos]\n            .tickets\n            .length;\n        for (; ticketPos < ticketsLen; ticketPos++) {\n            if (\n                util.compareBytes32(\n                    professorCourses[course_Key][coursePos].tickets[ticketPos],\n                    _ticket\n                )\n            ) {\n                found = true;\n                break;\n            }\n        }\n\n        if (found == false) revert(\"ticket not found, submit valid ticket\");\n\n        professorCourses[course_Key][coursePos].tickets[\n            ticketsLen - 1\n        ] = professorCourses[course_Key][coursePos].tickets[ticketPos];\n        professorCourses[course_Key][coursePos].tickets.pop();\n\n        bytes32 _feedback_Key = keccak256(\n            abi.encodePacked(course_Key, \",\", _feedback.code)\n        );\n\n        professorCourseFeedback[_feedback_Key].push(_feedback);\n        uint256 feedbackLen = professorCourseFeedback[_feedback_Key].length;\n\n        emit feedbackSubmitted(\n            _email,\n            professorCourseFeedback[_feedback_Key][feedbackLen - 1]\n        );\n\n        for (uint256 j = 0; j < _feedback.skills.length; j++) {\n            bytes32 skill_Key = keccak256(\n                abi.encodePacked(_email, \",\", _feedback.skills[j])\n            );\n            professorSkillsUpvote[skill_Key]++;\n        }\n\n        emit skillUpvoteUpdated(_email, getSkillsUpvote(_email));\n    }\n}\n",
  "sourcePath": "/home/kishan/Desktop/projects/feedback-dapp/contracts/FeedbackData.sol",
  "compiler": {
    "name": "solc",
    "version": "0.8.11+commit.d7f03943.Emscripten.clang"
  },
  "schemaVersion": "3.4.5",
  "updatedAt": "2022-03-09T16:49:47.952Z",
  "networkType": "ethereum",
  "devdoc": {
    "kind": "dev",
    "methods": {},
    "version": 1
  },
  "userdoc": {
    "kind": "user",
    "methods": {},
    "version": 1
  }
}