{
  "contractName": "FeedbackData",
  "abi": [
    {
      "inputs": [
        {
          "internalType": "string",
          "name": "adminKey",
          "type": "string"
        },
        {
          "internalType": "address",
          "name": "_bhuToken",
          "type": "address"
        }
      ],
      "stateMutability": "nonpayable",
      "type": "constructor"
    },
    {
      "anonymous": false,
      "inputs": [
        {
          "indexed": false,
          "internalType": "address",
          "name": "account",
          "type": "address"
        },
        {
          "indexed": false,
          "internalType": "uint256",
          "name": "balance",
          "type": "uint256"
        }
      ],
      "name": "balanceUpdated",
      "type": "event"
    },
    {
      "anonymous": false,
      "inputs": [
        {
          "indexed": false,
          "internalType": "string",
          "name": "email",
          "type": "string"
        },
        {
          "indexed": false,
          "internalType": "uint256",
          "name": "year",
          "type": "uint256"
        },
        {
          "components": [
            {
              "internalType": "string",
              "name": "name",
              "type": "string"
            },
            {
              "internalType": "string",
              "name": "code",
              "type": "string"
            },
            {
              "internalType": "uint256",
              "name": "semester",
              "type": "uint256"
            },
            {
              "internalType": "uint256",
              "name": "year",
              "type": "uint256"
            },
            {
              "internalType": "uint256",
              "name": "studentCount",
              "type": "uint256"
            },
            {
              "internalType": "bool",
              "name": "ticketGenerated",
              "type": "bool"
            },
            {
              "internalType": "bytes32[]",
              "name": "tickets",
              "type": "bytes32[]"
            }
          ],
          "indexed": false,
          "internalType": "struct FeedbackData.Course",
          "name": "course",
          "type": "tuple"
        }
      ],
      "name": "courseUpdated",
      "type": "event"
    },
    {
      "anonymous": false,
      "inputs": [
        {
          "indexed": false,
          "internalType": "string",
          "name": "email",
          "type": "string"
        },
        {
          "components": [
            {
              "internalType": "string",
              "name": "code",
              "type": "string"
            },
            {
              "internalType": "uint256",
              "name": "semester",
              "type": "uint256"
            },
            {
              "internalType": "uint256",
              "name": "year",
              "type": "uint256"
            },
            {
              "internalType": "string",
              "name": "content",
              "type": "string"
            },
            {
              "internalType": "string[]",
              "name": "skills",
              "type": "string[]"
            }
          ],
          "indexed": false,
          "internalType": "struct FeedbackData.Feedback",
          "name": "feedback",
          "type": "tuple"
        }
      ],
      "name": "feedbackSubmitted",
      "type": "event"
    },
    {
      "anonymous": false,
      "inputs": [
        {
          "indexed": false,
          "internalType": "bool",
          "name": "success",
          "type": "bool"
        }
      ],
      "name": "passwordUpdated",
      "type": "event"
    },
    {
      "anonymous": false,
      "inputs": [
        {
          "components": [
            {
              "internalType": "string",
              "name": "name",
              "type": "string"
            },
            {
              "internalType": "string",
              "name": "email",
              "type": "string"
            },
            {
              "internalType": "string",
              "name": "profilePicture",
              "type": "string"
            },
            {
              "internalType": "address",
              "name": "addressId",
              "type": "address"
            },
            {
              "components": [
                {
                  "internalType": "uint256",
                  "name": "preDecimal",
                  "type": "uint256"
                },
                {
                  "internalType": "uint256",
                  "name": "postDecimal",
                  "type": "uint256"
                }
              ],
              "internalType": "struct FeedbackData.Float",
              "name": "rating",
              "type": "tuple"
            }
          ],
          "indexed": false,
          "internalType": "struct FeedbackData.Professor",
          "name": "professor",
          "type": "tuple"
        }
      ],
      "name": "professorCreated",
      "type": "event"
    },
    {
      "anonymous": false,
      "inputs": [
        {
          "indexed": false,
          "internalType": "string",
          "name": "email",
          "type": "string"
        },
        {
          "components": [
            {
              "internalType": "uint256",
              "name": "preDecimal",
              "type": "uint256"
            },
            {
              "internalType": "uint256",
              "name": "postDecimal",
              "type": "uint256"
            }
          ],
          "indexed": false,
          "internalType": "struct FeedbackData.Float",
          "name": "rating",
          "type": "tuple"
        }
      ],
      "name": "ratingUpdated",
      "type": "event"
    },
    {
      "anonymous": false,
      "inputs": [
        {
          "indexed": false,
          "internalType": "string",
          "name": "email",
          "type": "string"
        },
        {
          "components": [
            {
              "internalType": "string",
              "name": "name",
              "type": "string"
            },
            {
              "internalType": "uint256",
              "name": "count",
              "type": "uint256"
            }
          ],
          "indexed": false,
          "internalType": "struct FeedbackData.SkillsUpvoteCount[]",
          "name": "skills",
          "type": "tuple[]"
        }
      ],
      "name": "skillsUpvoted",
      "type": "event"
    },
    {
      "anonymous": false,
      "inputs": [
        {
          "indexed": false,
          "internalType": "bool",
          "name": "",
          "type": "bool"
        }
      ],
      "name": "test",
      "type": "event"
    },
    {
      "anonymous": false,
      "inputs": [
        {
          "indexed": false,
          "internalType": "string",
          "name": "email",
          "type": "string"
        },
        {
          "indexed": false,
          "internalType": "uint256",
          "name": "year",
          "type": "uint256"
        },
        {
          "indexed": false,
          "internalType": "uint256",
          "name": "sem",
          "type": "uint256"
        },
        {
          "indexed": false,
          "internalType": "string",
          "name": "code",
          "type": "string"
        },
        {
          "indexed": false,
          "internalType": "bytes32[]",
          "name": "tickets",
          "type": "bytes32[]"
        }
      ],
      "name": "ticketGenerated",
      "type": "event"
    },
    {
      "anonymous": false,
      "inputs": [
        {
          "indexed": false,
          "internalType": "bytes32",
          "name": "token",
          "type": "bytes32"
        }
      ],
      "name": "tokenGenerated",
      "type": "event"
    },
    {
      "inputs": [
        {
          "internalType": "bytes32",
          "name": "",
          "type": "bytes32"
        }
      ],
      "name": "_keysForProfReg",
      "outputs": [
        {
          "internalType": "bool",
          "name": "",
          "type": "bool"
        }
      ],
      "stateMutability": "view",
      "type": "function",
      "constant": true
    },
    {
      "inputs": [
        {
          "internalType": "bytes32",
          "name": "",
          "type": "bytes32"
        },
        {
          "internalType": "uint256",
          "name": "",
          "type": "uint256"
        }
      ],
      "name": "courses",
      "outputs": [
        {
          "internalType": "string",
          "name": "name",
          "type": "string"
        },
        {
          "internalType": "string",
          "name": "code",
          "type": "string"
        },
        {
          "internalType": "uint256",
          "name": "semester",
          "type": "uint256"
        },
        {
          "internalType": "uint256",
          "name": "year",
          "type": "uint256"
        },
        {
          "internalType": "uint256",
          "name": "studentCount",
          "type": "uint256"
        },
        {
          "internalType": "bool",
          "name": "ticketGenerated",
          "type": "bool"
        }
      ],
      "stateMutability": "view",
      "type": "function",
      "constant": true
    },
    {
      "inputs": [],
      "name": "earlyFeedbackCost",
      "outputs": [
        {
          "internalType": "uint256",
          "name": "",
          "type": "uint256"
        }
      ],
      "stateMutability": "view",
      "type": "function",
      "constant": true
    },
    {
      "inputs": [
        {
          "internalType": "uint256",
          "name": "",
          "type": "uint256"
        }
      ],
      "name": "emails",
      "outputs": [
        {
          "internalType": "string",
          "name": "",
          "type": "string"
        }
      ],
      "stateMutability": "view",
      "type": "function",
      "constant": true
    },
    {
      "inputs": [
        {
          "internalType": "uint256",
          "name": "",
          "type": "uint256"
        }
      ],
      "name": "facultySkills",
      "outputs": [
        {
          "internalType": "string",
          "name": "",
          "type": "string"
        }
      ],
      "stateMutability": "view",
      "type": "function",
      "constant": true
    },
    {
      "inputs": [
        {
          "internalType": "bytes32",
          "name": "",
          "type": "bytes32"
        },
        {
          "internalType": "uint256",
          "name": "",
          "type": "uint256"
        }
      ],
      "name": "feedbacks",
      "outputs": [
        {
          "internalType": "string",
          "name": "code",
          "type": "string"
        },
        {
          "internalType": "uint256",
          "name": "semester",
          "type": "uint256"
        },
        {
          "internalType": "uint256",
          "name": "year",
          "type": "uint256"
        },
        {
          "internalType": "string",
          "name": "content",
          "type": "string"
        }
      ],
      "stateMutability": "view",
      "type": "function",
      "constant": true
    },
    {
      "inputs": [],
      "name": "lateFeedbackCost",
      "outputs": [
        {
          "internalType": "uint256",
          "name": "",
          "type": "uint256"
        }
      ],
      "stateMutability": "view",
      "type": "function",
      "constant": true
    },
    {
      "inputs": [
        {
          "internalType": "string",
          "name": "",
          "type": "string"
        }
      ],
      "name": "professorDetail",
      "outputs": [
        {
          "internalType": "string",
          "name": "name",
          "type": "string"
        },
        {
          "internalType": "string",
          "name": "email",
          "type": "string"
        },
        {
          "internalType": "string",
          "name": "profilePicture",
          "type": "string"
        },
        {
          "internalType": "address",
          "name": "addressId",
          "type": "address"
        },
        {
          "components": [
            {
              "internalType": "uint256",
              "name": "preDecimal",
              "type": "uint256"
            },
            {
              "internalType": "uint256",
              "name": "postDecimal",
              "type": "uint256"
            }
          ],
          "internalType": "struct FeedbackData.Float",
          "name": "rating",
          "type": "tuple"
        }
      ],
      "stateMutability": "view",
      "type": "function",
      "constant": true
    },
    {
      "inputs": [
        {
          "internalType": "bytes32",
          "name": "",
          "type": "bytes32"
        }
      ],
      "name": "skillsCount",
      "outputs": [
        {
          "internalType": "uint256",
          "name": "",
          "type": "uint256"
        }
      ],
      "stateMutability": "view",
      "type": "function",
      "constant": true
    },
    {
      "inputs": [],
      "name": "util",
      "outputs": [
        {
          "internalType": "contract Utils",
          "name": "",
          "type": "address"
        }
      ],
      "stateMutability": "view",
      "type": "function",
      "constant": true
    },
    {
      "inputs": [
        {
          "internalType": "string",
          "name": "adminKey",
          "type": "string"
        }
      ],
      "name": "generateTokenForProfReg",
      "outputs": [],
      "stateMutability": "nonpayable",
      "type": "function"
    },
    {
      "inputs": [
        {
          "internalType": "address",
          "name": "_address",
          "type": "address"
        }
      ],
      "name": "checkBalance",
      "outputs": [
        {
          "internalType": "uint256",
          "name": "",
          "type": "uint256"
        }
      ],
      "stateMutability": "view",
      "type": "function",
      "constant": true
    },
    {
      "inputs": [
        {
          "internalType": "string",
          "name": "oldPassword",
          "type": "string"
        },
        {
          "internalType": "string",
          "name": "newPassword",
          "type": "string"
        }
      ],
      "name": "updatePassword",
      "outputs": [],
      "stateMutability": "nonpayable",
      "type": "function"
    },
    {
      "inputs": [],
      "name": "getFacultySkills",
      "outputs": [
        {
          "internalType": "string[]",
          "name": "",
          "type": "string[]"
        }
      ],
      "stateMutability": "view",
      "type": "function",
      "constant": true
    },
    {
      "inputs": [
        {
          "internalType": "string",
          "name": "name",
          "type": "string"
        },
        {
          "internalType": "string",
          "name": "email",
          "type": "string"
        },
        {
          "internalType": "string",
          "name": "profilePicture",
          "type": "string"
        },
        {
          "internalType": "bytes32",
          "name": "secret",
          "type": "bytes32"
        }
      ],
      "name": "createProfessor",
      "outputs": [],
      "stateMutability": "nonpayable",
      "type": "function"
    },
    {
      "inputs": [],
      "name": "getProfessorIds",
      "outputs": [
        {
          "internalType": "string[]",
          "name": "",
          "type": "string[]"
        }
      ],
      "stateMutability": "view",
      "type": "function",
      "constant": true
    },
    {
      "inputs": [
        {
          "internalType": "string[]",
          "name": "ids",
          "type": "string[]"
        }
      ],
      "name": "getProfessorsDetailsByIds",
      "outputs": [
        {
          "components": [
            {
              "internalType": "string",
              "name": "name",
              "type": "string"
            },
            {
              "internalType": "string",
              "name": "email",
              "type": "string"
            },
            {
              "internalType": "string",
              "name": "profilePicture",
              "type": "string"
            },
            {
              "internalType": "address",
              "name": "addressId",
              "type": "address"
            },
            {
              "components": [
                {
                  "internalType": "uint256",
                  "name": "preDecimal",
                  "type": "uint256"
                },
                {
                  "internalType": "uint256",
                  "name": "postDecimal",
                  "type": "uint256"
                }
              ],
              "internalType": "struct FeedbackData.Float",
              "name": "rating",
              "type": "tuple"
            }
          ],
          "internalType": "struct FeedbackData.Professor[]",
          "name": "",
          "type": "tuple[]"
        }
      ],
      "stateMutability": "view",
      "type": "function",
      "constant": true
    },
    {
      "inputs": [
        {
          "internalType": "string",
          "name": "_email",
          "type": "string"
        }
      ],
      "name": "getFeedbacks",
      "outputs": [
        {
          "components": [
            {
              "internalType": "string",
              "name": "code",
              "type": "string"
            },
            {
              "internalType": "uint256",
              "name": "semester",
              "type": "uint256"
            },
            {
              "internalType": "uint256",
              "name": "year",
              "type": "uint256"
            },
            {
              "internalType": "string",
              "name": "content",
              "type": "string"
            },
            {
              "internalType": "string[]",
              "name": "skills",
              "type": "string[]"
            }
          ],
          "internalType": "struct FeedbackData.Feedback[][]",
          "name": "",
          "type": "tuple[][]"
        }
      ],
      "stateMutability": "view",
      "type": "function",
      "constant": true
    },
    {
      "inputs": [
        {
          "internalType": "string[]",
          "name": "_emails",
          "type": "string[]"
        }
      ],
      "name": "getFeedbacksByEmails",
      "outputs": [
        {
          "components": [
            {
              "internalType": "string",
              "name": "code",
              "type": "string"
            },
            {
              "internalType": "uint256",
              "name": "semester",
              "type": "uint256"
            },
            {
              "internalType": "uint256",
              "name": "year",
              "type": "uint256"
            },
            {
              "internalType": "string",
              "name": "content",
              "type": "string"
            },
            {
              "internalType": "string[]",
              "name": "skills",
              "type": "string[]"
            }
          ],
          "internalType": "struct FeedbackData.Feedback[][][]",
          "name": "",
          "type": "tuple[][][]"
        }
      ],
      "stateMutability": "view",
      "type": "function",
      "constant": true
    },
    {
      "inputs": [
        {
          "internalType": "string",
          "name": "_email",
          "type": "string"
        }
      ],
      "name": "getCourses",
      "outputs": [
        {
          "components": [
            {
              "internalType": "string",
              "name": "name",
              "type": "string"
            },
            {
              "internalType": "string",
              "name": "code",
              "type": "string"
            },
            {
              "internalType": "uint256",
              "name": "semester",
              "type": "uint256"
            },
            {
              "internalType": "uint256",
              "name": "year",
              "type": "uint256"
            },
            {
              "internalType": "uint256",
              "name": "studentCount",
              "type": "uint256"
            },
            {
              "internalType": "bool",
              "name": "ticketGenerated",
              "type": "bool"
            },
            {
              "internalType": "bytes32[]",
              "name": "tickets",
              "type": "bytes32[]"
            }
          ],
          "internalType": "struct FeedbackData.Course[][]",
          "name": "",
          "type": "tuple[][]"
        }
      ],
      "stateMutability": "view",
      "type": "function",
      "constant": true
    },
    {
      "inputs": [
        {
          "internalType": "string[]",
          "name": "_emails",
          "type": "string[]"
        }
      ],
      "name": "getCoursesByEmails",
      "outputs": [
        {
          "components": [
            {
              "internalType": "string",
              "name": "name",
              "type": "string"
            },
            {
              "internalType": "string",
              "name": "code",
              "type": "string"
            },
            {
              "internalType": "uint256",
              "name": "semester",
              "type": "uint256"
            },
            {
              "internalType": "uint256",
              "name": "year",
              "type": "uint256"
            },
            {
              "internalType": "uint256",
              "name": "studentCount",
              "type": "uint256"
            },
            {
              "internalType": "bool",
              "name": "ticketGenerated",
              "type": "bool"
            },
            {
              "internalType": "bytes32[]",
              "name": "tickets",
              "type": "bytes32[]"
            }
          ],
          "internalType": "struct FeedbackData.Course[][][]",
          "name": "",
          "type": "tuple[][][]"
        }
      ],
      "stateMutability": "view",
      "type": "function",
      "constant": true
    },
    {
      "inputs": [
        {
          "internalType": "string",
          "name": "_email",
          "type": "string"
        }
      ],
      "name": "getSkillsUpvote",
      "outputs": [
        {
          "components": [
            {
              "internalType": "string",
              "name": "name",
              "type": "string"
            },
            {
              "internalType": "uint256",
              "name": "count",
              "type": "uint256"
            }
          ],
          "internalType": "struct FeedbackData.SkillsUpvoteCount[]",
          "name": "",
          "type": "tuple[]"
        }
      ],
      "stateMutability": "view",
      "type": "function",
      "constant": true
    },
    {
      "inputs": [
        {
          "internalType": "string[]",
          "name": "_emails",
          "type": "string[]"
        }
      ],
      "name": "getSkillsUpvotesByEmails",
      "outputs": [
        {
          "components": [
            {
              "internalType": "string",
              "name": "name",
              "type": "string"
            },
            {
              "internalType": "uint256",
              "name": "count",
              "type": "uint256"
            }
          ],
          "internalType": "struct FeedbackData.SkillsUpvoteCount[][]",
          "name": "",
          "type": "tuple[][]"
        }
      ],
      "stateMutability": "view",
      "type": "function",
      "constant": true
    },
    {
      "inputs": [
        {
          "internalType": "uint256",
          "name": "_year",
          "type": "uint256"
        },
        {
          "internalType": "string",
          "name": "_email",
          "type": "string"
        },
        {
          "internalType": "string",
          "name": "_name",
          "type": "string"
        },
        {
          "internalType": "string",
          "name": "_code",
          "type": "string"
        },
        {
          "internalType": "uint256",
          "name": "_sem",
          "type": "uint256"
        },
        {
          "internalType": "uint256",
          "name": "_studentCount",
          "type": "uint256"
        }
      ],
      "name": "addCourse",
      "outputs": [],
      "stateMutability": "nonpayable",
      "type": "function"
    },
    {
      "inputs": [
        {
          "internalType": "string",
          "name": "_email",
          "type": "string"
        },
        {
          "internalType": "uint256",
          "name": "_year",
          "type": "uint256"
        },
        {
          "internalType": "uint256",
          "name": "_sem",
          "type": "uint256"
        },
        {
          "internalType": "string",
          "name": "_code",
          "type": "string"
        },
        {
          "internalType": "string",
          "name": "_seed",
          "type": "string"
        }
      ],
      "name": "generateTickets",
      "outputs": [],
      "stateMutability": "nonpayable",
      "type": "function"
    },
    {
      "inputs": [
        {
          "internalType": "string",
          "name": "_email",
          "type": "string"
        },
        {
          "internalType": "bytes32",
          "name": "_ticket",
          "type": "bytes32"
        },
        {
          "components": [
            {
              "internalType": "uint256",
              "name": "preDecimal",
              "type": "uint256"
            },
            {
              "internalType": "uint256",
              "name": "postDecimal",
              "type": "uint256"
            }
          ],
          "internalType": "struct FeedbackData.Float",
          "name": "updatedRating",
          "type": "tuple"
        },
        {
          "components": [
            {
              "internalType": "string",
              "name": "code",
              "type": "string"
            },
            {
              "internalType": "uint256",
              "name": "semester",
              "type": "uint256"
            },
            {
              "internalType": "uint256",
              "name": "year",
              "type": "uint256"
            },
            {
              "internalType": "string",
              "name": "content",
              "type": "string"
            },
            {
              "internalType": "string[]",
              "name": "skills",
              "type": "string[]"
            }
          ],
          "internalType": "struct FeedbackData.Feedback",
          "name": "_feedback",
          "type": "tuple"
        }
      ],
      "name": "submitFeedback",
      "outputs": [],
      "stateMutability": "nonpayable",
      "type": "function"
    }
  ],
  "bytecode": "0x60096101209081526844697665727369747960b81b610140526080908152600d6101609081526c21b7b6b6bab734b1b0ba34b7b760991b6101805260a052600a6101a08181526950726f6365647572657360b01b6101c05260c0526101e0908152695068696c6f736f70687960b01b6102005260e052610260604052600f6102209081526e53747564656e744c6561726e696e6760881b6102405261010052620000ae90600090600562000178565b50674563918244f40000600c556729a2241af62c0000600d55348015620000d457600080fd5b5060405162004a0838038062004a08833981016040819052620000f79162000347565b60408051446020820152429181019190915260600160408051601f19818403018152908290528051602091820120600955620001369184910162000414565b60408051808303601f190181529190528051602090910120600a55600b80546001600160a01b0319166001600160a01b0392909216919091179055506200046f565b828054828255906000526020600020908101928215620001ca579160200282015b82811115620001ca5782518051620001b9918491602090910190620001dc565b509160200191906001019062000199565b50620001d892915062000267565b5090565b828054620001ea9062000432565b90600052602060002090601f0160209004810192826200020e576000855562000259565b82601f106200022957805160ff191683800117855562000259565b8280016001018555821562000259579182015b82811115620002595782518255916020019190600101906200023c565b50620001d892915062000288565b80821115620001d85760006200027e82826200029f565b5060010162000267565b5b80821115620001d8576000815560010162000289565b508054620002ad9062000432565b6000825580601f10620002be575050565b601f016020900490600052602060002090810190620002de919062000288565b50565b634e487b7160e01b600052604160045260246000fd5b60005b8381101562000314578181015183820152602001620002fa565b8381111562000324576000848401525b50505050565b80516001600160a01b03811681146200034257600080fd5b919050565b600080604083850312156200035b57600080fd5b82516001600160401b03808211156200037357600080fd5b818501915085601f8301126200038857600080fd5b8151818111156200039d576200039d620002e1565b604051601f8201601f19908116603f01168101908382118183101715620003c857620003c8620002e1565b81604052828152886020848701011115620003e257600080fd5b620003f5836020830160208801620002f7565b80965050505050506200040b602084016200032a565b90509250929050565b6000825162000428818460208701620002f7565b9190910192915050565b600181811c908216806200044757607f821691505b602082108114156200046957634e487b7160e01b600052602260045260246000fd5b50919050565b614589806200047f6000396000f3fe608060405234801561001057600080fd5b506004361061018e5760003560e01c8063be8f5fac116100de578063e30a121111610097578063f52c1c0711610071578063f52c1c0714610404578063fa92f13414610417578063fbd9d3771461042a578063fed5eb8d1461044a57600080fd5b8063e30a1211146103d3578063e30c0092146103f3578063f4cd3198146103fc57600080fd5b8063be8f5fac1461035c578063c305322c14610371578063cd14f4fb14610391578063cdfbb3511461039a578063d5580858146103ad578063dc2772eb146103c057600080fd5b80633bc79a981161014b5780635f515226116101255780635f515226146102de578063695a7d49146102f1578063760f4cf214610311578063956138751461033157600080fd5b80633bc79a9814610268578063466bf004146102965780635e566f20146102c957600080fd5b806303ea41a2146101935780630a06db07146101bc5780631d322565146101df57806331ea9810146101ff578063339f36601461022357806335f13f6814610243575b600080fd5b6101a66101a1366004612f30565b61045d565b6040516101b39190612fcd565b60405180910390f35b6101cf6101ca36600461311a565b6107f2565b6040516101b3949392919061313c565b6101f26101ed366004613178565b61094f565b6040516101b391906131ec565b61021261020d36600461335c565b610c1c565b6040516101b3959493929190613398565b610236610231366004612f30565b610e0f565b6040516101b3919061351f565b61025661025136600461311a565b61113a565b6040516101b396959493929190613539565b610288610276366004613586565b60046020526000908152604090205481565b6040519081526020016101b3565b6102b96102a4366004613586565b60086020526000908152604090205460ff1681565b60405190151581526020016101b3565b6102d16112a7565b6040516101b3919061359f565b6102886102ec366004613601565b611380565b6103046102ff366004613586565b6113f5565b6040516101b3919061362a565b61032461031f366004613178565b6114a1565b6040516101b3919061363d565b600154610344906001600160a01b031681565b6040516001600160a01b0390911681526020016101b3565b61036f61036a36600461335c565b611555565b005b61038461037f366004613178565b611666565b6040516101b39190613834565b610288600c5481565b61036f6103a8366004613889565b61171a565b61036f6103bb3660046138f4565b6117ee565b61036f6103ce3660046139a9565b611a14565b6103e66103e1366004612f30565b612218565b6040516101b39190613a42565b610288600d5481565b6102d16123d6565b610304610412366004613586565b6124a6565b61036f610425366004613a55565b6124b6565b61043d610438366004613178565b612865565b6040516101b39190613af7565b61036f610458366004613b4c565b612919565b6060600060078484604051610473929190613be7565b908152604051908190036020019020600101546001600160401b0381111561049d5761049d6132ba565b6040519080825280602002602001820160405280156104d057816020015b60608152602001906001900390816104bb5790505b50905060005b600785856040516104e8929190613be7565b908152604051908190036020019020600101548110156107ea576006600060078787604051610518929190613be7565b9081526020016040518091039020600101838154811061053a5761053a613bf7565b90600052602060002001548152602001908152602001600020805480602002602001604051908101604052809291908181526020016000905b828210156107b657838290600052602060002090600502016040518060a00160405290816000820180546105a690613c0d565b80601f01602080910402602001604051908101604052809291908181526020018280546105d290613c0d565b801561061f5780601f106105f45761010080835404028352916020019161061f565b820191906000526020600020905b81548152906001019060200180831161060257829003601f168201915b50505050508152602001600182015481526020016002820154815260200160038201805461064c90613c0d565b80601f016020809104026020016040519081016040528092919081815260200182805461067890613c0d565b80156106c55780601f1061069a576101008083540402835291602001916106c5565b820191906000526020600020905b8154815290600101906020018083116106a857829003601f168201915b5050505050815260200160048201805480602002602001604051908101604052809291908181526020016000905b8282101561079f57838290600052602060002001805461071290613c0d565b80601f016020809104026020016040519081016040528092919081815260200182805461073e90613c0d565b801561078b5780601f106107605761010080835404028352916020019161078b565b820191906000526020600020905b81548152906001019060200180831161076e57829003601f168201915b5050505050815260200190600101906106f3565b505050508152505081526020019060010190610573565b505050508282815181106107cc576107cc613bf7565b602002602001018190525080806107e290613c5e565b9150506104d6565b509392505050565b6006602052816000526040600020818154811061080e57600080fd5b90600052602060002090600502016000915091505080600001805461083290613c0d565b80601f016020809104026020016040519081016040528092919081815260200182805461085e90613c0d565b80156108ab5780601f10610880576101008083540402835291602001916108ab565b820191906000526020600020905b81548152906001019060200180831161088e57829003601f168201915b5050505050908060010154908060020154908060030180546108cc90613c0d565b80601f01602080910402602001604051908101604052809291908181526020018280546108f890613c0d565b80156109455780601f1061091a57610100808354040283529160200191610945565b820191906000526020600020905b81548152906001019060200180831161092857829003601f168201915b5050505050905084565b60606000826001600160401b0381111561096b5761096b6132ba565b6040519080825280602002602001820160405280156109a457816020015b610991612d4f565b8152602001906001900390816109895790505b50905060005b838110156107ea5760038585838181106109c6576109c6613bf7565b90506020028101906109d89190613c79565b6040516109e6929190613be7565b90815260200160405180910390206040518060a0016040529081600082018054610a0f90613c0d565b80601f0160208091040260200160405190810160405280929190818152602001828054610a3b90613c0d565b8015610a885780601f10610a5d57610100808354040283529160200191610a88565b820191906000526020600020905b815481529060010190602001808311610a6b57829003601f168201915b50505050508152602001600182018054610aa190613c0d565b80601f0160208091040260200160405190810160405280929190818152602001828054610acd90613c0d565b8015610b1a5780601f10610aef57610100808354040283529160200191610b1a565b820191906000526020600020905b815481529060010190602001808311610afd57829003601f168201915b50505050508152602001600282018054610b3390613c0d565b80601f0160208091040260200160405190810160405280929190818152602001828054610b5f90613c0d565b8015610bac5780601f10610b8157610100808354040283529160200191610bac565b820191906000526020600020905b815481529060010190602001808311610b8f57829003601f168201915b505050918352505060038201546001600160a01b0316602080830191909152604080518082018252600485015481526005909401549184019190915201528251839083908110610bfe57610bfe613bf7565b60200260200101819052508080610c1490613c5e565b9150506109aa565b8051602081830181018051600382529282019190930120915280548190610c4290613c0d565b80601f0160208091040260200160405190810160405280929190818152602001828054610c6e90613c0d565b8015610cbb5780601f10610c9057610100808354040283529160200191610cbb565b820191906000526020600020905b815481529060010190602001808311610c9e57829003601f168201915b505050505090806001018054610cd090613c0d565b80601f0160208091040260200160405190810160405280929190818152602001828054610cfc90613c0d565b8015610d495780601f10610d1e57610100808354040283529160200191610d49565b820191906000526020600020905b815481529060010190602001808311610d2c57829003601f168201915b505050505090806002018054610d5e90613c0d565b80601f0160208091040260200160405190810160405280929190818152602001828054610d8a90613c0d565b8015610dd75780601f10610dac57610100808354040283529160200191610dd7565b820191906000526020600020905b815481529060010190602001808311610dba57829003601f168201915b5050505060038301546040805180820190915260048501548152600590940154602085015291926001600160a01b0390921691905085565b6060600060078484604051610e25929190613be7565b908152604051908190036020019020546001600160401b03811115610e4c57610e4c6132ba565b604051908082528060200260200182016040528015610e7f57816020015b6060815260200190600190039081610e6a5790505b50905060005b60078585604051610e97929190613be7565b908152604051908190036020019020548110156107ea576005600060078787604051610ec4929190613be7565b90815260200160405180910390206000018381548110610ee657610ee6613bf7565b90600052602060002001548152602001908152602001600020805480602002602001604051908101604052809291908181526020016000905b8282101561110657838290600052602060002090600702016040518060e0016040529081600082018054610f5290613c0d565b80601f0160208091040260200160405190810160405280929190818152602001828054610f7e90613c0d565b8015610fcb5780601f10610fa057610100808354040283529160200191610fcb565b820191906000526020600020905b815481529060010190602001808311610fae57829003601f168201915b50505050508152602001600182018054610fe490613c0d565b80601f016020809104026020016040519081016040528092919081815260200182805461101090613c0d565b801561105d5780601f106110325761010080835404028352916020019161105d565b820191906000526020600020905b81548152906001019060200180831161104057829003601f168201915b505050505081526020016002820154815260200160038201548152602001600482015481526020016005820160009054906101000a900460ff16151515158152602001600682018054806020026020016040519081016040528092919081815260200182805480156110ee57602002820191906000526020600020905b8154815260200190600101908083116110da575b50505050508152505081526020019060010190610f1f565b5050505082828151811061111c5761111c613bf7565b6020026020010181905250808061113290613c5e565b915050610e85565b6005602052816000526040600020818154811061115657600080fd5b90600052602060002090600702016000915091505080600001805461117a90613c0d565b80601f01602080910402602001604051908101604052809291908181526020018280546111a690613c0d565b80156111f35780601f106111c8576101008083540402835291602001916111f3565b820191906000526020600020905b8154815290600101906020018083116111d657829003601f168201915b50505050509080600101805461120890613c0d565b80601f016020809104026020016040519081016040528092919081815260200182805461123490613c0d565b80156112815780601f1061125657610100808354040283529160200191611281565b820191906000526020600020905b81548152906001019060200180831161126457829003601f168201915b505050506002830154600384015460048501546005909501549394919390925060ff1686565b60606000805480602002602001604051908101604052809291908181526020016000905b828210156113775783829060005260206000200180546112ea90613c0d565b80601f016020809104026020016040519081016040528092919081815260200182805461131690613c0d565b80156113635780601f1061133857610100808354040283529160200191611363565b820191906000526020600020905b81548152906001019060200180831161134657829003601f168201915b5050505050815260200190600101906112cb565b50505050905090565b600b546040516370a0823160e01b81526001600160a01b03838116600483015260009216906370a0823190602401602060405180830381865afa1580156113cb573d6000803e3d6000fd5b505050506040513d601f19601f820116820180604052508101906113ef9190613cbf565b92915050565b6002818154811061140557600080fd5b90600052602060002001600091509050805461142090613c0d565b80601f016020809104026020016040519081016040528092919081815260200182805461144c90613c0d565b80156114995780601f1061146e57610100808354040283529160200191611499565b820191906000526020600020905b81548152906001019060200180831161147c57829003601f168201915b505050505081565b60606000826001600160401b038111156114bd576114bd6132ba565b6040519080825280602002602001820160405280156114f057816020015b60608152602001906001900390816114db5790505b50905060005b838110156107ea5761152585858381811061151357611513613bf7565b90506020028101906101a19190613c79565b82828151811061153757611537613bf7565b6020026020010181905250808061154d90613c5e565b9150506114f6565b600a54816040516020016115699190613cd8565b60405160208183030381529060405280519060200120146115c45760405162461bcd60e51b815260206004820152601060248201526f1a5b9d985b1a59081c185cdcdddbdc9960821b60448201526064015b60405180910390fd5b600980549060006115d483613c5e565b91905055506000426009546040516020016115f9929190918252602082015260400190565b60408051601f19818403018152828252805160209182012060008181526008909252919020805460ff1916600117905591507f8c6adcc89fb3a5c5ff4d5bb7afc4eeb464c80bd1c42b23064841c593ab9887e89061165a9083815260200190565b60405180910390a15050565b60606000826001600160401b03811115611682576116826132ba565b6040519080825280602002602001820160405280156116b557816020015b60608152602001906001900390816116a05790505b50905060005b838110156107ea576116ea8585838181106116d8576116d8613bf7565b90506020028101906103e19190613c79565b8282815181106116fc576116fc613bf7565b6020026020010181905250808061171290613c5e565b9150506116bb565b600a548484604051602001611730929190613be7565b604051602081830303815290604052805190602001201461178a5760405162461bcd60e51b81526020600482015260146024820152731a5b9d985b1a59081bdb19081c185cdcdddbdc9960621b60448201526064016115bb565b818160405160200161179d929190613be7565b60408051808303601f19018152908290528051602091820120600a55600182527fcefcc0dd46c7f93764838bb11642de48894eaf912169be55a4e9f9beab96654f910160405180910390a150505050565b604080516101006020601f8901819004028201810190925260e081018781526000928291908a908a9081908501838280828437600092019190915250505090825250604080516020601f8901819004810282018101909252878152918101919088908890819084018382808284376000920182905250938552505050602080830187905260408084018f905260608401879052608084018390528051838152808301825260a0909401939093529151929350916118b3918c918c918f91899101613cf4565b6040516020818303038152906040528051906020012090506118d68a8a83612c8a565b6118e48a8a8d878a8a612cd9565b600081815260056020908152604082208054600181018255908352918190208451805186946007029092019261191f92849290910190612da1565b5060208281015180516119389260018501920190612da1565b5060408201516002820155606082015160038201556080820151600482015560a082015160058201805460ff191691151591909117905560c0820151805161198a916006840191602090910190612e25565b505050600081815260056020526040902080547f56ff489b5a33d116a814463d8d88ac249e308bc2743f22d1d3116b1509588fd6918c918c918f916119d190600190613d22565b815481106119e1576119e1613bf7565b90600052602060002090600702016040516119ff9493929190613e19565b60405180910390a15050505050505050505050565b6000858583604001358460200135604051602001611a359493929190613cf4565b6040516020818303038152906040528051906020012090506000805b600083815260056020526040902054821015611b0f57611a718480613c79565b604051602001611a82929190613be7565b60408051601f198184030181529181528151602092830120600086815260059093529120805484908110611ab857611ab8613bf7565b9060005260206000209060070201600101604051602001611ad99190613f28565b604051602081830303815290604052805190602001201415611afd57506001611b0f565b81611b0781613c5e565b925050611a51565b80611b6c5760405162461bcd60e51b815260206004820152602760248201527f436f75727365206e6f7420666f756e642c20696e76616c696420636f757273656044820152660819195d185a5b60ca1b60648201526084016115bb565b50600082815260056020526040812080548291829185908110611b9157611b91613bf7565b90600052602060002090600702016006018054905090505b80821015611c22576000858152600560205260409020805489919086908110611bd457611bd4613bf7565b90600052602060002090600702016006018381548110611bf657611bf6613bf7565b90600052602060002001541415611c105760019250611c22565b81611c1a81613c5e565b925050611ba9565b82611c6f5760405162461bcd60e51b815260206004820152601960248201527f54784e204572726f723a20496e76616c6964207469636b65740000000000000060448201526064016115bb565b6000858152600560205260409020805485908110611c8f57611c8f613bf7565b9060005260206000209060070201600601600182611cad9190613d22565b81548110611cbd57611cbd613bf7565b9060005260206000200154600560008781526020019081526020016000208581548110611cec57611cec613bf7565b90600052602060002090600702016006018381548110611d0e57611d0e613bf7565b9060005260206000200181905550600560008681526020019081526020016000208481548110611d4057611d40613bf7565b9060005260206000209060070201600601805480611d6057611d60613f34565b6001900381819060005260206000200160009055905560008a8a886040013589602001358a8060000190611d949190613c79565b604051602001611da996959493929190613f4a565b60408051601f198184030181529181528151602092830120600081815260068452918220805460018101825590835292909120909250889160050201611def82826141df565b505060008181526006602052604090208054907f621f6c85f4ec6c24e3ef3fae1311b591199f13477580f239a708ec1e0123d582908d908d90611e33600186613d22565b81548110611e4357611e43613bf7565b9060005260206000209060050201604051611e609392919061427c565b60405180910390a160005b611e7860808a018a6140ad565b9050811015611f155760008d8d611e9260808d018d6140ad565b85818110611ea257611ea2613bf7565b9050602002810190611eb49190613c79565b604051602001611ec7949392919061433f565b60408051601f1981840301815291815281516020928301206000818152600490935290822080549193509091611efc83613c5e565b9190505550508080611f0d90613c5e565b915050611e6b565b507fd13d2122f194eef81e0738f122d85de9ec47c971b03882a46cfe5c4f32e58c0a8c8c611f438f8f612218565b604051611f529392919061436c565b60405180910390a18860038d8d604051611f6d929190613be7565b908152604051908190036020019020600401611f96828281358155602082013560018201555050565b9050507f708a0cbbf33c4bb1f5dd31e0858489399277fefc4d0f9c7bec472197e09a2fe88c8c8b604051611fcc93929190614392565b60405180910390a160008781526005602052604090208054600391829189908110611ff957611ff9613bf7565b9060005260206000209060070201600401541115806120565750600088815260056020526040902080548291908990811061203657612036613bf7565b90600052602060002090600702016004015461205291906143c1565b8211155b156120da57600b54600c5460405163a9059cbb60e01b815233600482015260248101919091526001600160a01b039091169063a9059cbb906044016020604051808303816000875af11580156120b0573d6000803e3d6000fd5b505050506040513d601f19601f820116820180604052508101906120d491906143e3565b50612155565b600b54600d5460405163a9059cbb60e01b815233600482015260248101919091526001600160a01b039091169063a9059cbb906044016020604051808303816000875af115801561212f573d6000803e3d6000fd5b505050506040513d601f19601f8201168201806040525081019061215391906143e3565b505b600b546040516370a0823160e01b815233600482018190527fbe32f2019026bb0b892e1a82ba94e40edfe612b262b2085f499f0eebb7efc12f9290916001600160a01b03909116906370a0823190602401602060405180830381865afa1580156121c3573d6000803e3d6000fd5b505050506040513d601f19601f820116820180604052508101906121e79190613cbf565b604080516001600160a01b03909316835260208301919091520160405180910390a150505050505050505050505050565b60008054606091906001600160401b03811115612237576122376132ba565b60405190808252806020026020018201604052801561227d57816020015b6040805180820190915260608152600060208201528152602001906001900390816122555790505b50905060005b6000548110156107ea5760008585600084815481106122a4576122a4613bf7565b906000526020600020016040516020016122c093929190614405565b6040516020818303038152906040528051906020012090506040518060400160405280600084815481106122f6576122f6613bf7565b90600052602060002001805461230b90613c0d565b80601f016020809104026020016040519081016040528092919081815260200182805461233790613c0d565b80156123845780601f1061235957610100808354040283529160200191612384565b820191906000526020600020905b81548152906001019060200180831161236757829003601f168201915b5050505050815260200160046000848152602001908152602001600020548152508383815181106123b7576123b7613bf7565b60200260200101819052505080806123ce90613c5e565b915050612283565b60606002805480602002602001604051908101604052809291908181526020016000905b8282101561137757838290600052602060002001805461241990613c0d565b80601f016020809104026020016040519081016040528092919081815260200182805461244590613c0d565b80156124925780601f1061246757610100808354040283529160200191612492565b820191906000526020600020905b81548152906001019060200180831161247557829003601f168201915b5050505050815260200190600101906123fa565b6000818154811061140557600080fd5b8561251b5760405162461bcd60e51b815260206004820152602f60248201527f4e616d652063616e206e6f7420626520626c616e6b20647572696e672070726f60448201526e3332b9b9b7b91031b932b0ba34b7b760891b60648201526084016115bb565b836125815760405162461bcd60e51b815260206004820152603060248201527f456d61696c2063616e206e6f7420626520626c616e6b20647572696e6720707260448201526f37b332b9b9b7b91031b932b0ba34b7b760811b60648201526084016115bb565b336125ce5760405162461bcd60e51b815260206004820152601960248201527f7573657220616464726573732073686f756c642065786973740000000000000060448201526064016115bb565b60008181526008602052604090205460ff1615156001146126285760405162461bcd60e51b81526020600482015260146024820152731c1c9bdd9a5919481d985b1a59081cd958dc995d60621b60448201526064016115bb565b6040518060a0016040528088888080601f016020809104026020016040519081016040528093929190818152602001838380828437600092019190915250505090825250604080516020601f890181900481028201810190925287815291810191908890889081908401838280828437600092019190915250505090825250604080516020601f8701819004810282018101909252858152918101919086908690819084018382808284376000920182905250938552505033602080850191909152604080518082018252848152918201939093529282019290925251600391506127169088908890613be7565b90815260200160405180910390206000820151816000019080519060200190612740929190612da1565b5060208281015180516127599260018501920190612da1565b5060408201518051612775916002840191602090910190612da1565b5060608201516003820180546001600160a01b0319166001600160a01b039092169190911790556080909101518051600483015560200151600590910155600280546001810182556000919091526127f0907f405787fa12a823e0f2b7631cc41b3ba8828b3321ca811111fa75cd3aa3bb5ace018686612e5f565b5060008181526008602052604090819020805460ff19169055517f5f050f9a5025f89bf90611be48950430ca16255586d189fb5a14c411ddd44a7b9060039061283c9088908890613be7565b90815260405190819003602001812061285491614424565b60405180910390a150505050505050565b60606000826001600160401b03811115612881576128816132ba565b6040519080825280602002602001820160405280156128b457816020015b606081526020019060019003908161289f5790505b50905060005b838110156107ea576128e98585838181106128d7576128d7613bf7565b90506020028101906102319190613c79565b8282815181106128fb576128fb613bf7565b6020026020010181905250808061291190613c5e565b9150506128ba565b6000858585604051602001612930939291906144a5565b60405160208183030381529060405280519060200120905060008060005b600084815260056020526040902054811015612a0657856040516020016129759190613cd8565b60408051601f1981840301815291815281516020928301206000878152600590935291208054839081106129ab576129ab613bf7565b90600052602060002090600702016001016040516020016129cc9190613f28565b6040516020818303038152906040528051906020012014156129f45780925060019150612a06565b806129fe81613c5e565b91505061294e565b600182151514612a645760405162461bcd60e51b815260206004820152602360248201527f77726f6e672063726564656e7469616c732c20636f75727365206e6f7420666f6044820152621d5b9960ea1b60648201526084016115bb565b6000848152600560205260409020805484908110612a8457612a84613bf7565b600091825260209091206005600790920201015460ff1615612ae85760405162461bcd60e51b815260206004820152601d60248201527f7469636b6574732061726520616c72656164792067656e65726174656400000060448201526064016115bb565b600084815260056020526040902080546001919085908110612b0c57612b0c613bf7565b60009182526020822060079190910201600501805460ff19169215159290921790915590505b6000848152600560205260409020805484908110612b5257612b52613bf7565b906000526020600020906007020160040154811015612c0c576000428660095444604051602001612b8694939291906144dc565b60408051601f198184030181529190528051602090910120600980549192506000612bb083613c5e565b90915550506000858152600560205260409020805485908110612bd557612bd5613bf7565b6000918252602080832060066007909302019190910180546001810182559083529120015580612c0481613c5e565b915050612b32565b7f0aa509c398501987b09b5e8d6f21a19bf8a9d391fc11a6c17a1bb9093519a3d589898989600560008a81526020019081526020016000208881548110612c5557612c55613bf7565b9060005260206000209060070201600601604051612c7795949392919061450e565b60405180910390a1505050505050505050565b600081815260056020526040902054612cd45760078383604051612caf929190613be7565b9081526040516020918190038201902080546001810182556000918252919020018190555b505050565b6000868686868686604051602001612cf696959493929190613f4a565b60405160208183030381529060405280519060200120905060078787604051612d20929190613be7565b908152604051602091819003820190206001908101805491820181556000908152919091200155505050505050565b6040518060a0016040528060608152602001606081526020016060815260200160006001600160a01b03168152602001612d9c604051806040016040528060008152602001600081525090565b905290565b828054612dad90613c0d565b90600052602060002090601f016020900481019282612dcf5760008555612e15565b82601f10612de857805160ff1916838001178555612e15565b82800160010185558215612e15579182015b82811115612e15578251825591602001919060010190612dfa565b50612e21929150612ed3565b5090565b828054828255906000526020600020908101928215612e155791602002820182811115612e15578251825591602001919060010190612dfa565b828054612e6b90613c0d565b90600052602060002090601f016020900481019282612e8d5760008555612e15565b82601f10612ea65782800160ff19823516178555612e15565b82800160010185558215612e15579182015b82811115612e15578235825591602001919060010190612eb8565b5b80821115612e215760008155600101612ed4565b60008083601f840112612efa57600080fd5b5081356001600160401b03811115612f1157600080fd5b602083019150836020828501011115612f2957600080fd5b9250929050565b60008060208385031215612f4357600080fd5b82356001600160401b03811115612f5957600080fd5b612f6585828601612ee8565b90969095509350505050565b60005b83811015612f8c578181015183820152602001612f74565b83811115612f9b576000848401525b50505050565b60008151808452612fb9816020860160208601612f71565b601f01601f19169290920160200192915050565b60208152600060208201835180825260408401915060408160051b8501016020860160005b8381101561310e57868303603f19018552815180518085526020918201918086019190600582901b87010160005b828110156130f457601f198883030184528451805160a0845261304660a0850182612fa1565b90506020820151602085015260408201516040850152606082015184820360608601526130738282612fa1565b91505060808201519150838103608085015280825180835260208301915060208160051b84010160208501945060005b828110156130d457601f198583030184526130bf828751612fa1565b602096870196949094019391506001016130a3565b508096505050505050602085019450602084019350600181019050613020565b506020988901989096509490940193505050600101612ff2565b50909695505050505050565b6000806040838503121561312d57600080fd5b50508035926020909101359150565b60808152600061314f6080830187612fa1565b856020840152846040840152828103606084015261316d8185612fa1565b979650505050505050565b6000806020838503121561318b57600080fd5b82356001600160401b03808211156131a257600080fd5b818501915085601f8301126131b657600080fd5b8135818111156131c557600080fd5b8660208260051b85010111156131da57600080fd5b60209290920196919550909350505050565b60006020808301818452808551808352604092508286019150828160051b87010184880160005b838110156132ac57603f19898403018552815160c0815181865261323982870182612fa1565b915050888201518582038a8701526132518282612fa1565b91505087820151858203898701526132698282612fa1565b6060848101516001600160a01b031690880152608093840151805185890152602081015160a0890152939092509050509588019593505090860190600101613213565b509098975050505050505050565b634e487b7160e01b600052604160045260246000fd5b600082601f8301126132e157600080fd5b81356001600160401b03808211156132fb576132fb6132ba565b604051601f8301601f19908116603f01168101908282118183101715613323576133236132ba565b8160405283815286602085880101111561333c57600080fd5b836020870160208301376000602085830101528094505050505092915050565b60006020828403121561336e57600080fd5b81356001600160401b0381111561338457600080fd5b613390848285016132d0565b949350505050565b60c0815260006133ab60c0830188612fa1565b82810360208401526133bd8188612fa1565b905082810360408401526133d18187612fa1565b6001600160a01b038616606085015284516080850152602085015160a085015291506133fa9050565b9695505050505050565b600081518084526020808501808196506005915083821b810183870160005b868110156132ac578383038a5281518051808552908701908785019080881b8601890160005b8281101561350957601f19888303018452845160e0815181855261346f82860182612fa1565b9150508c8201518482038e8601526134878282612fa1565b60408481015190870152606080850151908701526080808501519087015260a08085015115159087015260c093840151868203948701949094528351808252938f019360009350908f0191505b808310156134f45783518252928e019260019290920191908e01906134d4565b50968d0196958d019593505050600101613449565b509c89019c955050509186019150600101613423565b6020815260006135326020830184613404565b9392505050565b60c08152600061354c60c0830189612fa1565b828103602084015261355e8189612fa1565b91505085604083015284606083015283608083015282151560a0830152979650505050505050565b60006020828403121561359857600080fd5b5035919050565b6000602080830181845280855180835260408601915060408160051b870101925083870160005b828110156135f457603f198886030184526135e2858351612fa1565b945092850192908501906001016135c6565b5092979650505050505050565b60006020828403121561361357600080fd5b81356001600160a01b038116811461353257600080fd5b6020815260006135326020830184612fa1565b60208152600060208201835180825260408401915060408160051b8501016020860160005b8381101561310e57868303603f19018552815180518085526020918201918086019190600582901b87010160005b828110156137af57878203601f19018452845180518084526020918201918085019190600582901b86010160005b8281101561379257601f198783030184528451805160a084526136e460a0850182612fa1565b90506020820151602085015260408201516040850152606082015184820360608601526137118282612fa1565b91505060808201519150838103608085015280825180835260208301915060208160051b84010160208501945060005b8281101561377257601f1985830301845261375d828751612fa1565b60209687019694909401939150600101613741565b5080965050505050506020850194506020840193506001810190506136be565b506020988901989790970196945050506001919091019050613690565b506020988901989096509490940193505050600101613662565b600081518084526020808501808196508360051b8101915082860160005b8581101561382757828403895281516040815181875261380982880182612fa1565b928801519688019690965250988501989350908401906001016137e7565b5091979650505050505050565b6000602080830181845280855180835260408601915060408160051b870101925083870160005b828110156135f457603f198886030184526138778583516137c9565b9450928501929085019060010161385b565b6000806000806040858703121561389f57600080fd5b84356001600160401b03808211156138b657600080fd5b6138c288838901612ee8565b909650945060208701359150808211156138db57600080fd5b506138e887828801612ee8565b95989497509550505050565b600080600080600080600080600060c08a8c03121561391257600080fd5b8935985060208a01356001600160401b038082111561393057600080fd5b61393c8d838e01612ee8565b909a50985060408c013591508082111561395557600080fd5b6139618d838e01612ee8565b909850965060608c013591508082111561397a57600080fd5b506139878c828d01612ee8565b9a9d999c50979a96999598959660808101359660a09091013595509350505050565b600080600080600085870360a08112156139c257600080fd5b86356001600160401b03808211156139d957600080fd5b6139e58a838b01612ee8565b9098509650602089013595508691506040603f1984011215613a0657600080fd5b6040890194506080890135925080831115613a2057600080fd5b5050860160a08189031215613a3457600080fd5b809150509295509295909350565b60208152600061353260208301846137c9565b60008060008060008060006080888a031215613a7057600080fd5b87356001600160401b0380821115613a8757600080fd5b613a938b838c01612ee8565b909950975060208a0135915080821115613aac57600080fd5b613ab88b838c01612ee8565b909750955060408a0135915080821115613ad157600080fd5b50613ade8a828b01612ee8565b989b979a50959894979596606090950135949350505050565b6000602080830181845280855180835260408601915060408160051b870101925083870160005b828110156135f457603f19888603018452613b3a858351613404565b94509285019290850190600101613b1e565b600080600080600060a08688031215613b6457600080fd5b85356001600160401b0380821115613b7b57600080fd5b613b8789838a016132d0565b965060208801359550604088013594506060880135915080821115613bab57600080fd5b613bb789838a016132d0565b93506080880135915080821115613bcd57600080fd5b50613bda888289016132d0565b9150509295509295909350565b8183823760009101908152919050565b634e487b7160e01b600052603260045260246000fd5b600181811c90821680613c2157607f821691505b60208210811415613c4257634e487b7160e01b600052602260045260246000fd5b50919050565b634e487b7160e01b600052601160045260246000fd5b6000600019821415613c7257613c72613c48565b5060010190565b6000808335601e19843603018112613c9057600080fd5b8301803591506001600160401b03821115613caa57600080fd5b602001915036819003821315612f2957600080fd5b600060208284031215613cd157600080fd5b5051919050565b60008251613cea818460208701612f71565b9190910192915050565b83858237600b60fa1b9301838152600181019290925260218201929092526022810191909152604201919050565b600082821015613d3457613d34613c48565b500390565b81835281816020850137506000828201602090810191909152601f909101601f19169091010190565b60008154613d6f81613c0d565b808552602060018381168015613d8c5760018114613da057613dce565b60ff19851688840152604088019550613dce565b866000528260002060005b85811015613dc65781548a8201860152908301908401613dab565b890184019650505b505050505092915050565b6000815480845260208085019450836000528060002060005b83811015613e0e57815487529582019560019182019101613df2565b509495945050505050565b606081526000613e2d606083018688613d39565b846020840152828103604084015260e08152613e4c60e0820185613d62565b8181036020830152613e618160018701613d62565b905060028501546040830152600385015460608301526004850154608083015260ff600586015416613e9760a084018215159052565b5081810360c0830152613ead8160068701613dd9565b98975050505050505050565b60008154613ec681613c0d565b60018281168015613ede5760018114613eef57613f1e565b60ff19841687528287019450613f1e565b8560005260208060002060005b85811015613f155781548a820152908401908201613efc565b50505082870194505b5050505092915050565b60006135328284613eb9565b634e487b7160e01b600052603160045260246000fd5b85878237600086820160008152600b60fa1b80825287600183015280602183015286602283015280604283015250838560438301376000930160430192835250909695505050505050565b5b81811015613faa5760008155600101613f96565b5050565b601f821115612cd457806000526020600020601f840160051c81016020851015613fd55750805b613fe7601f850160051c830182613f95565b5050505050565b6001600160401b03831115614005576140056132ba565b614019836140138354613c0d565b83613fae565b6000601f84116001811461404d57600085156140355750838201355b600019600387901b1c1916600186901b178355613fe7565b600083815260209020601f19861690835b8281101561407e578685013582556020948501946001909201910161405e565b508682101561409b5760001960f88860031b161c19848701351681555b505060018560011b0183555050505050565b6000808335601e198436030181126140c457600080fd5b8301803591506001600160401b038211156140de57600080fd5b6020019150600581901b3603821315612f2957600080fd5b6801000000000000000083111561410f5761410f6132ba565b805483825580841015614198576000828152602081208581019083015b808210156141945761413e8254613c0d565b801561418857601f8082116001811461415957858555614185565b60008581526020902061417683850160051c820160018301613f95565b50600085815260208120818755555b50505b5060018201915061412c565b5050505b5060008181526020812083915b858110156141d7576141b78386613c79565b6141c2818386613fee565b505060209290920191600191820191016141a5565b505050505050565b6141e98283613c79565b6141f4818385613fee565b505060208201356001820155604082013560028201556142176060830183613c79565b614225818360038601613fee565b50506080820135601e1983360301811261423e57600080fd5b820180356001600160401b0381111561425657600080fd5b6020820191508060051b360382131561426e57600080fd5b612f9b8183600486016140f6565b604081526000614290604083018587613d39565b60208382038185015260a082526142aa60a0830186613d62565b600180870154838501526002870154604085015283820360608501526142d38260038901613d62565b915060048701848303608086015282945080548084528484019550848160051b8501018260005285600020925060005b8281101561432f57858203601f1901885261431e8285613d62565b978701979385019391508401614303565b509b9a5050505050505050505050565b83858237600b60fa1b81850190815260009083856001830137600093016001019283525090949350505050565b604081526000614380604083018587613d39565b82810360208401526133fa81856137c9565b6060815260006143a6606083018587613d39565b90508235602083015260208301356040830152949350505050565b6000826143de57634e487b7160e01b600052601260045260246000fd5b500490565b6000602082840312156143f557600080fd5b8151801515811461353257600080fd5b82848237600b60fa1b8184019081526000906133fa6001820185613eb9565b6020815260c06020820152600061443e60e0830184613d62565b601f19808483030160408501526144588260018701613d62565b915080848303016060850152506144728160028601613d62565b60038501546001600160a01b03166080850152600485015460a085015260059094015460c0909301929092525090919050565b600084516144b7818460208901612f71565b600b60fa1b920182815260018101949094525060218301526022820152604201919050565b848152600084516144f4816020850160208901612f71565b909101602081019390935250604082015260600192915050565b60a08152600061452160a0830188612fa1565b866020840152856040840152828103606084015261453f8186612fa1565b90508281036080840152613ead8185613dd956fea2646970667358221220d129b0ccd5d92f6cd16b6798a758fcc4c8837cbf75ec53011d42c2fcb4eada1f64736f6c634300080b0033",
  "immutableReferences": {},
  "source": "// SPDX-License-Identifier: MIT\npragma solidity >=0.4.21 <8.10.0;\n\nimport \"./Utils.sol\";\nimport \"./BHUToken.sol\";\n\ncontract FeedbackData {\n    string[] public facultySkills = [\n        \"Diversity\",\n        \"Communication\",\n        \"Procedures\",\n        \"Philosophy\",\n        \"StudentLearning\"\n    ];\n    Utils public util;\n\n    struct Feedback {\n        string code;\n        uint256 semester; // 0 for even and 1 for odd\n        uint256 year;\n        string content;\n        string[] skills;\n    }\n\n    struct Float {\n        uint256 preDecimal;\n        uint256 postDecimal;\n    }\n\n    struct Course {\n        string name;\n        string code;\n        uint256 semester; // 0 for even and 1 for odd\n        uint256 year;\n        uint256 studentCount;\n        bool ticketGenerated;\n        bytes32[] tickets;\n    }\n\n    struct SkillsUpvoteCount {\n        string name;\n        uint256 count;\n    }\n\n    struct Professor {\n        string name;\n        string email;\n        string profilePicture;\n        address addressId;\n        Float rating;\n    }\n\n    struct ProfessorCreds_Key {\n        bytes32[] courses;\n        bytes32[] feedbacks;\n    }\n\n    string[] public emails;\n\n    mapping(string => Professor) public professorDetail;\n    mapping(bytes32 => uint256) public skillsCount; // email+skill\n\n    //TODO change formate of prof skill upvotes\n\n    mapping(bytes32 => Course[]) public courses; // email+year+sem\n    mapping(bytes32 => Feedback[]) public feedbacks; // email+year+sem+course_code\n\n    mapping(string => ProfessorCreds_Key) private profCred_Keys;\n    mapping(bytes32 => bool) public _keysForProfReg;\n\n    uint256 private counterForProfReg;\n    bytes32 private adminPassword;\n    BHUToken private bhuToken;\n    uint256 public earlyFeedbackCost = 5e18;\n    uint256 public lateFeedbackCost = 3e18;\n\n    constructor(string memory adminKey, address _bhuToken) {\n        counterForProfReg = uint256(\n            keccak256(abi.encodePacked(block.difficulty, block.timestamp))\n        );\n        adminPassword = keccak256(abi.encodePacked(adminKey));\n        bhuToken = BHUToken(_bhuToken);\n    }\n\n    event professorCreated(Professor professor);\n    event courseUpdated(string email, uint256 year, Course course);\n    event tokenGenerated(bytes32 token);\n    event ticketGenerated(\n        string email,\n        uint256 year,\n        uint256 sem,\n        string code,\n        bytes32[] tickets\n    );\n    event feedbackSubmitted(string email, Feedback feedback);\n    event skillsUpvoted(string email, SkillsUpvoteCount[] skills);\n    event ratingUpdated(string email, Float rating);\n    event balanceUpdated(address account, uint256 balance);\n    event passwordUpdated(bool success);\n\n    function generateTokenForProfReg(string memory adminKey) public {\n        require(\n            keccak256(abi.encodePacked(adminKey)) == adminPassword,\n            \"invalid password\"\n        );\n        counterForProfReg++;\n        bytes32 id = keccak256(\n            abi.encodePacked(block.timestamp, counterForProfReg)\n        );\n        _keysForProfReg[id] = true;\n        emit tokenGenerated(id);\n    }\n\n    function checkBalance(address _address) public view returns (uint256) {\n        return bhuToken.balanceOf(_address);\n    }\n\n    function updatePassword(\n        string calldata oldPassword,\n        string calldata newPassword\n    ) public {\n        require(\n            keccak256(abi.encodePacked(oldPassword)) == adminPassword,\n            \"invalid old password\"\n        );\n        adminPassword = keccak256(abi.encodePacked(newPassword));\n        emit passwordUpdated(true);\n    }\n\n    function getFacultySkills() public view returns (string[] memory) {\n        return facultySkills;\n    }\n\n    function createProfessor(\n        string calldata name,\n        string calldata email,\n        string calldata profilePicture,\n        bytes32 secret\n    ) public {\n        require(\n            bytes(name).length > 0,\n            \"Name can not be blank during professor creation\"\n        );\n        require(\n            bytes(email).length > 0,\n            \"Email can not be blank during professor creation\"\n        );\n        require(msg.sender != address(0 * 0), \"user address should exist\");\n        require(_keysForProfReg[secret] == true, \"provide valid secret\");\n\n        professorDetail[email] = Professor({\n            name: name,\n            email: email,\n            addressId: msg.sender,\n            profilePicture: profilePicture,\n            rating: Float(0, 0)\n        });\n\n        emails.push(email);\n\n        _keysForProfReg[secret] = false;\n\n        emit professorCreated(professorDetail[email]);\n    }\n\n    function getProfessorIds() public view returns (string[] memory) {\n        return emails;\n    }\n\n    function getProfessorsDetailsByIds(string[] calldata ids)\n        public\n        view\n        returns (Professor[] memory)\n    {\n        Professor[] memory _professorList = new Professor[](ids.length);\n\n        for (uint256 i = 0; i < ids.length; i++) {\n            _professorList[i] = professorDetail[ids[i]];\n        }\n\n        return _professorList;\n    }\n\n    function getFeedbacks(string calldata _email)\n        public\n        view\n        returns (Feedback[][] memory)\n    {\n        Feedback[][] memory _feedbacks = new Feedback[][](\n            profCred_Keys[_email].feedbacks.length\n        );\n        for (uint256 i = 0; i < profCred_Keys[_email].feedbacks.length; i++) {\n            _feedbacks[i] = feedbacks[profCred_Keys[_email].feedbacks[i]];\n        }\n        return _feedbacks;\n    }\n\n    function getFeedbacksByEmails(string[] calldata _emails)\n        public\n        view\n        returns (Feedback[][][] memory)\n    {\n        Feedback[][][] memory _feedbacks = new Feedback[][][](_emails.length);\n        for (uint256 i = 0; i < _emails.length; i++) {\n            _feedbacks[i] = getFeedbacks(_emails[i]);\n        }\n        return _feedbacks;\n    }\n\n    function getCourses(string calldata _email)\n        public\n        view\n        returns (Course[][] memory)\n    {\n        Course[][] memory _courses = new Course[][](\n            profCred_Keys[_email].courses.length\n        );\n        for (uint256 i = 0; i < profCred_Keys[_email].courses.length; i++) {\n            _courses[i] = courses[profCred_Keys[_email].courses[i]];\n        }\n\n        return _courses;\n    }\n\n    function getCoursesByEmails(string[] calldata _emails)\n        public\n        view\n        returns (Course[][][] memory)\n    {\n        Course[][][] memory _courses = new Course[][][](_emails.length);\n        for (uint256 i = 0; i < _emails.length; i++) {\n            _courses[i] = getCourses(_emails[i]);\n        }\n        return _courses;\n    }\n\n    function getSkillsUpvote(string calldata _email)\n        public\n        view\n        returns (SkillsUpvoteCount[] memory)\n    {\n        SkillsUpvoteCount[] memory skillUpvotes = new SkillsUpvoteCount[](\n            facultySkills.length\n        );\n        for (uint256 i = 0; i < facultySkills.length; i++) {\n            bytes32 _key = keccak256(\n                abi.encodePacked(_email, \",\", facultySkills[i])\n            );\n            skillUpvotes[i] = SkillsUpvoteCount({\n                name: facultySkills[i],\n                count: skillsCount[_key]\n            });\n        }\n\n        return skillUpvotes;\n    }\n\n    function getSkillsUpvotesByEmails(string[] calldata _emails)\n        public\n        view\n        returns (SkillsUpvoteCount[][] memory)\n    {\n        SkillsUpvoteCount[][] memory skillUpvotes = new SkillsUpvoteCount[][](\n            _emails.length\n        );\n        for (uint256 i = 0; i < _emails.length; i++) {\n            skillUpvotes[i] = getSkillsUpvote(_emails[i]);\n        }\n        return skillUpvotes;\n    }\n\n    function addCourse(\n        uint256 _year,\n        string calldata _email,\n        string calldata _name,\n        string calldata _code,\n        uint256 _sem,\n        uint256 _studentCount\n    ) public {\n        // uint _year = util.getYear(block.timestamp);\n\n        Course memory _course = Course({\n            name: _name,\n            code: _code,\n            year: _year,\n            semester: _sem,\n            studentCount: _studentCount,\n            ticketGenerated: false,\n            tickets: new bytes32[](0)\n        });\n\n        bytes32 __key = keccak256(\n            abi.encodePacked(_email, \",\", _year, \",\", _sem)\n        );\n\n        addCourseKey(_email, __key);\n        addfeedbackKey(_email, _year, _sem, _code);\n\n        courses[__key].push(_course);\n        emit courseUpdated(\n            _email,\n            _year,\n            courses[__key][courses[__key].length - 1]\n        );\n    }\n\n    function addCourseKey(string calldata email, bytes32 __key) private {\n        if (courses[__key].length == 0) {\n            profCred_Keys[email].courses.push(__key);\n        }\n    }\n\n    function addfeedbackKey(\n        string calldata _email,\n        uint256 _year,\n        uint256 _sem,\n        string calldata _code\n    ) private {\n        bytes32 __key = keccak256(\n            abi.encodePacked(_email, \",\", _year, \",\", _sem, \",\", _code)\n        );\n        profCred_Keys[_email].feedbacks.push(__key);\n    }\n\n    event test(bool);\n\n    function generateTickets(\n        string memory _email,\n        uint256 _year,\n        uint256 _sem,\n        string memory _code,\n        string memory _seed\n    ) public {\n        bytes32 _key = keccak256(\n            abi.encodePacked(_email, \",\", _year, \",\", _sem)\n        );\n        uint256 coursePos = 0;\n        bool courseFound = false;\n        uint256 i = 0;\n        for (; i < courses[_key].length; i++) {\n            if (\n                keccak256(abi.encodePacked(courses[_key][i].code)) ==\n                keccak256(abi.encodePacked(_code))\n            ) {\n                coursePos = i;\n                courseFound = true;\n                break;\n            }\n        }\n\n        require(courseFound == true, \"wrong credentials, course not found\");\n        require(\n            courses[_key][coursePos].ticketGenerated == false,\n            \"tickets are already generated\"\n        );\n\n        courses[_key][coursePos].ticketGenerated = true;\n        i = 0;\n        for (; i < courses[_key][coursePos].studentCount; i++) {\n            bytes32 ticket = keccak256(\n                abi.encodePacked(\n                    block.timestamp,\n                    _seed,\n                    counterForProfReg,\n                    block.difficulty\n                )\n            );\n            counterForProfReg++;\n            courses[_key][coursePos].tickets.push(ticket);\n        }\n\n        emit ticketGenerated(\n            _email,\n            _year,\n            _sem,\n            _code,\n            courses[_key][coursePos].tickets\n        );\n    }\n\n    function submitFeedback(\n        string calldata _email,\n        bytes32 _ticket,\n        Float calldata updatedRating,\n        Feedback calldata _feedback\n    ) public {\n        bytes32 course_Key = keccak256(\n            abi.encodePacked(\n                _email,\n                \",\",\n                _feedback.year,\n                \",\",\n                _feedback.semester\n            )\n        );\n        uint256 coursePos = 0;\n        bool found = false;\n        for (; coursePos < courses[course_Key].length; coursePos++) {\n            if (\n                keccak256(\n                    abi.encodePacked(courses[course_Key][coursePos].code)\n                ) == keccak256(abi.encodePacked(_feedback.code))\n            ) {\n                found = true;\n                break;\n            }\n        }\n        if (found == false) {\n            revert(\"Course not found, invalid course detail\");\n        }\n\n        found = false;\n        uint256 ticketPos = 0;\n        uint256 ticketsLen = courses[course_Key][coursePos].tickets.length;\n        for (; ticketPos < ticketsLen; ticketPos++) {\n            if (courses[course_Key][coursePos].tickets[ticketPos] == _ticket) {\n                found = true;\n                break;\n            }\n        }\n\n        if (found == false) revert(\"TxN Error: Invalid ticket\");\n\n        courses[course_Key][coursePos].tickets[ticketPos] = courses[course_Key][\n            coursePos\n        ].tickets[ticketsLen - 1];\n        courses[course_Key][coursePos].tickets.pop();\n\n        bytes32 _feedback_Key = keccak256(\n            abi.encodePacked(\n                _email,\n                \",\",\n                _feedback.year,\n                \",\",\n                _feedback.semester,\n                \",\",\n                _feedback.code\n            )\n        );\n\n        feedbacks[_feedback_Key].push(_feedback);\n        uint256 feedbackLen = feedbacks[_feedback_Key].length;\n\n        emit feedbackSubmitted(\n            _email,\n            feedbacks[_feedback_Key][feedbackLen - 1]\n        );\n\n        for (uint256 j = 0; j < _feedback.skills.length; j++) {\n            bytes32 skill_Key = keccak256(\n                abi.encodePacked(_email, \",\", _feedback.skills[j])\n            );\n            skillsCount[skill_Key]++;\n        }\n\n        emit skillsUpvoted(_email, getSkillsUpvote(_email));\n\n        professorDetail[_email].rating = updatedRating;\n        emit ratingUpdated(_email, updatedRating);\n\n        uint256 percentage = 3;\n        if (\n            courses[course_Key][coursePos].studentCount <= 3 ||\n            feedbackLen <=\n            (courses[course_Key][coursePos].studentCount / percentage)\n        ) bhuToken.transfer(msg.sender, earlyFeedbackCost);\n        else bhuToken.transfer(msg.sender, lateFeedbackCost);\n        emit balanceUpdated(msg.sender, bhuToken.balanceOf(msg.sender));\n    }\n}\n",
  "sourcePath": "/home/kishan/Desktop/projects/feedback-dapp/contracts/FeedbackData.sol",
  "compiler": {
    "name": "solc",
    "version": "0.8.11+commit.d7f03943.Emscripten.clang"
  },
  "schemaVersion": "3.4.6",
  "updatedAt": "2022-04-03T13:29:57.894Z",
  "networkType": "ethereum",
  "devdoc": {
    "kind": "dev",
    "methods": {},
    "version": 1
  },
  "userdoc": {
    "kind": "user",
    "methods": {},
    "version": 1
  }
}