{
  "contractName": "FeedbackData",
  "abi": [
    {
      "inputs": [
        {
          "internalType": "string",
          "name": "adminKey",
          "type": "string"
        },
        {
          "internalType": "address",
          "name": "_bhuToken",
          "type": "address"
        }
      ],
      "stateMutability": "nonpayable",
      "type": "constructor"
    },
    {
      "anonymous": false,
      "inputs": [
        {
          "indexed": false,
          "internalType": "address",
          "name": "account",
          "type": "address"
        },
        {
          "indexed": false,
          "internalType": "uint256",
          "name": "balance",
          "type": "uint256"
        }
      ],
      "name": "balanceUpdated",
      "type": "event"
    },
    {
      "anonymous": false,
      "inputs": [
        {
          "indexed": false,
          "internalType": "string",
          "name": "email",
          "type": "string"
        },
        {
          "indexed": false,
          "internalType": "uint256",
          "name": "year",
          "type": "uint256"
        },
        {
          "components": [
            {
              "internalType": "string",
              "name": "name",
              "type": "string"
            },
            {
              "internalType": "string",
              "name": "code",
              "type": "string"
            },
            {
              "internalType": "uint256",
              "name": "semester",
              "type": "uint256"
            },
            {
              "internalType": "uint256",
              "name": "year",
              "type": "uint256"
            },
            {
              "internalType": "uint256",
              "name": "studentCount",
              "type": "uint256"
            },
            {
              "internalType": "bool",
              "name": "ticketGenerated",
              "type": "bool"
            },
            {
              "internalType": "bytes32[]",
              "name": "tickets",
              "type": "bytes32[]"
            }
          ],
          "indexed": false,
          "internalType": "struct FeedbackData.Course",
          "name": "course",
          "type": "tuple"
        }
      ],
      "name": "courseUpdated",
      "type": "event"
    },
    {
      "anonymous": false,
      "inputs": [
        {
          "indexed": false,
          "internalType": "string",
          "name": "email",
          "type": "string"
        },
        {
          "components": [
            {
              "internalType": "string",
              "name": "code",
              "type": "string"
            },
            {
              "internalType": "uint256",
              "name": "semester",
              "type": "uint256"
            },
            {
              "internalType": "uint256",
              "name": "year",
              "type": "uint256"
            },
            {
              "internalType": "string",
              "name": "content",
              "type": "string"
            },
            {
              "internalType": "string[]",
              "name": "skills",
              "type": "string[]"
            }
          ],
          "indexed": false,
          "internalType": "struct FeedbackData.Feedback",
          "name": "feedback",
          "type": "tuple"
        }
      ],
      "name": "feedbackSubmitted",
      "type": "event"
    },
    {
      "anonymous": false,
      "inputs": [
        {
          "indexed": false,
          "internalType": "bool",
          "name": "success",
          "type": "bool"
        }
      ],
      "name": "passwordUpdated",
      "type": "event"
    },
    {
      "anonymous": false,
      "inputs": [
        {
          "components": [
            {
              "internalType": "string",
              "name": "name",
              "type": "string"
            },
            {
              "internalType": "string",
              "name": "email",
              "type": "string"
            },
            {
              "internalType": "string",
              "name": "profilePicture",
              "type": "string"
            },
            {
              "internalType": "address",
              "name": "addressId",
              "type": "address"
            },
            {
              "components": [
                {
                  "internalType": "uint256",
                  "name": "preDecimal",
                  "type": "uint256"
                },
                {
                  "internalType": "uint256",
                  "name": "postDecimal",
                  "type": "uint256"
                }
              ],
              "internalType": "struct FeedbackData.Float",
              "name": "rating",
              "type": "tuple"
            }
          ],
          "indexed": false,
          "internalType": "struct FeedbackData.Professor",
          "name": "professor",
          "type": "tuple"
        }
      ],
      "name": "professorCreated",
      "type": "event"
    },
    {
      "anonymous": false,
      "inputs": [
        {
          "indexed": false,
          "internalType": "string",
          "name": "email",
          "type": "string"
        },
        {
          "components": [
            {
              "internalType": "uint256",
              "name": "preDecimal",
              "type": "uint256"
            },
            {
              "internalType": "uint256",
              "name": "postDecimal",
              "type": "uint256"
            }
          ],
          "indexed": false,
          "internalType": "struct FeedbackData.Float",
          "name": "rating",
          "type": "tuple"
        }
      ],
      "name": "ratingUpdated",
      "type": "event"
    },
    {
      "anonymous": false,
      "inputs": [
        {
          "indexed": false,
          "internalType": "string",
          "name": "email",
          "type": "string"
        },
        {
          "components": [
            {
              "internalType": "string",
              "name": "name",
              "type": "string"
            },
            {
              "internalType": "uint256",
              "name": "count",
              "type": "uint256"
            }
          ],
          "indexed": false,
          "internalType": "struct FeedbackData.SkillsUpvoteCount[]",
          "name": "skills",
          "type": "tuple[]"
        }
      ],
      "name": "skillsUpvoted",
      "type": "event"
    },
    {
      "anonymous": false,
      "inputs": [
        {
          "indexed": false,
          "internalType": "bool",
          "name": "",
          "type": "bool"
        }
      ],
      "name": "test",
      "type": "event"
    },
    {
      "anonymous": false,
      "inputs": [
        {
          "indexed": false,
          "internalType": "string",
          "name": "email",
          "type": "string"
        },
        {
          "indexed": false,
          "internalType": "uint256",
          "name": "year",
          "type": "uint256"
        },
        {
          "indexed": false,
          "internalType": "uint256",
          "name": "sem",
          "type": "uint256"
        },
        {
          "indexed": false,
          "internalType": "string",
          "name": "code",
          "type": "string"
        },
        {
          "indexed": false,
          "internalType": "bytes32[]",
          "name": "tickets",
          "type": "bytes32[]"
        }
      ],
      "name": "ticketGenerated",
      "type": "event"
    },
    {
      "anonymous": false,
      "inputs": [
        {
          "indexed": false,
          "internalType": "bytes32",
          "name": "token",
          "type": "bytes32"
        }
      ],
      "name": "tokenGenerated",
      "type": "event"
    },
    {
      "inputs": [
        {
          "internalType": "bytes32",
          "name": "",
          "type": "bytes32"
        }
      ],
      "name": "_keysForProfReg",
      "outputs": [
        {
          "internalType": "bool",
          "name": "",
          "type": "bool"
        }
      ],
      "stateMutability": "view",
      "type": "function",
      "constant": true
    },
    {
      "inputs": [
        {
          "internalType": "bytes32",
          "name": "",
          "type": "bytes32"
        },
        {
          "internalType": "uint256",
          "name": "",
          "type": "uint256"
        }
      ],
      "name": "courses",
      "outputs": [
        {
          "internalType": "string",
          "name": "name",
          "type": "string"
        },
        {
          "internalType": "string",
          "name": "code",
          "type": "string"
        },
        {
          "internalType": "uint256",
          "name": "semester",
          "type": "uint256"
        },
        {
          "internalType": "uint256",
          "name": "year",
          "type": "uint256"
        },
        {
          "internalType": "uint256",
          "name": "studentCount",
          "type": "uint256"
        },
        {
          "internalType": "bool",
          "name": "ticketGenerated",
          "type": "bool"
        }
      ],
      "stateMutability": "view",
      "type": "function",
      "constant": true
    },
    {
      "inputs": [],
      "name": "earlyFeedbackCost",
      "outputs": [
        {
          "internalType": "uint256",
          "name": "",
          "type": "uint256"
        }
      ],
      "stateMutability": "view",
      "type": "function",
      "constant": true
    },
    {
      "inputs": [
        {
          "internalType": "uint256",
          "name": "",
          "type": "uint256"
        }
      ],
      "name": "emails",
      "outputs": [
        {
          "internalType": "string",
          "name": "",
          "type": "string"
        }
      ],
      "stateMutability": "view",
      "type": "function",
      "constant": true
    },
    {
      "inputs": [
        {
          "internalType": "uint256",
          "name": "",
          "type": "uint256"
        }
      ],
      "name": "facultySkills",
      "outputs": [
        {
          "internalType": "string",
          "name": "",
          "type": "string"
        }
      ],
      "stateMutability": "view",
      "type": "function",
      "constant": true
    },
    {
      "inputs": [
        {
          "internalType": "bytes32",
          "name": "",
          "type": "bytes32"
        },
        {
          "internalType": "uint256",
          "name": "",
          "type": "uint256"
        }
      ],
      "name": "feedbacks",
      "outputs": [
        {
          "internalType": "string",
          "name": "code",
          "type": "string"
        },
        {
          "internalType": "uint256",
          "name": "semester",
          "type": "uint256"
        },
        {
          "internalType": "uint256",
          "name": "year",
          "type": "uint256"
        },
        {
          "internalType": "string",
          "name": "content",
          "type": "string"
        }
      ],
      "stateMutability": "view",
      "type": "function",
      "constant": true
    },
    {
      "inputs": [],
      "name": "lateFeedbackCost",
      "outputs": [
        {
          "internalType": "uint256",
          "name": "",
          "type": "uint256"
        }
      ],
      "stateMutability": "view",
      "type": "function",
      "constant": true
    },
    {
      "inputs": [
        {
          "internalType": "string",
          "name": "",
          "type": "string"
        }
      ],
      "name": "professorDetail",
      "outputs": [
        {
          "internalType": "string",
          "name": "name",
          "type": "string"
        },
        {
          "internalType": "string",
          "name": "email",
          "type": "string"
        },
        {
          "internalType": "string",
          "name": "profilePicture",
          "type": "string"
        },
        {
          "internalType": "address",
          "name": "addressId",
          "type": "address"
        },
        {
          "components": [
            {
              "internalType": "uint256",
              "name": "preDecimal",
              "type": "uint256"
            },
            {
              "internalType": "uint256",
              "name": "postDecimal",
              "type": "uint256"
            }
          ],
          "internalType": "struct FeedbackData.Float",
          "name": "rating",
          "type": "tuple"
        }
      ],
      "stateMutability": "view",
      "type": "function",
      "constant": true
    },
    {
      "inputs": [
        {
          "internalType": "bytes32",
          "name": "",
          "type": "bytes32"
        }
      ],
      "name": "skillsCount",
      "outputs": [
        {
          "internalType": "uint256",
          "name": "",
          "type": "uint256"
        }
      ],
      "stateMutability": "view",
      "type": "function",
      "constant": true
    },
    {
      "inputs": [],
      "name": "util",
      "outputs": [
        {
          "internalType": "contract Utils",
          "name": "",
          "type": "address"
        }
      ],
      "stateMutability": "view",
      "type": "function",
      "constant": true
    },
    {
      "inputs": [
        {
          "internalType": "string",
          "name": "adminKey",
          "type": "string"
        }
      ],
      "name": "generateTokenForProfReg",
      "outputs": [],
      "stateMutability": "nonpayable",
      "type": "function"
    },
    {
      "inputs": [
        {
          "internalType": "address",
          "name": "_address",
          "type": "address"
        }
      ],
      "name": "checkBalance",
      "outputs": [
        {
          "internalType": "uint256",
          "name": "",
          "type": "uint256"
        }
      ],
      "stateMutability": "view",
      "type": "function",
      "constant": true
    },
    {
      "inputs": [
        {
          "internalType": "string",
          "name": "oldPassword",
          "type": "string"
        },
        {
          "internalType": "string",
          "name": "newPassword",
          "type": "string"
        }
      ],
      "name": "updatePassword",
      "outputs": [],
      "stateMutability": "nonpayable",
      "type": "function"
    },
    {
      "inputs": [],
      "name": "getFacultySkills",
      "outputs": [
        {
          "internalType": "string[]",
          "name": "",
          "type": "string[]"
        }
      ],
      "stateMutability": "view",
      "type": "function",
      "constant": true
    },
    {
      "inputs": [
        {
          "internalType": "string",
          "name": "name",
          "type": "string"
        },
        {
          "internalType": "string",
          "name": "email",
          "type": "string"
        },
        {
          "internalType": "string",
          "name": "profilePicture",
          "type": "string"
        },
        {
          "internalType": "bytes32",
          "name": "secret",
          "type": "bytes32"
        }
      ],
      "name": "createProfessor",
      "outputs": [],
      "stateMutability": "nonpayable",
      "type": "function"
    },
    {
      "inputs": [],
      "name": "getProfessorIds",
      "outputs": [
        {
          "internalType": "string[]",
          "name": "",
          "type": "string[]"
        }
      ],
      "stateMutability": "view",
      "type": "function",
      "constant": true
    },
    {
      "inputs": [
        {
          "internalType": "string[]",
          "name": "ids",
          "type": "string[]"
        }
      ],
      "name": "getProfessorsDetailsByIds",
      "outputs": [
        {
          "components": [
            {
              "internalType": "string",
              "name": "name",
              "type": "string"
            },
            {
              "internalType": "string",
              "name": "email",
              "type": "string"
            },
            {
              "internalType": "string",
              "name": "profilePicture",
              "type": "string"
            },
            {
              "internalType": "address",
              "name": "addressId",
              "type": "address"
            },
            {
              "components": [
                {
                  "internalType": "uint256",
                  "name": "preDecimal",
                  "type": "uint256"
                },
                {
                  "internalType": "uint256",
                  "name": "postDecimal",
                  "type": "uint256"
                }
              ],
              "internalType": "struct FeedbackData.Float",
              "name": "rating",
              "type": "tuple"
            }
          ],
          "internalType": "struct FeedbackData.Professor[]",
          "name": "",
          "type": "tuple[]"
        }
      ],
      "stateMutability": "view",
      "type": "function",
      "constant": true
    },
    {
      "inputs": [
        {
          "internalType": "string",
          "name": "_email",
          "type": "string"
        }
      ],
      "name": "getFeedbacks",
      "outputs": [
        {
          "components": [
            {
              "internalType": "string",
              "name": "code",
              "type": "string"
            },
            {
              "internalType": "uint256",
              "name": "semester",
              "type": "uint256"
            },
            {
              "internalType": "uint256",
              "name": "year",
              "type": "uint256"
            },
            {
              "internalType": "string",
              "name": "content",
              "type": "string"
            },
            {
              "internalType": "string[]",
              "name": "skills",
              "type": "string[]"
            }
          ],
          "internalType": "struct FeedbackData.Feedback[][]",
          "name": "",
          "type": "tuple[][]"
        }
      ],
      "stateMutability": "view",
      "type": "function",
      "constant": true
    },
    {
      "inputs": [
        {
          "internalType": "string[]",
          "name": "_emails",
          "type": "string[]"
        }
      ],
      "name": "getFeedbacksByEmails",
      "outputs": [
        {
          "components": [
            {
              "internalType": "string",
              "name": "code",
              "type": "string"
            },
            {
              "internalType": "uint256",
              "name": "semester",
              "type": "uint256"
            },
            {
              "internalType": "uint256",
              "name": "year",
              "type": "uint256"
            },
            {
              "internalType": "string",
              "name": "content",
              "type": "string"
            },
            {
              "internalType": "string[]",
              "name": "skills",
              "type": "string[]"
            }
          ],
          "internalType": "struct FeedbackData.Feedback[][][]",
          "name": "",
          "type": "tuple[][][]"
        }
      ],
      "stateMutability": "view",
      "type": "function",
      "constant": true
    },
    {
      "inputs": [
        {
          "internalType": "string",
          "name": "_email",
          "type": "string"
        }
      ],
      "name": "getCourses",
      "outputs": [
        {
          "components": [
            {
              "internalType": "string",
              "name": "name",
              "type": "string"
            },
            {
              "internalType": "string",
              "name": "code",
              "type": "string"
            },
            {
              "internalType": "uint256",
              "name": "semester",
              "type": "uint256"
            },
            {
              "internalType": "uint256",
              "name": "year",
              "type": "uint256"
            },
            {
              "internalType": "uint256",
              "name": "studentCount",
              "type": "uint256"
            },
            {
              "internalType": "bool",
              "name": "ticketGenerated",
              "type": "bool"
            },
            {
              "internalType": "bytes32[]",
              "name": "tickets",
              "type": "bytes32[]"
            }
          ],
          "internalType": "struct FeedbackData.Course[][]",
          "name": "",
          "type": "tuple[][]"
        }
      ],
      "stateMutability": "view",
      "type": "function",
      "constant": true
    },
    {
      "inputs": [
        {
          "internalType": "string[]",
          "name": "_emails",
          "type": "string[]"
        }
      ],
      "name": "getCoursesByEmails",
      "outputs": [
        {
          "components": [
            {
              "internalType": "string",
              "name": "name",
              "type": "string"
            },
            {
              "internalType": "string",
              "name": "code",
              "type": "string"
            },
            {
              "internalType": "uint256",
              "name": "semester",
              "type": "uint256"
            },
            {
              "internalType": "uint256",
              "name": "year",
              "type": "uint256"
            },
            {
              "internalType": "uint256",
              "name": "studentCount",
              "type": "uint256"
            },
            {
              "internalType": "bool",
              "name": "ticketGenerated",
              "type": "bool"
            },
            {
              "internalType": "bytes32[]",
              "name": "tickets",
              "type": "bytes32[]"
            }
          ],
          "internalType": "struct FeedbackData.Course[][][]",
          "name": "",
          "type": "tuple[][][]"
        }
      ],
      "stateMutability": "view",
      "type": "function",
      "constant": true
    },
    {
      "inputs": [
        {
          "internalType": "string",
          "name": "_email",
          "type": "string"
        }
      ],
      "name": "getSkillsUpvote",
      "outputs": [
        {
          "components": [
            {
              "internalType": "string",
              "name": "name",
              "type": "string"
            },
            {
              "internalType": "uint256",
              "name": "count",
              "type": "uint256"
            }
          ],
          "internalType": "struct FeedbackData.SkillsUpvoteCount[]",
          "name": "",
          "type": "tuple[]"
        }
      ],
      "stateMutability": "view",
      "type": "function",
      "constant": true
    },
    {
      "inputs": [
        {
          "internalType": "string[]",
          "name": "_emails",
          "type": "string[]"
        }
      ],
      "name": "getSkillsUpvotesByEmails",
      "outputs": [
        {
          "components": [
            {
              "internalType": "string",
              "name": "name",
              "type": "string"
            },
            {
              "internalType": "uint256",
              "name": "count",
              "type": "uint256"
            }
          ],
          "internalType": "struct FeedbackData.SkillsUpvoteCount[][]",
          "name": "",
          "type": "tuple[][]"
        }
      ],
      "stateMutability": "view",
      "type": "function",
      "constant": true
    },
    {
      "inputs": [
        {
          "internalType": "uint256",
          "name": "_year",
          "type": "uint256"
        },
        {
          "internalType": "string",
          "name": "_email",
          "type": "string"
        },
        {
          "internalType": "string",
          "name": "_name",
          "type": "string"
        },
        {
          "internalType": "string",
          "name": "_code",
          "type": "string"
        },
        {
          "internalType": "uint256",
          "name": "_sem",
          "type": "uint256"
        },
        {
          "internalType": "uint256",
          "name": "_studentCount",
          "type": "uint256"
        }
      ],
      "name": "addCourse",
      "outputs": [],
      "stateMutability": "nonpayable",
      "type": "function"
    },
    {
      "inputs": [
        {
          "internalType": "string",
          "name": "_email",
          "type": "string"
        },
        {
          "internalType": "uint256",
          "name": "_year",
          "type": "uint256"
        },
        {
          "internalType": "uint256",
          "name": "_sem",
          "type": "uint256"
        },
        {
          "internalType": "string",
          "name": "_code",
          "type": "string"
        },
        {
          "internalType": "string",
          "name": "_seed",
          "type": "string"
        }
      ],
      "name": "generateTickets",
      "outputs": [],
      "stateMutability": "nonpayable",
      "type": "function"
    },
    {
      "inputs": [
        {
          "internalType": "string",
          "name": "_email",
          "type": "string"
        },
        {
          "internalType": "bytes32",
          "name": "_ticket",
          "type": "bytes32"
        },
        {
          "components": [
            {
              "internalType": "uint256",
              "name": "preDecimal",
              "type": "uint256"
            },
            {
              "internalType": "uint256",
              "name": "postDecimal",
              "type": "uint256"
            }
          ],
          "internalType": "struct FeedbackData.Float",
          "name": "updatedRating",
          "type": "tuple"
        },
        {
          "components": [
            {
              "internalType": "string",
              "name": "code",
              "type": "string"
            },
            {
              "internalType": "uint256",
              "name": "semester",
              "type": "uint256"
            },
            {
              "internalType": "uint256",
              "name": "year",
              "type": "uint256"
            },
            {
              "internalType": "string",
              "name": "content",
              "type": "string"
            },
            {
              "internalType": "string[]",
              "name": "skills",
              "type": "string[]"
            }
          ],
          "internalType": "struct FeedbackData.Feedback",
          "name": "_feedback",
          "type": "tuple"
        }
      ],
      "name": "submitFeedback",
      "outputs": [],
      "stateMutability": "nonpayable",
      "type": "function"
    },
    {
      "inputs": [
        {
          "internalType": "uint256",
          "name": "cost",
          "type": "uint256"
        }
      ],
      "name": "buyItems",
      "outputs": [],
      "stateMutability": "nonpayable",
      "type": "function"
    }
  ],
  "bytecode": "0x60096101209081526844697665727369747960b81b610140526080908152600d6101609081526c21b7b6b6bab734b1b0ba34b7b760991b6101805260a052600a6101a08181526950726f6365647572657360b01b6101c05260c0526101e0908152695068696c6f736f70687960b01b6102005260e052610260604052600f6102209081526e53747564656e744c6561726e696e6760881b6102405261010052620000ae90600090600562000178565b50674563918244f40000600c556729a2241af62c0000600d55348015620000d457600080fd5b5060405162004b6338038062004b63833981016040819052620000f79162000347565b60408051446020820152429181019190915260600160408051601f19818403018152908290528051602091820120600955620001369184910162000414565b60408051808303601f190181529190528051602090910120600a55600b80546001600160a01b0319166001600160a01b0392909216919091179055506200046f565b828054828255906000526020600020908101928215620001ca579160200282015b82811115620001ca5782518051620001b9918491602090910190620001dc565b509160200191906001019062000199565b50620001d892915062000267565b5090565b828054620001ea9062000432565b90600052602060002090601f0160209004810192826200020e576000855562000259565b82601f106200022957805160ff191683800117855562000259565b8280016001018555821562000259579182015b82811115620002595782518255916020019190600101906200023c565b50620001d892915062000288565b80821115620001d85760006200027e82826200029f565b5060010162000267565b5b80821115620001d8576000815560010162000289565b508054620002ad9062000432565b6000825580601f10620002be575050565b601f016020900490600052602060002090810190620002de919062000288565b50565b634e487b7160e01b600052604160045260246000fd5b60005b8381101562000314578181015183820152602001620002fa565b8381111562000324576000848401525b50505050565b80516001600160a01b03811681146200034257600080fd5b919050565b600080604083850312156200035b57600080fd5b82516001600160401b03808211156200037357600080fd5b818501915085601f8301126200038857600080fd5b8151818111156200039d576200039d620002e1565b604051601f8201601f19908116603f01168101908382118183101715620003c857620003c8620002e1565b81604052828152886020848701011115620003e257600080fd5b620003f5836020830160208801620002f7565b80965050505050506200040b602084016200032a565b90509250929050565b6000825162000428818460208701620002f7565b9190910192915050565b600181811c908216806200044757607f821691505b602082108114156200046957634e487b7160e01b600052602260045260246000fd5b50919050565b6146e4806200047f6000396000f3fe608060405234801561001057600080fd5b50600436106101a95760003560e01c806395613875116100f9578063e30a121111610097578063f52c1c0711610071578063f52c1c0714610432578063fa92f13414610445578063fbd9d37714610458578063fed5eb8d1461047857600080fd5b8063e30a121114610401578063e30c009214610421578063f4cd31981461042a57600080fd5b8063cd14f4fb116100d3578063cd14f4fb146103bf578063cdfbb351146103c8578063d5580858146103db578063dc2772eb146103ee57600080fd5b80639561387514610361578063be8f5fac1461038c578063c305322c1461039f57600080fd5b80633bc79a98116101665780635f515226116101405780635f515226146102f9578063631f6d071461030c578063695a7d4914610321578063760f4cf21461034157600080fd5b80633bc79a9814610283578063466bf004146102b15780635e566f20146102e457600080fd5b806303ea41a2146101ae5780630a06db07146101d75780631d322565146101fa57806331ea98101461021a578063339f36601461023e57806335f13f681461025e575b600080fd5b6101c16101bc366004613091565b61048b565b6040516101ce919061312e565b60405180910390f35b6101ea6101e536600461327b565b610820565b6040516101ce949392919061329d565b61020d6102083660046132d9565b61097d565b6040516101ce919061334d565b61022d6102283660046134bd565b610c4a565b6040516101ce9594939291906134f9565b61025161024c366004613091565b610e3d565b6040516101ce919061367d565b61027161026c36600461327b565b611168565b6040516101ce96959493929190613697565b6102a36102913660046136e4565b60046020526000908152604090205481565b6040519081526020016101ce565b6102d46102bf3660046136e4565b60086020526000908152604090205460ff1681565b60405190151581526020016101ce565b6102ec6112d5565b6040516101ce91906136fd565b6102a361030736600461375f565b6113ae565b61031f61031a3660046136e4565b611423565b005b61033461032f3660046136e4565b611556565b6040516101ce9190613788565b61035461034f3660046132d9565b611602565b6040516101ce919061379b565b600154610374906001600160a01b031681565b6040516001600160a01b0390911681526020016101ce565b61031f61039a3660046134bd565b6116b6565b6103b26103ad3660046132d9565b6117c7565b6040516101ce919061398f565b6102a3600c5481565b61031f6103d63660046139e4565b61187b565b61031f6103e9366004613a4f565b61194f565b61031f6103fc366004613b04565b611b75565b61041461040f366004613091565b612379565b6040516101ce9190613b9d565b6102a3600d5481565b6102ec612537565b6103346104403660046136e4565b612607565b61031f610453366004613bb0565b612617565b61046b6104663660046132d9565b6129c6565b6040516101ce9190613c52565b61031f610486366004613ca7565b612a7a565b60606000600784846040516104a1929190613d42565b908152604051908190036020019020600101546001600160401b038111156104cb576104cb61341b565b6040519080825280602002602001820160405280156104fe57816020015b60608152602001906001900390816104e95790505b50905060005b60078585604051610516929190613d42565b90815260405190819003602001902060010154811015610818576006600060078787604051610546929190613d42565b9081526020016040518091039020600101838154811061056857610568613d52565b90600052602060002001548152602001908152602001600020805480602002602001604051908101604052809291908181526020016000905b828210156107e457838290600052602060002090600502016040518060a00160405290816000820180546105d490613d68565b80601f016020809104026020016040519081016040528092919081815260200182805461060090613d68565b801561064d5780601f106106225761010080835404028352916020019161064d565b820191906000526020600020905b81548152906001019060200180831161063057829003601f168201915b50505050508152602001600182015481526020016002820154815260200160038201805461067a90613d68565b80601f01602080910402602001604051908101604052809291908181526020018280546106a690613d68565b80156106f35780601f106106c8576101008083540402835291602001916106f3565b820191906000526020600020905b8154815290600101906020018083116106d657829003601f168201915b5050505050815260200160048201805480602002602001604051908101604052809291908181526020016000905b828210156107cd57838290600052602060002001805461074090613d68565b80601f016020809104026020016040519081016040528092919081815260200182805461076c90613d68565b80156107b95780601f1061078e576101008083540402835291602001916107b9565b820191906000526020600020905b81548152906001019060200180831161079c57829003601f168201915b505050505081526020019060010190610721565b5050505081525050815260200190600101906105a1565b505050508282815181106107fa576107fa613d52565b6020026020010181905250808061081090613db9565b915050610504565b509392505050565b6006602052816000526040600020818154811061083c57600080fd5b90600052602060002090600502016000915091505080600001805461086090613d68565b80601f016020809104026020016040519081016040528092919081815260200182805461088c90613d68565b80156108d95780601f106108ae576101008083540402835291602001916108d9565b820191906000526020600020905b8154815290600101906020018083116108bc57829003601f168201915b5050505050908060010154908060020154908060030180546108fa90613d68565b80601f016020809104026020016040519081016040528092919081815260200182805461092690613d68565b80156109735780601f1061094857610100808354040283529160200191610973565b820191906000526020600020905b81548152906001019060200180831161095657829003601f168201915b5050505050905084565b60606000826001600160401b038111156109995761099961341b565b6040519080825280602002602001820160405280156109d257816020015b6109bf612eb0565b8152602001906001900390816109b75790505b50905060005b838110156108185760038585838181106109f4576109f4613d52565b9050602002810190610a069190613dd4565b604051610a14929190613d42565b90815260200160405180910390206040518060a0016040529081600082018054610a3d90613d68565b80601f0160208091040260200160405190810160405280929190818152602001828054610a6990613d68565b8015610ab65780601f10610a8b57610100808354040283529160200191610ab6565b820191906000526020600020905b815481529060010190602001808311610a9957829003601f168201915b50505050508152602001600182018054610acf90613d68565b80601f0160208091040260200160405190810160405280929190818152602001828054610afb90613d68565b8015610b485780601f10610b1d57610100808354040283529160200191610b48565b820191906000526020600020905b815481529060010190602001808311610b2b57829003601f168201915b50505050508152602001600282018054610b6190613d68565b80601f0160208091040260200160405190810160405280929190818152602001828054610b8d90613d68565b8015610bda5780601f10610baf57610100808354040283529160200191610bda565b820191906000526020600020905b815481529060010190602001808311610bbd57829003601f168201915b505050918352505060038201546001600160a01b0316602080830191909152604080518082018252600485015481526005909401549184019190915201528251839083908110610c2c57610c2c613d52565b60200260200101819052508080610c4290613db9565b9150506109d8565b8051602081830181018051600382529282019190930120915280548190610c7090613d68565b80601f0160208091040260200160405190810160405280929190818152602001828054610c9c90613d68565b8015610ce95780601f10610cbe57610100808354040283529160200191610ce9565b820191906000526020600020905b815481529060010190602001808311610ccc57829003601f168201915b505050505090806001018054610cfe90613d68565b80601f0160208091040260200160405190810160405280929190818152602001828054610d2a90613d68565b8015610d775780601f10610d4c57610100808354040283529160200191610d77565b820191906000526020600020905b815481529060010190602001808311610d5a57829003601f168201915b505050505090806002018054610d8c90613d68565b80601f0160208091040260200160405190810160405280929190818152602001828054610db890613d68565b8015610e055780601f10610dda57610100808354040283529160200191610e05565b820191906000526020600020905b815481529060010190602001808311610de857829003601f168201915b5050505060038301546040805180820190915260048501548152600590940154602085015291926001600160a01b0390921691905085565b6060600060078484604051610e53929190613d42565b908152604051908190036020019020546001600160401b03811115610e7a57610e7a61341b565b604051908082528060200260200182016040528015610ead57816020015b6060815260200190600190039081610e985790505b50905060005b60078585604051610ec5929190613d42565b90815260405190819003602001902054811015610818576005600060078787604051610ef2929190613d42565b90815260200160405180910390206000018381548110610f1457610f14613d52565b90600052602060002001548152602001908152602001600020805480602002602001604051908101604052809291908181526020016000905b8282101561113457838290600052602060002090600702016040518060e0016040529081600082018054610f8090613d68565b80601f0160208091040260200160405190810160405280929190818152602001828054610fac90613d68565b8015610ff95780601f10610fce57610100808354040283529160200191610ff9565b820191906000526020600020905b815481529060010190602001808311610fdc57829003601f168201915b5050505050815260200160018201805461101290613d68565b80601f016020809104026020016040519081016040528092919081815260200182805461103e90613d68565b801561108b5780601f106110605761010080835404028352916020019161108b565b820191906000526020600020905b81548152906001019060200180831161106e57829003601f168201915b505050505081526020016002820154815260200160038201548152602001600482015481526020016005820160009054906101000a900460ff161515151581526020016006820180548060200260200160405190810160405280929190818152602001828054801561111c57602002820191906000526020600020905b815481526020019060010190808311611108575b50505050508152505081526020019060010190610f4d565b5050505082828151811061114a5761114a613d52565b6020026020010181905250808061116090613db9565b915050610eb3565b6005602052816000526040600020818154811061118457600080fd5b9060005260206000209060070201600091509150508060000180546111a890613d68565b80601f01602080910402602001604051908101604052809291908181526020018280546111d490613d68565b80156112215780601f106111f657610100808354040283529160200191611221565b820191906000526020600020905b81548152906001019060200180831161120457829003601f168201915b50505050509080600101805461123690613d68565b80601f016020809104026020016040519081016040528092919081815260200182805461126290613d68565b80156112af5780601f10611284576101008083540402835291602001916112af565b820191906000526020600020905b81548152906001019060200180831161129257829003601f168201915b505050506002830154600384015460048501546005909501549394919390925060ff1686565b60606000805480602002602001604051908101604052809291908181526020016000905b828210156113a557838290600052602060002001805461131890613d68565b80601f016020809104026020016040519081016040528092919081815260200182805461134490613d68565b80156113915780601f1061136657610100808354040283529160200191611391565b820191906000526020600020905b81548152906001019060200180831161137457829003601f168201915b5050505050815260200190600101906112f9565b50505050905090565b600b546040516370a0823160e01b81526001600160a01b03838116600483015260009216906370a0823190602401602060405180830381865afa1580156113f9573d6000803e3d6000fd5b505050506040513d601f19601f8201168201806040525081019061141d9190613e1a565b92915050565b600b546040516323b872dd60e01b8152336004820152306024820152604481018390526001600160a01b03909116906323b872dd906064016020604051808303816000875af115801561147a573d6000803e3d6000fd5b505050506040513d601f19601f8201168201806040525081019061149e9190613e33565b50600b546040516370a0823160e01b815233600482018190527fbe32f2019026bb0b892e1a82ba94e40edfe612b262b2085f499f0eebb7efc12f9290916001600160a01b03909116906370a0823190602401602060405180830381865afa15801561150d573d6000803e3d6000fd5b505050506040513d601f19601f820116820180604052508101906115319190613e1a565b604080516001600160a01b03909316835260208301919091520160405180910390a150565b6002818154811061156657600080fd5b90600052602060002001600091509050805461158190613d68565b80601f01602080910402602001604051908101604052809291908181526020018280546115ad90613d68565b80156115fa5780601f106115cf576101008083540402835291602001916115fa565b820191906000526020600020905b8154815290600101906020018083116115dd57829003601f168201915b505050505081565b60606000826001600160401b0381111561161e5761161e61341b565b60405190808252806020026020018201604052801561165157816020015b606081526020019060019003908161163c5790505b50905060005b838110156108185761168685858381811061167457611674613d52565b90506020028101906101bc9190613dd4565b82828151811061169857611698613d52565b602002602001018190525080806116ae90613db9565b915050611657565b600a54816040516020016116ca9190613e55565b60405160208183030381529060405280519060200120146117255760405162461bcd60e51b815260206004820152601060248201526f1a5b9d985b1a59081c185cdcdddbdc9960821b60448201526064015b60405180910390fd5b6009805490600061173583613db9565b919050555060004260095460405160200161175a929190918252602082015260400190565b60408051601f19818403018152828252805160209182012060008181526008909252919020805460ff1916600117905591507f8c6adcc89fb3a5c5ff4d5bb7afc4eeb464c80bd1c42b23064841c593ab9887e8906117bb9083815260200190565b60405180910390a15050565b60606000826001600160401b038111156117e3576117e361341b565b60405190808252806020026020018201604052801561181657816020015b60608152602001906001900390816118015790505b50905060005b838110156108185761184b85858381811061183957611839613d52565b905060200281019061040f9190613dd4565b82828151811061185d5761185d613d52565b6020026020010181905250808061187390613db9565b91505061181c565b600a548484604051602001611891929190613d42565b60405160208183030381529060405280519060200120146118eb5760405162461bcd60e51b81526020600482015260146024820152731a5b9d985b1a59081bdb19081c185cdcdddbdc9960621b604482015260640161171c565b81816040516020016118fe929190613d42565b60408051808303601f19018152908290528051602091820120600a55600182527fcefcc0dd46c7f93764838bb11642de48894eaf912169be55a4e9f9beab96654f910160405180910390a150505050565b604080516101006020601f8901819004028201810190925260e081018781526000928291908a908a9081908501838280828437600092019190915250505090825250604080516020601f8901819004810282018101909252878152918101919088908890819084018382808284376000920182905250938552505050602080830187905260408084018f905260608401879052608084018390528051838152808301825260a090940193909352915192935091611a14918c918c918f91899101613e71565b604051602081830303815290604052805190602001209050611a378a8a83612deb565b611a458a8a8d878a8a612e3a565b6000818152600560209081526040822080546001810182559083529181902084518051869460070290920192611a8092849290910190612f02565b506020828101518051611a999260018501920190612f02565b5060408201516002820155606082015160038201556080820151600482015560a082015160058201805460ff191691151591909117905560c08201518051611aeb916006840191602090910190612f86565b505050600081815260056020526040902080547f56ff489b5a33d116a814463d8d88ac249e308bc2743f22d1d3116b1509588fd6918c918c918f91611b3290600190613e9f565b81548110611b4257611b42613d52565b9060005260206000209060070201604051611b609493929190613f96565b60405180910390a15050505050505050505050565b6000858583604001358460200135604051602001611b969493929190613e71565b6040516020818303038152906040528051906020012090506000805b600083815260056020526040902054821015611c7057611bd28480613dd4565b604051602001611be3929190613d42565b60408051601f198184030181529181528151602092830120600086815260059093529120805484908110611c1957611c19613d52565b9060005260206000209060070201600101604051602001611c3a91906140a5565b604051602081830303815290604052805190602001201415611c5e57506001611c70565b81611c6881613db9565b925050611bb2565b80611ccd5760405162461bcd60e51b815260206004820152602760248201527f436f75727365206e6f7420666f756e642c20696e76616c696420636f757273656044820152660819195d185a5b60ca1b606482015260840161171c565b50600082815260056020526040812080548291829185908110611cf257611cf2613d52565b90600052602060002090600702016006018054905090505b80821015611d83576000858152600560205260409020805489919086908110611d3557611d35613d52565b90600052602060002090600702016006018381548110611d5757611d57613d52565b90600052602060002001541415611d715760019250611d83565b81611d7b81613db9565b925050611d0a565b82611dd05760405162461bcd60e51b815260206004820152601960248201527f54784e204572726f723a20496e76616c6964207469636b657400000000000000604482015260640161171c565b6000858152600560205260409020805485908110611df057611df0613d52565b9060005260206000209060070201600601600182611e0e9190613e9f565b81548110611e1e57611e1e613d52565b9060005260206000200154600560008781526020019081526020016000208581548110611e4d57611e4d613d52565b90600052602060002090600702016006018381548110611e6f57611e6f613d52565b9060005260206000200181905550600560008681526020019081526020016000208481548110611ea157611ea1613d52565b9060005260206000209060070201600601805480611ec157611ec16140b1565b6001900381819060005260206000200160009055905560008a8a886040013589602001358a8060000190611ef59190613dd4565b604051602001611f0a969594939291906140c7565b60408051601f198184030181529181528151602092830120600081815260068452918220805460018101825590835292909120909250889160050201611f50828261435c565b505060008181526006602052604090208054907f621f6c85f4ec6c24e3ef3fae1311b591199f13477580f239a708ec1e0123d582908d908d90611f94600186613e9f565b81548110611fa457611fa4613d52565b9060005260206000209060050201604051611fc1939291906143f9565b60405180910390a160005b611fd960808a018a61422a565b90508110156120765760008d8d611ff360808d018d61422a565b8581811061200357612003613d52565b90506020028101906120159190613dd4565b60405160200161202894939291906144bc565b60408051601f198184030181529181528151602092830120600081815260049093529082208054919350909161205d83613db9565b919050555050808061206e90613db9565b915050611fcc565b507fd13d2122f194eef81e0738f122d85de9ec47c971b03882a46cfe5c4f32e58c0a8c8c6120a48f8f612379565b6040516120b3939291906144e9565b60405180910390a18860038d8d6040516120ce929190613d42565b9081526040519081900360200190206004016120f7828281358155602082013560018201555050565b9050507f708a0cbbf33c4bb1f5dd31e0858489399277fefc4d0f9c7bec472197e09a2fe88c8c8b60405161212d9392919061450f565b60405180910390a16000878152600560205260409020805460039182918990811061215a5761215a613d52565b9060005260206000209060070201600401541115806121b75750600088815260056020526040902080548291908990811061219757612197613d52565b9060005260206000209060070201600401546121b3919061453e565b8211155b1561223b57600b54600c5460405163a9059cbb60e01b815233600482015260248101919091526001600160a01b039091169063a9059cbb906044016020604051808303816000875af1158015612211573d6000803e3d6000fd5b505050506040513d601f19601f820116820180604052508101906122359190613e33565b506122b6565b600b54600d5460405163a9059cbb60e01b815233600482015260248101919091526001600160a01b039091169063a9059cbb906044016020604051808303816000875af1158015612290573d6000803e3d6000fd5b505050506040513d601f19601f820116820180604052508101906122b49190613e33565b505b600b546040516370a0823160e01b815233600482018190527fbe32f2019026bb0b892e1a82ba94e40edfe612b262b2085f499f0eebb7efc12f9290916001600160a01b03909116906370a0823190602401602060405180830381865afa158015612324573d6000803e3d6000fd5b505050506040513d601f19601f820116820180604052508101906123489190613e1a565b604080516001600160a01b03909316835260208301919091520160405180910390a150505050505050505050505050565b60008054606091906001600160401b038111156123985761239861341b565b6040519080825280602002602001820160405280156123de57816020015b6040805180820190915260608152600060208201528152602001906001900390816123b65790505b50905060005b60005481101561081857600085856000848154811061240557612405613d52565b9060005260206000200160405160200161242193929190614560565b60405160208183030381529060405280519060200120905060405180604001604052806000848154811061245757612457613d52565b90600052602060002001805461246c90613d68565b80601f016020809104026020016040519081016040528092919081815260200182805461249890613d68565b80156124e55780601f106124ba576101008083540402835291602001916124e5565b820191906000526020600020905b8154815290600101906020018083116124c857829003601f168201915b50505050508152602001600460008481526020019081526020016000205481525083838151811061251857612518613d52565b602002602001018190525050808061252f90613db9565b9150506123e4565b60606002805480602002602001604051908101604052809291908181526020016000905b828210156113a557838290600052602060002001805461257a90613d68565b80601f01602080910402602001604051908101604052809291908181526020018280546125a690613d68565b80156125f35780601f106125c8576101008083540402835291602001916125f3565b820191906000526020600020905b8154815290600101906020018083116125d657829003601f168201915b50505050508152602001906001019061255b565b6000818154811061156657600080fd5b8561267c5760405162461bcd60e51b815260206004820152602f60248201527f4e616d652063616e206e6f7420626520626c616e6b20647572696e672070726f60448201526e3332b9b9b7b91031b932b0ba34b7b760891b606482015260840161171c565b836126e25760405162461bcd60e51b815260206004820152603060248201527f456d61696c2063616e206e6f7420626520626c616e6b20647572696e6720707260448201526f37b332b9b9b7b91031b932b0ba34b7b760811b606482015260840161171c565b3361272f5760405162461bcd60e51b815260206004820152601960248201527f7573657220616464726573732073686f756c6420657869737400000000000000604482015260640161171c565b60008181526008602052604090205460ff1615156001146127895760405162461bcd60e51b81526020600482015260146024820152731c1c9bdd9a5919481d985b1a59081cd958dc995d60621b604482015260640161171c565b6040518060a0016040528088888080601f016020809104026020016040519081016040528093929190818152602001838380828437600092019190915250505090825250604080516020601f890181900481028201810190925287815291810191908890889081908401838280828437600092019190915250505090825250604080516020601f8701819004810282018101909252858152918101919086908690819084018382808284376000920182905250938552505033602080850191909152604080518082018252848152918201939093529282019290925251600391506128779088908890613d42565b908152602001604051809103902060008201518160000190805190602001906128a1929190612f02565b5060208281015180516128ba9260018501920190612f02565b50604082015180516128d6916002840191602090910190612f02565b5060608201516003820180546001600160a01b0319166001600160a01b03909216919091179055608090910151805160048301556020015160059091015560028054600181018255600091909152612951907f405787fa12a823e0f2b7631cc41b3ba8828b3321ca811111fa75cd3aa3bb5ace018686612fc0565b5060008181526008602052604090819020805460ff19169055517f5f050f9a5025f89bf90611be48950430ca16255586d189fb5a14c411ddd44a7b9060039061299d9088908890613d42565b9081526040519081900360200181206129b59161457f565b60405180910390a150505050505050565b60606000826001600160401b038111156129e2576129e261341b565b604051908082528060200260200182016040528015612a1557816020015b6060815260200190600190039081612a005790505b50905060005b8381101561081857612a4a858583818110612a3857612a38613d52565b905060200281019061024c9190613dd4565b828281518110612a5c57612a5c613d52565b60200260200101819052508080612a7290613db9565b915050612a1b565b6000858585604051602001612a9193929190614600565b60405160208183030381529060405280519060200120905060008060005b600084815260056020526040902054811015612b675785604051602001612ad69190613e55565b60408051601f198184030181529181528151602092830120600087815260059093529120805483908110612b0c57612b0c613d52565b9060005260206000209060070201600101604051602001612b2d91906140a5565b604051602081830303815290604052805190602001201415612b555780925060019150612b67565b80612b5f81613db9565b915050612aaf565b600182151514612bc55760405162461bcd60e51b815260206004820152602360248201527f77726f6e672063726564656e7469616c732c20636f75727365206e6f7420666f6044820152621d5b9960ea1b606482015260840161171c565b6000848152600560205260409020805484908110612be557612be5613d52565b600091825260209091206005600790920201015460ff1615612c495760405162461bcd60e51b815260206004820152601d60248201527f7469636b6574732061726520616c72656164792067656e657261746564000000604482015260640161171c565b600084815260056020526040902080546001919085908110612c6d57612c6d613d52565b60009182526020822060079190910201600501805460ff19169215159290921790915590505b6000848152600560205260409020805484908110612cb357612cb3613d52565b906000526020600020906007020160040154811015612d6d576000428660095444604051602001612ce79493929190614637565b60408051601f198184030181529190528051602090910120600980549192506000612d1183613db9565b90915550506000858152600560205260409020805485908110612d3657612d36613d52565b6000918252602080832060066007909302019190910180546001810182559083529120015580612d6581613db9565b915050612c93565b7f0aa509c398501987b09b5e8d6f21a19bf8a9d391fc11a6c17a1bb9093519a3d589898989600560008a81526020019081526020016000208881548110612db657612db6613d52565b9060005260206000209060070201600601604051612dd8959493929190614669565b60405180910390a1505050505050505050565b600081815260056020526040902054612e355760078383604051612e10929190613d42565b9081526040516020918190038201902080546001810182556000918252919020018190555b505050565b6000868686868686604051602001612e57969594939291906140c7565b60405160208183030381529060405280519060200120905060078787604051612e81929190613d42565b908152604051602091819003820190206001908101805491820181556000908152919091200155505050505050565b6040518060a0016040528060608152602001606081526020016060815260200160006001600160a01b03168152602001612efd604051806040016040528060008152602001600081525090565b905290565b828054612f0e90613d68565b90600052602060002090601f016020900481019282612f305760008555612f76565b82601f10612f4957805160ff1916838001178555612f76565b82800160010185558215612f76579182015b82811115612f76578251825591602001919060010190612f5b565b50612f82929150613034565b5090565b828054828255906000526020600020908101928215612f765791602002820182811115612f76578251825591602001919060010190612f5b565b828054612fcc90613d68565b90600052602060002090601f016020900481019282612fee5760008555612f76565b82601f106130075782800160ff19823516178555612f76565b82800160010185558215612f76579182015b82811115612f76578235825591602001919060010190613019565b5b80821115612f825760008155600101613035565b60008083601f84011261305b57600080fd5b5081356001600160401b0381111561307257600080fd5b60208301915083602082850101111561308a57600080fd5b9250929050565b600080602083850312156130a457600080fd5b82356001600160401b038111156130ba57600080fd5b6130c685828601613049565b90969095509350505050565b60005b838110156130ed5781810151838201526020016130d5565b838111156130fc576000848401525b50505050565b6000815180845261311a8160208601602086016130d2565b601f01601f19169290920160200192915050565b60208152600060208201835180825260408401915060408160051b8501016020860160005b8381101561326f57868303603f19018552815180518085526020918201918086019190600582901b87010160005b8281101561325557601f198883030184528451805160a084526131a760a0850182613102565b90506020820151602085015260408201516040850152606082015184820360608601526131d48282613102565b91505060808201519150838103608085015280825180835260208301915060208160051b84010160208501945060005b8281101561323557601f19858303018452613220828751613102565b60209687019694909401939150600101613204565b508096505050505050602085019450602084019350600181019050613181565b506020988901989096509490940193505050600101613153565b50909695505050505050565b6000806040838503121561328e57600080fd5b50508035926020909101359150565b6080815260006132b06080830187613102565b85602084015284604084015282810360608401526132ce8185613102565b979650505050505050565b600080602083850312156132ec57600080fd5b82356001600160401b038082111561330357600080fd5b818501915085601f83011261331757600080fd5b81358181111561332657600080fd5b8660208260051b850101111561333b57600080fd5b60209290920196919550909350505050565b60006020808301818452808551808352604092508286019150828160051b87010184880160005b8381101561340d57603f19898403018552815160c0815181865261339a82870182613102565b915050888201518582038a8701526133b28282613102565b91505087820151858203898701526133ca8282613102565b6060848101516001600160a01b031690880152608093840151805185890152602081015160a0890152939092509050509588019593505090860190600101613374565b509098975050505050505050565b634e487b7160e01b600052604160045260246000fd5b600082601f83011261344257600080fd5b81356001600160401b038082111561345c5761345c61341b565b604051601f8301601f19908116603f011681019082821181831017156134845761348461341b565b8160405283815286602085880101111561349d57600080fd5b836020870160208301376000602085830101528094505050505092915050565b6000602082840312156134cf57600080fd5b81356001600160401b038111156134e557600080fd5b6134f184828501613431565b949350505050565b60c08152600061350c60c0830188613102565b828103602084015261351e8188613102565b905082810360408401526135328187613102565b6001600160a01b038616606085015284516080850152602085015160a0850152915061355b9050565b9695505050505050565b600081518084526020808501945084600583811b870183870160005b8681101561340d578483038a5281518051808552908701908785019080871b8601890160005b8281101561366757601f19888303018452845160e081518185526135cd82860182613102565b9150508c8201518482038e8601526135e58282613102565b60408481015190870152606080850151908701526080808501519087015260a08085015115159087015260c093840151868203948701949094528351808252938f019360009350908f0191505b808310156136525783518252928e019260019290920191908e0190613632565b50968d0196958d0195935050506001016135a7565b509c89019c955050509186019150600101613581565b6020815260006136906020830184613565565b9392505050565b60c0815260006136aa60c0830189613102565b82810360208401526136bc8189613102565b91505085604083015284606083015283608083015282151560a0830152979650505050505050565b6000602082840312156136f657600080fd5b5035919050565b6000602080830181845280855180835260408601915060408160051b870101925083870160005b8281101561375257603f19888603018452613740858351613102565b94509285019290850190600101613724565b5092979650505050505050565b60006020828403121561377157600080fd5b81356001600160a01b038116811461369057600080fd5b6020815260006136906020830184613102565b60208152600060208201835180825260408401915060408160051b8501016020860160005b8381101561326f57868303603f19018552815180518085526020918201918086019190600582901b87010160005b8281101561390d57878203601f19018452845180518084526020918201918085019190600582901b86010160005b828110156138f057601f198783030184528451805160a0845261384260a0850182613102565b905060208201516020850152604082015160408501526060820151848203606086015261386f8282613102565b91505060808201519150838103608085015280825180835260208301915060208160051b84010160208501945060005b828110156138d057601f198583030184526138bb828751613102565b6020968701969490940193915060010161389f565b50809650505050505060208501945060208401935060018101905061381c565b5060209889019897909701969450505060019190910190506137ee565b5060209889019890965094909401935050506001016137c0565b6000815180845260208085019450848260051b860182860160005b8581101561398257838303895281516040815181865261396482870182613102565b92880151958801959095525098850198925090840190600101613942565b5090979650505050505050565b6000602080830181845280855180835260408601915060408160051b870101925083870160005b8281101561375257603f198886030184526139d2858351613927565b945092850192908501906001016139b6565b600080600080604085870312156139fa57600080fd5b84356001600160401b0380821115613a1157600080fd5b613a1d88838901613049565b90965094506020870135915080821115613a3657600080fd5b50613a4387828801613049565b95989497509550505050565b600080600080600080600080600060c08a8c031215613a6d57600080fd5b8935985060208a01356001600160401b0380821115613a8b57600080fd5b613a978d838e01613049565b909a50985060408c0135915080821115613ab057600080fd5b613abc8d838e01613049565b909850965060608c0135915080821115613ad557600080fd5b50613ae28c828d01613049565b9a9d999c50979a96999598959660808101359660a09091013595509350505050565b600080600080600085870360a0811215613b1d57600080fd5b86356001600160401b0380821115613b3457600080fd5b613b408a838b01613049565b9098509650602089013595508691506040603f1984011215613b6157600080fd5b6040890194506080890135925080831115613b7b57600080fd5b5050860160a08189031215613b8f57600080fd5b809150509295509295909350565b6020815260006136906020830184613927565b60008060008060008060006080888a031215613bcb57600080fd5b87356001600160401b0380821115613be257600080fd5b613bee8b838c01613049565b909950975060208a0135915080821115613c0757600080fd5b613c138b838c01613049565b909750955060408a0135915080821115613c2c57600080fd5b50613c398a828b01613049565b989b979a50959894979596606090950135949350505050565b6000602080830181845280855180835260408601915060408160051b870101925083870160005b8281101561375257603f19888603018452613c95858351613565565b94509285019290850190600101613c79565b600080600080600060a08688031215613cbf57600080fd5b85356001600160401b0380821115613cd657600080fd5b613ce289838a01613431565b965060208801359550604088013594506060880135915080821115613d0657600080fd5b613d1289838a01613431565b93506080880135915080821115613d2857600080fd5b50613d3588828901613431565b9150509295509295909350565b8183823760009101908152919050565b634e487b7160e01b600052603260045260246000fd5b600181811c90821680613d7c57607f821691505b60208210811415613d9d57634e487b7160e01b600052602260045260246000fd5b50919050565b634e487b7160e01b600052601160045260246000fd5b6000600019821415613dcd57613dcd613da3565b5060010190565b6000808335601e19843603018112613deb57600080fd5b8301803591506001600160401b03821115613e0557600080fd5b60200191503681900382131561308a57600080fd5b600060208284031215613e2c57600080fd5b5051919050565b600060208284031215613e4557600080fd5b8151801515811461369057600080fd5b60008251613e678184602087016130d2565b9190910192915050565b83858237600b60fa1b9301838152600181019290925260218201929092526022810191909152604201919050565b600082821015613eb157613eb1613da3565b500390565b81835281816020850137506000828201602090810191909152601f909101601f19169091010190565b60008154613eec81613d68565b808552602060018381168015613f095760018114613f1d57613f4b565b60ff19851688840152604088019550613f4b565b866000528260002060005b85811015613f435781548a8201860152908301908401613f28565b890184019650505b505050505092915050565b6000815480845260208085019450836000528060002060005b83811015613f8b57815487529582019560019182019101613f6f565b509495945050505050565b606081526000613faa606083018688613eb6565b846020840152828103604084015260e08152613fc960e0820185613edf565b8181036020830152613fde8160018701613edf565b905060028501546040830152600385015460608301526004850154608083015260ff60058601541661401460a084018215159052565b5081810360c083015261402a8160068701613f56565b98975050505050505050565b6000815461404381613d68565b6001828116801561405b576001811461406c5761409b565b60ff1984168752828701945061409b565b8560005260208060002060005b858110156140925781548a820152908401908201614079565b50505082870194505b5050505092915050565b60006136908284614036565b634e487b7160e01b600052603160045260246000fd5b85878237600086820160008152600b60fa1b80825287600183015280602183015286602283015280604283015250838560438301376000930160430192835250909695505050505050565b5b818110156141275760008155600101614113565b5050565b601f821115612e3557806000526020600020601f840160051c810160208510156141525750805b614164601f850160051c830182614112565b5050505050565b6001600160401b038311156141825761418261341b565b614196836141908354613d68565b8361412b565b6000601f8411600181146141ca57600085156141b25750838201355b600019600387901b1c1916600186901b178355614164565b600083815260209020601f19861690835b828110156141fb57868501358255602094850194600190920191016141db565b50868210156142185760001960f88860031b161c19848701351681555b505060018560011b0183555050505050565b6000808335601e1984360301811261424157600080fd5b8301803591506001600160401b0382111561425b57600080fd5b6020019150600581901b360382131561308a57600080fd5b6801000000000000000083111561428c5761428c61341b565b805483825580841015614315576000828152602081208581019083015b80821015614311576142bb8254613d68565b801561430557601f808211600181146142d657858555614302565b6000858152602090206142f383850160051c820160018301614112565b50600085815260208120818755555b50505b506001820191506142a9565b5050505b5060008181526020812083915b85811015614354576143348386613dd4565b61433f81838661416b565b50506020929092019160019182019101614322565b505050505050565b6143668283613dd4565b61437181838561416b565b505060208201356001820155604082013560028201556143946060830183613dd4565b6143a281836003860161416b565b50506080820135601e198336030181126143bb57600080fd5b820180356001600160401b038111156143d357600080fd5b6020820191508060051b36038213156143eb57600080fd5b6130fc818360048601614273565b60408152600061440d604083018587613eb6565b60208382038185015260a0825261442760a0830186613edf565b600180870154838501526002870154604085015283820360608501526144508260038901613edf565b915060048701848303608086015282945080548084528484019550848160051b8501018260005285600020925060005b828110156144ac57858203601f1901885261449b8285613edf565b978701979385019391508401614480565b509b9a5050505050505050505050565b83858237600b60fa1b81850190815260009083856001830137600093016001019283525090949350505050565b6040815260006144fd604083018587613eb6565b828103602084015261355b8185613927565b606081526000614523606083018587613eb6565b90508235602083015260208301356040830152949350505050565b60008261455b57634e487b7160e01b600052601260045260246000fd5b500490565b82848237600b60fa1b81840190815260009061355b6001820185614036565b6020815260c06020820152600061459960e0830184613edf565b601f19808483030160408501526145b38260018701613edf565b915080848303016060850152506145cd8160028601613edf565b60038501546001600160a01b03166080850152600485015460a085015260059094015460c0909301929092525090919050565b600084516146128184602089016130d2565b600b60fa1b920182815260018101949094525060218301526022820152604201919050565b8481526000845161464f8160208501602089016130d2565b909101602081019390935250604082015260600192915050565b60a08152600061467c60a0830188613102565b866020840152856040840152828103606084015261469a8186613102565b9050828103608084015261402a8185613f5656fea264697066735822122071e081458afaac439de10fcccf98a231260b8b75aa8429241bb00badf918a1d364736f6c634300080b0033",
  "immutableReferences": {},
  "source": "// SPDX-License-Identifier: MIT\npragma solidity >=0.4.21 <8.10.0;\n\nimport \"./Utils.sol\";\nimport \"./BHUToken.sol\";\n\ncontract FeedbackData {\n    string[] public facultySkills = [\n        \"Diversity\",\n        \"Communication\",\n        \"Procedures\",\n        \"Philosophy\",\n        \"StudentLearning\"\n    ];\n    Utils public util;\n\n    struct Feedback {\n        string code;\n        uint256 semester; // 0 for even and 1 for odd\n        uint256 year;\n        string content;\n        string[] skills;\n    }\n\n    struct Float {\n        uint256 preDecimal;\n        uint256 postDecimal;\n    }\n\n    struct Course {\n        string name;\n        string code;\n        uint256 semester; // 0 for even and 1 for odd\n        uint256 year;\n        uint256 studentCount;\n        bool ticketGenerated;\n        bytes32[] tickets;\n    }\n\n    struct SkillsUpvoteCount {\n        string name;\n        uint256 count;\n    }\n\n    struct Professor {\n        string name;\n        string email;\n        string profilePicture;\n        address addressId;\n        Float rating;\n    }\n\n    struct ProfessorCreds_Key {\n        bytes32[] courses;\n        bytes32[] feedbacks;\n    }\n\n    string[] public emails;\n\n    mapping(string => Professor) public professorDetail;\n    mapping(bytes32 => uint256) public skillsCount; // email+skill\n\n    //TODO change formate of prof skill upvotes\n\n    mapping(bytes32 => Course[]) public courses; // email+year+sem\n    mapping(bytes32 => Feedback[]) public feedbacks; // email+year+sem+course_code\n\n    mapping(string => ProfessorCreds_Key) private profCred_Keys;\n    mapping(bytes32 => bool) public _keysForProfReg;\n\n    uint256 private counterForProfReg;\n    bytes32 private adminPassword;\n    BHUToken private bhuToken;\n    uint256 public earlyFeedbackCost = 5e18;\n    uint256 public lateFeedbackCost = 3e18;\n\n    constructor(string memory adminKey, address _bhuToken) {\n        counterForProfReg = uint256(\n            keccak256(abi.encodePacked(block.difficulty, block.timestamp))\n        );\n        adminPassword = keccak256(abi.encodePacked(adminKey));\n        bhuToken = BHUToken(_bhuToken);\n    }\n\n    event professorCreated(Professor professor);\n    event courseUpdated(string email, uint256 year, Course course);\n    event tokenGenerated(bytes32 token);\n    event ticketGenerated(\n        string email,\n        uint256 year,\n        uint256 sem,\n        string code,\n        bytes32[] tickets\n    );\n    event feedbackSubmitted(string email, Feedback feedback);\n    event skillsUpvoted(string email, SkillsUpvoteCount[] skills);\n    event ratingUpdated(string email, Float rating);\n    event balanceUpdated(address account, uint256 balance);\n    event passwordUpdated(bool success);\n\n    function generateTokenForProfReg(string memory adminKey) public {\n        require(\n            keccak256(abi.encodePacked(adminKey)) == adminPassword,\n            \"invalid password\"\n        );\n        counterForProfReg++;\n        bytes32 id = keccak256(\n            abi.encodePacked(block.timestamp, counterForProfReg)\n        );\n        _keysForProfReg[id] = true;\n        emit tokenGenerated(id);\n    }\n\n    function checkBalance(address _address) public view returns (uint256) {\n        return bhuToken.balanceOf(_address);\n    }\n\n    function updatePassword(\n        string calldata oldPassword,\n        string calldata newPassword\n    ) public {\n        require(\n            keccak256(abi.encodePacked(oldPassword)) == adminPassword,\n            \"invalid old password\"\n        );\n        adminPassword = keccak256(abi.encodePacked(newPassword));\n        emit passwordUpdated(true);\n    }\n\n    function getFacultySkills() public view returns (string[] memory) {\n        return facultySkills;\n    }\n\n    function createProfessor(\n        string calldata name,\n        string calldata email,\n        string calldata profilePicture,\n        bytes32 secret\n    ) public {\n        require(\n            bytes(name).length > 0,\n            \"Name can not be blank during professor creation\"\n        );\n        require(\n            bytes(email).length > 0,\n            \"Email can not be blank during professor creation\"\n        );\n        require(msg.sender != address(0 * 0), \"user address should exist\");\n        require(_keysForProfReg[secret] == true, \"provide valid secret\");\n\n        professorDetail[email] = Professor({\n            name: name,\n            email: email,\n            addressId: msg.sender,\n            profilePicture: profilePicture,\n            rating: Float(0, 0)\n        });\n\n        emails.push(email);\n\n        _keysForProfReg[secret] = false;\n\n        emit professorCreated(professorDetail[email]);\n    }\n\n    function getProfessorIds() public view returns (string[] memory) {\n        return emails;\n    }\n\n    function getProfessorsDetailsByIds(string[] calldata ids)\n        public\n        view\n        returns (Professor[] memory)\n    {\n        Professor[] memory _professorList = new Professor[](ids.length);\n\n        for (uint256 i = 0; i < ids.length; i++) {\n            _professorList[i] = professorDetail[ids[i]];\n        }\n\n        return _professorList;\n    }\n\n    function getFeedbacks(string calldata _email)\n        public\n        view\n        returns (Feedback[][] memory)\n    {\n        Feedback[][] memory _feedbacks = new Feedback[][](\n            profCred_Keys[_email].feedbacks.length\n        );\n        for (uint256 i = 0; i < profCred_Keys[_email].feedbacks.length; i++) {\n            _feedbacks[i] = feedbacks[profCred_Keys[_email].feedbacks[i]];\n        }\n        return _feedbacks;\n    }\n\n    function getFeedbacksByEmails(string[] calldata _emails)\n        public\n        view\n        returns (Feedback[][][] memory)\n    {\n        Feedback[][][] memory _feedbacks = new Feedback[][][](_emails.length);\n        for (uint256 i = 0; i < _emails.length; i++) {\n            _feedbacks[i] = getFeedbacks(_emails[i]);\n        }\n        return _feedbacks;\n    }\n\n    function getCourses(string calldata _email)\n        public\n        view\n        returns (Course[][] memory)\n    {\n        Course[][] memory _courses = new Course[][](\n            profCred_Keys[_email].courses.length\n        );\n        for (uint256 i = 0; i < profCred_Keys[_email].courses.length; i++) {\n            _courses[i] = courses[profCred_Keys[_email].courses[i]];\n        }\n\n        return _courses;\n    }\n\n    function getCoursesByEmails(string[] calldata _emails)\n        public\n        view\n        returns (Course[][][] memory)\n    {\n        Course[][][] memory _courses = new Course[][][](_emails.length);\n        for (uint256 i = 0; i < _emails.length; i++) {\n            _courses[i] = getCourses(_emails[i]);\n        }\n        return _courses;\n    }\n\n    function getSkillsUpvote(string calldata _email)\n        public\n        view\n        returns (SkillsUpvoteCount[] memory)\n    {\n        SkillsUpvoteCount[] memory skillUpvotes = new SkillsUpvoteCount[](\n            facultySkills.length\n        );\n        for (uint256 i = 0; i < facultySkills.length; i++) {\n            bytes32 _key = keccak256(\n                abi.encodePacked(_email, \",\", facultySkills[i])\n            );\n            skillUpvotes[i] = SkillsUpvoteCount({\n                name: facultySkills[i],\n                count: skillsCount[_key]\n            });\n        }\n\n        return skillUpvotes;\n    }\n\n    function getSkillsUpvotesByEmails(string[] calldata _emails)\n        public\n        view\n        returns (SkillsUpvoteCount[][] memory)\n    {\n        SkillsUpvoteCount[][] memory skillUpvotes = new SkillsUpvoteCount[][](\n            _emails.length\n        );\n        for (uint256 i = 0; i < _emails.length; i++) {\n            skillUpvotes[i] = getSkillsUpvote(_emails[i]);\n        }\n        return skillUpvotes;\n    }\n\n    function addCourse(\n        uint256 _year,\n        string calldata _email,\n        string calldata _name,\n        string calldata _code,\n        uint256 _sem,\n        uint256 _studentCount\n    ) public {\n        // uint _year = util.getYear(block.timestamp);\n\n        Course memory _course = Course({\n            name: _name,\n            code: _code,\n            year: _year,\n            semester: _sem,\n            studentCount: _studentCount,\n            ticketGenerated: false,\n            tickets: new bytes32[](0)\n        });\n\n        bytes32 __key = keccak256(\n            abi.encodePacked(_email, \",\", _year, \",\", _sem)\n        );\n\n        addCourseKey(_email, __key);\n        addfeedbackKey(_email, _year, _sem, _code);\n\n        courses[__key].push(_course);\n        emit courseUpdated(\n            _email,\n            _year,\n            courses[__key][courses[__key].length - 1]\n        );\n    }\n\n    function addCourseKey(string calldata email, bytes32 __key) private {\n        if (courses[__key].length == 0) {\n            profCred_Keys[email].courses.push(__key);\n        }\n    }\n\n    function addfeedbackKey(\n        string calldata _email,\n        uint256 _year,\n        uint256 _sem,\n        string calldata _code\n    ) private {\n        bytes32 __key = keccak256(\n            abi.encodePacked(_email, \",\", _year, \",\", _sem, \",\", _code)\n        );\n        profCred_Keys[_email].feedbacks.push(__key);\n    }\n\n    event test(bool);\n\n    function generateTickets(\n        string memory _email,\n        uint256 _year,\n        uint256 _sem,\n        string memory _code,\n        string memory _seed\n    ) public {\n        bytes32 _key = keccak256(\n            abi.encodePacked(_email, \",\", _year, \",\", _sem)\n        );\n        uint256 coursePos = 0;\n        bool courseFound = false;\n        uint256 i = 0;\n        for (; i < courses[_key].length; i++) {\n            if (\n                keccak256(abi.encodePacked(courses[_key][i].code)) ==\n                keccak256(abi.encodePacked(_code))\n            ) {\n                coursePos = i;\n                courseFound = true;\n                break;\n            }\n        }\n\n        require(courseFound == true, \"wrong credentials, course not found\");\n        require(\n            courses[_key][coursePos].ticketGenerated == false,\n            \"tickets are already generated\"\n        );\n\n        courses[_key][coursePos].ticketGenerated = true;\n        i = 0;\n        for (; i < courses[_key][coursePos].studentCount; i++) {\n            bytes32 ticket = keccak256(\n                abi.encodePacked(\n                    block.timestamp,\n                    _seed,\n                    counterForProfReg,\n                    block.difficulty\n                )\n            );\n            counterForProfReg++;\n            courses[_key][coursePos].tickets.push(ticket);\n        }\n\n        emit ticketGenerated(\n            _email,\n            _year,\n            _sem,\n            _code,\n            courses[_key][coursePos].tickets\n        );\n    }\n\n    function submitFeedback(\n        string calldata _email,\n        bytes32 _ticket,\n        Float calldata updatedRating,\n        Feedback calldata _feedback\n    ) public {\n        bytes32 course_Key = keccak256(\n            abi.encodePacked(\n                _email,\n                \",\",\n                _feedback.year,\n                \",\",\n                _feedback.semester\n            )\n        );\n        uint256 coursePos = 0;\n        bool found = false;\n        for (; coursePos < courses[course_Key].length; coursePos++) {\n            if (\n                keccak256(\n                    abi.encodePacked(courses[course_Key][coursePos].code)\n                ) == keccak256(abi.encodePacked(_feedback.code))\n            ) {\n                found = true;\n                break;\n            }\n        }\n        if (found == false) {\n            revert(\"Course not found, invalid course detail\");\n        }\n\n        found = false;\n        uint256 ticketPos = 0;\n        uint256 ticketsLen = courses[course_Key][coursePos].tickets.length;\n        for (; ticketPos < ticketsLen; ticketPos++) {\n            if (courses[course_Key][coursePos].tickets[ticketPos] == _ticket) {\n                found = true;\n                break;\n            }\n        }\n\n        if (found == false) revert(\"TxN Error: Invalid ticket\");\n\n        courses[course_Key][coursePos].tickets[ticketPos] = courses[course_Key][\n            coursePos\n        ].tickets[ticketsLen - 1];\n        courses[course_Key][coursePos].tickets.pop();\n\n        bytes32 _feedback_Key = keccak256(\n            abi.encodePacked(\n                _email,\n                \",\",\n                _feedback.year,\n                \",\",\n                _feedback.semester,\n                \",\",\n                _feedback.code\n            )\n        );\n\n        feedbacks[_feedback_Key].push(_feedback);\n        uint256 feedbackLen = feedbacks[_feedback_Key].length;\n\n        emit feedbackSubmitted(\n            _email,\n            feedbacks[_feedback_Key][feedbackLen - 1]\n        );\n\n        for (uint256 j = 0; j < _feedback.skills.length; j++) {\n            bytes32 skill_Key = keccak256(\n                abi.encodePacked(_email, \",\", _feedback.skills[j])\n            );\n            skillsCount[skill_Key]++;\n        }\n\n        emit skillsUpvoted(_email, getSkillsUpvote(_email));\n\n        professorDetail[_email].rating = updatedRating;\n        emit ratingUpdated(_email, updatedRating);\n\n        uint256 percentage = 3;\n        if (\n            courses[course_Key][coursePos].studentCount <= 3 ||\n            feedbackLen <=\n            (courses[course_Key][coursePos].studentCount / percentage)\n        ) bhuToken.transfer(msg.sender, earlyFeedbackCost);\n        else bhuToken.transfer(msg.sender, lateFeedbackCost);\n        emit balanceUpdated(msg.sender, bhuToken.balanceOf(msg.sender));\n    }\n\n    function buyItems(uint256 cost) public {\n        //require(checkBalance(msg.sender) >= 1, \"Insufficent tokens\");\n        bhuToken.transferFrom(msg.sender, address(this), cost);\n        emit balanceUpdated(msg.sender, bhuToken.balanceOf(msg.sender));\n    }\n}\n",
  "sourcePath": "/home/kishan/Desktop/projects/feedback-dapp/contracts/FeedbackData.sol",
  "compiler": {
    "name": "solc",
    "version": "0.8.11+commit.d7f03943.Emscripten.clang"
  },
  "schemaVersion": "3.4.6",
  "updatedAt": "2022-04-08T19:43:25.748Z",
  "networkType": "ethereum",
  "devdoc": {
    "kind": "dev",
    "methods": {},
    "version": 1
  },
  "userdoc": {
    "kind": "user",
    "methods": {},
    "version": 1
  }
}