{
  "contractName": "Utils",
  "abi": [
    {
      "inputs": [
        {
          "internalType": "string",
          "name": "a",
          "type": "string"
        },
        {
          "internalType": "string",
          "name": "b",
          "type": "string"
        }
      ],
      "name": "compareStrings",
      "outputs": [
        {
          "internalType": "bool",
          "name": "",
          "type": "bool"
        }
      ],
      "stateMutability": "pure",
      "type": "function"
    },
    {
      "inputs": [
        {
          "internalType": "bytes32",
          "name": "a",
          "type": "bytes32"
        },
        {
          "internalType": "bytes32",
          "name": "b",
          "type": "bytes32"
        }
      ],
      "name": "compareBytes32",
      "outputs": [
        {
          "internalType": "bool",
          "name": "",
          "type": "bool"
        }
      ],
      "stateMutability": "pure",
      "type": "function"
    },
    {
      "inputs": [
        {
          "internalType": "uint16",
          "name": "year",
          "type": "uint16"
        }
      ],
      "name": "isLeapYear",
      "outputs": [
        {
          "internalType": "bool",
          "name": "",
          "type": "bool"
        }
      ],
      "stateMutability": "pure",
      "type": "function"
    },
    {
      "inputs": [
        {
          "internalType": "uint256",
          "name": "year",
          "type": "uint256"
        }
      ],
      "name": "leapYearsBefore",
      "outputs": [
        {
          "internalType": "uint256",
          "name": "",
          "type": "uint256"
        }
      ],
      "stateMutability": "pure",
      "type": "function"
    },
    {
      "inputs": [
        {
          "internalType": "uint8",
          "name": "month",
          "type": "uint8"
        },
        {
          "internalType": "uint16",
          "name": "year",
          "type": "uint16"
        }
      ],
      "name": "getDaysInMonth",
      "outputs": [
        {
          "internalType": "uint8",
          "name": "",
          "type": "uint8"
        }
      ],
      "stateMutability": "pure",
      "type": "function"
    },
    {
      "inputs": [
        {
          "internalType": "uint256",
          "name": "timestamp",
          "type": "uint256"
        }
      ],
      "name": "getYear",
      "outputs": [
        {
          "internalType": "uint16",
          "name": "",
          "type": "uint16"
        }
      ],
      "stateMutability": "pure",
      "type": "function"
    },
    {
      "inputs": [
        {
          "internalType": "uint256",
          "name": "timestamp",
          "type": "uint256"
        }
      ],
      "name": "getMonth",
      "outputs": [
        {
          "internalType": "uint8",
          "name": "",
          "type": "uint8"
        }
      ],
      "stateMutability": "pure",
      "type": "function"
    },
    {
      "inputs": [
        {
          "internalType": "uint256",
          "name": "timestamp",
          "type": "uint256"
        }
      ],
      "name": "getDay",
      "outputs": [
        {
          "internalType": "uint8",
          "name": "",
          "type": "uint8"
        }
      ],
      "stateMutability": "pure",
      "type": "function"
    },
    {
      "inputs": [
        {
          "internalType": "uint256",
          "name": "timestamp",
          "type": "uint256"
        }
      ],
      "name": "getHour",
      "outputs": [
        {
          "internalType": "uint8",
          "name": "",
          "type": "uint8"
        }
      ],
      "stateMutability": "pure",
      "type": "function"
    },
    {
      "inputs": [
        {
          "internalType": "uint256",
          "name": "timestamp",
          "type": "uint256"
        }
      ],
      "name": "getMinute",
      "outputs": [
        {
          "internalType": "uint8",
          "name": "",
          "type": "uint8"
        }
      ],
      "stateMutability": "pure",
      "type": "function"
    },
    {
      "inputs": [
        {
          "internalType": "uint256",
          "name": "timestamp",
          "type": "uint256"
        }
      ],
      "name": "getSecond",
      "outputs": [
        {
          "internalType": "uint8",
          "name": "",
          "type": "uint8"
        }
      ],
      "stateMutability": "pure",
      "type": "function"
    },
    {
      "inputs": [
        {
          "internalType": "uint256",
          "name": "timestamp",
          "type": "uint256"
        }
      ],
      "name": "getWeekday",
      "outputs": [
        {
          "internalType": "uint8",
          "name": "",
          "type": "uint8"
        }
      ],
      "stateMutability": "pure",
      "type": "function"
    },
    {
      "inputs": [
        {
          "internalType": "uint16",
          "name": "year",
          "type": "uint16"
        },
        {
          "internalType": "uint8",
          "name": "month",
          "type": "uint8"
        },
        {
          "internalType": "uint8",
          "name": "day",
          "type": "uint8"
        },
        {
          "internalType": "uint8",
          "name": "hour",
          "type": "uint8"
        },
        {
          "internalType": "uint8",
          "name": "minute",
          "type": "uint8"
        }
      ],
      "name": "toTimestamp",
      "outputs": [
        {
          "internalType": "uint256",
          "name": "timestamp",
          "type": "uint256"
        }
      ],
      "stateMutability": "pure",
      "type": "function"
    },
    {
      "inputs": [
        {
          "internalType": "uint16",
          "name": "year",
          "type": "uint16"
        },
        {
          "internalType": "uint8",
          "name": "month",
          "type": "uint8"
        },
        {
          "internalType": "uint8",
          "name": "day",
          "type": "uint8"
        },
        {
          "internalType": "uint8",
          "name": "hour",
          "type": "uint8"
        }
      ],
      "name": "toTimestamp",
      "outputs": [
        {
          "internalType": "uint256",
          "name": "timestamp",
          "type": "uint256"
        }
      ],
      "stateMutability": "pure",
      "type": "function"
    },
    {
      "inputs": [
        {
          "internalType": "uint16",
          "name": "year",
          "type": "uint16"
        },
        {
          "internalType": "uint8",
          "name": "month",
          "type": "uint8"
        },
        {
          "internalType": "uint8",
          "name": "day",
          "type": "uint8"
        }
      ],
      "name": "toTimestamp",
      "outputs": [
        {
          "internalType": "uint256",
          "name": "timestamp",
          "type": "uint256"
        }
      ],
      "stateMutability": "pure",
      "type": "function"
    },
    {
      "inputs": [
        {
          "internalType": "uint16",
          "name": "year",
          "type": "uint16"
        },
        {
          "internalType": "uint8",
          "name": "month",
          "type": "uint8"
        },
        {
          "internalType": "uint8",
          "name": "day",
          "type": "uint8"
        },
        {
          "internalType": "uint8",
          "name": "hour",
          "type": "uint8"
        },
        {
          "internalType": "uint8",
          "name": "minute",
          "type": "uint8"
        },
        {
          "internalType": "uint8",
          "name": "second",
          "type": "uint8"
        }
      ],
      "name": "toTimestamp",
      "outputs": [
        {
          "internalType": "uint256",
          "name": "timestamp",
          "type": "uint256"
        }
      ],
      "stateMutability": "pure",
      "type": "function"
    }
  ],
  "bytecode": "0x608060405234801561001057600080fd5b50610ef9806100206000396000f3fe608060405234801561001057600080fd5b50600436106101005760003560e01c80639054bdec11610097578063b199993711610066578063b199993714610231578063b238ad0e14610244578063bed34bba14610257578063fa93f8831461026a57600080fd5b80639054bdec146101d257806392d66313146101e5578063a324ad241461020b578063a6f0e5771461021e57600080fd5b80637f791833116100d35780637f79183314610176578063824a2a4e146101895780638aa001fc146101ac5780638c8d98a0146101bf57600080fd5b80633e239e1a146101055780634ac1ad781461012f57806362ba96871461014257806365c7284014610163575b600080fd5b6101186101133660046109f8565b61027d565b60405160ff90911681526020015b60405180910390f35b61011861013d3660046109f8565b6102a7565b610155610150366004610a39565b6102c3565b604051908152602001610126565b6101186101713660046109f8565b6102de565b610155610184366004610a9e565b6102f3565b61019c610197366004610af2565b61030d565b6040519015158152602001610126565b6101186101ba3660046109f8565b610362565b6101556101cd366004610b14565b61036f565b6101556101e0366004610b57565b610389565b6101f86101f33660046109f8565b61053a565b60405161ffff9091168152602001610126565b6101186102193660046109f8565b61062a565b61019c61022c366004610bcb565b61063f565b61015561023f3660046109f8565b61069e565b610118610252366004610bed565b6106e3565b61019c610265366004610cc3565b6107a9565b6101186102783660046109f8565b6107e3565b60006018603c61028d8185610d53565b6102979190610d53565b6102a19190610d67565b92915050565b600060076102b86201518084610d53565b610297906004610d7b565b60006102d486868686866000610389565b9695505050505050565b60006102e9826107f1565b6040015192915050565b600061030485858585600080610389565b95945050505050565b60008160405160200161032291815260200190565b60408051601f19818403018152828252805160209182012090830186905291015b6040516020818303038152906040528051906020012014905092915050565b60006102a1603c83610d67565b60006103818484846000806000610389565b949350505050565b60006107b25b8761ffff168161ffff1610156103e5576103a88161063f565b156103c2576103bb6301e2850083610d7b565b91506103d3565b6103d06301e1338083610d7b565b91505b806103dd81610d93565b91505061038f565b6103ed6109d9565b601f81526103fa8961063f565b1561040b57601d6020820152610413565b601c60208201525b601f60408201819052601e606083018190526080830182905260a0830181905260c0830182905260e0830182905261010083018190526101208301829052610140830152610160820152600191505b8760ff168261ffff1610156104c4578061047d600184610dcb565b61ffff16600c811061049157610491610db5565b60200201516104a69060ff1662015180610dee565b6104b09084610d7b565b9250816104bc81610d93565b925050610462565b6104cf600188610e0d565b6104df9060ff1662015180610dee565b6104e99084610d7b565b92506104fa60ff8716610e10610dee565b6105049084610d7b565b925061051460ff8616603c610dee565b61051e9084610d7b565b925061052d60ff851684610d7b565b9998505050505050505050565b600080808061054d6301e1338086610d53565b610559906107b2610d7b565b91506105666107b261069e565b6105738361ffff1661069e565b61057d9190610e30565b905061058d816301e28500610dee565b6105979084610d7b565b9250806105a66107b284610dcb565b61ffff166105b49190610e30565b6105c2906301e13380610dee565b6105cc9084610d7b565b92505b84831115610622576105e561022c600184610dcb565b156105ff576105f86301e2850084610e30565b9250610610565b61060d6301e1338084610e30565b92505b61061b600183610dcb565b91506105cf565b509392505050565b6000610635826107f1565b6020015192915050565b600061064c600483610e47565b61ffff161561065d57506000919050565b610668606483610e47565b61ffff161561067957506001919050565b61068561019083610e47565b61ffff161561069657506000919050565b506001919050565b60006106ab600183610e30565b91506106b961019083610d53565b6106c4606484610d53565b6106cf600485610d53565b6106d99190610e30565b6102a19190610d7b565b60008260ff16600114806106fa57508260ff166003145b8061070857508260ff166005145b8061071657508260ff166007145b8061072457508260ff166008145b8061073257508260ff16600a145b8061074057508260ff16600c145b1561074d5750601f6102a1565b8260ff166004148061076257508260ff166006145b8061077057508260ff166009145b8061077e57508260ff16600b145b1561078b5750601e6102a1565b6107948261063f565b156107a15750601d6102a1565b50601c6102a1565b6000816040516020016107bc9190610e68565b60405160208183030381529060405280519060200120836040516020016103439190610e68565b6000603c6102978184610d53565b6040805160e081018252600080825260208201819052918101829052606081018290526080810182905260a0810182905260c081018290529080806108358561053a565b61ffff1684526108466107b261069e565b84516108559061ffff1661069e565b61085f9190610e30565b915061086f826301e28500610dee565b6108799084610d7b565b9250816107b2856000015161088e9190610dcb565b61ffff1661089c9190610e30565b6108aa906301e13380610dee565b6108b49084610d7b565b92506000600191505b600c8260ff1611610925576108d68286600001516106e3565b6108e69060ff1662015180610dee565b9050856108f38583610d7b565b11156109075760ff82166020860152610925565b6109118185610d7b565b93508161091d81610ea3565b9250506108bd565b600191505b61093c856020015186600001516106e3565b60ff168260ff161161098b57856109568562015180610d7b565b111561096a5760ff8216604086015261098b565b6109776201518085610d7b565b93508161098381610ea3565b92505061092a565b6109948661027d565b60ff1660608601526109a5866107e3565b60ff1660808601526109b686610362565b60ff1660a08601526109c7866102a7565b60ff1660c08601525092949350505050565b604051806101800160405280600c906020820280368337509192915050565b600060208284031215610a0a57600080fd5b5035919050565b803561ffff81168114610a2357600080fd5b919050565b803560ff81168114610a2357600080fd5b600080600080600060a08688031215610a5157600080fd5b610a5a86610a11565b9450610a6860208701610a28565b9350610a7660408701610a28565b9250610a8460608701610a28565b9150610a9260808701610a28565b90509295509295909350565b60008060008060808587031215610ab457600080fd5b610abd85610a11565b9350610acb60208601610a28565b9250610ad960408601610a28565b9150610ae760608601610a28565b905092959194509250565b60008060408385031215610b0557600080fd5b50508035926020909101359150565b600080600060608486031215610b2957600080fd5b610b3284610a11565b9250610b4060208501610a28565b9150610b4e60408501610a28565b90509250925092565b60008060008060008060c08789031215610b7057600080fd5b610b7987610a11565b9550610b8760208801610a28565b9450610b9560408801610a28565b9350610ba360608801610a28565b9250610bb160808801610a28565b9150610bbf60a08801610a28565b90509295509295509295565b600060208284031215610bdd57600080fd5b610be682610a11565b9392505050565b60008060408385031215610c0057600080fd5b610c0983610a28565b9150610c1760208401610a11565b90509250929050565b634e487b7160e01b600052604160045260246000fd5b600082601f830112610c4757600080fd5b813567ffffffffffffffff80821115610c6257610c62610c20565b604051601f8301601f19908116603f01168101908282118183101715610c8a57610c8a610c20565b81604052838152866020858801011115610ca357600080fd5b836020870160208301376000602085830101528094505050505092915050565b60008060408385031215610cd657600080fd5b823567ffffffffffffffff80821115610cee57600080fd5b610cfa86838701610c36565b93506020850135915080821115610d1057600080fd5b50610d1d85828601610c36565b9150509250929050565b634e487b7160e01b600052601260045260246000fd5b634e487b7160e01b600052601160045260246000fd5b600082610d6257610d62610d27565b500490565b600082610d7657610d76610d27565b500690565b60008219821115610d8e57610d8e610d3d565b500190565b600061ffff80831681811415610dab57610dab610d3d565b6001019392505050565b634e487b7160e01b600052603260045260246000fd5b600061ffff83811690831681811015610de657610de6610d3d565b039392505050565b6000816000190483118215151615610e0857610e08610d3d565b500290565b600060ff821660ff841680821015610e2757610e27610d3d565b90039392505050565b600082821015610e4257610e42610d3d565b500390565b600061ffff80841680610e5c57610e5c610d27565b92169190910692915050565b6000825160005b81811015610e895760208186018101518583015201610e6f565b81811115610e98576000828501525b509190910192915050565b600060ff821660ff811415610eba57610eba610d3d565b6001019291505056fea26469706673582212204434438119297185b17bcecde74e42ad211a46c9e46092f35158ebc830fabb1c64736f6c634300080b0033",
  "immutableReferences": {},
  "source": "// SPDX-License-Identifier: MIT\npragma solidity >=0.4.21 <8.10.0;\n\ncontract Utils {\n    /*\n     *  Date and Time utilities for ethereum contracts\n     *\n     */\n    struct _DateTime {\n        uint16 year;\n        uint8 month;\n        uint8 day;\n        uint8 hour;\n        uint8 minute;\n        uint8 second;\n        uint8 weekday;\n    }\n\n    uint256 constant DAY_IN_SECONDS = 86400;\n    uint256 constant YEAR_IN_SECONDS = 31536000;\n    uint256 constant LEAP_YEAR_IN_SECONDS = 31622400;\n\n    uint256 constant HOUR_IN_SECONDS = 3600;\n    uint256 constant MINUTE_IN_SECONDS = 60;\n\n    uint16 constant ORIGIN_YEAR = 1970;\n\n    function compareStrings(string memory a, string memory b)\n        public\n        pure\n        returns (bool)\n    {\n        return (keccak256(abi.encodePacked((a))) ==\n            keccak256(abi.encodePacked((b))));\n    }\n\n    function compareBytes32(bytes32 a, bytes32 b) public pure returns (bool) {\n        return (keccak256(abi.encodePacked(a)) ==\n            keccak256(abi.encodePacked(b)));\n    }\n\n    function isLeapYear(uint16 year) public pure returns (bool) {\n        if (year % 4 != 0) {\n            return false;\n        }\n        if (year % 100 != 0) {\n            return true;\n        }\n        if (year % 400 != 0) {\n            return false;\n        }\n        return true;\n    }\n\n    function leapYearsBefore(uint256 year) public pure returns (uint256) {\n        year -= 1;\n        return year / 4 - year / 100 + year / 400;\n    }\n\n    function getDaysInMonth(uint8 month, uint16 year)\n        public\n        pure\n        returns (uint8)\n    {\n        if (\n            month == 1 ||\n            month == 3 ||\n            month == 5 ||\n            month == 7 ||\n            month == 8 ||\n            month == 10 ||\n            month == 12\n        ) {\n            return 31;\n        } else if (month == 4 || month == 6 || month == 9 || month == 11) {\n            return 30;\n        } else if (isLeapYear(year)) {\n            return 29;\n        } else {\n            return 28;\n        }\n    }\n\n    function parseTimestamp(uint256 timestamp)\n        internal\n        pure\n        returns (_DateTime memory dt)\n    {\n        uint256 secondsAccountedFor = 0;\n        uint256 buf;\n        uint8 i;\n\n        // Year\n        dt.year = getYear(timestamp);\n        buf = leapYearsBefore(dt.year) - leapYearsBefore(ORIGIN_YEAR);\n\n        secondsAccountedFor += LEAP_YEAR_IN_SECONDS * buf;\n        secondsAccountedFor += YEAR_IN_SECONDS * (dt.year - ORIGIN_YEAR - buf);\n\n        // Month\n        uint256 secondsInMonth;\n        for (i = 1; i <= 12; i++) {\n            secondsInMonth = DAY_IN_SECONDS * getDaysInMonth(i, dt.year);\n            if (secondsInMonth + secondsAccountedFor > timestamp) {\n                dt.month = i;\n                break;\n            }\n            secondsAccountedFor += secondsInMonth;\n        }\n\n        // Day\n        for (i = 1; i <= getDaysInMonth(dt.month, dt.year); i++) {\n            if (DAY_IN_SECONDS + secondsAccountedFor > timestamp) {\n                dt.day = i;\n                break;\n            }\n            secondsAccountedFor += DAY_IN_SECONDS;\n        }\n\n        // Hour\n        dt.hour = getHour(timestamp);\n\n        // Minute\n        dt.minute = getMinute(timestamp);\n\n        // Second\n        dt.second = getSecond(timestamp);\n\n        // Day of week.\n        dt.weekday = getWeekday(timestamp);\n    }\n\n    function getYear(uint256 timestamp) public pure returns (uint16) {\n        uint256 secondsAccountedFor = 0;\n        uint16 year;\n        uint256 numLeapYears;\n\n        // Year\n        year = uint16(ORIGIN_YEAR + timestamp / YEAR_IN_SECONDS);\n        numLeapYears = leapYearsBefore(year) - leapYearsBefore(ORIGIN_YEAR);\n\n        secondsAccountedFor += LEAP_YEAR_IN_SECONDS * numLeapYears;\n        secondsAccountedFor +=\n            YEAR_IN_SECONDS *\n            (year - ORIGIN_YEAR - numLeapYears);\n\n        while (secondsAccountedFor > timestamp) {\n            if (isLeapYear(uint16(year - 1))) {\n                secondsAccountedFor -= LEAP_YEAR_IN_SECONDS;\n            } else {\n                secondsAccountedFor -= YEAR_IN_SECONDS;\n            }\n            year -= 1;\n        }\n        return year;\n    }\n\n    function getMonth(uint256 timestamp) public pure returns (uint8) {\n        return parseTimestamp(timestamp).month;\n    }\n\n    function getDay(uint256 timestamp) public pure returns (uint8) {\n        return parseTimestamp(timestamp).day;\n    }\n\n    function getHour(uint256 timestamp) public pure returns (uint8) {\n        return uint8((timestamp / 60 / 60) % 24);\n    }\n\n    function getMinute(uint256 timestamp) public pure returns (uint8) {\n        return uint8((timestamp / 60) % 60);\n    }\n\n    function getSecond(uint256 timestamp) public pure returns (uint8) {\n        return uint8(timestamp % 60);\n    }\n\n    function getWeekday(uint256 timestamp) public pure returns (uint8) {\n        return uint8((timestamp / DAY_IN_SECONDS + 4) % 7);\n    }\n\n    function toTimestamp(\n        uint16 year,\n        uint8 month,\n        uint8 day\n    ) public pure returns (uint256 timestamp) {\n        return toTimestamp(year, month, day, 0, 0, 0);\n    }\n\n    function toTimestamp(\n        uint16 year,\n        uint8 month,\n        uint8 day,\n        uint8 hour\n    ) public pure returns (uint256 timestamp) {\n        return toTimestamp(year, month, day, hour, 0, 0);\n    }\n\n    function toTimestamp(\n        uint16 year,\n        uint8 month,\n        uint8 day,\n        uint8 hour,\n        uint8 minute\n    ) public pure returns (uint256 timestamp) {\n        return toTimestamp(year, month, day, hour, minute, 0);\n    }\n\n    function toTimestamp(\n        uint16 year,\n        uint8 month,\n        uint8 day,\n        uint8 hour,\n        uint8 minute,\n        uint8 second\n    ) public pure returns (uint256 timestamp) {\n        uint16 i;\n\n        // Year\n        for (i = ORIGIN_YEAR; i < year; i++) {\n            if (isLeapYear(i)) {\n                timestamp += LEAP_YEAR_IN_SECONDS;\n            } else {\n                timestamp += YEAR_IN_SECONDS;\n            }\n        }\n\n        // Month\n        uint8[12] memory monthDayCounts;\n        monthDayCounts[0] = 31;\n        if (isLeapYear(year)) {\n            monthDayCounts[1] = 29;\n        } else {\n            monthDayCounts[1] = 28;\n        }\n        monthDayCounts[2] = 31;\n        monthDayCounts[3] = 30;\n        monthDayCounts[4] = 31;\n        monthDayCounts[5] = 30;\n        monthDayCounts[6] = 31;\n        monthDayCounts[7] = 31;\n        monthDayCounts[8] = 30;\n        monthDayCounts[9] = 31;\n        monthDayCounts[10] = 30;\n        monthDayCounts[11] = 31;\n\n        for (i = 1; i < month; i++) {\n            timestamp += DAY_IN_SECONDS * monthDayCounts[i - 1];\n        }\n\n        // Day\n        timestamp += DAY_IN_SECONDS * (day - 1);\n\n        // Hour\n        timestamp += HOUR_IN_SECONDS * (hour);\n\n        // Minute\n        timestamp += MINUTE_IN_SECONDS * (minute);\n\n        // Second\n        timestamp += second;\n\n        return timestamp;\n    }\n}\n",
  "sourcePath": "/home/kishan/Desktop/projects/feedback-dapp/contracts/Utils.sol",
  "compiler": {
    "name": "solc",
    "version": "0.8.11+commit.d7f03943.Emscripten.clang"
  },
  "schemaVersion": "3.4.5",
  "updatedAt": "2022-03-09T16:49:35.875Z",
  "devdoc": {
    "kind": "dev",
    "methods": {},
    "version": 1
  },
  "userdoc": {
    "kind": "user",
    "methods": {},
    "version": 1
  }
}